00097500                                                                      00000400 835895       00250000NYMDGCATNFUCSIA                   20090213
00099500                                                                      00001400 835318       00272726NYMDGCATNPAPIGRAPH                20090211
00099500                                                                      00000600 835664       00138065NNMDGS02YFIDUCIAL BUREAUTIQUE     20090211
00099500                                                                      00000600 829387       00374100NYMDGCATNSELECT REUNION BURO S    20090212
00099500                                                                      00001600 834084       00193397NNMDGSYAYSACFOM (CENTRALE)        20090212
00099500                                                                      00002600 836067       00193003NNMDGSYGYSPICERS                  20090212
00099500                                                                      00002400 836404       00138065NNMDGS02YFIDUCIAL BUREAUTIQUE     20090218
002001-17                                                                     00000040 828445       00169100NNMDGSYAYLYON BUREAU              20090226
002001-17                                                                     00000480 832110       00127016NNMDGSYGNRP DIFFUSION VR AUBEV    20090226
002001-17                                                                     00000040 829248       00159044NNMDGJOSYBASQUIN CANONNE          20090319
002001-17                                                                     00000240 832445       00169250NNMDGSYGNRP DIFFUSION - LYON      20090330
002001-17                                                                     00000480 832278       00127016NNMDGSYGNRP DIFFUSION VR AUBEV    20090402
002001-17                                                                     00000040 835967       00106602NNMDGSYTYPRIVAT SORBONNE-NICE     20090427
002001-17                                                                     00000040 830182       00177008NNMDGJOSYAMYOT J.                 20090429
002001-17                                                                     00000240 832291       00127016NNMDGSYGNRP DIFFUSION VR AUBEV    20090429
002001-17                                                                     00000240 832452       00169250NNMDGSYGNRP DIFFUSION - LYON      20090429
002001-17                                                                     00000040 836439       00174506NYMDGSYTNLIVRES & CO ANNEMASSE    20090429
002001-17                                                                     00000040 836634       00102201NYMDGS03YBUREAU 02                20090429
002001-17                                                                     00000040 835948       00135300NNMDGSYAYBURO POLE                20090430
002001-17                                                                     00000040 835638       00106603NYMDGSYTYPRIVAT SORBONNE-CANNE    20090506
002001-17                                                                     00000280 830703       00175003NNMDGJOSNLAMARTINE                20090527
002001-17                                                                     00045400 834671       00197011NNMDGCPXYGALEC                    20090528
002001-17                                                                     00000240 832591       00169250NNMDGSYGNRP DIFFUSION - LYON      20090601
002001-17                                                                     00000240 832598       00169250NNMDGSYGNRP DIFFUSION - LYON      20090629
002001-17                                                                     00000120 834203       00146034NNMDGCPXNSOCAPDIS CENTRE LECLE    20090629
002001-17                                                                     00000280 830749       00175003NNMDGJOSNLAMARTINE                20090722
00275010                                                                      00000100 835690       00160065NNMDGCOLNOFFICE DEPOT BS SAS      20090206
00275010                                                                      00000030 835710       00191017NNMDGS02YCORPORATE EXPRESS FRA    20090206
00275010                                                                      00000020 835738       00191017NNMDGS02YCORPORATE EXPRESS FRA    20090209
00275010                                                                      00000200 835692       00160065NNMDGCOLNOFFICE DEPOT BS SAS      20090213
00275400                                                                      00000005 834026       00182067NNMDGSYGYDIFPAP                   20090206
00275400                                                                      00000075 834084       00193397NNMDGSYAYSACFOM (CENTRALE)        20090212
00275400                                                                      00000100 836602       00160065NNMDGCOLNOFFICE DEPOT BS SAS      20090213
00275400                                                                      00000150 836482       00153041NNMDGCOLYLYRECO FRANCE            20090217
00275400                                                                      00000050 836589       00160065NNMDGCOLNOFFICE DEPOT BS SAS      20090220
00275400                                                                      00000100 835741       00272725NYMDGCATNLIBRAIRIE DE FRANCE G    20090424
00275440                                                                      00000005 836303       00145165NNMDGCOLYVIKING DIRECT            20090209
00275440                                                                      00000015 836313       00193003NNMDGSYGYSPICERS                  20090212
00275440                                                                      00000100 835741       00272725NYMDGCATNLIBRAIRIE DE FRANCE G    20090424
00293502                                                                      00000060 834587       00820051NYMDGCATNPAPETERIE AS DE TREFL    20090210
00322901                                                                      00000048 834587       00820051NYMDGCATNPAPETERIE AS DE TREFL    20090210
00322901                                                                      00000024 835019       00183107NNMDGJOSYPAPETERIE REMY           20090504
005282-17                                                                     00000012 836441       00184000NNMDGCPXNAVIROC CENTRE LECLERC    20090206
005282-17                                                                     00000012 836443       00184114NNMDGCPXNAUZON VENTOUX CENTRE     20090206
005282-17                                                                     00000012 836512       00144055NNMDGNGONST HERBLAIN DIST.CTR     20090206
005282-17                                                                     00000024 836587       00159381NNMDGSYTNLE FURET DU NORD LILL    20090206
005282-17                                                                     00000036 836274       00121601NNMDGCPXNPLATE FORME CORA LONG    20090209
005282-17                                                                     00000012 836645       00106111NNMDGNGONMELHODI CENTRE LECLER    20090209
005282-17                                                                     00000180 834587       00820051NYMDGCATNPAPETERIE AS DE TREFL    20090210
005282-17                                                                     00000576 832097       00127016NNMDGSYGNRP DIFFUSION VR AUBEV    20090226
005282-17                                                                     00000144 832446       00169250NNMDGSYGNRP DIFFUSION - LYON      20090226
005282-17                                                                     00000264 836230       00496710NNMDGCATNACODIS                   20090327
005282-17                                                                     00000144 832445       00169250NNMDGSYGNRP DIFFUSION - LYON      20090330
005282-17                                                                     00000576 832270       00127016NNMDGSYGNRP DIFFUSION VR AUBEV    20090402
005282-17                                                                     00000012 833071       00138073NNMDGJOSYLIBRAIRIE-PAP. BLANCH    20090403
005282-17                                                                     00000012 836130       00264950NYMDGCATNLIBRAIRIE BUFALO         20090423
005282-17                                                                     00000720 835531       00272725NYMDGCATNLIBRAIRIE DE FRANCE G    20090424
005282-17                                                                     00000036 830182       00177008NNMDGJOSYAMYOT J.                 20090429
005282-17                                                                     00000144 832452       00169250NNMDGSYGNRP DIFFUSION - LYON      20090429
005282-17                                                                     00000036 835202       00114164NNMDGS03YPLEIN CIEL POINT VIRG    20090430
005282-17                                                                     00000012 836650       00130098NYMDGS03YLIB-PAP. GOYARD          20090430
005282-17                                                                     00000024 834717       00126337NNMDGSYTYLIVRES & CO BAUME        20090504
005282-17                                                                     00000024 836059       00162219NYMDGJOSYGERAULT JP               20090504
005282-17                                                                     00000048 830703       00175003NNMDGJOSNLAMARTINE                20090527
005282-17                                                                     00000576 832591       00169250NNMDGSYGNRP DIFFUSION - LYON      20090601
005282-17                                                                     00000036 835633       00106601NYMDGSYTYPRIVAT SORBONNE-ANTIB    20090625
005282-17                                                                     00000432 832598       00169250NNMDGSYGNRP DIFFUSION - LYON      20090629
005282-17                                                                     00000048 835332       00173012NNMDGJOSYLIBRAIRIE DES BAUGES     20090709
005282-17                                                                     00000072 830749       00175003NNMDGJOSNLAMARTINE                20090722
005284-17                                                                     00000027 835895       00250000NYMDGCATNFUCSIA                   20090213
005284-17                                                                     00000225 835531       00272725NYMDGCATNLIBRAIRIE DE FRANCE G    20090424
005284-17                                                                     00000036 830182       00177008NNMDGJOSYAMYOT J.                 20090429
005284-17                                                                     00000018 835202       00114164NNMDGS03YPLEIN CIEL POINT VIRG    20090430
005284-17                                                                     00000009 836059       00162219NYMDGJOSYGERAULT JP               20090504
005284-17                                                                     00000018 834848       00162312NNMDGSYAYHYPERBURO LONGUENESSE    20090505
005284-17                                                                     00000018 834707       00189124NNMDGS03YVOILLOT                  20090518
00528409-17                                                                   00000250 836115       00144023NNMDGCPXNANCENIS CENTRE LECLER    20090610
00528409-17                                                                   00000150 832579       00176173NNMDGPPANCITADIS CENTRE LECLER    20090611
00528409-17                                                                   00000050 836181       00144150NNMDGCPXNBRIANDIS CENTRE LECLE    20090612
00528409-17                                                                   00000400 836450       00144090NNMDGNGONPARIS DISTR. CTRE LEC    20090612
00528409-17                                                                   00000050 834194       00137149NNMDGCPXNLA MONTGOLFIERE CTRE     20090616
00528409-17                                                                   00000200 836066       00135097NNMDGCPXNSODIRENNES CENTRE LEC    20090616
00528409-17                                                                   00000100 833511       00114129NNMDGCPXNLISIEUX DISTR.CTRE LE    20090617
00528409-17                                                                   00000100 832907       00156145NNMDGCPXNVADIS CENTRE LECLERC     20090618
00528409-17                                                                   00000100 833189       00114200NNMDGCPXNVAUDRY DISTR. CTRE LE    20090618
00528409-17                                                                   00000050 834739       00130133NNMDGCPXNANGLEDIS CENTRE LECLE    20090618
00528409-17                                                                   00000300 833507       00185149NNMDGCPXNSODIROCHE CENTRE LECL    20090619
00528409-17                                                                   00000200 835973       00150015NNMDGCPXNAGNEAUX DISTR CTRE LE    20090619
00528409-17                                                                   00000100 834729       00130133NNMDGCPXNANGLEDIS CENTRE LECLE    20090623
00528409-17                                                                   00000100 836461       00192304NNMDGCPXYLEVALLOIS EXPLOITATIO    20090623
00528409-17                                                                   00000100 836466       00193500NNMDGCPXYPANTIN DISTR CTRE LEC    20090623
00528409-17                                                                   00000050 833556       00111000NNMDGCPXNT.P.L.M.CENTRE LECLER    20090624
00528409-17                                                                   00000150 836499       00185057NNMDGNGONSODIVARDIERE CENTRE L    20090626
00528409-17                                                                   00000100 832575       00176215NNMDGPPANYVETODIS CENTRE LECLE    20090629
00528409-17                                                                   00000050 833499       00133319NNMDGCPXNPESSAC DISTR. CTRE LE    20090629
00528409-17                                                                   00000150 833915       00104004NNMDGCPXNSODIALPES CENTRE LECL    20090629
00528409-17                                                                   00000050 834203       00146034NNMDGCPXNSOCAPDIS CENTRE LECLE    20090629
00528409-17                                                                   00000200 832676       00179118NNMDGCPXNBOCAGE DISTR CTRE LEC    20090630
00528409-17                                                                   00000050 833628       00113256NNMDGCPXNSODISTRES CENTRE LECL    20090630
00528409-17                                                                   00000050 834008       00183499NNMDGCPXNLA SEYDIS CENTRE LECL    20090630
00528409-17                                                                   00000100 836189       00182002NNMDGCPXNAUDIS CENTRE LECLERC     20090630
00528409-17                                                                   00000050 836375       00113601NNMDGCPXNSALONDIS CENTRE LECLE    20090630
00528409-17                                                                   00000100 832691       00141029NNMDGCPXNSOBLEDIS CENTRE LECLE    20090701
00528409-17                                                                   00000050 833533       00166044NNMDGCPXNVERNET DIS               20090701
00528409-17                                                                   00000050 833629       00113274NNMDGCPXNCENTRE LECLERC MARSEI    20090701
00528409-17                                                                   00000100 834369       00106210NNMDGCPXNNIKAIADIS II CENTRE L    20090701
00528409-17                                                                   00000100 835080       00144031NNMDGNGONNANTES NORD DIST.CTR     20090701
00528409-17                                                                   00000050 836380       00183044NNMDGCPXNSODILUC CENTRE LECLER    20090701
00528409-17                                                                   00000300 835171       00133315NNMDGCPXNHYPER COSMOS CENTRE L    20090702
00528409-17                                                                   00000050 836149       00135098NNMDGCPXNSA FOUGERES DISTRIBUT    20090702
00528409-17                                                                   00000100 836151       00144160NNMDGCPXNBRIERE DISTR. CTRE LE    20090702
00528409-17                                                                   00000200 836198       00184500NNMDGCPXNBOLDIS CENTRE LECLERC    20090702
00528409-17                                                                   00000100 832678       00185148NNMDGCPXNSODINOVE CENTRE LECLE    20090703
00528409-17                                                                   00000050 832697       00177084NNMDGCPXNMAVIDIS CENTRE LECLER    20090703
00528409-17                                                                   00000100 834531       00153008NNMDGCPXNAZEDIS CENTRE LECLERC    20090703
00528409-17                                                                   00000050 832684       00114132NNMDGCPXNTOUQUES DISTR CTRE LE    20090706
00528409-17                                                                   00000050 833581       00113256NNMDGCPXNSODISTRES CENTRE LECL    20090706
00528409-17                                                                   00000300 835176       00185170NNMDGNGONOUDAIRIDIS CENTRE LEC    20090706
00528409-17                                                                   00000050 833573       00113274NNMDGCPXNCENTRE LECLERC MARSEI    20090707
00528409-17                                                                   00000100 834456       00133317NNMDGCPXNLANGON DISTR. CTRE LE    20090707
00528409-17                                                                   00000050 836173       00144145NNMDGCPXNSODIJOUR CENTRE LECLE    20090707
00528409-17                                                                   00000200 833497       00185900NNMDGCPXNSODILONNE CENTRE LECL    20090708
00528409-17                                                                   00000050 835984       00149033NNMDGCPXNGOURONNIERES DIST.C.L    20090710
00528409-17                                                                   00000050 836440       00113300NNMDGNGONTUILLIERES DIS.CTRE L    20090710
00528409-17                                                                   00000050 836452       00106111NNMDGCPXYMELHODI CENTRE LECLER    20090722
00528409-17                                                                   00000050 836377       00113601NNMDGCPXNSALONDIS CENTRE LECLE    20090724
00528409-17                                                                   00000050 836435       00106111NNMDGCPXYMELHODI CENTRE LECLER    20090804
00531401                                                                      00000005 834906       00182067NNMDGSYGYDIFPAP                   20090206
00531401                                                                      00000020 836279       00127016NNMDGSYGNRP DIFFUSION VR AUBEV    20090206
00531401                                                                      00000010 836541       00113193NNMDGSYAYPAP DU COMMERCE          20090206
00531401                                                                      00000015 836600       00173500NNMDGS03YLA PAPETERIE SA          20090206
00531401                                                                      00000080 836303       00145165NNMDGCOLYVIKING DIRECT            20090209
00531401                                                                      00000080 835928       00153041NNMDGCOLYLYRECO FRANCE            20090211
00531401                                                                      00000160 835935       00153041NNMDGCOLYLYRECO FRANCE            20090211
00531401                                                                      00000250 834084       00193397NNMDGSYAYSACFOM (CENTRALE)        20090212
00531401                                                                      00000160 836313       00193003NNMDGSYGYSPICERS                  20090212
00531401                                                                      00000005 836130       00264950NYMDGCATNLIBRAIRIE BUFALO         20090423
00531441                                                                      00000080 836067       00193003NNMDGSYGYSPICERS                  20090212
00531441                                                                      00000005 836130       00264950NYMDGCATNLIBRAIRIE BUFALO         20090423
00654502                                                                      00004000 836067       00193003NNMDGSYGYSPICERS                  20090212
00669503                                                                      00002000 836654       00160065NNMDGCOLYOFFICE DEPOT BS SAS      20090211
00675-17                                                                      00000050 835713       00191017NNMDGS02YCORPORATE EXPRESS FRA    20090206
00964082                                                                      00000125 835051       00034600NNMDGSBONBANTEX A/S               20090212
01893080                                                                      00000240 836626       00003990NNMDGISANELBA OFFICE PRODUCTS     20090213
01897080                                                                      00000510 836311       00193003NNMDGSYGYSPICERS                  20090212
01901501                                                                      00000030 835590       00193003NNMDGSYGYSPICERS                  20090206
0191500-07                                                                    00000060 830537       00106063NYMDGELOYCARREFOUR HYPERMARCHE    20081230
0191500-07                                                                    00000024 835988       00145058NYMDGCPXNOLIVET DISTR CTRE LEC    20090203
0191500-07                                                                    00000012 836412       00133145NNMDGAGANCARREFOUR HYPERMARCHE    20090206
0191500-07                                                                    00000006 836441       00184000NNMDGCPXNAVIROC CENTRE LECLERC    20090206
0191500-07                                                                    00000012 834314       00162001NNMDGAGANAUCHAN BOULOGNE          20090217
0191500-07                                                                    00000006 833101       00181070NNMDGCPXNGAILLAC DISTRIB.CTRE     20090622
0191500-07                                                                    00000006 833556       00111000NNMDGCPXNT.P.L.M.CENTRE LECLER    20090624
0191500-07                                                                    00000012 833538       00147250NNMDGCPXNCENTRE LECLERC MARMAN    20090629
0191500-07                                                                    00000012 833915       00104004NNMDGCPXNSODIALPES CENTRE LECL    20090629
0191500-07                                                                    00000012 834203       00146034NNMDGCPXNSOCAPDIS CENTRE LECLE    20090629
0191500-07                                                                    00000006 836002       00111107NNMDGCPXNLIMOUX DISTR. CTRE LE    20090630
0191500-07                                                                    00000012 836189       00182002NNMDGCPXNAUDIS CENTRE LECLERC     20090630
0191500-07                                                                    00000006 836375       00113601NNMDGCPXNSALONDIS CENTRE LECLE    20090630
0191500-07                                                                    00000012 833533       00166044NNMDGCPXNVERNET DIS               20090701
0191500-07                                                                    00000006 833629       00113274NNMDGCPXNCENTRE LECLERC MARSEI    20090701
0191500-07                                                                    00000012 834369       00106210NNMDGCPXNNIKAIADIS II CENTRE L    20090701
0191500-07                                                                    00000006 836380       00183044NNMDGCPXNSODILUC CENTRE LECLER    20090701
0191500-07                                                                    00000012 835171       00133315NNMDGCPXNHYPER COSMOS CENTRE L    20090702
0191500-07                                                                    00000006 833573       00113274NNMDGCPXNCENTRE LECLERC MARSEI    20090707
0191500-07                                                                    00000018 834456       00133317NNMDGCPXNLANGON DISTR. CTRE LE    20090707
0191500-07                                                                    00000006 836440       00113300NNMDGNGONTUILLIERES DIS.CTRE L    20090710
0191500-07                                                                    00000006 835354       00183044NNMDGCPXNSODILUC CENTRE LECLER    20090715
0191500-07                                                                    00000006 836452       00106111NNMDGCPXYMELHODI CENTRE LECLER    20090722
0191500-07                                                                    00000006 836377       00113601NNMDGCPXNSALONDIS CENTRE LECLE    20090724
0191500-07                                                                    00000006 836435       00106111NNMDGCPXYMELHODI CENTRE LECLER    20090804
01918011                                                                      00000030 834830       00193003NNMDGSYGYSPICERS                  20090202
01918011                                                                      00000020 835570       00113810NNMDGCOLYVIKING DIRECT            20090202
01918011                                                                      00000100 836071       00145165NNMDGCOLYVIKING DIRECT            20090205
01918011                                                                      00000005 836433       00100064NNMDGJOSYGDE PAP.DE MONTE CARL    20090205
01918011                                                                      00000005 836451       00175306NNMDGJOSYGIBERT JOSEPH VITRY      20090206
01918011                                                                      00000005 836600       00173500NNMDGS03YLA PAPETERIE SA          20090206
01918011                                                                      00000300 833804       00160065NNMDGCOLNOFFICE DEPOT BS SAS      20090223
01943501                                                                      00002000 836541       00113193NNMDGSYAYPAP DU COMMERCE          20090206
01961031                                                                      00000005 836541       00113193NNMDGSYAYPAP DU COMMERCE          20090206
01961031                                                                      00000040 834084       00193397NNMDGSYAYSACFOM (CENTRALE)        20090212
01961031                                                                      00000005 836130       00264950NYMDGCATNLIBRAIRIE BUFALO         20090423
02057081                                                                      00000120 835590       00193003NNMDGSYGYSPICERS                  20090206
02057081                                                                      00000040 836378       00154138NYMDGSYAYETS SCHALLER TT POUR     20090206
02057081                                                                      00001000 836626       00003990NNMDGISANELBA OFFICE PRODUCTS     20090213
02121011                                                                      00000010 834906       00182067NNMDGSYGYDIFPAP                   20090206
02145011                                                                      00000012 836303       00145165NNMDGCOLYVIKING DIRECT            20090209
02145011                                                                      00000003 834587       00820051NYMDGCATNPAPETERIE AS DE TREFL    20090210
02145011                                                                      00000012 836623       00102188NNMDGSYGYM.D.S                    20090210
02145011                                                                      00000001 835633       00106601NYMDGSYTYPRIVAT SORBONNE-ANTIB    20090625
02147011                                                                      00000005 836286       00138700NNMDGS01YBUREAU VALLEE BOURGOU    20090206
02148011                                                                      00000010 835132       00193397NNMDGSYAYSACFOM (CENTRALE)        20090213
02148011                                                                      00000001 835634       00106603NNMDGSYTYPRIVAT SORBONNE-CANNE    20090218
02148011                                                                      00000010 835137       00193397NNMDGSYAYSACFOM (CENTRALE)        20090226
02177011                                                                      00000480 835690       00160065NNMDGCOLNOFFICE DEPOT BS SAS      20090206
02177011                                                                      00000510 835692       00160065NNMDGCOLNOFFICE DEPOT BS SAS      20090213
02177011                                                                      00000010 836567       00198635NNMDGSYTNBHV RIVOLI               20090213
02177011                                                                      00000030 835926       00263130NYMDGCATNLIBRAIRIE JEUNESSE D'    20090324
02177011                                                                      00000010 833071       00138073NNMDGJOSYLIBRAIRIE-PAP. BLANCH    20090403
02177011                                                                      00000020 835865       00462040NYMDGCATNLIBRAIRIE ANTILLAISE     20090415
02177011                                                                      00000100 835741       00272725NYMDGCATNLIBRAIRIE DE FRANCE G    20090424
02177011                                                                      00000010 836634       00102201NYMDGS03YBUREAU 02                20090429
02177011                                                                      00000010 835966       00106602NNMDGSYTYPRIVAT SORBONNE-NICE     20090504
02178081                                                                      00000300 836311       00193003NNMDGSYGYSPICERS                  20090212
02200011                                                                      00000004 836304       00113810NNMDGCOLYVIKING DIRECT            20090205
02200011                                                                      00000005 836402       00144032NNMDGSYANALTER BURO DISTRIBUTI    20090212
02200011                                                                      00000006 835132       00193397NNMDGSYAYSACFOM (CENTRALE)        20090213
02200011                                                                      00000008 836480       00153041NNMDGCOLYLYRECO FRANCE            20090213
02250961                                                                      00000010 835190       00127110NNMDGAGANS.D.E. CENTRE LECLERC    20090206
02250961                                                                      00000015 836412       00133145NNMDGAGANCARREFOUR HYPERMARCHE    20090206
02250961                                                                      00000025 836413       00102999NNMDGAGANCARREFOUR HYPERMARCHE    20090206
02250961                                                                      00000005 836443       00184114NNMDGCPXNAUZON VENTOUX CENTRE     20090206
02250961                                                                      00000010 836608       00163562NNMDGSYTYLES VOLCANS              20090209
02250961                                                                      00000050 835865       00462040NYMDGCATNLIBRAIRIE ANTILLAISE     20090415
02250961                                                                      00000005 835633       00106601NYMDGSYTYPRIVAT SORBONNE-ANTIB    20090625
02250961                                                                      00000020 833915       00104004NNMDGCPXNSODIALPES CENTRE LECL    20090629
02250961                                                                      00000005 836375       00113601NNMDGCPXNSALONDIS CENTRE LECLE    20090630
02250961                                                                      00000005 833629       00113274NNMDGCPXNCENTRE LECLERC MARSEI    20090701
02250961                                                                      00000015 834369       00106210NNMDGCPXNNIKAIADIS II CENTRE L    20090701
02250961                                                                      00000005 836380       00183044NNMDGCPXNSODILUC CENTRE LECLER    20090701
02250961                                                                      00000030 835171       00133315NNMDGCPXNHYPER COSMOS CENTRE L    20090702
02250961                                                                      00000035 835909       00167025NNMDGELOYCORA STRASBOURG          20090703
02250961                                                                      00000015 833573       00113274NNMDGCPXNCENTRE LECLERC MARSEI    20090707
02250961                                                                      00000020 836440       00113300NNMDGNGONTUILLIERES DIS.CTRE L    20090710
02250961                                                                      00000015 832903       00128017NNMDGCPXNAVREDIS CENTRE LECLER    20090715
02250961                                                                      00000015 835354       00183044NNMDGCPXNSODILUC CENTRE LECLER    20090715
02250961                                                                      00000005 836452       00106111NNMDGCPXYMELHODI CENTRE LECLER    20090722
02250961                                                                      00000015 836377       00113601NNMDGCPXNSALONDIS CENTRE LECLE    20090724
02250961                                                                      00000025 836435       00106111NNMDGCPXYMELHODI CENTRE LECLER    20090804
02250961                                                                      00000010 835861       00113601NNMDGCPXNSALONDIS CENTRE LECLE    20090814
02251081                                                                      00000020 836279       00127016NNMDGSYGNRP DIFFUSION VR AUBEV    20090206
02251081                                                                      00000050 834084       00193397NNMDGSYAYSACFOM (CENTRALE)        20090212
02251081                                                                      00000050 835137       00193397NNMDGSYAYSACFOM (CENTRALE)        20090226
02251961                                                                      00000005 834026       00182067NNMDGSYGYDIFPAP                   20090206
02251961                                                                      00000150 835935       00153041NNMDGCOLYLYRECO FRANCE            20090211
02251961                                                                      00000060 834084       00193397NNMDGSYAYSACFOM (CENTRALE)        20090212
02251961                                                                      00000150 835920       00153041NNMDGCOLYLYRECO FRANCE            20090212
02251961                                                                      00000070 836067       00193003NNMDGSYGYSPICERS                  20090212
04024-06                                                                      00000020 836512       00144055NNMDGNGONST HERBLAIN DIST.CTR     20090206
04024-06                                                                      00000020 836537       00140038NNMDGNGONSODILANDES CENTRE LEC    20090206
04024-06                                                                      00000020 836559       00133283NNMDGAGANSODICAR CENTRE LECLER    20090206
04024-06                                                                      00000020 836570       00149033NNMDGNGONGOURONNIERES DIST.C.L    20090206
04024-06                                                                      00000020 836606       00192304NNMDGNGONLEVALLOIS EXPLOITATIO    20090206
04024-06                                                                      00000020 836645       00106111NNMDGNGONMELHODI CENTRE LECLER    20090209
04024-06                                                                      00000480 836067       00193003NNMDGSYGYSPICERS                  20090212
04024-06                                                                      00000020 836130       00264950NYMDGCATNLIBRAIRIE BUFALO         20090423
04024-06                                                                      00000020 834170       00103005NNMDGCPXNMARAIS DIS SA CENTRE     20090610
04024-06                                                                      00000020 834172       00103004NNMDGCPXNMONTLUCON DISTR. C. L    20090610
04024-06                                                                      00000020 835357       00118024NNMDGNGONBOURGES DISTR CTRE LE    20090618
04024-06                                                                      00000020 836527       00189005NNMDGNGONAUXERDIS CENTRE LECLE    20090618
04024-06                                                                      00000020 836529       00158049NNMDGNGONDECIZE DISTR CTRE LEC    20090618
04024-06                                                                      00000060 833507       00185149NNMDGCPXNSODIROCHE CENTRE LECL    20090619
04024-06                                                                      00000040 836461       00192304NNMDGCPXYLEVALLOIS EXPLOITATIO    20090623
04024-06                                                                      00000080 836466       00193500NNMDGCPXYPANTIN DISTR CTRE LEC    20090623
04024-06                                                                      00000040 833538       00147250NNMDGCPXNCENTRE LECLERC MARMAN    20090629
04024-06                                                                      00000040 834203       00146034NNMDGCPXNSOCAPDIS CENTRE LECLE    20090629
04024-06                                                                      00000040 832688       00145140NNMDGCPXNPITHIVIERS DIST.CTRE     20090630
04024-06                                                                      00000080 832908       00177100NNMDGCPXNSODIMEAUX CENTRE LECL    20090630
04024-06                                                                      00000020 833628       00113256NNMDGCPXNSODISTRES CENTRE LECL    20090630
04024-06                                                                      00000020 834013       00128016NNMDGCPXNSODICHAR CENTRE LECLE    20090630
04024-06                                                                      00000040 832691       00141029NNMDGCPXNSOBLEDIS CENTRE LECLE    20090701
04024-06                                                                      00000040 834369       00106210NNMDGCPXNNIKAIADIS II CENTRE L    20090701
04024-06                                                                      00000040 833923       00192217NNMDGCPXNGENEDIS EXPLOIT. CTR     20090702
04024-06                                                                      00000080 835171       00133315NNMDGCPXNHYPER COSMOS CENTRE L    20090702
04024-06                                                                      00000040 835365       00181069NNMDGNGONLAVIDA CENTRE LECLERC    20090702
04024-06                                                                      00000080 836198       00184500NNMDGCPXNBOLDIS CENTRE LECLERC    20090702
04024-06                                                                      00000040 833581       00113256NNMDGCPXNSODISTRES CENTRE LECL    20090706
04024-06                                                                      00000060 834019       00126249NNMDGCPXNLOUIS ROUDAUT CENTRE     20090706
04024-06                                                                      00000060 834456       00133317NNMDGCPXNLANGON DISTR. CTRE LE    20090707
04024-06                                                                      00000060 834902       00184185NNMDGNGONSODIVAL CENTRE LECLER    20090710
04024-06                                                                      00000020 836440       00113300NNMDGNGONTUILLIERES DIS.CTRE L    20090710
04024-06                                                                      00000020 836452       00106111NNMDGCPXYMELHODI CENTRE LECLER    20090722
04024-06                                                                      00000020 835625       00122060NNMDGNGONPAIMPOLDIS CENTRE LEC    20090723
04024-06                                                                      00000020 836435       00106111NNMDGCPXYMELHODI CENTRE LECLER    20090804
050390-20                                                                     00001032 832737       00184995NNPTTAGANAUCHAN ENTREPOT SUD      20090514
050390-20                                                                     00001656 832740       00159995NNPTTAGANAUCHAN ENTREPOT NORD     20090514
050390-20                                                                     00001104 832743       00195990NNPTTAGANAUCHAN ENTREPOT PARIS    20090514
052848-20                                                                     00000270 832737       00184995NNPTTAGANAUCHAN ENTREPOT SUD      20090514
052848-20                                                                     00000198 832740       00159995NNPTTAGANAUCHAN ENTREPOT NORD     20090514
052848-20                                                                     00000168 832743       00195990NNPTTAGANAUCHAN ENTREPOT PARIS    20090514
052848-20                                                                     00000270 832738       00184995NNMDGELONAUCHAN ENTREPOT SUD      20090611
052848-20                                                                     00000192 832741       00159995NNMDGELONAUCHAN ENTREPOT NORD     20090611
052848-20                                                                     00000162 832744       00195990NNMDGELONAUCHAN ENTREPOT PARIS    20090611
05361501                                                                      00000200 835935       00153041NNMDGCOLYLYRECO FRANCE            20090211
05373031                                                                      00000030 834972       00160065NNMDGCOLNOFFICE DEPOT BS SAS      20090206
05373031                                                                      00000020 836584       00191017NYMDGS02YCORPORATE EXPRESS FRA    20090217
05373031                                                                      00000030 836656       00160065NNMDGCOLNOFFICE DEPOT BS SAS      20090220
05374031                                                                      00000050 835692       00160065NNMDGCOLNOFFICE DEPOT BS SAS      20090213
05374051                                                                      00000010 835590       00193003NNMDGSYGYSPICERS                  20090206
05374051                                                                      00000020 836067       00193003NNMDGSYGYSPICERS                  20090212
05379031                                                                      00000030 835764       00191017NNMDGS02YCORPORATE EXPRESS FRA    20090210
05379031                                                                      00000160 836067       00193003NNMDGSYGYSPICERS                  20090212
05379031                                                                      00000020 836292       00191017NNMDGS02YCORPORATE EXPRESS FRA    20090213
05380031                                                                      00000010 835638       00106603NYMDGSYTYPRIVAT SORBONNE-CANNE    20090506
05380051                                                                      00000100 834587       00820051NYMDGCATNPAPETERIE AS DE TREFL    20090210
05380051                                                                      00000050 836313       00193003NNMDGSYGYSPICERS                  20090212
055543-20                                                                     00000456 832737       00184995NNPTTAGANAUCHAN ENTREPOT SUD      20090514
055543-20                                                                     00000588 832740       00159995NNPTTAGANAUCHAN ENTREPOT NORD     20090514
055543-20                                                                     00000456 832743       00195990NNPTTAGANAUCHAN ENTREPOT PARIS    20090514
055543-20                                                                     00000336 832738       00184995NNMDGELONAUCHAN ENTREPOT SUD      20090611
055543-20                                                                     00000444 832741       00159995NNMDGELONAUCHAN ENTREPOT NORD     20090611
055543-20                                                                     00000348 832744       00195990NNMDGELONAUCHAN ENTREPOT PARIS    20090611
055543-20                                                                     00000324 832739       00184995NNMDGELONAUCHAN ENTREPOT SUD      20090702
055543-20                                                                     00000432 832742       00159995NNMDGELONAUCHAN ENTREPOT NORD     20090702
055543-20                                                                     00000324 832745       00195990NNMDGELONAUCHAN ENTREPOT PARIS    20090702
061821-20                                                                     00000012 836274       00121601NNMDGCPXNPLATE FORME CORA LONG    20090209
061822-06                                                                     00000096 836274       00121601NNMDGCPXNPLATE FORME CORA LONG    20090209
061822-06                                                                     00002520 826083       00121601NNMDGCPXNPLATE FORME CORA LONG    20090227
069856-20                                                                     00000020 836274       00121601NNMDGCPXNPLATE FORME CORA LONG    20090209
07025-06                                                                      00000020 835190       00127110NNMDGAGANS.D.E. CENTRE LECLERC    20090206
07025-06                                                                      00000020 835910       00157019NNMDGNGONSARREDIS CENTRE LECLE    20090206
07025-06                                                                      00000020 836118       00151139NNMDGCPXNSCAPEST                  20090206
07025-06                                                                      00000020 836349       00135137NNMDGCPXYKERMELEUC CENTRE LECL    20090206
07025-06                                                                      00000020 836441       00184000NNMDGCPXNAVIROC CENTRE LECLERC    20090206
07025-06                                                                      00000020 836512       00144055NNMDGNGONST HERBLAIN DIST.CTR     20090206
07025-06                                                                      00000020 836535       00140026NNMDGNGONPLAGECO CENTRE LECLER    20090206
07025-06                                                                      00000020 836537       00140038NNMDGNGONSODILANDES CENTRE LEC    20090206
07025-06                                                                      00000020 836538       00140006NNMDGNGONADOUR DISTR. CTRE LEC    20090206
07025-06                                                                      00000020 836559       00133283NNMDGAGANSODICAR CENTRE LECLER    20090206
07025-06                                                                      00000020 836570       00149033NNMDGNGONGOURONNIERES DIST.C.L    20090206
07025-06                                                                      00000020 836606       00192304NNMDGNGONLEVALLOIS EXPLOITATIO    20090206
07025-06                                                                      00000020 836645       00106111NNMDGNGONMELHODI CENTRE LECLER    20090209
07025-06                                                                      00000020 836533       00145140NNMDGNGONPITHIVIERS DIST.CTRE     20090210
07025-06                                                                      00000480 836313       00193003NNMDGSYGYSPICERS                  20090212
07025-06                                                                      00000020 835895       00250000NYMDGCATNFUCSIA                   20090213
07025-06                                                                      00000020 836651       00141009NNMDGNGONSORODIS CENTRE LECLER    20090213
07025-06                                                                      00000020 835194       00144190NNMDGELONCLISSON DISTR CTRE LE    20090217
07025-06                                                                      00000020 833744       00179180NNMDGJOSYWESCO                    20090218
07025-06                                                                      00000020 835942       00114132NNMDGCPXNTOUQUES DISTR CTRE LE    20090304
07025-06                                                                      00000400 835926       00263130NYMDGCATNLIBRAIRIE JEUNESSE D'    20090324
07025-06                                                                      00000020 832252       00163530NNMDGPPANENVAL DISTR. CTRE LEC    20090610
07025-06                                                                      00000020 834170       00103005NNMDGCPXNMARAIS DIS SA CENTRE     20090610
07025-06                                                                      00000020 834172       00103004NNMDGCPXNMONTLUCON DISTR. C. L    20090610
07025-06                                                                      00000100 832579       00176173NNMDGPPANCITADIS CENTRE LECLER    20090611
07025-06                                                                      00000060 835192       00176055NNMDGNGONSODISRO CENTRE LECLER    20090612
07025-06                                                                      00000080 834194       00137149NNMDGCPXNLA MONTGOLFIERE CTRE     20090616
07025-06                                                                      00000080 833501       00179061NNMDGCPXNTHOUARS DISTR CTRE LE    20090617
07025-06                                                                      00000160 833511       00114129NNMDGCPXNLISIEUX DISTR.CTRE LE    20090617
07025-06                                                                      00000060 835998       00152037NNMDGCPXNSO.LA.DI CENTRE LECLE    20090617
07025-06                                                                      00000220 832907       00156145NNMDGCPXNVADIS CENTRE LECLERC     20090618
07025-06                                                                      00000060 833189       00114200NNMDGCPXNVAUDRY DISTR. CTRE LE    20090618
07025-06                                                                      00000020 834739       00130133NNMDGCPXNANGLEDIS CENTRE LECLE    20090618
07025-06                                                                      00000020 835357       00118024NNMDGNGONBOURGES DISTR CTRE LE    20090618
07025-06                                                                      00000060 835996       00152100NNMDGCPXNSO.DI.BRAG CENTRE LEC    20090618
07025-06                                                                      00000020 836527       00189005NNMDGNGONAUXERDIS CENTRE LECLE    20090618
07025-06                                                                      00000020 836529       00158049NNMDGNGONDECIZE DISTR CTRE LEC    20090618
07025-06                                                                      00000100 833507       00185149NNMDGCPXNSODIROCHE CENTRE LECL    20090619
07025-06                                                                      00000220 835973       00150015NNMDGCPXNAGNEAUX DISTR CTRE LE    20090619
07025-06                                                                      00000080 835987       00144144NNMDGCPXNSODIRETZ CENTRE LECLE    20090619
07025-06                                                                      00000120 833101       00181070NNMDGCPXNGAILLAC DISTRIB.CTRE     20090622
07025-06                                                                      00000140 835969       00161054NNMDGCPXNARGENTAN DISTR.CTRE L    20090622
07025-06                                                                      00000060 834729       00130133NNMDGCPXNANGLEDIS CENTRE LECLE    20090623
07025-06                                                                      00000080 836461       00192304NNMDGCPXYLEVALLOIS EXPLOITATIO    20090623
07025-06                                                                      00000080 836466       00193500NNMDGCPXYPANTIN DISTR CTRE LEC    20090623
07025-06                                                                      00000020 833556       00111000NNMDGCPXNT.P.L.M.CENTRE LECLER    20090624
07025-06                                                                      00000080 836098       00149500NNMDGCPXNSEGRE DISTR. CTRE LEC    20090624
07025-06                                                                      00000020 833077       00147122NNMDGCPXNST PIERRE DIST.CTR LE    20090625
07025-06                                                                      00000120 834575       00184114NNMDGCPXNAUZON VENTOUX CENTRE     20090625
07025-06                                                                      00000020 833341       00150500NNMDGCPXYPEVILDIS CENTRE LECLE    20090626
07025-06                                                                      00000100 836499       00185057NNMDGNGONSODIVARDIERE CENTRE L    20090626
07025-06                                                                      00000120 832575       00176215NNMDGPPANYVETODIS CENTRE LECLE    20090629
07025-06                                                                      00000020 833041       00142063NNMDGCPXNANDREZIEUX DIST.CTRE     20090629
07025-06                                                                      00000040 833499       00133319NNMDGCPXNPESSAC DISTR. CTRE LE    20090629
07025-06                                                                      00000020 833538       00147250NNMDGCPXNCENTRE LECLERC MARMAN    20090629
07025-06                                                                      00000120 833915       00104004NNMDGCPXNSODIALPES CENTRE LECL    20090629
07025-06                                                                      00000040 834203       00146034NNMDGCPXNSOCAPDIS CENTRE LECLE    20090629
07025-06                                                                      00000080 832676       00179118NNMDGCPXNBOCAGE DISTR CTRE LEC    20090630
07025-06                                                                      00000060 832688       00145140NNMDGCPXNPITHIVIERS DIST.CTRE     20090630
07025-06                                                                      00000080 832908       00177100NNMDGCPXNSODIMEAUX CENTRE LECL    20090630
07025-06                                                                      00000060 834008       00183499NNMDGCPXNLA SEYDIS CENTRE LECL    20090630
07025-06                                                                      00000040 834013       00128016NNMDGCPXNSODICHAR CENTRE LECLE    20090630
07025-06                                                                      00000020 834811       00149009NNMDGNGONLECLERC BRISSAC          20090630
07025-06                                                                      00000040 835847       00150017NNMDGNGONDIST L'AVRANCHIN C. L    20090630
07025-06                                                                      00000040 836002       00111107NNMDGCPXNLIMOUX DISTR. CTRE LE    20090630
07025-06                                                                      00000020 836177       00135530NNMDGCPXNCTRE LECLERC NOYAL /     20090630
07025-06                                                                      00000020 836375       00113601NNMDGCPXNSALONDIS CENTRE LECLE    20090630
07025-06                                                                      00000060 832691       00141029NNMDGCPXNSOBLEDIS CENTRE LECLE    20090701
07025-06                                                                      00000100 833069       00164500NNMDGCPXNSODIBAY CENTRE LECLER    20090701
07025-06                                                                      00000080 833095       00161023NNMDGCPXNFERMADIS CENTRE LECLE    20090701
07025-06                                                                      00000080 833533       00166044NNMDGCPXNVERNET DIS               20090701
07025-06                                                                      00000020 833629       00113274NNMDGCPXNCENTRE LECLERC MARSEI    20090701
07025-06                                                                      00000080 834369       00106210NNMDGCPXNNIKAIADIS II CENTRE L    20090701
07025-06                                                                      00000040 835080       00144031NNMDGNGONNANTES NORD DIST.CTR     20090701
07025-06                                                                      00000060 835977       00114117NNMDGCPXNHONFLEUR DISTR.CTRE L    20090701
07025-06                                                                      00000020 836380       00183044NNMDGCPXNSODILUC CENTRE LECLER    20090701
07025-06                                                                      00000060 833923       00192217NNMDGCPXNGENEDIS EXPLOIT. CTR     20090702
07025-06                                                                      00000060 835171       00133315NNMDGCPXNHYPER COSMOS CENTRE L    20090702
07025-06                                                                      00000020 835365       00181069NNMDGNGONLAVIDA CENTRE LECLERC    20090702
07025-06                                                                      00000020 836151       00144160NNMDGCPXNBRIERE DISTR. CTRE LE    20090702
07025-06                                                                      00000100 836198       00184500NNMDGCPXNBOLDIS CENTRE LECLERC    20090702
07025-06                                                                      00000040 832678       00185148NNMDGCPXNSODINOVE CENTRE LECLE    20090703
07025-06                                                                      00000020 833329       00149180NNMDGCPXNCHEMILLE DIST CTRE LE    20090703
07025-06                                                                      00000060 834531       00153008NNMDGCPXNAZEDIS CENTRE LECLERC    20090703
07025-06                                                                      00000060 832684       00114132NNMDGCPXNTOUQUES DISTR CTRE LE    20090706
07025-06                                                                      00000080 834019       00126249NNMDGCPXNLOUIS ROUDAUT CENTRE     20090706
07025-06                                                                      00000060 835176       00185170NNMDGNGONOUDAIRIDIS CENTRE LEC    20090706
07025-06                                                                      00000060 836167       00122190NNMDGCPXNPLEDIS CENTRE LECLERC    20090706
07025-06                                                                      00000060 833573       00113274NNMDGCPXNCENTRE LECLERC MARSEI    20090707
07025-06                                                                      00000100 834456       00133317NNMDGCPXNLANGON DISTR. CTRE LE    20090707
07025-06                                                                      00000100 833497       00185900NNMDGCPXNSODILONNE CENTRE LECL    20090708
07025-06                                                                      00000060 834902       00184185NNMDGNGONSODIVAL CENTRE LECLER    20090710
07025-06                                                                      00000100 835984       00149033NNMDGCPXNGOURONNIERES DIST.C.L    20090710
07025-06                                                                      00000040 836440       00113300NNMDGNGONTUILLIERES DIS.CTRE L    20090710
07025-06                                                                      00000040 832903       00128017NNMDGCPXNAVREDIS CENTRE LECLER    20090715
07025-06                                                                      00000040 835354       00183044NNMDGCPXNSODILUC CENTRE LECLER    20090715
07025-06                                                                      00000040 833575       00142153NNMDGCPXNROADIS CENTRE LECLERC    20090716
07025-06                                                                      00000040 835172       00133283NNMDGNGONSODICAR CENTRE LECLER    20090716
07025-06                                                                      00000020 836452       00106111NNMDGCPXYMELHODI CENTRE LECLER    20090722
07025-06                                                                      00000040 835625       00122060NNMDGNGONPAIMPOLDIS CENTRE LEC    20090723
07025-06                                                                      00000060 836377       00113601NNMDGCPXNSALONDIS CENTRE LECLE    20090724
07025-06                                                                      00000020 836435       00106111NNMDGCPXYMELHODI CENTRE LECLER    20090804
07025-06                                                                      00000040 833576       00142153NNMDGCPXNROADIS CENTRE LECLERC    20090806
07025-06                                                                      00000060 835861       00113601NNMDGCPXNSALONDIS CENTRE LECLE    20090814
076938-20                                                                     00000252 832737       00184995NNPTTAGANAUCHAN ENTREPOT SUD      20090514
076938-20                                                                     00000096 832740       00159995NNPTTAGANAUCHAN ENTREPOT NORD     20090514
076938-20                                                                     00000144 832743       00195990NNPTTAGANAUCHAN ENTREPOT PARIS    20090514
080873-20                                                                     00000780 832737       00184995NNPTTAGANAUCHAN ENTREPOT SUD      20090514
080873-20                                                                     00001152 832740       00159995NNPTTAGANAUCHAN ENTREPOT NORD     20090514
080873-20                                                                     00000756 832743       00195990NNPTTAGANAUCHAN ENTREPOT PARIS    20090514
080873-20                                                                     00000588 832738       00184995NNMDGELONAUCHAN ENTREPOT SUD      20090611
080873-20                                                                     00000864 832741       00159995NNMDGELONAUCHAN ENTREPOT NORD     20090611
080873-20                                                                     00000576 832744       00195990NNMDGELONAUCHAN ENTREPOT PARIS    20090611
080873-20                                                                     00000564 832739       00184995NNMDGELONAUCHAN ENTREPOT SUD      20090702
080873-20                                                                     00000852 832742       00159995NNMDGELONAUCHAN ENTREPOT NORD     20090702
080873-20                                                                     00000552 832745       00195990NNMDGELONAUCHAN ENTREPOT PARIS    20090702
081484-20                                                                     00000540 832737       00184995NNPTTAGANAUCHAN ENTREPOT SUD      20090514
081484-20                                                                     00000468 832740       00159995NNPTTAGANAUCHAN ENTREPOT NORD     20090514
081484-20                                                                     00000420 832743       00195990NNPTTAGANAUCHAN ENTREPOT PARIS    20090514
090559-20                                                                     00000012 832614       00003990NNMDGISANELBA OFFICE PRODUCTS     20090225
090559-20                                                                     00000012 827340       00113467NNMDGJOSNANCIENS ETS MICHEL       20090327
090559-20                                                                     00000012 826478       00113193NNMDGSYAYPAP DU COMMERCE          20090330
090559-20                                                                     00000012 835965       00106602NNMDGSYTYPRIVAT SORBONNE-NICE     20090401
090559-20                                                                     00000192 831657       00127016NNMDGSYGNRP DIFFUSION VR AUBEV    20090402
090559-20                                                                     00000012 836522       00184146NYMDGJOSYOFFICELAND               20090402
090559-20                                                                     00000012 830590       00126032NNMDGSYAYDESPESSE                 20090409
090559-20                                                                     00000012 834635       00460735NNMDGCATNLIBRAIRIE BARNES         20090416
090559-20                                                                     00000012 831926       00150002NNMDGJOSYBRIOSON - PLANET R       20090422
090559-20                                                                     00000012 836384       00374688NNMDGCATNRANY SARL                20090422
090559-20                                                                     00000012 828444       00169100NNMDGSYAYLYON BUREAU              20090428
090559-20                                                                     00000012 834570       00181010NNMDGS03YNOUVELLE PAPETERIE CA    20090429
090559-20                                                                     00000012 835011       00149120NNMDGSYAYHYPERBURO ANGERS         20090429
090559-20                                                                     00000012 836514       00156049NNMDGS03YLE BAYON                 20090429
090559-20                                                                     00000012 835947       00135300NNMDGSYAYBURO POLE                20090430
090559-20                                                                     00000012 835992       00185413NNMDGS03YBUREAU CENTER (LS HER    20090504
090559-20                                                                     00000012 836318       00173211NNMDGSYAYHYPERBURO CHAMBERY       20090504
090559-20                                                                     00000012 828097       00118032NNMDGSYAYDACTYL BURO DU CENTRE    20090505
090559-20                                                                     00000012 829228       00119096NNMDGJOSYAU PAPYRUS               20090505
090559-20                                                                     00000012 829103       00118032NNMDGSYAYDACTYL BURO DU CENTRE    20090515
090560-20                                                                     00000012 832614       00003990NNMDGISANELBA OFFICE PRODUCTS     20090225
090560-20                                                                     00000012 827340       00113467NNMDGJOSNANCIENS ETS MICHEL       20090327
090560-20                                                                     00000012 830940       00496048NYMDGCATNESPACE CULTURE ET LOI    20090401
090560-20                                                                     00000240 831657       00127016NNMDGSYGNRP DIFFUSION VR AUBEV    20090402
090560-20                                                                     00000012 830590       00126032NNMDGSYAYDESPESSE                 20090409
090560-20                                                                     00000012 834635       00460735NNMDGCATNLIBRAIRIE BARNES         20090416
090560-20                                                                     00000036 831926       00150002NNMDGJOSYBRIOSON - PLANET R       20090422
090560-20                                                                     00000012 836384       00374688NNMDGCATNRANY SARL                20090422
090560-20                                                                     00000012 834570       00181010NNMDGS03YNOUVELLE PAPETERIE CA    20090429
090560-20                                                                     00000012 830235       00156902NNMDGSYTYFORUM PRIVAT LORIENT     20090504
090560-20                                                                     00000012 834863       00166510NNMDGSYTYPRIVAT-PERPIGNAN         20090504
090560-20                                                                     00000012 829228       00119096NNMDGJOSYAU PAPYRUS               20090505
090560-20                                                                     00000012 834069       00169040NNMDGJOSYAGENDA ET ECRITURE PA    20090507
090560-20                                                                     00000012 827606       00169108NNMDGSYAYLIOGIER ARTS GRAPHIQU    20090511
090560-20                                                                     00000012 835699       00178224NNMDGJOSYUNIVERS DU LIVRE ST G    20090512
10058-06                                                                      00000480 836082       00193003NNMDGSYGYSPICERS                  20090212
10454-20                                                                      00000020 836130       00264950NYMDGCATNLIBRAIRIE BUFALO         20090423
10454-20                                                                      00000020 836463       00980000NYMDGCATNMERCURE INTERNATIONAL    20090429
10454-20                                                                      00000200 835351       00154056NNMDGELOYCORA HOUDEMONT           20090618
10454-20                                                                      00000020 836527       00189005NNMDGNGONAUXERDIS CENTRE LECLE    20090618
10454-20                                                                      00000060 835973       00150015NNMDGCPXNAGNEAUX DISTR CTRE LE    20090619
10454-20                                                                      00000120 836192       00182000NNMDGCPXNSODIBAG CENTRE LECLER    20090619
10454-20                                                                      00000040 836466       00193500NNMDGCPXYPANTIN DISTR CTRE LEC    20090623
10454-20                                                                      00000280 834575       00184114NNMDGCPXNAUZON VENTOUX CENTRE     20090625
10454-20                                                                      00000040 833341       00150500NNMDGCPXYPEVILDIS CENTRE LECLE    20090626
10454-20                                                                      00000060 833538       00147250NNMDGCPXNCENTRE LECLERC MARMAN    20090629
10454-20                                                                      00000040 834203       00146034NNMDGCPXNSOCAPDIS CENTRE LECLE    20090629
10454-20                                                                      00000060 835350       00190400NNMDGELOYCORA BELFORT             20090630
10454-20                                                                      00000020 836177       00135530NNMDGCPXNCTRE LECLERC NOYAL /     20090630
10454-20                                                                      00000020 836375       00113601NNMDGCPXNSALONDIS CENTRE LECLE    20090630
10454-20                                                                      00000040 834369       00106210NNMDGCPXNNIKAIADIS II CENTRE L    20090701
10454-20                                                                      00000040 835977       00114117NNMDGCPXNHONFLEUR DISTR.CTRE L    20090701
10454-20                                                                      00000200 836547       00168000NYMDGELOYCORA COLMAR - HOUSSEN    20090701
10454-20                                                                      00000060 835171       00133315NNMDGCPXNHYPER COSMOS CENTRE L    20090702
10454-20                                                                      00000020 835365       00181069NNMDGNGONLAVIDA CENTRE LECLERC    20090702
10454-20                                                                      00000200 836553       00168023NYMDGELOYCORA WITTENHEIM          20090702
10454-20                                                                      00000180 835909       00167025NNMDGELOYCORA STRASBOURG          20090703
10454-20                                                                      00000060 836377       00113601NNMDGCPXNSALONDIS CENTRE LECLE    20090724
10454-20                                                                      00000060 835861       00113601NNMDGCPXNSALONDIS CENTRE LECLE    20090814
10457-20                                                                      00000020 835895       00250000NYMDGCATNFUCSIA                   20090213
10458-20                                                                      00000020 835895       00250000NYMDGCATNFUCSIA                   20090213
10458-20                                                                      00000020 836130       00264950NYMDGCATNLIBRAIRIE BUFALO         20090423
10458-20                                                                      00000400 836547       00168000NYMDGELOYCORA COLMAR - HOUSSEN    20090701
10458-20                                                                      00000400 836553       00168023NYMDGELOYCORA WITTENHEIM          20090702
10464-01                                                                      00000080 835763       00263500NYMDGCATNDIACFA -                 20090227
10464-02                                                                      00000220 835806       00263500NYMDGCATNDIACFA -                 20090227
10464-08                                                                      00000260 835806       00263500NYMDGCATNDIACFA -                 20090227
10464-09                                                                      00000160 835806       00263500NYMDGCATNDIACFA -                 20090227
10464-13                                                                      00000160 835806       00263500NYMDGCATNDIACFA -                 20090227
10464-14                                                                      00000260 835806       00263500NYMDGCATNDIACFA -                 20090227
10464-20                                                                      00000020 836320       00135530NNMDGNGONCTRE LECLERC NOYAL /     20090206
10464-20                                                                      00000200 835926       00263130NYMDGCATNLIBRAIRIE JEUNESSE D'    20090324
10464-20                                                                      00000020 836130       00264950NYMDGCATNLIBRAIRIE BUFALO         20090423
10464-20                                                                      00000020 831870       00160141NNMDGPPANSAINT-JUDIST CENTRE L    20090616
10464-20                                                                      00000020 834739       00130133NNMDGCPXNANGLEDIS CENTRE LECLE    20090618
10464-20                                                                      00000020 836527       00189005NNMDGNGONAUXERDIS CENTRE LECLE    20090618
10464-20                                                                      00000020 836529       00158049NNMDGNGONDECIZE DISTR CTRE LEC    20090618
10464-20                                                                      00000040 833507       00185149NNMDGCPXNSODIROCHE CENTRE LECL    20090619
10464-20                                                                      00000100 835987       00144144NNMDGCPXNSODIRETZ CENTRE LECLE    20090619
10464-20                                                                      00000040 834729       00130133NNMDGCPXNANGLEDIS CENTRE LECLE    20090623
10464-20                                                                      00000060 836461       00192304NNMDGCPXYLEVALLOIS EXPLOITATIO    20090623
10464-20                                                                      00000020 833041       00142063NNMDGCPXNANDREZIEUX DIST.CTRE     20090629
10464-20                                                                      00000020 833538       00147250NNMDGCPXNCENTRE LECLERC MARMAN    20090629
10464-20                                                                      00000080 833915       00104004NNMDGCPXNSODIALPES CENTRE LECL    20090629
10464-20                                                                      00000040 834203       00146034NNMDGCPXNSOCAPDIS CENTRE LECLE    20090629
10464-20                                                                      00000020 833628       00113256NNMDGCPXNSODISTRES CENTRE LECL    20090630
10464-20                                                                      00000240 836198       00184500NNMDGCPXNBOLDIS CENTRE LECLERC    20090702
10464-20                                                                      00000060 833581       00113256NNMDGCPXNSODISTRES CENTRE LECL    20090706
10464-20                                                                      00000060 834019       00126249NNMDGCPXNLOUIS ROUDAUT CENTRE     20090706
10464-20                                                                      00000060 834456       00133317NNMDGCPXNLANGON DISTR. CTRE LE    20090707
10464-20                                                                      00000100 834902       00184185NNMDGNGONSODIVAL CENTRE LECLER    20090710
10464-20                                                                      00000020 836440       00113300NNMDGNGONTUILLIERES DIS.CTRE L    20090710
10464-20                                                                      00000020 833575       00142153NNMDGCPXNROADIS CENTRE LECLERC    20090716
1046401S-09                                                                   00000060 836067       00193003NNMDGSYGYSPICERS                  20090212
10468-08                                                                      00000260 835763       00263500NYMDGCATNDIACFA -                 20090227
10468-08                                                                      00000280 836342       00272375NYMDGCATYAU PARCHEMIN             20090227
10468-09                                                                      00000120 836342       00272375NYMDGCATYAU PARCHEMIN             20090227
10468-20                                                                      00000020 836320       00135530NNMDGNGONCTRE LECLERC NOYAL /     20090206
10468-20                                                                      00000020 836512       00144055NNMDGNGONST HERBLAIN DIST.CTR     20090206
10468-20                                                                      00000020 836538       00140006NNMDGNGONADOUR DISTR. CTRE LEC    20090206
10468-20                                                                      00000020 835895       00250000NYMDGCATNFUCSIA                   20090213
10468-20                                                                      00000020 835194       00144190NNMDGELONCLISSON DISTR CTRE LE    20090217
10468-20                                                                      00000100 835926       00263130NYMDGCATNLIBRAIRIE JEUNESSE D'    20090324
10468-20                                                                      00000020 836463       00980000NYMDGCATNMERCURE INTERNATIONAL    20090429
10468-20                                                                      00000040 836181       00144150NNMDGCPXNBRIANDIS CENTRE LECLE    20090612
10468-20                                                                      00000020 831870       00160141NNMDGPPANSAINT-JUDIST CENTRE L    20090616
10468-20                                                                      00000020 834739       00130133NNMDGCPXNANGLEDIS CENTRE LECLE    20090618
10468-20                                                                      00000500 835351       00154056NNMDGELOYCORA HOUDEMONT           20090618
10468-20                                                                      00000040 836527       00189005NNMDGNGONAUXERDIS CENTRE LECLE    20090618
10468-20                                                                      00000080 836529       00158049NNMDGNGONDECIZE DISTR CTRE LEC    20090618
10468-20                                                                      00000100 833507       00185149NNMDGCPXNSODIROCHE CENTRE LECL    20090619
10468-20                                                                      00000080 835987       00144144NNMDGCPXNSODIRETZ CENTRE LECLE    20090619
10468-20                                                                      00000140 835969       00161054NNMDGCPXNARGENTAN DISTR.CTRE L    20090622
10468-20                                                                      00000060 834729       00130133NNMDGCPXNANGLEDIS CENTRE LECLE    20090623
10468-20                                                                      00000060 836461       00192304NNMDGCPXYLEVALLOIS EXPLOITATIO    20090623
10468-20                                                                      00000200 834575       00184114NNMDGCPXNAUZON VENTOUX CENTRE     20090625
10468-20                                                                      00000020 833538       00147250NNMDGCPXNCENTRE LECLERC MARMAN    20090629
10468-20                                                                      00000100 833915       00104004NNMDGCPXNSODIALPES CENTRE LECL    20090629
10468-20                                                                      00000020 834203       00146034NNMDGCPXNSOCAPDIS CENTRE LECLE    20090629
10468-20                                                                      00000040 836177       00135530NNMDGCPXNCTRE LECLERC NOYAL /     20090630
10468-20                                                                      00000020 836375       00113601NNMDGCPXNSALONDIS CENTRE LECLE    20090630
10468-20                                                                      00000040 832691       00141029NNMDGCPXNSOBLEDIS CENTRE LECLE    20090701
10468-20                                                                      00000080 834369       00106210NNMDGCPXNNIKAIADIS II CENTRE L    20090701
10468-20                                                                      00000080 835977       00114117NNMDGCPXNHONFLEUR DISTR.CTRE L    20090701
10468-20                                                                      00000060 835171       00133315NNMDGCPXNHYPER COSMOS CENTRE L    20090702
10468-20                                                                      00000140 836198       00184500NNMDGCPXNBOLDIS CENTRE LECLERC    20090702
10468-20                                                                      00000300 835909       00167025NNMDGELOYCORA STRASBOURG          20090703
10468-20                                                                      00000100 834019       00126249NNMDGCPXNLOUIS ROUDAUT CENTRE     20090706
10468-20                                                                      00000060 834456       00133317NNMDGCPXNLANGON DISTR. CTRE LE    20090707
10468-20                                                                      00000060 834902       00184185NNMDGNGONSODIVAL CENTRE LECLER    20090710
10468-20                                                                      00000040 836440       00113300NNMDGNGONTUILLIERES DIS.CTRE L    20090710
10468-20                                                                      00000140 836377       00113601NNMDGCPXNSALONDIS CENTRE LECLE    20090724
10468-20                                                                      00000140 835861       00113601NNMDGCPXNSALONDIS CENTRE LECLE    20090814
10468S-20                                                                     00000020 835590       00193003NNMDGSYGYSPICERS                  20090206
1046801S-08                                                                   00000020 835590       00193003NNMDGSYGYSPICERS                  20090206
10476C-13                                                                     00000010 835738       00191017NNMDGS02YCORPORATE EXPRESS FRA    20090209
10476C-14                                                                     00000010 835738       00191017NNMDGS02YCORPORATE EXPRESS FRA    20090209
10476C-20                                                                     00000010 836441       00184000NNMDGCPXNAVIROC CENTRE LECLERC    20090206
10476C-20                                                                     00000010 836535       00140026NNMDGNGONPLAGECO CENTRE LECLER    20090206
10476C-20                                                                     00000010 836559       00133283NNMDGAGANSODICAR CENTRE LECLER    20090206
10476C-20                                                                     00000010 836606       00192304NNMDGNGONLEVALLOIS EXPLOITATIO    20090206
10476C-20                                                                     00000010 836608       00163562NNMDGSYTYLES VOLCANS              20090209
10476C-20                                                                     00000010 836632       00138078NNMDGNGONECHIROLLES DIST.CTRE     20090210
10476C-20                                                                     00000030 836567       00198635NNMDGSYTNBHV RIVOLI               20090213
10476C-20                                                                     00000010 836130       00264950NYMDGCATNLIBRAIRIE BUFALO         20090423
10476C-20                                                                     00000010 834170       00103005NNMDGCPXNMARAIS DIS SA CENTRE     20090610
10476C-20                                                                     00000020 832907       00156145NNMDGCPXNVADIS CENTRE LECLERC     20090618
10476C-20                                                                     00000010 834739       00130133NNMDGCPXNANGLEDIS CENTRE LECLE    20090618
10476C-20                                                                     00000010 835357       00118024NNMDGNGONBOURGES DISTR CTRE LE    20090618
10476C-20                                                                     00000030 836527       00189005NNMDGNGONAUXERDIS CENTRE LECLE    20090618
10476C-20                                                                     00000030 836529       00158049NNMDGNGONDECIZE DISTR CTRE LEC    20090618
10476C-20                                                                     00000050 833507       00185149NNMDGCPXNSODIROCHE CENTRE LECL    20090619
10476C-20                                                                     00000060 836192       00182000NNMDGCPXNSODIBAG CENTRE LECLER    20090619
10476C-20                                                                     00000050 834729       00130133NNMDGCPXNANGLEDIS CENTRE LECLE    20090623
10476C-20                                                                     00000020 833341       00150500NNMDGCPXYPEVILDIS CENTRE LECLE    20090626
10476C-20                                                                     00000030 836499       00185057NNMDGNGONSODIVARDIERE CENTRE L    20090626
10476C-20                                                                     00000020 833538       00147250NNMDGCPXNCENTRE LECLERC MARMAN    20090629
10476C-20                                                                     00000050 833915       00104004NNMDGCPXNSODIALPES CENTRE LECL    20090629
10476C-20                                                                     00000050 834203       00146034NNMDGCPXNSOCAPDIS CENTRE LECLE    20090629
10476C-20                                                                     00000010 833628       00113256NNMDGCPXNSODISTRES CENTRE LECL    20090630
10476C-20                                                                     00000010 836375       00113601NNMDGCPXNSALONDIS CENTRE LECLE    20090630
10476C-20                                                                     00000010 833629       00113274NNMDGCPXNCENTRE LECLERC MARSEI    20090701
10476C-20                                                                     00000050 834369       00106210NNMDGCPXNNIKAIADIS II CENTRE L    20090701
10476C-20                                                                     00000010 836380       00183044NNMDGCPXNSODILUC CENTRE LECLER    20090701
10476C-20                                                                     00000060 835171       00133315NNMDGCPXNHYPER COSMOS CENTRE L    20090702
10476C-20                                                                     00000060 835365       00181069NNMDGNGONLAVIDA CENTRE LECLERC    20090702
10476C-20                                                                     00000070 833581       00113256NNMDGCPXNSODISTRES CENTRE LECL    20090706
10476C-20                                                                     00000030 835176       00185170NNMDGNGONOUDAIRIDIS CENTRE LEC    20090706
10476C-20                                                                     00000030 833573       00113274NNMDGCPXNCENTRE LECLERC MARSEI    20090707
10476C-20                                                                     00000120 834456       00133317NNMDGCPXNLANGON DISTR. CTRE LE    20090707
10476C-20                                                                     00000020 836440       00113300NNMDGNGONTUILLIERES DIS.CTRE L    20090710
10476C-20                                                                     00000030 835354       00183044NNMDGCPXNSODILUC CENTRE LECLER    20090715
10476C-20                                                                     00000010 836452       00106111NNMDGCPXYMELHODI CENTRE LECLER    20090722
10476C-20                                                                     00000030 836377       00113601NNMDGCPXNSALONDIS CENTRE LECLE    20090724
10476C-20                                                                     00000030 836435       00106111NNMDGCPXYMELHODI CENTRE LECLER    20090804
10476C-20                                                                     00000020 835861       00113601NNMDGCPXNSALONDIS CENTRE LECLE    20090814
10479C-03                                                                     00000040 836292       00191017NNMDGS02YCORPORATE EXPRESS FRA    20090213
10479C-08                                                                     00000010 835738       00191017NNMDGS02YCORPORATE EXPRESS FRA    20090209
10479C-09                                                                     00000030 835738       00191017NNMDGS02YCORPORATE EXPRESS FRA    20090209
10479C-13                                                                     00000010 835738       00191017NNMDGS02YCORPORATE EXPRESS FRA    20090209
10479C-14                                                                     00000010 834026       00182067NNMDGSYGYDIFPAP                   20090206
10479C-20                                                                     00000010 835190       00127110NNMDGAGANS.D.E. CENTRE LECLERC    20090206
10479C-20                                                                     00000060 836412       00133145NNMDGAGANCARREFOUR HYPERMARCHE    20090206
10479C-20                                                                     00000130 836413       00102999NNMDGAGANCARREFOUR HYPERMARCHE    20090206
10479C-20                                                                     00000010 836441       00184000NNMDGCPXNAVIROC CENTRE LECLERC    20090206
10479C-20                                                                     00000010 836512       00144055NNMDGNGONST HERBLAIN DIST.CTR     20090206
10479C-20                                                                     00000010 836535       00140026NNMDGNGONPLAGECO CENTRE LECLER    20090206
10479C-20                                                                     00000010 836559       00133283NNMDGAGANSODICAR CENTRE LECLER    20090206
10479C-20                                                                     00000010 836586       00180118NNMDGNGONSODIDIER (SCI DU BOUL    20090206
10479C-20                                                                     00000020 836606       00192304NNMDGNGONLEVALLOIS EXPLOITATIO    20090206
10479C-20                                                                     00000010 836546       00150015NNMDGJMONAGNEAUX DISTR CTRE LE    20090209
10479C-20                                                                     00000010 836632       00138078NNMDGNGONECHIROLLES DIST.CTRE     20090210
10479C-20                                                                     00000020 836567       00198635NNMDGSYTNBHV RIVOLI               20090213
10479C-20                                                                     00000010 836650       00130098NYMDGS03YLIB-PAP. GOYARD          20090430
10479C-20                                                                     00000010 834170       00103005NNMDGCPXNMARAIS DIS SA CENTRE     20090610
10479C-20                                                                     00000040 832579       00176173NNMDGPPANCITADIS CENTRE LECLER    20090611
10479C-20                                                                     00000130 835192       00176055NNMDGNGONSODISRO CENTRE LECLER    20090612
10479C-20                                                                     00000020 836066       00135097NNMDGCPXNSODIRENNES CENTRE LEC    20090616
10479C-20                                                                     00000030 833501       00179061NNMDGCPXNTHOUARS DISTR CTRE LE    20090617
10479C-20                                                                     00000060 833511       00114129NNMDGCPXNLISIEUX DISTR.CTRE LE    20090617
10479C-20                                                                     00000020 832907       00156145NNMDGCPXNVADIS CENTRE LECLERC     20090618
10479C-20                                                                     00000100 833189       00114200NNMDGCPXNVAUDRY DISTR. CTRE LE    20090618
10479C-20                                                                     00000010 834739       00130133NNMDGCPXNANGLEDIS CENTRE LECLE    20090618
10479C-20                                                                     00000010 835357       00118024NNMDGNGONBOURGES DISTR CTRE LE    20090618
10479C-20                                                                     00000050 835996       00152100NNMDGCPXNSO.DI.BRAG CENTRE LEC    20090618
10479C-20                                                                     00000030 836527       00189005NNMDGNGONAUXERDIS CENTRE LECLE    20090618
10479C-20                                                                     00000020 836529       00158049NNMDGNGONDECIZE DISTR CTRE LEC    20090618
10479C-20                                                                     00000050 833495       00185503NNMDGCPXNHERBIDIS CENTRE LECLE    20090619
10479C-20                                                                     00000040 833507       00185149NNMDGCPXNSODIROCHE CENTRE LECL    20090619
10479C-20                                                                     00000020 834892       00195250NNMDGNGONGONESDIS                 20090619
10479C-20                                                                     00000060 835973       00150015NNMDGCPXNAGNEAUX DISTR CTRE LE    20090619
10479C-20                                                                     00000010 835987       00144144NNMDGCPXNSODIRETZ CENTRE LECLE    20090619
10479C-20                                                                     00000070 836192       00182000NNMDGCPXNSODIBAG CENTRE LECLER    20090619
10479C-20                                                                     00000060 833101       00181070NNMDGCPXNGAILLAC DISTRIB.CTRE     20090622
10479C-20                                                                     00000060 835969       00161054NNMDGCPXNARGENTAN DISTR.CTRE L    20090622
10479C-20                                                                     00000080 834729       00130133NNMDGCPXNANGLEDIS CENTRE LECLE    20090623
10479C-20                                                                     00000100 833556       00111000NNMDGCPXNT.P.L.M.CENTRE LECLER    20090624
10479C-20                                                                     00000010 833077       00147122NNMDGCPXNST PIERRE DIST.CTR LE    20090625
10479C-20                                                                     00000010 835633       00106601NYMDGSYTYPRIVAT SORBONNE-ANTIB    20090625
10479C-20                                                                     00000020 833341       00150500NNMDGCPXYPEVILDIS CENTRE LECLE    20090626
10479C-20                                                                     00000030 836499       00185057NNMDGNGONSODIVARDIERE CENTRE L    20090626
10479C-20                                                                     00000030 832575       00176215NNMDGPPANYVETODIS CENTRE LECLE    20090629
10479C-20                                                                     00000010 833499       00133319NNMDGCPXNPESSAC DISTR. CTRE LE    20090629
10479C-20                                                                     00000010 833538       00147250NNMDGCPXNCENTRE LECLERC MARMAN    20090629
10479C-20                                                                     00000060 833915       00104004NNMDGCPXNSODIALPES CENTRE LECL    20090629
10479C-20                                                                     00000040 834203       00146034NNMDGCPXNSOCAPDIS CENTRE LECLE    20090629
10479C-20                                                                     00000100 832676       00179118NNMDGCPXNBOCAGE DISTR CTRE LEC    20090630
10479C-20                                                                     00000010 833628       00113256NNMDGCPXNSODISTRES CENTRE LECL    20090630
10479C-20                                                                     00000030 834008       00183499NNMDGCPXNLA SEYDIS CENTRE LECL    20090630
