A864410-17                                                                    00002295 830782       00159995NNMDGAGANAUCHAN ENTREPOT NORD     20090212
A864410-17                                                                    00001836 830842       00184995NNMDGAGANAUCHAN ENTREPOT SUD      20090212
A864410-17                                                                    00001863 830843       00195990NNMDGAGANAUCHAN ENTREPOT PARIS    20090212
A864410-17                                                                    00012555 833204       00180170NNMDGELONATAC SUPERMARCHES ENT    20090513
G859026-20                                                                    00000020 835559       00145165NNMDGCOLYVIKING DIRECT            20090209
G859026-20                                                                    00000045 835588       00113810NNMDGCOLYVIKING DIRECT            20090209
G859026-20                                                                    00000090 835928       00153041NNMDGCOLYLYRECO FRANCE            20090211
G889626-20                                                                    00000036 836577       00113810NYMDGCOLYVIKING DIRECT            20090216
XX001636-17                                                                   00270940 836335       00192451NNMDGCPXYSIPLEC                   20090513
X000350-17                                                                    00054940 825678       00192451NYMDGCPXYSIPLEC                   20090212
X000629-20                                                                    00095472 836330       00197011NNMDGCPXYGALEC                    20090520
X000633-20                                                                    00029430 836330       00197011NNMDGCPXYGALEC                    20090520
X000634-20                                                                    00040992 836330       00197011NNMDGCPXYGALEC                    20090520
X000637-20                                                                    00035844 836330       00197011NNMDGCPXYGALEC                    20090520
X001636-17                                                                    00103680 836335       00192451NNMDGCPXYSIPLEC                   20090513
00200102-17                                                                   00000060 836571       00114998NNMDGLINYMODLING                  20090206
00200102-17                                                                   00001440 836580       00114999NNMDGCLDYMODLING                  20090209
00200102-17                                                                   00000480 833695       00114999NYMDGCLDYMODLING                  20090213
00200102-17                                                                   00001920 833697       00114999NYMDGCLDYMODLING                  20090313
00200150-17                                                                   00055430 834671       00197011NNMDGCPXYGALEC                    20090528
00200150-17                                                                   00000230 835817       00126255NNMDGNGONROMANDIS CENTRE LECLE    20090630
00200160-17                                                                   00051060 834671       00197011NNMDGCPXYGALEC                    20090528
002009-20                                                                     00000040 829248       00159044NNMDGJOSYBASQUIN CANONNE          20090319
002009-20                                                                     00000040 832101       00980000NNMDGCATNMERCURE INTERNATIONAL    20090428
002009-20                                                                     00000040 827059       00183743NNMDGSYAYCHARLEMAGNE PROFESSIO    20090429
002009-20                                                                     00000040 836463       00980000NYMDGCATNMERCURE INTERNATIONAL    20090429
002009-20                                                                     00000040 835019       00183107NNMDGJOSYPAPETERIE REMY           20090504
002009-20                                                                     00000040 834739       00130133NNMDGCPXNANGLEDIS CENTRE LECLE    20090618
002009-20                                                                     00000080 833507       00185149NNMDGCPXNSODIROCHE CENTRE LECL    20090619
002009-20                                                                     00000040 836192       00182000NNMDGCPXNSODIBAG CENTRE LECLER    20090619
002009-20                                                                     00000080 834729       00130133NNMDGCPXNANGLEDIS CENTRE LECLE    20090623
002009-20                                                                     00000040 836461       00192304NNMDGCPXYLEVALLOIS EXPLOITATIO    20090623
002009-20                                                                     00000080 836466       00193500NNMDGCPXYPANTIN DISTR CTRE LEC    20090623
002009-20                                                                     00000040 832486       00127092NNMDGPPANLOUVIERS DISTR.CTRE L    20090625
002009-20                                                                     00000080 834575       00184114NNMDGCPXNAUZON VENTOUX CENTRE     20090625
002009-20                                                                     00000040 833341       00150500NNMDGCPXYPEVILDIS CENTRE LECLE    20090626
002009-20                                                                     00000040 833538       00147250NNMDGCPXNCENTRE LECLERC MARMAN    20090629
002009-20                                                                     00000080 833915       00104004NNMDGCPXNSODIALPES CENTRE LECL    20090629
002009-20                                                                     00000080 834203       00146034NNMDGCPXNSOCAPDIS CENTRE LECLE    20090629
002009-20                                                                     00000040 832908       00177100NNMDGCPXNSODIMEAUX CENTRE LECL    20090630
002009-20                                                                     00000040 834013       00128016NNMDGCPXNSODICHAR CENTRE LECLE    20090630
002009-20                                                                     00000040 836375       00113601NNMDGCPXNSALONDIS CENTRE LECLE    20090630
002009-20                                                                     00000040 833629       00113274NNMDGCPXNCENTRE LECLERC MARSEI    20090701
002009-20                                                                     00000040 836380       00183044NNMDGCPXNSODILUC CENTRE LECLER    20090701
002009-20                                                                     00000040 833923       00192217NNMDGCPXNGENEDIS EXPLOIT. CTR     20090702
002009-20                                                                     00000040 835365       00181069NNMDGNGONLAVIDA CENTRE LECLERC    20090702
002009-20                                                                     00000040 836198       00184500NNMDGCPXNBOLDIS CENTRE LECLERC    20090702
002009-20                                                                     00000080 834019       00126249NNMDGCPXNLOUIS ROUDAUT CENTRE     20090706
002009-20                                                                     00000080 834456       00133317NNMDGCPXNLANGON DISTR. CTRE LE    20090707
002009-20                                                                     00000040 832913       00194083NNMDGCPXNFOURNYDIS CENTRE LECL    20090710
002009-20                                                                     00000040 836440       00113300NNMDGNGONTUILLIERES DIS.CTRE L    20090710
002009-20                                                                     00000040 832903       00128017NNMDGCPXNAVREDIS CENTRE LECLER    20090715
002009-20                                                                     00000080 833575       00142153NNMDGCPXNROADIS CENTRE LECLERC    20090716
002009-20                                                                     00000040 836452       00106111NNMDGCPXYMELHODI CENTRE LECLER    20090722
002009-20                                                                     00000040 836377       00113601NNMDGCPXNSALONDIS CENTRE LECLE    20090724
002009-20                                                                     00000040 836435       00106111NNMDGCPXYMELHODI CENTRE LECLER    20090804
002009-20                                                                     00000040 833576       00142153NNMDGCPXNROADIS CENTRE LECLERC    20090806
002009-20                                                                     00000040 835861       00113601NNMDGCPXNSALONDIS CENTRE LECLE    20090814
00200902-20                                                                   00000000 836571       00114998NNMDGLINYMODLING                  20090206
00200902-20                                                                   00001440 836580       00114999NNMDGCLDYMODLING                  20090209
00200902-20                                                                   00000480 833695       00114999NYMDGCLDYMODLING                  20090213
00200902-20                                                                   00001920 833697       00114999NYMDGCLDYMODLING                  20090313
00200950-20                                                                   00000230 834369       00106210NNMDGCPXNNIKAIADIS II CENTRE L    20090701
00304080-17                                                                   00000001 836600       00173500NNMDGS03YLA PAPETERIE SA          20090206
00304080-17                                                                   00000021 835738       00191017NNMDGS02YCORPORATE EXPRESS FRA    20090209
00304080-17                                                                   00000040 836303       00145165NNMDGCOLYVIKING DIRECT            20090209
00304080-17                                                                   00000490 835935       00153041NNMDGCOLYLYRECO FRANCE            20090211
00304080-17                                                                   00000140 836067       00193003NNMDGSYGYSPICERS                  20090212
00476080-17                                                                   00003000 836067       00193003NNMDGSYGYSPICERS                  20090212
00476080-17                                                                   00002000 836313       00193003NNMDGSYGYSPICERS                  20090212
00517031-03                                                                   00000005 836650       00130098NYMDGS03YLIB-PAP. GOYARD          20090430
00517071-14                                                                   00000050 836313       00193003NNMDGSYGYSPICERS                  20090212
00517071-14                                                                   00000040 836402       00144032NNMDGSYANALTER BURO DISTRIBUTI    20090212
00517071-14                                                                   00000005 836650       00130098NYMDGS03YLIB-PAP. GOYARD          20090430
00517081-17                                                                   00000300 836402       00144032NNMDGSYANALTER BURO DISTRIBUTI    20090212
00517081-17                                                                   00000005 833222       00171102NNMDGSYTNMAISON DE LA PRESSE      20090511
00517081-17                                                                   00000100 830703       00175003NNMDGJOSNLAMARTINE                20090527
00517091-13                                                                   00000035 836067       00193003NNMDGSYGYSPICERS                  20090212
00517091-13                                                                   00000005 836650       00130098NYMDGS03YLIB-PAP. GOYARD          20090430
00517131-08                                                                   00000005 836650       00130098NYMDGS03YLIB-PAP. GOYARD          20090430
00517151-11                                                                   00000010 836378       00154138NYMDGSYAYETS SCHALLER TT POUR     20090206
00517151-11                                                                   00000030 836402       00144032NNMDGSYANALTER BURO DISTRIBUTI    20090212
00517151-11                                                                   00000005 836650       00130098NYMDGS03YLIB-PAP. GOYARD          20090430
00517961-20                                                                   00001500 836623       00102188NNMDGSYGYM.D.S                    20090210
00517961-20                                                                   00002500 836313       00193003NNMDGSYGYSPICERS                  20090212
00517961-20                                                                   00000050 833222       00171102NNMDGSYTNMAISON DE LA PRESSE      20090511
00540-20                                                                      00000040 836623       00102188NNMDGSYGYM.D.S                    20090210
00543-20                                                                      00000160 835447       00153041NNMDGCOLYLYRECO FRANCE            20090210
00543-20                                                                      00000240 836655       00145030NNMDGSYAYCAILLETTE - BURO+ DIR    20090210
00543-20                                                                      00000080 836313       00193003NNMDGSYGYSPICERS                  20090212
00770082-17                                                                   00000060 835928       00153041NNMDGCOLYLYRECO FRANCE            20090211
00770082-17                                                                   00000060 836313       00193003NNMDGSYGYSPICERS                  20090212
008642-17                                                                     00000020 836571       00114998NNMDGLINYMODLING                  20090206
008642-17                                                                     00000600 836580       00114999NNMDGCLDYMODLING                  20090209
008642-17                                                                     00000200 833695       00114999NYMDGCLDYMODLING                  20090213
008642-17                                                                     00000020 828445       00169100NNMDGSYAYLYON BUREAU              20090226
008642-17                                                                     00001000 832097       00127016NNMDGSYGNRP DIFFUSION VR AUBEV    20090226
008642-17                                                                     00000200 832446       00169250NNMDGSYGNRP DIFFUSION - LYON      20090226
008642-17                                                                     00000800 833697       00114999NYMDGCLDYMODLING                  20090313
008642-17                                                                     00000010 829248       00159044NNMDGJOSYBASQUIN CANONNE          20090319
008642-17                                                                     00000200 832445       00169250NNMDGSYGNRP DIFFUSION - LYON      20090330
008642-17                                                                     00001000 832270       00127016NNMDGSYGNRP DIFFUSION VR AUBEV    20090402
008642-17                                                                     00000040 835967       00106602NNMDGSYTYPRIVAT SORBONNE-NICE     20090427
008642-17                                                                     00000020 827059       00183743NNMDGSYAYCHARLEMAGNE PROFESSIO    20090429
008642-17                                                                     00000020 830182       00177008NNMDGJOSYAMYOT J.                 20090429
008642-17                                                                     00000800 832133       00127016NNMDGSYGNRP DIFFUSION VR AUBEV    20090429
008642-17                                                                     00000400 832452       00169250NNMDGSYGNRP DIFFUSION - LYON      20090429
008642-17                                                                     00000010 836439       00174506NYMDGSYTNLIVRES & CO ANNEMASSE    20090429
008642-17                                                                     00000050 836634       00102201NYMDGS03YBUREAU 02                20090429
008642-17                                                                     00000040 831093       00174305NNMDGJOSYBUREAU SERVICE           20090504
008642-17                                                                     00000010 834864       00103800NNMDGJOSYCOTE PAPIER              20090504
008642-17                                                                     00000010 835835       00165410NNMDGSYTYPRIVAT LHERIS - TARBE    20090504
008642-17                                                                     00000050 836059       00162219NYMDGJOSYGERAULT JP               20090504
008642-17                                                                     00000040 831036       00174016NNMDGSYAYABAC TECHNIC BUREAU      20090506
008642-17                                                                     00000100 830703       00175003NNMDGJOSNLAMARTINE                20090527
008642-17                                                                     00000400 832591       00169250NNMDGSYGNRP DIFFUSION - LYON      20090601
008642-17                                                                     00000400 832598       00169250NNMDGSYGNRP DIFFUSION - LYON      20090629
008642-17                                                                     00000140 830749       00175003NNMDGJOSNLAMARTINE                20090722
00864202-17                                                                   00000080 835865       00462040NYMDGCATNLIBRAIRIE ANTILLAISE     20090415
009030-20                                                                     00001280 835916       00191040NNMDGS02NJM BRUNEAU               20090206
009030-20                                                                     00000080 836279       00127016NNMDGSYGNRP DIFFUSION VR AUBEV    20090206
009030-20                                                                     00000480 834587       00820051NYMDGCATNPAPETERIE AS DE TREFL    20090210
009030-20                                                                     00002960 834955       00374688NYMDGCATNRANY SARL                20090211
009030-20                                                                     00016000 834989       00374688NYMDGCATNRANY SARL                20090213
009030-20                                                                     00001280 832097       00127016NNMDGSYGNRP DIFFUSION VR AUBEV    20090226
009030-20                                                                     00001280 832446       00169250NNMDGSYGNRP DIFFUSION - LYON      20090226
009030-20                                                                     00001280 832445       00169250NNMDGSYGNRP DIFFUSION - LYON      20090330
009030-20                                                                     00001280 832270       00127016NNMDGSYGNRP DIFFUSION VR AUBEV    20090402
009030-20                                                                     00001280 832133       00127016NNMDGSYGNRP DIFFUSION VR AUBEV    20090429
009030-20                                                                     00001280 832452       00169250NNMDGSYGNRP DIFFUSION - LYON      20090429
009030-20                                                                     00000320 836463       00980000NYMDGCATNMERCURE INTERNATIONAL    20090429
009030-20                                                                     00001280 832591       00169250NNMDGSYGNRP DIFFUSION - LYON      20090601
009030-20                                                                     00001280 832598       00169250NNMDGSYGNRP DIFFUSION - LYON      20090629
009039-20                                                                     00000200 836412       00133145NNMDGAGANCARREFOUR HYPERMARCHE    20090206
009039-20                                                                     00000320 836413       00102999NNMDGAGANCARREFOUR HYPERMARCHE    20090206
009039-20                                                                     00000320 836475       00145610NNMDGAGANC S F FRANCE SAS         20090210
009039-20                                                                     00000080 834194       00137149NNMDGCPXNLA MONTGOLFIERE CTRE     20090616
009039-20                                                                     00000040 834739       00130133NNMDGCPXNANGLEDIS CENTRE LECLE    20090618
009039-20                                                                     00000120 833507       00185149NNMDGCPXNSODIROCHE CENTRE LECL    20090619
009039-20                                                                     00000400 835987       00144144NNMDGCPXNSODIRETZ CENTRE LECLE    20090619
009039-20                                                                     00000080 834729       00130133NNMDGCPXNANGLEDIS CENTRE LECLE    20090623
009039-20                                                                     00000280 836461       00192304NNMDGCPXYLEVALLOIS EXPLOITATIO    20090623
009039-20                                                                     00000400 836466       00193500NNMDGCPXYPANTIN DISTR CTRE LEC    20090623
009039-20                                                                     00000360 834575       00184114NNMDGCPXNAUZON VENTOUX CENTRE     20090625
009039-20                                                                     00000120 836499       00185057NNMDGNGONSODIVARDIERE CENTRE L    20090626
009039-20                                                                     00000120 833915       00104004NNMDGCPXNSODIALPES CENTRE LECL    20090629
009039-20                                                                     00000080 832688       00145140NNMDGCPXNPITHIVIERS DIST.CTRE     20090630
009039-20                                                                     00000200 832908       00177100NNMDGCPXNSODIMEAUX CENTRE LECL    20090630
009039-20                                                                     00000040 835817       00126255NNMDGNGONROMANDIS CENTRE LECLE    20090630
009039-20                                                                     00000040 836177       00135530NNMDGCPXNCTRE LECLERC NOYAL /     20090630
009039-20                                                                     00000040 836380       00183044NNMDGCPXNSODILUC CENTRE LECLER    20090701
009039-20                                                                     00000320 835171       00133315NNMDGCPXNHYPER COSMOS CENTRE L    20090702
009039-20                                                                     00001200 836198       00184500NNMDGCPXNBOLDIS CENTRE LECLERC    20090702
009039-20                                                                     00000040 832697       00177084NNMDGCPXNMAVIDIS CENTRE LECLER    20090703
009039-20                                                                     00000200 834019       00126249NNMDGCPXNLOUIS ROUDAUT CENTRE     20090706
009039-20                                                                     00000240 835176       00185170NNMDGNGONOUDAIRIDIS CENTRE LEC    20090706
009039-20                                                                     00000120 835354       00183044NNMDGCPXNSODILUC CENTRE LECLER    20090715
009039-20                                                                     00000080 833575       00142153NNMDGCPXNROADIS CENTRE LECLERC    20090716
009039-20                                                                     00000200 835625       00122060NNMDGNGONPAIMPOLDIS CENTRE LEC    20090723
009039-20                                                                     00000040 833576       00142153NNMDGCPXNROADIS CENTRE LECLERC    20090806
009130-03                                                                     00000160 835764       00191017NNMDGS02YCORPORATE EXPRESS FRA    20090210
009130-09                                                                     00000160 835722       00191017NNMDGS02YCORPORATE EXPRESS FRA    20090206
009130-09                                                                     00000080 835694       00042800NNMDGSBONELBA SISTEMAS IBERICA    20090226
009130-13                                                                     00000120 835764       00191017NNMDGS02YCORPORATE EXPRESS FRA    20090210
009130-20                                                                     00000040 834864       00103800NNMDGJOSYCOTE PAPIER              20090504
009339-20                                                                     00000060 833575       00142153NNMDGCPXNROADIS CENTRE LECLERC    20090716
009339-20                                                                     00000040 833576       00142153NNMDGCPXNROADIS CENTRE LECLERC    20090806
009532-20                                                                     00000400 835981       00144055NNMDGCPXNST HERBLAIN DIST.CTR     20090608
009532-20                                                                     00000060 836115       00144023NNMDGCPXNANCENIS CENTRE LECLER    20090610
009532-20                                                                     00000060 832579       00176173NNMDGPPANCITADIS CENTRE LECLER    20090611
009532-20                                                                     00000400 836450       00144090NNMDGNGONPARIS DISTR. CTRE LEC    20090612
009532-20                                                                     00000100 836066       00135097NNMDGCPXNSODIRENNES CENTRE LEC    20090616
009532-20                                                                     00000080 832907       00156145NNMDGCPXNVADIS CENTRE LECLERC     20090618
009532-20                                                                     00000020 834739       00130133NNMDGCPXNANGLEDIS CENTRE LECLE    20090618
009532-20                                                                     00000120 833507       00185149NNMDGCPXNSODIROCHE CENTRE LECL    20090619
009532-20                                                                     00000180 834729       00130133NNMDGCPXNANGLEDIS CENTRE LECLE    20090623
009532-20                                                                     00000060 836461       00192304NNMDGCPXYLEVALLOIS EXPLOITATIO    20090623
009532-20                                                                     00000040 836466       00193500NNMDGCPXYPANTIN DISTR CTRE LEC    20090623
009532-20                                                                     00000140 834575       00184114NNMDGCPXNAUZON VENTOUX CENTRE     20090625
009532-20                                                                     00000120 833915       00104004NNMDGCPXNSODIALPES CENTRE LECL    20090629
009532-20                                                                     00000060 834203       00146034NNMDGCPXNSOCAPDIS CENTRE LECLE    20090629
009532-20                                                                     00000020 833628       00113256NNMDGCPXNSODISTRES CENTRE LECL    20090630
009532-20                                                                     00000040 834008       00183499NNMDGCPXNLA SEYDIS CENTRE LECL    20090630
009532-20                                                                     00000080 835847       00150017NNMDGNGONDIST L'AVRANCHIN C. L    20090630
009532-20                                                                     00000020 836177       00135530NNMDGCPXNCTRE LECLERC NOYAL /     20090630
009532-20                                                                     00000280 832691       00141029NNMDGCPXNSOBLEDIS CENTRE LECLE    20090701
009532-20                                                                     00000040 834369       00106210NNMDGCPXNNIKAIADIS II CENTRE L    20090701
009532-20                                                                     00000100 836149       00135098NNMDGCPXNSA FOUGERES DISTRIBUT    20090702
009532-20                                                                     00000020 836151       00144160NNMDGCPXNBRIERE DISTR. CTRE LE    20090702
009532-20                                                                     00000040 833581       00113256NNMDGCPXNSODISTRES CENTRE LECL    20090706
009532-20                                                                     00000040 832913       00194083NNMDGCPXNFOURNYDIS CENTRE LECL    20090710
009532-20                                                                     00000040 835984       00149033NNMDGCPXNGOURONNIERES DIST.C.L    20090710
009532-20                                                                     00000040 836440       00113300NNMDGNGONTUILLIERES DIS.CTRE L    20090710
009532-20                                                                     00000100 833234       00135400NNMDGCPXNSAINT MALO DIST.CTRE     20090715
00960501-17                                                                   00000040 835710       00191017NNMDGS02YCORPORATE EXPRESS FRA    20090206
00960501-17                                                                   00000040 835738       00191017NNMDGS02YCORPORATE EXPRESS FRA    20090209
00960501-17                                                                   00000500 835319       00138065NNMDGS02YFIDUCIAL BUREAUTIQUE     20090211
00960501-17                                                                   00000080 836229       00195382NNMDGS01YMETRO CASH AND CARRY     20090211
00960501-17                                                                   00000540 836603       00160065NNMDGCOLNOFFICE DEPOT BS SAS      20090220
00960501-17                                                                   00000020 835638       00106603NYMDGSYTYPRIVAT SORBONNE-CANNE    20090506
00960501-17                                                                   00000040 834641       00125103NNMDGS03YLIB DE L UNIVERSITE D    20090511
01164-17                                                                      00000400 835928       00153041NNMDGCOLYLYRECO FRANCE            20090211
01164-17                                                                      00000010 836581       00191017NYMDGS02YCORPORATE EXPRESS FRA    20090217
01165081-17                                                                   00000010 833793       00162750NYMDGS01YBUREAU VALLEE BERCK      20090115
01165081-17                                                                   00000010 834922       00159850NYMDGS01YBUREAU VALLEE WATTIGN    20090130
01165081-17                                                                   00000010 836286       00138700NNMDGS01YBUREAU VALLEE BOURGOU    20090206
01165081-17                                                                   00000100 836451       00175306NNMDGJOSYGIBERT JOSEPH VITRY      20090206
01165081-17                                                                   00000000 836543       00179350NNMDGS01YBUREAU VALLEE BRESSUI    20090206
01165081-17                                                                   00000200 835559       00145165NNMDGCOLYVIKING DIRECT            20090209
01165081-17                                                                   00000400 835764       00191017NNMDGS02YCORPORATE EXPRESS FRA    20090210
01165081-17                                                                   00001600 835928       00153041NNMDGCOLYLYRECO FRANCE            20090211
01165081-17                                                                   00000020 836567       00198635NNMDGSYTNBHV RIVOLI               20090213
01165081-17                                                                   00000200 836576       00145165NYMDGCOLYVIKING DIRECT            20090217
01165081-17                                                                   00000800 835137       00193397NNMDGSYAYSACFOM (CENTRALE)        20090226
01610081-17                                                                   00000040 830703       00175003NNMDGJOSNLAMARTINE                20090527
01610081-17                                                                   00000480 830749       00175003NNMDGJOSNLAMARTINE                20090722
01700501-17                                                                   00001140 834726       00160065NNMDGCOLNOFFICE DEPOT BS SAS      20090206
01700501-17                                                                   00000040 835710       00191017NNMDGS02YCORPORATE EXPRESS FRA    20090206
01700501-17                                                                   00000400 836566       00153041NNMDGCOLYLYRECO FRANCE            20090206
01700501-17                                                                   00000010 835738       00191017NNMDGS02YCORPORATE EXPRESS FRA    20090209
01700501-17                                                                   00000400 835928       00153041NNMDGCOLYLYRECO FRANCE            20090211
01702501-17                                                                   00000400 835928       00153041NNMDGCOLYLYRECO FRANCE            20090211
01703501-17                                                                   00001080 834726       00160065NNMDGCOLNOFFICE DEPOT BS SAS      20090206
01703501-17                                                                   00000010 836615       00187040NYMDGS01YFABREGUE DUO             20090206
01703501-17                                                                   00000010 835738       00191017NNMDGS02YCORPORATE EXPRESS FRA    20090209
01703501-17                                                                   00000160 836303       00145165NNMDGCOLYVIKING DIRECT            20090209
01703501-17                                                                   00000480 835664       00138065NNMDGS02YFIDUCIAL BUREAUTIQUE     20090211
01703501-17                                                                   00000160 835928       00153041NNMDGCOLYLYRECO FRANCE            20090211
01703501-17                                                                   00000240 835935       00153041NNMDGCOLYLYRECO FRANCE            20090211
01703501-17                                                                   00000060 836229       00195382NNMDGS01YMETRO CASH AND CARRY     20090211
01714501-17                                                                   00000720 834726       00160065NNMDGCOLNOFFICE DEPOT BS SAS      20090206
01714501-17                                                                   00000010 834906       00182067NNMDGSYGYDIFPAP                   20090206
01714501-17                                                                   00000280 835913       00191040NNMDGS02NJM BRUNEAU               20090206
01714501-17                                                                   00000010 836279       00127016NNMDGSYGNRP DIFFUSION VR AUBEV    20090206
01714501-17                                                                   00000020 836283       00169250NNMDGSYGNRP DIFFUSION - LYON      20090209
01714501-17                                                                   00000050 835764       00191017NNMDGS02YCORPORATE EXPRESS FRA    20090210
01714501-17                                                                   00000200 836067       00193003NNMDGSYGYSPICERS                  20090212
01714501-17                                                                   00000200 836574       00145165NYMDGCOLYVIKING DIRECT            20090212
01714501-17                                                                   00000280 836432       00191040NNMDGS02NJM BRUNEAU               20090213
01716501-17                                                                   00000700 834971       00160065NNMDGCOLNOFFICE DEPOT BS SAS      20090206
01716501-17                                                                   00000300 835590       00193003NNMDGSYGYSPICERS                  20090206
01716501-17                                                                   00000070 835722       00191017NNMDGS02YCORPORATE EXPRESS FRA    20090206
01716501-17                                                                   00000100 834084       00193397NNMDGSYAYSACFOM (CENTRALE)        20090212
01716501-17                                                                   00000030 836292       00191017NNMDGS02YCORPORATE EXPRESS FRA    20090213
01717501-17                                                                   00000010 835738       00191017NNMDGS02YCORPORATE EXPRESS FRA    20090209
01717501-17                                                                   00000100 836602       00160065NNMDGCOLNOFFICE DEPOT BS SAS      20090213
01717501-17                                                                   00000050 836604       00160065NNMDGCOLNOFFICE DEPOT BS SAS      20090220
01718501-17                                                                   00000030 834906       00182067NNMDGSYGYDIFPAP                   20090206
01718501-17                                                                   00000100 835722       00191017NNMDGS02YCORPORATE EXPRESS FRA    20090206
01718501-17                                                                   00000100 835913       00191040NNMDGS02NJM BRUNEAU               20090206
01718501-17                                                                   00000020 836283       00169250NNMDGSYGNRP DIFFUSION - LYON      20090209
01718501-17                                                                   00000060 834587       00820051NYMDGCATNPAPETERIE AS DE TREFL    20090210
01718501-17                                                                   00000010 835764       00191017NNMDGS02YCORPORATE EXPRESS FRA    20090210
01718501-17                                                                   00000030 836229       00195382NNMDGS01YMETRO CASH AND CARRY     20090211
01718501-17                                                                   00000100 836402       00144032NNMDGSYANALTER BURO DISTRIBUTI    20090212
01718501-17                                                                   00000100 836292       00191017NNMDGS02YCORPORATE EXPRESS FRA    20090213
01718501-17                                                                   00000720 836589       00160065NNMDGCOLNOFFICE DEPOT BS SAS      20090220
01718501-17                                                                   00000180 835137       00193397NNMDGSYAYSACFOM (CENTRALE)        20090226
01895080-17                                                                   00000300 836303       00145165NNMDGCOLYVIKING DIRECT            20090209
01903801-40                                                                   00000020 836118       00151139NNMDGCPXNSCAPEST                  20090206
01903801-40                                                                   00000020 836320       00135530NNMDGNGONCTRE LECLERC NOYAL /     20090206
01903801-40                                                                   00000080 836412       00133145NNMDGAGANCARREFOUR HYPERMARCHE    20090206
01903801-40                                                                   00000180 836413       00102999NNMDGAGANCARREFOUR HYPERMARCHE    20090206
01903801-40                                                                   00000000 836559       00133283NNMDGAGANSODICAR CENTRE LECLER    20090206
01903801-40                                                                   00000000 836570       00149033NNMDGNGONGOURONNIERES DIST.C.L    20090206
01903801-40                                                                   00000020 836586       00180118NNMDGNGONSODIDIER (SCI DU BOUL    20090206
01903801-40                                                                   00000020 836606       00192304NNMDGNGONLEVALLOIS EXPLOITATIO    20090206
01903801-40                                                                   00000040 836274       00121601NNMDGCPXNPLATE FORME CORA LONG    20090209
01903801-40                                                                   00000020 836533       00145140NNMDGNGONPITHIVIERS DIST.CTRE     20090210
01903801-40                                                                   00004760 833720       00114999NYMDGCLDYMODLING                  20090313
01903801-40                                                                   00000200 836184       00135065NNMDGCPXNRENOUEST E.LECLERC CL    20090612
01903801-40                                                                   00000020 834739       00130133NNMDGCPXNANGLEDIS CENTRE LECLE    20090618
01903801-40                                                                   00000020 835357       00118024NNMDGNGONBOURGES DISTR CTRE LE    20090618
01903801-40                                                                   00000200 834729       00130133NNMDGCPXNANGLEDIS CENTRE LECLE    20090623
01903801-40                                                                   00000080 836466       00193500NNMDGCPXYPANTIN DISTR CTRE LEC    20090623
01903801-40                                                                   00000080 836499       00185057NNMDGNGONSODIVARDIERE CENTRE L    20090626
01903801-40                                                                   00000120 833915       00104004NNMDGCPXNSODIALPES CENTRE LECL    20090629
01903801-40                                                                   00000040 835785       00127150NNMDGNGONVERMADIS CENTRE LECLE    20090629
01903801-40                                                                   00000020 835817       00126255NNMDGNGONROMANDIS CENTRE LECLE    20090630
01903801-40                                                                   00000020 836177       00135530NNMDGCPXNCTRE LECLERC NOYAL /     20090630
01903801-40                                                                   00000020 836375       00113601NNMDGCPXNSALONDIS CENTRE LECLE    20090630
01903801-40                                                                   00000100 832691       00141029NNMDGCPXNSOBLEDIS CENTRE LECLE    20090701
01903801-40                                                                   00000020 833629       00113274NNMDGCPXNCENTRE LECLERC MARSEI    20090701
01903801-40                                                                   00000040 835977       00114117NNMDGCPXNHONFLEUR DISTR.CTRE L    20090701
01903801-40                                                                   00000020 836380       00183044NNMDGCPXNSODILUC CENTRE LECLER    20090701
01903801-40                                                                   00000060 836198       00184500NNMDGCPXNBOLDIS CENTRE LECLERC    20090702
01903801-40                                                                   00000140 836187       00153055NNMDGCPXNLAVAL DISTR. CTRE LEC    20090703
01903801-40                                                                   00000100 835176       00185170NNMDGNGONOUDAIRIDIS CENTRE LEC    20090706
01903801-40                                                                   00000120 833573       00113274NNMDGCPXNCENTRE LECLERC MARSEI    20090707
01903801-40                                                                   00000080 834902       00184185NNMDGNGONSODIVAL CENTRE LECLER    20090710
01903801-40                                                                   00000080 836440       00113300NNMDGNGONTUILLIERES DIS.CTRE L    20090710
01903801-40                                                                   00000120 835354       00183044NNMDGCPXNSODILUC CENTRE LECLER    20090715
01903801-40                                                                   00000020 836452       00106111NNMDGCPXYMELHODI CENTRE LECLER    20090722
01903801-40                                                                   00000100 836377       00113601NNMDGCPXNSALONDIS CENTRE LECLE    20090724
01903801-40                                                                   00000020 836435       00106111NNMDGCPXYMELHODI CENTRE LECLER    20090804
01903801-40                                                                   00000100 835861       00113601NNMDGCPXNSALONDIS CENTRE LECLE    20090814
01953801-40                                                                   00000048 836118       00151139NNMDGCPXNSCAPEST                  20090206
01953801-40                                                                   00000012 836234       00176215NNMDGCPXNYVETODIS CENTRE LECLE    20090206
01953801-40                                                                   00000036 836412       00133145NNMDGAGANCARREFOUR HYPERMARCHE    20090206
01953801-40                                                                   00000084 836413       00102999NNMDGAGANCARREFOUR HYPERMARCHE    20090206
01953801-40                                                                   00000012 836441       00184000NNMDGCPXNAVIROC CENTRE LECLERC    20090206
01953801-40                                                                   00000000 836537       00140038NNMDGNGONSODILANDES CENTRE LEC    20090206
01953801-40                                                                   00000000 836538       00140006NNMDGNGONADOUR DISTR. CTRE LEC    20090206
01953801-40                                                                   00000000 836559       00133283NNMDGAGANSODICAR CENTRE LECLER    20090206
01953801-40                                                                   00000012 836586       00180118NNMDGNGONSODIDIER (SCI DU BOUL    20090206
01953801-40                                                                   00000024 836606       00192304NNMDGNGONLEVALLOIS EXPLOITATIO    20090206
01953801-40                                                                   00000228 836134       00169153NNMDGNGONMIRO (CASINO)            20090209
01953801-40                                                                   00000012 836645       00106111NNMDGNGONMELHODI CENTRE LECLER    20090209
01953801-40                                                                   00001404 833720       00114999NYMDGCLDYMODLING                  20090313
01953801-40                                                                   00000024 836184       00135065NNMDGCPXNRENOUEST E.LECLERC CL    20090612
01953801-40                                                                   00000012 834739       00130133NNMDGCPXNANGLEDIS CENTRE LECLE    20090618
01953801-40                                                                   00000024 834892       00195250NNMDGNGONGONESDIS                 20090619
01953801-40                                                                   00000012 835987       00144144NNMDGCPXNSODIRETZ CENTRE LECLE    20090619
01953801-40                                                                   00000036 834729       00130133NNMDGCPXNANGLEDIS CENTRE LECLE    20090623
01953801-40                                                                   00000048 836466       00193500NNMDGCPXYPANTIN DISTR CTRE LEC    20090623
01953801-40                                                                   00000024 833915       00104004NNMDGCPXNSODIALPES CENTRE LECL    20090629
01953801-40                                                                   00000012 833628       00113256NNMDGCPXNSODISTRES CENTRE LECL    20090630
01953801-40                                                                   00000012 836375       00113601NNMDGCPXNSALONDIS CENTRE LECLE    20090630
01953801-40                                                                   00000012 833629       00113274NNMDGCPXNCENTRE LECLERC MARSEI    20090701
01953801-40                                                                   00000012 835977       00114117NNMDGCPXNHONFLEUR DISTR.CTRE L    20090701
01953801-40                                                                   00000012 836380       00183044NNMDGCPXNSODILUC CENTRE LECLER    20090701
01953801-40                                                                   00000012 835171       00133315NNMDGCPXNHYPER COSMOS CENTRE L    20090702
01953801-40                                                                   00000036 833581       00113256NNMDGCPXNSODISTRES CENTRE LECL    20090706
01953801-40                                                                   00000012 836440       00113300NNMDGNGONTUILLIERES DIS.CTRE L    20090710
01953801-40                                                                   00000024 832903       00128017NNMDGCPXNAVREDIS CENTRE LECLER    20090715
01953801-40                                                                   00000024 836377       00113601NNMDGCPXNSALONDIS CENTRE LECLE    20090724
01953801-40                                                                   00000012 835861       00113601NNMDGCPXNSALONDIS CENTRE LECLE    20090814
01954550-20                                                                   00000099 835763       00263500NYMDGCATNDIACFA -                 20090227
01963801-40                                                                   00000036 836118       00151139NNMDGCPXNSCAPEST                  20090206
01963801-40                                                                   00000009 836234       00176215NNMDGCPXNYVETODIS CENTRE LECLE    20090206
01963801-40                                                                   00000063 836412       00133145NNMDGAGANCARREFOUR HYPERMARCHE    20090206
01963801-40                                                                   00000045 836413       00102999NNMDGAGANCARREFOUR HYPERMARCHE    20090206
01963801-40                                                                   00000009 836441       00184000NNMDGCPXNAVIROC CENTRE LECLERC    20090206
01963801-40                                                                   00000009 836443       00184114NNMDGCPXNAUZON VENTOUX CENTRE     20090206
01963801-40                                                                   00000000 836559       00133283NNMDGAGANSODICAR CENTRE LECLER    20090206
01963801-40                                                                   00000018 836606       00192304NNMDGNGONLEVALLOIS EXPLOITATIO    20090206
01963801-40                                                                   00000018 836274       00121601NNMDGCPXNPLATE FORME CORA LONG    20090209
01963801-40                                                                   00000009 836645       00106111NNMDGNGONMELHODI CENTRE LECLER    20090209
01963801-40                                                                   00000027 836181       00144150NNMDGCPXNBRIANDIS CENTRE LECLE    20090612
01963801-40                                                                   00000018 834892       00195250NNMDGNGONGONESDIS                 20090619
01963801-40                                                                   00000018 833538       00147250NNMDGCPXNCENTRE LECLERC MARMAN    20090629
01963801-40                                                                   00000018 833915       00104004NNMDGCPXNSODIALPES CENTRE LECL    20090629
01963801-40                                                                   00000018 834203       00146034NNMDGCPXNSOCAPDIS CENTRE LECLE    20090629
01963801-40                                                                   00000027 832908       00177100NNMDGCPXNSODIMEAUX CENTRE LECL    20090630
01963801-40                                                                   00000009 833628       00113256NNMDGCPXNSODISTRES CENTRE LECL    20090630
01963801-40                                                                   00000009 836375       00113601NNMDGCPXNSALONDIS CENTRE LECLE    20090630
01963801-40                                                                   00000009 833629       00113274NNMDGCPXNCENTRE LECLERC MARSEI    20090701
01963801-40                                                                   00000009 835977       00114117NNMDGCPXNHONFLEUR DISTR.CTRE L    20090701
01963801-40                                                                   00000018 835171       00133315NNMDGCPXNHYPER COSMOS CENTRE L    20090702
01963801-40                                                                   00000018 833581       00113256NNMDGCPXNSODISTRES CENTRE LECL    20090706
01963801-40                                                                   00000009 833573       00113274NNMDGCPXNCENTRE LECLERC MARSEI    20090707
01963801-40                                                                   00000009 836440       00113300NNMDGNGONTUILLIERES DIS.CTRE L    20090710
01963801-40                                                                   00000018 832903       00128017NNMDGCPXNAVREDIS CENTRE LECLER    20090715
01963801-40                                                                   00000027 833575       00142153NNMDGCPXNROADIS CENTRE LECLERC    20090716
01963801-40                                                                   00000018 836377       00113601NNMDGCPXNSALONDIS CENTRE LECLE    20090724
01963801-40                                                                   00000027 833576       00142153NNMDGCPXNROADIS CENTRE LECLERC    20090806
01963801-40                                                                   00000009 835861       00113601NNMDGCPXNSALONDIS CENTRE LECLE    20090814
01972081-17                                                                   00000200 835590       00193003NNMDGSYGYSPICERS                  20090206
01972081-17                                                                   00000080 836451       00175306NNMDGJOSYGIBERT JOSEPH VITRY      20090206
01972081-17                                                                   00000200 836303       00145165NNMDGCOLYVIKING DIRECT            20090209
01972081-17                                                                   00000010 835202       00114164NNMDGS03YPLEIN CIEL POINT VIRG    20090430
01972081-17                                                                   00000010 835966       00106602NNMDGSYTYPRIVAT SORBONNE-NICE     20090504
01974011-09                                                                   00000020 834906       00182067NNMDGSYGYDIFPAP                   20090206
01974011-09                                                                   00000030 836451       00175306NNMDGJOSYGIBERT JOSEPH VITRY      20090206
01974011-09                                                                   00000000 836585       00185950NNMDGS01YBUREAU VALLEE LES HER    20090206
01974011-09                                                                   00000010 836608       00163562NNMDGSYTYLES VOLCANS              20090209
01974011-09                                                                   00000180 836067       00193003NNMDGSYGYSPICERS                  20090212
01974011-09                                                                   00000010 836282       00191017NNMDGS02YCORPORATE EXPRESS FRA    20090213
01974011-09                                                                   00000020 836567       00198635NNMDGSYTNBHV RIVOLI               20090213
01974011-09                                                                   00000030 834641       00125103NNMDGS03YLIB DE L UNIVERSITE D    20090511
01975011-09                                                                   00000010 836451       00175306NNMDGJOSYGIBERT JOSEPH VITRY      20090206
01975011-09                                                                   00000000 836585       00185950NNMDGS01YBUREAU VALLEE LES HER    20090206
01975011-09                                                                   00000040 836574       00145165NYMDGCOLYVIKING DIRECT            20090212
01984081-17                                                                   00000010 833793       00162750NYMDGS01YBUREAU VALLEE BERCK      20090115
01984081-17                                                                   00000010 836078       00175598NYMDGJOSYCEBO                     20090203
01984081-17                                                                   00000500 834971       00160065NNMDGCOLNOFFICE DEPOT BS SAS      20090206
01984081-17                                                                   00000100 836229       00195382NNMDGS01YMETRO CASH AND CARRY     20090211
01984081-17                                                                   00000010 835633       00106601NYMDGSYTYPRIVAT SORBONNE-ANTIB    20090625
02149011-09                                                                   00000100 834084       00193397NNMDGSYAYSACFOM (CENTRALE)        20090212
02150011-09                                                                   00000010 836484       00159652NNMDGS01NTOP OFFICE ST MALO       20090206
02196081-17                                                                   00000250 835923       00153043NNMDGCOLYLYRECO SA                20090210
02196081-17                                                                   00000400 835927       00153043NNMDGCOLYLYRECO SA                20090211
02231081-17                                                                   00000360 836229       00195382NNMDGS01YMETRO CASH AND CARRY     20090211
02903801-40                                                                   00000060 834194       00137149NNMDGCPXNLA MONTGOLFIERE CTRE     20090616
02903801-40                                                                   00000120 835987       00144144NNMDGCPXNSODIRETZ CENTRE LECLE    20090619
02903801-40                                                                   00000160 836461       00192304NNMDGCPXYLEVALLOIS EXPLOITATIO    20090623
02903801-40                                                                   00000060 836466       00193500NNMDGCPXYPANTIN DISTR CTRE LEC    20090623
02903801-40                                                                   00000400 834575       00184114NNMDGCPXNAUZON VENTOUX CENTRE     20090625
02903801-40                                                                   00000020 833041       00142063NNMDGCPXNANDREZIEUX DIST.CTRE     20090629
02903801-40                                                                   00000080 834203       00146034NNMDGCPXNSOCAPDIS CENTRE LECLE    20090629
02903801-40                                                                   00000080 832688       00145140NNMDGCPXNPITHIVIERS DIST.CTRE     20090630
02903801-40                                                                   00000120 832908       00177100NNMDGCPXNSODIMEAUX CENTRE LECL    20090630
02903801-40                                                                   00000020 836177       00135530NNMDGCPXNCTRE LECLERC NOYAL /     20090630
02903801-40                                                                   00000040 832691       00141029NNMDGCPXNSOBLEDIS CENTRE LECLE    20090701
02903801-40                                                                   00000040 833923       00192217NNMDGCPXNGENEDIS EXPLOIT. CTR     20090702
02903801-40                                                                   00001000 836198       00184500NNMDGCPXNBOLDIS CENTRE LECLERC    20090702
02903801-40                                                                   00000040 834456       00133317NNMDGCPXNLANGON DISTR. CTRE LE    20090707
02903801-40                                                                   00000040 832913       00194083NNMDGCPXNFOURNYDIS CENTRE LECL    20090710
02903801-40                                                                   00000040 835625       00122060NNMDGNGONPAIMPOLDIS CENTRE LEC    20090723
040-20                                                                        00000144 836451       00175306NNMDGJOSYGIBERT JOSEPH VITRY      20090206
040-20                                                                        00000036 836230       00496710NNMDGCATNACODIS                   20090327
048359-20                                                                     00000576 836140       00003990NNMDGISANELBA OFFICE PRODUCTS     20090225
048360-20                                                                     00000576 836140       00003990NNMDGISANELBA OFFICE PRODUCTS     20090225
048659-20                                                                     00000448 836140       00003990NNMDGISANELBA OFFICE PRODUCTS     20090225
048660-20                                                                     00000448 836140       00003990NNMDGISANELBA OFFICE PRODUCTS     20090225
05418501-17                                                                   00000090 835710       00191017NNMDGS02YCORPORATE EXPRESS FRA    20090206
05418501-17                                                                   00000200 835931       00191040NNMDGS02NJM BRUNEAU               20090211
05418501-17                                                                   00000200 836402       00144032NNMDGSYANALTER BURO DISTRIBUTI    20090212
05419501-17                                                                   00000060 835764       00191017NNMDGS02YCORPORATE EXPRESS FRA    20090210
05419501-17                                                                   00000020 836292       00191017NNMDGS02YCORPORATE EXPRESS FRA    20090213
05419501-17                                                                   00000100 836422       00191040NNMDGS02NJM BRUNEAU               20090218
05904108-20                                                                   00000940 824126       00114999NYMDGCLDYMODLING                  20090130
05904108-20                                                                   00000020 836118       00151139NNMDGCPXNSCAPEST                  20090206
05904108-20                                                                   00000040 836413       00102999NNMDGAGANCARREFOUR HYPERMARCHE    20090206
05904108-20                                                                   00000020 836443       00184114NNMDGCPXNAUZON VENTOUX CENTRE     20090206
05904108-20                                                                   00000020 836586       00180118NNMDGNGONSODIDIER (SCI DU BOUL    20090206
05904108-20                                                                   00000020 836274       00121601NNMDGCPXNPLATE FORME CORA LONG    20090209
05904108-20                                                                   00000100 832614       00003990NNMDGISANELBA OFFICE PRODUCTS     20090225
05904108-20                                                                   00000340 831657       00127016NNMDGSYGNRP DIFFUSION VR AUBEV    20090402
05904108-20                                                                   00000020 836557       00142089NNMDGSYAYRIBON SA                 20090402
05904108-20                                                                   00000020 831912       00135601NNMDGSYAYHYPERBURO REDON          20090403
05904108-20                                                                   00000020 835632       00106601NNMDGSYTYPRIVAT SORBONNE-ANTIB    20090408
05904108-20                                                                   00000020 833517       00135030NNMDGS03YBAHON_RAULT              20090410
05904108-20                                                                   00000020 836384       00374688NNMDGCATNRANY SARL                20090422
05904108-20                                                                   00000020 836403       00374272NYEURCATNLIBRAIRIE GERARD         20090422
05904108-20                                                                   00000020 835011       00149120NNMDGSYAYHYPERBURO ANGERS         20090429
05904108-20                                                                   00000040 835336       00146033NNMDGSYAYBUREAU SYSTEME           20090429
05904108-20                                                                   00000020 836439       00174506NYMDGSYTNLIVRES & CO ANNEMASSE    20090429
05904108-20                                                                   00000020 830335       00131150NYMDGJOSYPAPETERIE OSCAR          20090430
05904108-20                                                                   00000020 830581       00180160NNMDGJOSYLIBRAIRIE CENTRALE       20090430
05904108-20                                                                   00000020 836650       00130098NYMDGS03YLIB-PAP. GOYARD          20090430
05904108-20                                                                   00000020 830179       00165400NNMDGJOSYLIBRAIRIE PYRENEISTE     20090504
05904108-20                                                                   00000040 831426       00146050NNMDGSYGYQUERCY ROUERGUE EQUIP    20090504
05904108-20                                                                   00000020 833220       00171102NNMDGSYTNMAISON DE LA PRESSE      20090504
05904108-20                                                                   00000020 833967       00142036NNMDGSYTNFORUM ST ETIENNE         20090504
05904108-20                                                                   00000040 834709       00133019NYMDGJOSYSDGB ALICE MEDIA STOR    20090504
05904108-20                                                                   00000020 834711       00125500NNMDGSYTYFORUM BESANCON           20090504
05904108-20                                                                   00000020 835338       00133388NNMDGS03YPAPETERIE CHAIGNE        20090504
05904108-20                                                                   00000020 835994       00187050NYMDGS01YESPACE PAPETERIE         20090504
05904108-20                                                                   00000020 834442       00167051NNMDGSYAY KISTER                  20090505
05904108-20                                                                   00000020 835627       00168011NNMDGSYTYFORUM GUEBWILLER         20090505
05904108-20                                                                   00000120 829510       00175313NNMDGJOSYGN PARTENAIRES - ADOM    20090513
05904108-20                                                                   00000120 836183       00135065NNMDGCPXNRENOUEST E.LECLERC CL    20090612
05904108-20                                                                   00000100 836449       00144090NNMDGNGONPARIS DISTR. CTRE LEC    20090612
05904108-20                                                                   00000180 833541       00165021NNMDGCPXNCDA SUD OUEST CENTRE     20090618
05904108-20                                                                   00000020 834739       00130133NNMDGCPXNANGLEDIS CENTRE LECLE    20090618
05904108-20                                                                   00000140 835351       00154056NNMDGELOYCORA HOUDEMONT           20090618
05904108-20                                                                   00000040 835357       00118024NNMDGNGONBOURGES DISTR CTRE LE    20090618
05904108-20                                                                   00000080 836527       00189005NNMDGNGONAUXERDIS CENTRE LECLE    20090618
05904108-20                                                                   00000040 836529       00158049NNMDGNGONDECIZE DISTR CTRE LEC    20090618
05904108-20                                                                   00000040 832906       00156145NNMDGCPXNVADIS CENTRE LECLERC     20090619
05904108-20                                                                   00000120 833506       00185149NNMDGCPXNSODIROCHE CENTRE LECL    20090619
05904108-20                                                                   00000020 834893       00195250NNMDGNGONGONESDIS                 20090619
05904108-20                                                                   00000060 835985       00144144NNMDGCPXNSODIRETZ CENTRE LECLE    20090619
05904108-20                                                                   00000100 836191       00182000NNMDGCPXNSODIBAG CENTRE LECLER    20090619
05904108-20                                                                   00000180 834729       00130133NNMDGCPXNANGLEDIS CENTRE LECLE    20090623
05904108-20                                                                   00000080 836458       00192304NNMDGCPXYLEVALLOIS EXPLOITATIO    20090623
05904108-20                                                                   00000100 836464       00193500NNMDGCPXYPANTIN DISTR CTRE LEC    20090623
05904108-20                                                                   00000080 836097       00149500NNMDGCPXNSEGRE DISTR. CTRE LEC    20090624
05904108-20                                                                   00000120 833537       00147250NNMDGCPXNCENTRE LECLERC MARMAN    20090626
05904108-20                                                                   00000080 834202       00146034NNMDGCPXNSOCAPDIS CENTRE LECLE    20090626
05904108-20                                                                   00000060 836469       00185057NNMDGNGONSODIVARDIERE CENTRE L    20090626
05904108-20                                                                   00000040 834012       00128016NNMDGCPXNSODICHAR CENTRE LECLE    20090629
05904108-20                                                                   00000040 835350       00190400NNMDGELOYCORA BELFORT             20090630
05904108-20                                                                   00000020 836176       00135530NNMDGCPXNCTRE LECLERC NOYAL /     20090630
05904108-20                                                                   00000020 836375       00113601NNMDGCPXNSALONDIS CENTRE LECLE    20090630
05904108-20                                                                   00000120 836554       00157007NYMDGJMOYCORA ST AVOLD            20090630
05904108-20                                                                   00000060 832694       00141029NNMDGCPXNSOBLEDIS CENTRE LECLE    20090701
05904108-20                                                                   00000020 833629       00113274NNMDGCPXNCENTRE LECLERC MARSEI    20090701
05904108-20                                                                   00000060 833922       00192217NNMDGCPXNGENEDIS EXPLOIT. CTR     20090701
05904108-20                                                                   00000040 834014       00191154NNMDGCPXNMASSY-DISTR. CTRE LEC    20090701
05904108-20                                                                   00000080 834369       00106210NNMDGCPXNNIKAIADIS II CENTRE L    20090701
05904108-20                                                                   00000140 835078       00144031NNMDGNGONNANTES NORD DIST.CTR     20090701
05904108-20                                                                   00000020 836380       00183044NNMDGCPXNSODILUC CENTRE LECLER    20090701
05904108-20                                                                   00000120 836547       00168000NYMDGELOYCORA COLMAR - HOUSSEN    20090701
05904108-20                                                                   00000060 833529       00181069NNMDGCPXNLAVIDA CENTRE LECLERC    20090702
05904108-20                                                                   00000120 835170       00133315NNMDGNGONHYPER COSMOS CENTRE L    20090702
05904108-20                                                                   00000120 836553       00168023NYMDGELOYCORA WITTENHEIM          20090702
05904108-20                                                                   00000060 835909       00167025NNMDGELOYCORA STRASBOURG          20090703
05904108-20                                                                   00000040 833759       00162308NNMDGCPXNCARVIDIS CENTRE LECLE    20090706
05904108-20                                                                   00000040 835175       00185170NNMDGNGONOUDAIRIDIS CENTRE LEC    20090706
05904108-20                                                                   00000060 833573       00113274NNMDGCPXNCENTRE LECLERC MARSEI    20090707
05904108-20                                                                   00000100 834377       00133317NNMDGCPXNLANGON DISTR. CTRE LE    20090707
05904108-20                                                                   00000060 836440       00113300NNMDGNGONTUILLIERES DIS.CTRE L    20090710
05904108-20                                                                   00000040 835354       00183044NNMDGCPXNSODILUC CENTRE LECLER    20090715
05904108-20                                                                   00000020 836452       00106111NNMDGCPXYMELHODI CENTRE LECLER    20090722
05904108-20                                                                   00000160 836377       00113601NNMDGCPXNSALONDIS CENTRE LECLE    20090724
05904108-20                                                                   00000020 836435       00106111NNMDGCPXYMELHODI CENTRE LECLER    20090804
05904108-20                                                                   00000140 835861       00113601NNMDGCPXNSALONDIS CENTRE LECLE    20090814
05914108-20                                                                   00001080 824126       00114999NYMDGCLDYMODLING                  20090130
05914108-20                                                                   00000012 836118       00151139NNMDGCPXNSCAPEST                  20090206
05914108-20                                                                   00000012 836645       00106111NNMDGNGONMELHODI CENTRE LECLER    20090209
05914108-20                                                                   00000012 832614       00003990NNMDGISANELBA OFFICE PRODUCTS     20090225
05914108-20                                                                   00000468 831657       00127016NNMDGSYGNRP DIFFUSION VR AUBEV    20090402
05914108-20                                                                   00000012 836557       00142089NNMDGSYAYRIBON SA                 20090402
05914108-20                                                                   00000024 831341       00129091NNMDGSYAYHYPERBURO BREST          20090403
05914108-20                                                                   00000012 831912       00135601NNMDGSYAYHYPERBURO REDON          20090403
05914108-20                                                                   00000012 835632       00106601NNMDGSYTYPRIVAT SORBONNE-ANTIB    20090408
05914108-20                                                                   00000012 836403       00374272NYEURCATNLIBRAIRIE GERARD         20090422
05914108-20                                                                   00000012 829995       00183660NNMDGS03YPAP VAROISE              20090428
05914108-20                                                                   00000012 829993       00110075NNMDGJOSYETS LEBLANC              20090429
05914108-20                                                                   00000024 835336       00146033NNMDGSYAYBUREAU SYSTEME           20090429
05914108-20                                                                   00000024 830335       00131150NYMDGJOSYPAPETERIE OSCAR          20090430
05914108-20                                                                   00000012 830179       00165400NNMDGJOSYLIBRAIRIE PYRENEISTE     20090504
05914108-20                                                                   00000012 830339       00106300NNMDGJOSYSARL ARTS-LIVRES DIFF    20090504
05914108-20                                                                   00000024 831426       00146050NNMDGSYGYQUERCY ROUERGUE EQUIP    20090504
05914108-20                                                                   00000012 833220       00171102NNMDGSYTNMAISON DE LA PRESSE      20090504
05914108-20                                                                   00000012 833967       00142036NNMDGSYTNFORUM ST ETIENNE         20090504
05914108-20                                                                   00000036 834021       00124400NNMDGSYTYFORUM BERGERAC           20090504
05914108-20                                                                   00000012 834440       00167046NNMDGJOSYMAISON DE PRESSE BAST    20090504
05914108-20                                                                   00000036 834709       00133019NYMDGJOSYSDGB ALICE MEDIA STOR    20090504
05914108-20                                                                   00000012 834711       00125500NNMDGSYTYFORUM BESANCON           20090504
05914108-20                                                                   00000012 835338       00133388NNMDGS03YPAPETERIE CHAIGNE        20090504
05914108-20                                                                   00000012 835994       00187050NYMDGS01YESPACE PAPETERIE         20090504
05914108-20                                                                   00000012 828097       00118032NNMDGSYAYDACTYL BURO DU CENTRE    20090505
05914108-20                                                                   00000012 834877       00127041NYMDGJOSYUNIVERS DU LIVRE EVRE    20090505
05914108-20                                                                   00000012 835627       00168011NNMDGSYTYFORUM GUEBWILLER         20090505
05914108-20                                                                   00000012 831697       00177192NNMDGJOSYPAPETERIE DU MARCHE      20090506
05914108-20                                                                   00000036 835699       00178224NNMDGJOSYUNIVERS DU LIVRE ST G    20090512
05914108-20                                                                   00000120 829510       00175313NNMDGJOSYGN PARTENAIRES - ADOM    20090513
05914108-20                                                                   00000012 829523       00125102NNMDGSYAYTIREP - BURO +           20090520
05914108-20                                                                   00000084 836180       00144150NNMDGCPXNBRIANDIS CENTRE LECLE    20090612
05914108-20                                                                   00000060 836449       00144090NNMDGNGONPARIS DISTR. CTRE LEC    20090612
05914108-20                                                                   00000048 833503       00179061NNMDGCPXNTHOUARS DISTR CTRE LE    20090617
05914108-20                                                                   00000024 835998       00152037NNMDGCPXNSO.LA.DI CENTRE LECLE    20090617
05914108-20                                                                   00000120 833541       00165021NNMDGCPXNCDA SUD OUEST CENTRE     20090618
05914108-20                                                                   00000012 834739       00130133NNMDGCPXNANGLEDIS CENTRE LECLE    20090618
05914108-20                                                                   00000084 835351       00154056NNMDGELOYCORA HOUDEMONT           20090618
05914108-20                                                                   00000120 836527       00189005NNMDGNGONAUXERDIS CENTRE LECLE    20090618
05914108-20                                                                   00000036 836529       00158049NNMDGNGONDECIZE DISTR CTRE LEC    20090618
05914108-20                                                                   00000108 833506       00185149NNMDGCPXNSODIROCHE CENTRE LECL    20090619
05914108-20                                                                   00000012 834893       00195250NNMDGNGONGONESDIS                 20090619
05914108-20                                                                   00000060 835985       00144144NNMDGCPXNSODIRETZ CENTRE LECLE    20090619
05914108-20                                                                   00000048 836191       00182000NNMDGCPXNSODIBAG CENTRE LECLER    20090619
05914108-20                                                                   00000180 833555       00111000NNMDGCPXNT.P.L.M.CENTRE LECLER    20090623
05914108-20                                                                   00000204 834729       00130133NNMDGCPXNANGLEDIS CENTRE LECLE    20090623
05914108-20                                                                   00000084 836458       00192304NNMDGCPXYLEVALLOIS EXPLOITATIO    20090623
05914108-20                                                                   00000072 836464       00193500NNMDGCPXYPANTIN DISTR CTRE LEC    20090623
05914108-20                                                                   00000060 836097       00149500NNMDGCPXNSEGRE DISTR. CTRE LEC    20090624
05914108-20                                                                   00000048 833076       00147122NNMDGCPXNST PIERRE DIST.CTR LE    20090625
05914108-20                                                                   00000072 833537       00147250NNMDGCPXNCENTRE LECLERC MARMAN    20090626
05914108-20                                                                   00000060 834202       00146034NNMDGCPXNSOCAPDIS CENTRE LECLE    20090626
05914108-20                                                                   00000048 836469       00185057NNMDGNGONSODIVARDIERE CENTRE L    20090626
05914108-20                                                                   00000036 832915       00177100NNMDGCPXNSODIMEAUX CENTRE LECL    20090629
05914108-20                                                                   00000204 833915       00104004NNMDGCPXNSODIALPES CENTRE LECL    20090629
05914108-20                                                                   00000048 834012       00128016NNMDGCPXNSODICHAR CENTRE LECLE    20090629
05914108-20                                                                   00000036 835350       00190400NNMDGELOYCORA BELFORT             20090630
05914108-20                                                                   00000060 836176       00135530NNMDGCPXNCTRE LECLERC NOYAL /     20090630
05914108-20                                                                   00000012 836375       00113601NNMDGCPXNSALONDIS CENTRE LECLE    20090630
05914108-20                                                                   00000120 836554       00157007NYMDGJMOYCORA ST AVOLD            20090630
05914108-20                                                                   00000036 832694       00141029NNMDGCPXNSOBLEDIS CENTRE LECLE    20090701
05914108-20                                                                   00000012 833629       00113274NNMDGCPXNCENTRE LECLERC MARSEI    20090701
05914108-20                                                                   00000024 834014       00191154NNMDGCPXNMASSY-DISTR. CTRE LEC    20090701
05914108-20                                                                   00000048 834369       00106210NNMDGCPXNNIKAIADIS II CENTRE L    20090701
05914108-20                                                                   00000048 835078       00144031NNMDGNGONNANTES NORD DIST.CTR     20090701
05914108-20                                                                   00000012 836380       00183044NNMDGCPXNSODILUC CENTRE LECLER    20090701
05914108-20                                                                   00000120 836547       00168000NYMDGELOYCORA COLMAR - HOUSSEN    20090701
05914108-20                                                                   00000036 833529       00181069NNMDGCPXNLAVIDA CENTRE LECLERC    20090702
05914108-20                                                                   00000120 836553       00168023NYMDGELOYCORA WITTENHEIM          20090702
05914108-20                                                                   00000012 832679       00185148NNMDGCPXNSODINOVE CENTRE LECLE    20090703
05914108-20                                                                   00000024 832696       00177084NNMDGCPXNMAVIDIS CENTRE LECLER    20090703
05914108-20                                                                   00000048 835909       00167025NNMDGELOYCORA STRASBOURG          20090703
05914108-20                                                                   00000108 833573       00113274NNMDGCPXNCENTRE LECLERC MARSEI    20090707
05914108-20                                                                   00000060 834377       00133317NNMDGCPXNLANGON DISTR. CTRE LE    20090707
05914108-20                                                                   00000084 833498       00185900NNMDGCPXNSODILONNE CENTRE LECL    20090708
05914108-20                                                                   00000060 835983       00149033NNMDGCPXNGOURONNIERES DIST.C.L    20090710
05914108-20                                                                   00000048 836440       00113300NNMDGNGONTUILLIERES DIS.CTRE L    20090710
05914108-20                                                                   00000036 832902       00128017NNMDGCPXNAVREDIS CENTRE LECLER    20090713
05914108-20                                                                   00000072 835354       00183044NNMDGCPXNSODILUC CENTRE LECLER    20090715
05914108-20                                                                   00000012 836452       00106111NNMDGCPXYMELHODI CENTRE LECLER    20090722
05914108-20                                                                   00000120 836377       00113601NNMDGCPXNSALONDIS CENTRE LECLE    20090724
05914108-20                                                                   00000060 836435       00106111NNMDGCPXYMELHODI CENTRE LECLER    20090804
05914108-20                                                                   00000108 835861       00113601NNMDGCPXNSALONDIS CENTRE LECLE    20090814
05924108-20                                                                   00000204 832614       00003990NNMDGISANELBA OFFICE PRODUCTS     20090225
05924108-20                                                                   00000096 831657       00127016NNMDGSYGNRP DIFFUSION VR AUBEV    20090402
05924108-20                                                                   00000012 834440       00167046NNMDGJOSYMAISON DE PRESSE BAST    20090504
05924108-20                                                                   00000024 834442       00167051NNMDGSYAY KISTER                  20090505
05924108-20                                                                   00000060 835351       00154056NNMDGELOYCORA HOUDEMONT           20090618
05924108-20                                                                   00000036 836527       00189005NNMDGNGONAUXERDIS CENTRE LECLE    20090618
05924108-20                                                                   00000024 834731       00161054NNMDGCPXNARGENTAN DISTR.CTRE L    20090623
05924108-20                                                                   00000024 832490       00114129NNMDGPPANLISIEUX DISTR.CTRE LE    20090625
05924108-20                                                                   00000300 834575       00184114NNMDGCPXNAUZON VENTOUX CENTRE     20090625
05924108-20                                                                   00000060 833915       00104004NNMDGCPXNSODIALPES CENTRE LECL    20090629
05924108-20                                                                   00000036 834008       00183499NNMDGCPXNLA SEYDIS CENTRE LECL    20090630
05924108-20                                                                   00000072 834369       00106210NNMDGCPXNNIKAIADIS II CENTRE L    20090701
05924108-20                                                                   00000024 835976       00114117NNMDGCPXNHONFLEUR DISTR.CTRE L    20090701
05944108-20                                                                   00000432 824126       00114999NYMDGCLDYMODLING                  20090130
05944108-20                                                                   00000156 832614       00003990NNMDGISANELBA OFFICE PRODUCTS     20090225
05944108-20                                                                   00000168 831657       00127016NNMDGSYGNRP DIFFUSION VR AUBEV    20090402
05944108-20                                                                   00000012 835632       00106601NNMDGSYTYPRIVAT SORBONNE-ANTIB    20090408
05944108-20                                                                   00000012 836403       00374272NYEURCATNLIBRAIRIE GERARD         20090422
05944108-20                                                                   00000012 835011       00149120NNMDGSYAYHYPERBURO ANGERS         20090429
05944108-20                                                                   00000012 835336       00146033NNMDGSYAYBUREAU SYSTEME           20090429
05944108-20                                                                   00000012 830335       00131150NYMDGJOSYPAPETERIE OSCAR          20090430
05944108-20                                                                   00000012 830339       00106300NNMDGJOSYSARL ARTS-LIVRES DIFF    20090504
05944108-20                                                                   00000024 831426       00146050NNMDGSYGYQUERCY ROUERGUE EQUIP    20090504
05944108-20                                                                   00000012 833220       00171102NNMDGSYTNMAISON DE LA PRESSE      20090504
05944108-20                                                                   00000012 833967       00142036NNMDGSYTNFORUM ST ETIENNE         20090504
05944108-20                                                                   00000012 834021       00124400NNMDGSYTYFORUM BERGERAC           20090504
05944108-20                                                                   00000012 834440       00167046NNMDGJOSYMAISON DE PRESSE BAST    20090504
05944108-20                                                                   00000024 834709       00133019NYMDGJOSYSDGB ALICE MEDIA STOR    20090504
05944108-20                                                                   00000012 835994       00187050NYMDGS01YESPACE PAPETERIE         20090504
05944108-20                                                                   00000012 835627       00168011NNMDGSYTYFORUM GUEBWILLER         20090505
05944108-20                                                                   00000024 829510       00175313NNMDGJOSYGN PARTENAIRES - ADOM    20090513
05944108-20                                                                   00000096 833541       00165021NNMDGCPXNCDA SUD OUEST CENTRE     20090618
05944108-20                                                                   00000012 836527       00189005NNMDGNGONAUXERDIS CENTRE LECLE    20090618
05944108-20                                                                   00000012 834893       00195250NNMDGNGONGONESDIS                 20090619
05944108-20                                                                   00000012 836191       00182000NNMDGCPXNSODIBAG CENTRE LECLER    20090619
05944108-20                                                                   00000024 833100       00181070NNMDGCPXNGAILLAC DISTRIB.CTRE     20090622
05944108-20                                                                   00000024 833537       00147250NNMDGCPXNCENTRE LECLERC MARMAN    20090626
05944108-20                                                                   00000012 834202       00146034NNMDGCPXNSOCAPDIS CENTRE LECLE    20090626
05944108-20                                                                   00000024 834377       00133317NNMDGCPXNLANGON DISTR. CTRE LE    20090707
05964108-20                                                                   00000224 824126       00114999NYMDGCLDYMODLING                  20090130
05964108-20                                                                   00000014 836118       00151139NNMDGCPXNSCAPEST                  20090206
05964108-20                                                                   00000014 836413       00102999NNMDGAGANCARREFOUR HYPERMARCHE    20090206
05964108-20                                                                   00000014 836567       00198635NNMDGSYTNBHV RIVOLI               20090213
05964108-20                                                                   00000042 832614       00003990NNMDGISANELBA OFFICE PRODUCTS     20090225
05964108-20                                                                   00000014 829241       00126034NNMDGJOSYPAPETERIE DEVAL          20090401
05964108-20                                                                   00000140 831657       00127016NNMDGSYGNRP DIFFUSION VR AUBEV    20090402
05964108-20                                                                   00000014 835632       00106601NNMDGSYTYPRIVAT SORBONNE-ANTIB    20090408
05964108-20                                                                   00000014 836403       00374272NYEURCATNLIBRAIRIE GERARD         20090422
05964108-20                                                                   00000014 829995       00183660NNMDGS03YPAP VAROISE              20090428
05964108-20                                                                   00000014 833967       00142036NNMDGSYTNFORUM ST ETIENNE         20090504
05964108-20                                                                   00000014 834021       00124400NNMDGSYTYFORUM BERGERAC           20090504
05964108-20                                                                   00000014 834709       00133019NYMDGJOSYSDGB ALICE MEDIA STOR    20090504
05964108-20                                                                   00000014 835994       00187050NYMDGS01YESPACE PAPETERIE         20090504
05964108-20                                                                   00000014 836529       00158049NNMDGNGONDECIZE DISTR CTRE LEC    20090618
05964108-20                                                                   00000014 834893       00195250NNMDGNGONGONESDIS                 20090619
05964108-20                                                                   00000014 833555       00111000NNMDGCPXNT.P.L.M.CENTRE LECLER    20090623
05964108-20                                                                   00000014 832490       00114129NNMDGPPANLISIEUX DISTR.CTRE LE    20090625
05964108-20                                                                   00000014 833537       00147250NNMDGCPXNCENTRE LECLERC MARMAN    20090626
05964108-20                                                                   00000028 834202       00146034NNMDGCPXNSOCAPDIS CENTRE LECLE    20090626
05964108-20                                                                   00000014 836375       00113601NNMDGCPXNSALONDIS CENTRE LECLE    20090630
05964108-20                                                                   00000014 834369       00106210NNMDGCPXNNIKAIADIS II CENTRE L    20090701
05964108-20                                                                   00000014 834377       00133317NNMDGCPXNLANGON DISTR. CTRE LE    20090707
05974108-20                                                                   00000960 824126       00114999NYMDGCLDYMODLING                  20090130
05974108-20                                                                   00000040 835022       00183124NNMDGSYTNPRIVAT TOULON            20090211
05974108-20                                                                   00000040 836567       00198635NNMDGSYTNBHV RIVOLI               20090213
05974108-20                                                                   00000480 831657       00127016NNMDGSYGNRP DIFFUSION VR AUBEV    20090402
05974108-20                                                                   00000040 831341       00129091NNMDGSYAYHYPERBURO BREST          20090403
05974108-20                                                                   00000080 835632       00106601NNMDGSYTYPRIVAT SORBONNE-ANTIB    20090408
05974108-20                                                                   00000040 834312       00172035NNMDGSYAYHYPERBURO LE MANS        20090421
05974108-20                                                                   00000040 835011       00149120NNMDGSYAYHYPERBURO ANGERS         20090429
05974108-20                                                                   00000040 836439       00174506NYMDGSYTNLIVRES & CO ANNEMASSE    20090429
05974108-20                                                                   00000040 836650       00130098NYMDGS03YLIB-PAP. GOYARD          20090430
05974108-20                                                                   00000040 829239       00113419NNMDGJOSYLIBRAIRIE PAPETERIE D    20090504
05974108-20                                                                   00000040 830339       00106300NNMDGJOSYSARL ARTS-LIVRES DIFF    20090504
05974108-20                                                                   00000040 835338       00133388NNMDGS03YPAPETERIE CHAIGNE        20090504
05974108-20                                                                   00000040 828097       00118032NNMDGSYAYDACTYL BURO DU CENTRE    20090505
05974108-20                                                                   00000080 829510       00175313NNMDGJOSYGN PARTENAIRES - ADOM    20090513
05974108-20                                                                   00000040 829523       00125102NNMDGSYAYTIREP - BURO +           20090520
05974108-20                                                                   00000040 832578       00176173NNMDGPPANCITADIS CENTRE LECLER    20090611
05974108-20                                                                   00000040 835998       00152037NNMDGCPXNSO.LA.DI CENTRE LECLE    20090617
05974108-20                                                                   00000040 832672       00124120NNMDGCPXNBERCADIS CENTRE LECLE    20090618
05974108-20                                                                   00000080 833541       00165021NNMDGCPXNCDA SUD OUEST CENTRE     20090618
05974108-20                                                                   00000040 834739       00130133NNMDGCPXNANGLEDIS CENTRE LECLE    20090618
05974108-20                                                                   00000040 836527       00189005NNMDGNGONAUXERDIS CENTRE LECLE    20090618
