G854026-20          00000020 835559       00145165NNMDGCOLYVIKING DIRECT            090209
G854026-20          00000050 835588       00113810NNMDGCOLYVIKING DIRECT            090209
G858026-20          00000102 835692       00160065NNMDGCOLNOFFICE DEPOT BS SAS      090213
X000353-20          00017988 827334       00192451NNMDGCPXNSIPLEC                   090212
X000354-20          00020925 827334       00192451NNMDGCPXNSIPLEC                   090212
X000355-20          00018672 827334       00192451NNMDGCPXNSIPLEC                   090212
X000356-20          00016870 827334       00192451NNMDGCPXNSIPLEC                   090212
X000630-20          00152730 836334       00197011NNMDGCPXYGALEC                    090520
X000631-20          00158400 836334       00197011NNMDGCPXYGALEC                    090520
X000632-20          00153490 836334       00197011NNMDGCPXYGALEC                    090520
X000635-20          00110844 836334       00197011NNMDGCPXYGALEC                    090520
00036-20            00000140 834972       00160065NNMDGCOLNOFFICE DEPOT BS SAS      090206
00036-20            00000035 835928       00153041NNMDGCOLYLYRECO FRANCE            090211
00036-20            00000100 834084       00193397NNMDGSYAYSACFOM (CENTRALE)        090212
00036-20            00000035 836067       00193003NNMDGSYGYSPICERS                  090212
00036-20            00000100 835137       00193397NNMDGSYAYSACFOM (CENTRALE)        090226
00044011            00000002 836541       00113193NNMDGSYAYPAP DU COMMERCE          090206
00044011            00000032 835923       00153043NNMDGCOLYLYRECO SA                090210
00044011            00000060 834084       00193397NNMDGSYAYSACFOM (CENTRALE)        090212
00044011            00000014 836285       00191017NNMDGS02YCORPORATE EXPRESS FRA    090213
00044011            00000052 836584       00191017NYMDGS02YCORPORATE EXPRESS FRA    090217
00044011            00000120 836656       00160065NNMDGCOLNOFFICE DEPOT BS SAS      090220
00044011            00000004 834641       00125103NNMDGS03YLIB DE L UNIVERSITE D    090511
00045-06            00000400 836656       00160065NNMDGCOLNOFFICE DEPOT BS SAS      090220
00045011            00000080 836324       00191040NNMDGS02NJM BRUNEAU               090206
00045011            00000050 836310       00138065NNMDGS02YFIDUCIAL BUREAUTIQUE     090212
00045011            00000040 836402       00144032NNMDGSYANALTER BURO DISTRIBUTI    090212
00045011            00000100 836602       00160065NNMDGCOLNOFFICE DEPOT BS SAS      090213
00045011            00000050 836656       00160065NNMDGCOLNOFFICE DEPOT BS SAS      090220
00045011            00000010 834641       00125103NNMDGS03YLIB DE L UNIVERSITE D    090511
00045031            00000030 835669       00195015NNMDGS02YJ.P.G.                   090210
00045031            00000100 835795       00138065NNMDGS02YFIDUCIAL BUREAUTIQUE     090210
00045031            00000030 836415       00195015NNMDGS02YJ.P.G.                   090210
00045031            00000050 836313       00193003NNMDGSYGYSPICERS                  090212
00045031            00000020 836402       00144032NNMDGSYANALTER BURO DISTRIBUTI    090212
00045031            00000080 835132       00193397NNMDGSYAYSACFOM (CENTRALE)        090213
00045051            00000050 835692       00160065NNMDGCOLNOFFICE DEPOT BS SAS      090213
00045071            00000060 834084       00193397NNMDGSYAYSACFOM (CENTRALE)        090212
00045961            00000000 836549       00115006NNMDGS03YINTERACTIVE HPC          090206
00045961            00000050 835865       00462040NYMDGCATNLIBRAIRIE ANTILLAISE     090415
00048-06            00000020 835590       00193003NNMDGSYGYSPICERS                  090206
00048-06            00000015 836285       00191017NNMDGS02YCORPORATE EXPRESS FRA    090213
00048011            00000200 834972       00160065NNMDGCOLNOFFICE DEPOT BS SAS      090206
00048011            00000010 836378       00154138NYMDGSYAYETS SCHALLER TT POUR     090206
00048011            00000010 836541       00113193NNMDGSYAYPAP DU COMMERCE          090206
00048011            00000100 836303       00145165NNMDGCOLYVIKING DIRECT            090209
00048011            00000075 835931       00191040NNMDGS02NJM BRUNEAU               090211
00048011            00000100 836067       00193003NNMDGSYGYSPICERS                  090212
00048011            00000020 836285       00191017NNMDGS02YCORPORATE EXPRESS FRA    090213
00048011            00000025 836584       00191017NYMDGS02YCORPORATE EXPRESS FRA    090217
00048011            00000080 836422       00191040NNMDGS02NJM BRUNEAU               090218
00048011            00000100 836604       00160065NNMDGCOLNOFFICE DEPOT BS SAS      090220
00048011            00000275 835137       00193397NNMDGSYAYSACFOM (CENTRALE)        090226
00048031            00000010 836615       00187040NYMDGS01YFABREGUE DUO             090206
00048031            00000050 836574       00145165NYMDGCOLYVIKING DIRECT            090212
00048031            00000020 836285       00191017NNMDGS02YCORPORATE EXPRESS FRA    090213
00048031            00000010 836584       00191017NYMDGS02YCORPORATE EXPRESS FRA    090217
00048051            00000015 836285       00191017NNMDGS02YCORPORATE EXPRESS FRA    090213
00048071            00000060 834084       00193397NNMDGSYAYSACFOM (CENTRALE)        090212
00048071            00000010 836067       00193003NNMDGSYGYSPICERS                  090212
00048071            00000050 835692       00160065NNMDGCOLNOFFICE DEPOT BS SAS      090213
00048071            00000010 836584       00191017NYMDGS02YCORPORATE EXPRESS FRA    090217
00048961            00000005 836567       00198635NNMDGSYTNBHV RIVOLI               090213
00048961            00000005 834721       00107845NNMDGSYTYLIVRES & CO AUBENAS      090504
00048961            00000010 834641       00125103NNMDGS03YLIB DE L UNIVERSITE D    090511
00052-06            00000050 835559       00145165NNMDGCOLYVIKING DIRECT            090209
00052011            00000075 836324       00191040NNMDGS02NJM BRUNEAU               090206
00052011            00000005 836600       00173500NNMDGS03YLA PAPETERIE SA          090206
00052011            00000010 836615       00187040NYMDGS01YFABREGUE DUO             090206
00052011            00000020 835936       00195015NNMDGS02YJ.P.G.                   090209
00052011            00000050 836574       00145165NYMDGCOLYVIKING DIRECT            090212
00052011            00000025 836422       00191040NNMDGS02NJM BRUNEAU               090218
00052031            00000030 836285       00191017NNMDGS02YCORPORATE EXPRESS FRA    090213
00052031            00000010 836584       00191017NYMDGS02YCORPORATE EXPRESS FRA    090217
00052031            00000100 836604       00160065NNMDGCOLNOFFICE DEPOT BS SAS      090220
00052051            00000010 836303       00145165NNMDGCOLYVIKING DIRECT            090209
00052051            00000005 836578       00113810NYMDGCOLYVIKING DIRECT            090209
00052051            00000020 836285       00191017NNMDGS02YCORPORATE EXPRESS FRA    090213
00052051            00000005 836584       00191017NYMDGS02YCORPORATE EXPRESS FRA    090217
00052071            00000010 836067       00193003NNMDGSYGYSPICERS                  090212
00052071            00000025 836313       00193003NNMDGSYGYSPICERS                  090212
00052071            00000010 836584       00191017NYMDGS02YCORPORATE EXPRESS FRA    090217
00052071            00000050 836656       00160065NNMDGCOLNOFFICE DEPOT BS SAS      090220
00052961            00000065 835865       00462040NYMDGCATNLIBRAIRIE ANTILLAISE     090415
00052961            00000005 834721       00107845NNMDGSYTYLIVRES & CO AUBENAS      090504
00055-06            00000005 836285       00191017NNMDGS02YCORPORATE EXPRESS FRA    090213
00055011            00000030 835936       00195015NNMDGS02YJ.P.G.                   090209
00055011            00000020 836306       00195015NNMDGS02YJ.P.G.                   090209
00055011            00000020 835931       00191040NNMDGS02NJM BRUNEAU               090211
00055011            00000005 836285       00191017NNMDGS02YCORPORATE EXPRESS FRA    090213
00055011            00000025 836584       00191017NYMDGS02YCORPORATE EXPRESS FRA    090217
00055011            00000050 836656       00160065NNMDGCOLNOFFICE DEPOT BS SAS      090220
00055011            00000010 834641       00125103NNMDGS03YLIB DE L UNIVERSITE D    090511
00055031            00000005 836541       00113193NNMDGSYAYPAP DU COMMERCE          090206
00055031            00000010 836615       00187040NYMDGS01YFABREGUE DUO             090206
00055031            00000050 835445       00153043NNMDGCOLYLYRECO SA                090209
00055031            00000050 836623       00102188NNMDGSYGYM.D.S                    090210
00055031            00000010 836285       00191017NNMDGS02YCORPORATE EXPRESS FRA    090213
00055031            00000100 836483       00153043NNMDGCOLYLYRECO SA                090217
00055031            00000010 836584       00191017NYMDGS02YCORPORATE EXPRESS FRA    090217
00055051            00000005 836285       00191017NNMDGS02YCORPORATE EXPRESS FRA    090213
00055051            00000005 836584       00191017NYMDGS02YCORPORATE EXPRESS FRA    090217
00055071            00000005 836378       00154138NYMDGSYAYETS SCHALLER TT POUR     090206
00055071            00000040 835923       00153043NNMDGCOLYLYRECO SA                090210
00055071            00000025 836623       00102188NNMDGSYGYM.D.S                    090210
00055071            00000050 834084       00193397NNMDGSYAYSACFOM (CENTRALE)        090212
00055071            00000050 835137       00193397NNMDGSYAYSACFOM (CENTRALE)        090226
00055961            00000005 836286       00138700NNMDGS01YBUREAU VALLEE BOURGOU    090206
00056-06            00000280 836604       00160065NNMDGCOLNOFFICE DEPOT BS SAS      090220
00056011            00000020 836324       00191040NNMDGS02NJM BRUNEAU               090206
00056011            00000020 835669       00195015NNMDGS02YJ.P.G.                   090210
00056011            00000010 836285       00191017NNMDGS02YCORPORATE EXPRESS FRA    090213
00056011            00000015 836584       00191017NYMDGS02YCORPORATE EXPRESS FRA    090217
00056011            00000020 836422       00191040NNMDGS02NJM BRUNEAU               090218
00056011            00000010 834641       00125103NNMDGS03YLIB DE L UNIVERSITE D    090511
00056031            00000005 834906       00182067NNMDGSYGYDIFPAP                   090206
00056031            00000010 836615       00187040NYMDGS01YFABREGUE DUO             090206
00056031            00000010 836303       00145165NNMDGCOLYVIKING DIRECT            090209
00056031            00000020 836574       00145165NYMDGCOLYVIKING DIRECT            090212
00056031            00000200 836656       00160065NNMDGCOLNOFFICE DEPOT BS SAS      090220
00056051            00000005 834026       00182067NNMDGSYGYDIFPAP                   090206
00056071            00000015 836313       00193003NNMDGSYGYSPICERS                  090212
00057011            00000002 834026       00182067NNMDGSYGYDIFPAP                   090206
00057011            00000080 834973       00160065NNMDGCOLNOFFICE DEPOT BS SAS      090206
00057011            00000014 835714       00191017NNMDGS02YCORPORATE EXPRESS FRA    090206
00057011            00000008 836285       00191017NNMDGS02YCORPORATE EXPRESS FRA    090213
00057011            00000048 836584       00191017NYMDGS02YCORPORATE EXPRESS FRA    090217
00057011            00000080 836656       00160065NNMDGCOLNOFFICE DEPOT BS SAS      090220
00057011            00000006 834641       00125103NNMDGS03YLIB DE L UNIVERSITE D    090511
00057051            00000020 836574       00145165NYMDGCOLYVIKING DIRECT            090212
00057051            00000008 834641       00125103NNMDGS03YLIB DE L UNIVERSITE D    090511
00058031            00000100 836584       00191017NYMDGS02YCORPORATE EXPRESS FRA    090217
00058061            00000015 835590       00193003NNMDGSYGYSPICERS                  090206
00058061            00000005 836584       00191017NYMDGS02YCORPORATE EXPRESS FRA    090217
00058161            00000005 836378       00154138NYMDGSYAYETS SCHALLER TT POUR     090206
00058181            00000005 836584       00191017NYMDGS02YCORPORATE EXPRESS FRA    090217
00058901            00000020 834906       00182067NNMDGSYGYDIFPAP                   090206
00058901            00000050 836578       00113810NYMDGCOLYVIKING DIRECT            090209
00058901            00000010 836567       00198635NNMDGSYTNBHV RIVOLI               090213
00058901            00000010 834641       00125103NNMDGS03YLIB DE L UNIVERSITE D    090511
00059061            00000010 836229       00195382NNMDGS01YMETRO CASH AND CARRY     090211
00059061            00000005 836285       00191017NNMDGS02YCORPORATE EXPRESS FRA    090213
00059181            00000005 835590       00193003NNMDGSYGYSPICERS                  090206
00059901            00000005 836303       00145165NNMDGCOLYVIKING DIRECT            090209
00059901            00000050 836578       00113810NYMDGCOLYVIKING DIRECT            090209
00059901            00000095 835928       00153041NNMDGCOLYLYRECO FRANCE            090211
00059901            00000010 836574       00145165NYMDGCOLYVIKING DIRECT            090212
00059901            00000250 835692       00160065NNMDGCOLNOFFICE DEPOT BS SAS      090213
00059901            00000010 836567       00198635NNMDGSYTNBHV RIVOLI               090213
00060031            00000005 836584       00191017NYMDGS02YCORPORATE EXPRESS FRA    090217
00060181            00000010 836067       00193003NNMDGSYGYSPICERS                  090212
00060181            00000005 836584       00191017NYMDGS02YCORPORATE EXPRESS FRA    090217
00060901            00000005 836077       00193351NYMDGSYGYPERIWAY GROUP            090204
00060901            00000005 836541       00113193NNMDGSYAYPAP DU COMMERCE          090206
00060901            00000030 835669       00195015NNMDGS02YJ.P.G.                   090210
00060901            00000100 835692       00160065NNMDGCOLNOFFICE DEPOT BS SAS      090213
00060901            00000010 836567       00198635NNMDGSYTNBHV RIVOLI               090213
00060901            00000050 835137       00193397NNMDGSYAYSACFOM (CENTRALE)        090226
00065961            00000150 835590       00193003NNMDGSYGYSPICERS                  090206
00065961            00000065 836324       00191040NNMDGS02NJM BRUNEAU               090206
00065961            00000100 836623       00102188NNMDGSYGYM.D.S                    090210
00065961            00000010 836422       00191040NNMDGS02NJM BRUNEAU               090218
00065961            00000005 834641       00125103NNMDGS03YLIB DE L UNIVERSITE D    090511
00087012            00000020 835590       00193003NNMDGSYGYSPICERS                  090206
00087012            00000001 836541       00113193NNMDGSYAYPAP DU COMMERCE          090206
00087012            00000001 836600       00173500NNMDGS03YLA PAPETERIE SA          090206
00087012            00000004 836626       00003990NNMDGISANELBA OFFICE PRODUCTS     090213
00087012            00000010 834641       00125103NNMDGS03YLIB DE L UNIVERSITE D    090511
00089082            00000050 836324       00191040NNMDGS02NJM BRUNEAU               090206
00089082            00000050 836609       00164006NNMDGSYAYGIE GROUPE AB            090209
00089082            00000050 836402       00144032NNMDGSYANALTER BURO DISTRIBUTI    090212
00089082            00000050 836422       00191040NNMDGS02NJM BRUNEAU               090218
00092012            00000040 835928       00153041NNMDGCOLYLYRECO FRANCE            090211
00092012            00000018 836313       00193003NNMDGSYGYSPICERS                  090212
00092012            00000050 835692       00160065NNMDGCOLNOFFICE DEPOT BS SAS      090213
00092012            00000005 834641       00125103NNMDGS03YLIB DE L UNIVERSITE D    090511
00094-20            00000020 835722       00191017NNMDGS02YCORPORATE EXPRESS FRA    090206
00094-20            00000020 836303       00145165NNMDGCOLYVIKING DIRECT            090209
00094-20            00000040 835764       00191017NNMDGS02YCORPORATE EXPRESS FRA    090210
00094-20            00000400 834084       00193397NNMDGSYAYSACFOM (CENTRALE)        090212
00094-20            00000080 836313       00193003NNMDGSYGYSPICERS                  090212
00094-20            00000400 836432       00191040NNMDGS02NJM BRUNEAU               090213
00094-20            00000700 836482       00153041NNMDGCOLYLYRECO FRANCE            090217
00107013            00000010 835714       00191017NNMDGS02YCORPORATE EXPRESS FRA    090206
00107013            00000005 829387       00374100NYMDGCATNSELECT REUNION BURO S    090212
00107013            00000008 834641       00125103NNMDGS03YLIB DE L UNIVERSITE D    090511
00116503            00000100 835590       00193003NNMDGSYGYSPICERS                  090206
00127-20            00000060 836067       00193003NNMDGSYGYSPICERS                  090212
00142086            00000010 833660       00159655NYMDGS01NTOP OFFICE DINAN         090114
00142086            00000000 835431       00147520NNMDGS03YLACAN HYPER PLEIN CIE    090206
00142086            00000100 835590       00193003NNMDGSYGYSPICERS                  090206
00142086            00000280 835132       00193397NNMDGSYAYSACFOM (CENTRALE)        090213
00142086            00000010 834641       00125103NNMDGS03YLIB DE L UNIVERSITE D    090511
00153012            00000002 834587       00820051NYMDGCATNPAPETERIE AS DE TREFL    090210
00153012            00000005 836623       00102188NNMDGSYGYM.D.S                    090210
00156-20            00000025 836574       00145165NYMDGCOLYVIKING DIRECT            090212
00165-17            00000010 835738       00191017NNMDGS02YCORPORATE EXPRESS FRA    090209
00165-17            00000040 835935       00153041NNMDGCOLYLYRECO FRANCE            090211
00165-17            00000320 835321       00138065YNTR S02YFIDUCIAL BUREAUTIQUE     090213
00165-20            00000020 835931       00191040NNMDGS02NJM BRUNEAU               090211
00265400            00000005 836615       00187040NYMDGS01YFABREGUE DUO             090206
00375062            00000100 836644       00152104NNMDGSYAYHYPERBURO ST DIZIER      090210
00375062            00001000 835895       00250000NYMDGCATNFUCSIA                   090213
00375062            00004000 835137       00193397NNMDGSYAYSACFOM (CENTRALE)        090226
00481013            00000010 834973       00160065NNMDGCOLNOFFICE DEPOT BS SAS      090206
00481013            00000002 834587       00820051NYMDGCATNPAPETERIE AS DE TREFL    090210
00485-20            00000020 836067       00193003NNMDGSYGYSPICERS                  090212
00490031            00000010 836283       00169250NNMDGSYGNRP DIFFUSION - LYON      090209
00490031            00000050 835137       00193397NNMDGSYAYSACFOM (CENTRALE)        090226
00490081            00000005 834906       00182067NNMDGSYGYDIFPAP                   090206
00490081            00000400 835692       00160065NNMDGCOLNOFFICE DEPOT BS SAS      090213
00490081            00000400 836479       00153043NNMDGCOLYLYRECO SA                090216
00490081            00000100 836581       00191017NYMDGS02YCORPORATE EXPRESS FRA    090217
00490131            00000150 835795       00138065NNMDGS02YFIDUCIAL BUREAUTIQUE     090210
00490131            00000030 835132       00193397NNMDGSYAYSACFOM (CENTRALE)        090213
00490151            00000020 834084       00193397NNMDGSYAYSACFOM (CENTRALE)        090212
00490961            00000250 834906       00182067NNMDGSYGYDIFPAP                   090206
00490961            00000250 836279       00127016NNMDGSYGNRP DIFFUSION VR AUBEV    090206
00490961            00000350 836378       00154138NYMDGSYAYETS SCHALLER TT POUR     090206
00490961            00000250 835770       00191017NNMDGS02YCORPORATE EXPRESS FRA    090210
00490961            00002500 835927       00153043NNMDGCOLYLYRECO SA                090211
00490961            00001500 836067       00193003NNMDGSYGYSPICERS                  090212
00490961            00007500 835692       00160065NNMDGCOLNOFFICE DEPOT BS SAS      090213
00490961            00000950 836581       00191017NYMDGS02YCORPORATE EXPRESS FRA    090217
00490961            00003500 835137       00193397NNMDGSYAYSACFOM (CENTRALE)        090226
00513081            00000040 836310       00138065NNMDGS02YFIDUCIAL BUREAUTIQUE     090212
00531011            00000000 836413       00102999NNMDGAGANCARREFOUR HYPERMARCHE    090206
00531011            00000005 836443       00184114NNMDGCPXNAUZON VENTOUX CENTRE     090206
00531011            00000000 836570       00149033NNMDGNGONGOURONNIERES DIST.C.L    090206
00532401            00000005 832925       00159102NYMDGS01NTOP OFFICE ALES          090108
00532401            00000005 835141       00193003NNMDGSYGYSPICERS                  090205
00532401            00000010 834587       00820051NYMDGCATNPAPETERIE AS DE TREFL    090210
00532401            00000120 836574       00145165NYMDGCOLYVIKING DIRECT            090212
00532411            00000005 835966       00106602NNMDGSYTYPRIVAT SORBONNE-NICE     090504
00532441            00000010 834587       00820051NYMDGCATNPAPETERIE AS DE TREFL    090210
00532441            00000005 836281       00452875NYMDGCATN'STECHER & STECHER S.    090327
00537-20            00000020 836077       00193351NYMDGSYGYPERIWAY GROUP            090204
00537-20            00000360 835443       00153041NNMDGCOLYLYRECO FRANCE            090206
00537-20            00000180 835913       00191040NNMDGS02NJM BRUNEAU               090206
00537-20            00000600 836566       00153041NNMDGCOLYLYRECO FRANCE            090206
00537-20            00001200 835447       00153041NNMDGCOLYLYRECO FRANCE            090210
00537-20            00000160 834084       00193397NNMDGSYAYSACFOM (CENTRALE)        090212
00537-20            00000020 836292       00191017NNMDGS02YCORPORATE EXPRESS FRA    090213
00537-20            00000300 836602       00160065NNMDGCOLNOFFICE DEPOT BS SAS      090213
00537-20            00000300 836603       00160065NNMDGCOLNOFFICE DEPOT BS SAS      090220
00539401            00000005 834587       00820051NYMDGCATNPAPETERIE AS DE TREFL    090210
00539401            00000080 835132       00193397NNMDGSYAYSACFOM (CENTRALE)        090213
00539441            00000005 834587       00820051NYMDGCATNPAPETERIE AS DE TREFL    090210
00539441            00000005 835966       00106602NNMDGSYTYPRIVAT SORBONNE-NICE     090504
00546401            00000030 836313       00193003NNMDGSYGYSPICERS                  090212
00546401            00000005 835966       00106602NNMDGSYTYPRIVAT SORBONNE-NICE     090504
00546441            00000040 836310       00138065NNMDGS02YFIDUCIAL BUREAUTIQUE     090212
00551083            00000020 831036       00174016NNMDGSYAYABAC TECHNIC BUREAU      090506
00552-17            00000010 835713       00191017NNMDGS02YCORPORATE EXPRESS FRA    090206
00552-17            00000080 834084       00193397NNMDGSYAYSACFOM (CENTRALE)        090212
00552-17            00000020 831036       00174016NNMDGSYAYABAC TECHNIC BUREAU      090506
00554-17            00000020 831036       00174016NNMDGSYAYABAC TECHNIC BUREAU      090506
00573-17            00000100 836207       00004025NNMDGCATNSOFT-CARRIER             090206
00573-17            00000010 833071       00138073NNMDGJOSYLIBRAIRIE-PAP. BLANCH    090403
00573-17            00000010 830182       00177008NNMDGJOSYAMYOT J.                 090429
00573-17            00000010 835966       00106602NNMDGSYTYPRIVAT SORBONNE-NICE     090504
00573-17            00000020 834197       00145007NNMDGSYTYPRIVAT LODDE - ORLEAN    090522
00603-17            00000005 835796       00138065NNMDGS02YFIDUCIAL BUREAUTIQUE     090206
00603-17            00000100 829387       00374100NYMDGCATNSELECT REUNION BURO S    090212
00603-17            00000015 831036       00174016NNMDGSYAYABAC TECHNIC BUREAU      090506
00605-17            00000005 834864       00103800NNMDGJOSYCOTE PAPIER              090504
00616-17            00000010 831036       00174016NNMDGSYAYABAC TECHNIC BUREAU      090506
00735011            00000030 835590       00193003NNMDGSYGYSPICERS                  090206
00735011            00000010 836285       00191017NNMDGS02YCORPORATE EXPRESS FRA    090213
00911500            00000840 834726       00160065NNMDGCOLNOFFICE DEPOT BS SAS      090206
00911500            00000105 836578       00113810NYMDGCOLYVIKING DIRECT            090209
00966-17            00000100 836229       00195382NNMDGS01YMETRO CASH AND CARRY     090211
00966-17            00000200 835137       00193397NNMDGSYAYSACFOM (CENTRALE)        090226
01033-17            00000160 835590       00193003NNMDGSYGYSPICERS                  090206
01033-17            00000320 835928       00153041NNMDGCOLYLYRECO FRANCE            090211
01033-17            00000160 835935       00153041NNMDGCOLYLYRECO FRANCE            090211
01033-17            00000020 836567       00198635NNMDGSYTNBHV RIVOLI               090213
01033-17            00000200 836602       00160065NNMDGCOLNOFFICE DEPOT BS SAS      090213
01033-17            00000200 836603       00160065NNMDGCOLNOFFICE DEPOT BS SAS      090220
01033-17            00000040 835741       00272725NYMDGCATNLIBRAIRIE DE FRANCE G    090424
01047-17            00000020 835590       00193003NNMDGSYGYSPICERS                  090206
01047-17            00000020 835919       00153041NNMDGCOLYLYRECO FRANCE            090211
01047-17            00000040 835741       00272725NYMDGCATNLIBRAIRIE DE FRANCE G    090424
01102082            00000100 836623       00102188NNMDGSYGYM.D.S                    090210
01105082            00000250 836310       00138065NNMDGS02YFIDUCIAL BUREAUTIQUE     090212
01106082            00000280 834973       00160065NNMDGCOLNOFFICE DEPOT BS SAS      090206
01106082            00000035 835710       00191017NNMDGS02YCORPORATE EXPRESS FRA    090206
01106082            00000035 835738       00191017NNMDGS02YCORPORATE EXPRESS FRA    090209
01106082            00000070 836313       00193003NNMDGSYGYSPICERS                  090212
01113-17            00000020 836322       00138065NNMDGS02YFIDUCIAL BUREAUTIQUE     090213
01545971            00000010 836615       00187040NYMDGS01YFABREGUE DUO             090206
01545971            00000020 835633       00106601NYMDGSYTYPRIVAT SORBONNE-ANTIB    090625
01546971            00000010 836615       00187040NYMDGS01YFABREGUE DUO             090206
01546971            00000020 835633       00106601NYMDGSYTYPRIVAT SORBONNE-ANTIB    090625
01706351            00000080 835710       00191017NNMDGS02YCORPORATE EXPRESS FRA    090206
01706351            00000040 835738       00191017NNMDGS02YCORPORATE EXPRESS FRA    090209
01706351            00000160 836313       00193003NNMDGSYGYSPICERS                  090212
01706351            00000240 835692       00160065NNMDGCOLNOFFICE DEPOT BS SAS      090213
01747971            00000040 835633       00106601NYMDGSYTYPRIVAT SORBONNE-ANTIB    090625
01799501            00000160 835935       00153041NNMDGCOLYLYRECO FRANCE            090211
01806081            00000005 833793       00162750NYMDGS01YBUREAU VALLEE BERCK      090115
01806081            00000005 834922       00159850NYMDGS01YBUREAU VALLEE WATTIGN    090130
01806081            00000005 836083       00180500NYMDGS01YBUREAU VALLEE AMIENS     090204
01806081            00000005 835796       00138065NNMDGS02YFIDUCIAL BUREAUTIQUE     090206
01806081            00000005 836286       00138700NNMDGS01YBUREAU VALLEE BOURGOU    090206
01806081            00000050 836324       00191040NNMDGS02NJM BRUNEAU               090206
01806081            00000005 836587       00159381NNMDGSYTNLE FURET DU NORD LILL    090206
01806081            00000005 836615       00187040NYMDGS01YFABREGUE DUO             090206
01806081            00000075 836623       00102188NNMDGSYGYM.D.S                    090210
01806081            00000140 836422       00191040NNMDGS02NJM BRUNEAU               090218
01806081            00000010 835966       00106602NNMDGSYTYPRIVAT SORBONNE-NICE     090504
01906011            00000030 835714       00191017NNMDGS02YCORPORATE EXPRESS FRA    090206
01906011            00000010 836451       00175306NNMDGJOSYGIBERT JOSEPH VITRY      090206
01906011            00000010 831093       00174305NNMDGJOSYBUREAU SERVICE           090504
01907011            00000010 834906       00182067NNMDGSYGYDIFPAP                   090206
01907011            00000020 836451       00175306NNMDGJOSYGIBERT JOSEPH VITRY      090206
01907011            00000010 831093       00174305NNMDGJOSYBUREAU SERVICE           090504
01907011            00000010 834707       00189124NNMDGS03YVOILLOT                  090518
01908011            00000010 836451       00175306NNMDGJOSYGIBERT JOSEPH VITRY      090206
01908961            00000010 831093       00174305NNMDGJOSYBUREAU SERVICE           090504
01909961            00000010 831093       00174305NNMDGJOSYBUREAU SERVICE           090504
01910011            00000010 836451       00175306NNMDGJOSYGIBERT JOSEPH VITRY      090206
01912011            00000030 836451       00175306NNMDGJOSYGIBERT JOSEPH VITRY      090206
01912011            00000100 836303       00145165NNMDGCOLYVIKING DIRECT            090209
01912011            00000010 836584       00191017NYMDGS02YCORPORATE EXPRESS FRA    090217
01912031            00000010 836451       00175306NNMDGJOSYGIBERT JOSEPH VITRY      090206
01914011            00000030 835714       00191017NNMDGS02YCORPORATE EXPRESS FRA    090206
01914011            00000030 836451       00175306NNMDGJOSYGIBERT JOSEPH VITRY      090206
01914011            00000020 836285       00191017NNMDGS02YCORPORATE EXPRESS FRA    090213
01914011            00000010 836584       00191017NYMDGS02YCORPORATE EXPRESS FRA    090217
01914011            00000010 831093       00174305NNMDGJOSYBUREAU SERVICE           090504
01915011            00000020 834906       00182067NNMDGSYGYDIFPAP                   090206
01915011            00000100 835590       00193003NNMDGSYGYSPICERS                  090206
01915011            00000090 836229       00195382NNMDGS01YMETRO CASH AND CARRY     090211
01915011            00000010 835741       00272725NYMDGCATNLIBRAIRIE DE FRANCE G    090424
01916011            00000100 835590       00193003NNMDGSYGYSPICERS                  090206
01916011            00000100 836229       00195382NNMDGS01YMETRO CASH AND CARRY     090211
01916011            00000010 835741       00272725NYMDGCATNLIBRAIRIE DE FRANCE G    090424
01917011            00000010 835741       00272725NYMDGCATNLIBRAIRIE DE FRANCE G    090424
01962081            00000030 836130       00264950NYMDGCATNLIBRAIRIE BUFALO         090423
01993011            00000300 835935       00153041NNMDGCOLYLYRECO FRANCE            090211
01993011            00000800 836564       00153041NYMDGCOLYLYRECO FRANCE            090212
01993011            00000080 836584       00191017NYMDGS02YCORPORATE EXPRESS FRA    090217
01993091            00000010 836609       00164006NNMDGSYAYGIE GROUPE AB            090209
01993091            00000060 834084       00193397NNMDGSYAYSACFOM (CENTRALE)        090212
01993091            00000060 836584       00191017NYMDGS02YCORPORATE EXPRESS FRA    090217
01993961            00000040 836584       00191017NYMDGS02YCORPORATE EXPRESS FRA    090217
01994011            00000200 835928       00153041NNMDGCOLYLYRECO FRANCE            090211
01994011            00000090 836584       00191017NYMDGS02YCORPORATE EXPRESS FRA    090217
01994031            00000200 835928       00153041NNMDGCOLYLYRECO FRANCE            090211
01994031            00000230 835935       00153041NNMDGCOLYLYRECO FRANCE            090211
01994031            00000080 836313       00193003NNMDGSYGYSPICERS                  090212
01994031            00000020 836584       00191017NYMDGS02YCORPORATE EXPRESS FRA    090217
01994071            00000040 836285       00191017NNMDGS02YCORPORATE EXPRESS FRA    090213
01994091            00000020 836584       00191017NYMDGS02YCORPORATE EXPRESS FRA    090217
01994961            00000200 836623       00102188NNMDGSYGYM.D.S                    090210
01994961            00000055 836285       00191017NNMDGS02YCORPORATE EXPRESS FRA    090213
01994961            00000025 836584       00191017NYMDGS02YCORPORATE EXPRESS FRA    090217
01995011            00000010 836541       00113193NNMDGSYAYPAP DU COMMERCE          090206
01995011            00000020 836609       00164006NNMDGSYAYGIE GROUPE AB            090209
01995011            00000300 835928       00153041NNMDGCOLYLYRECO FRANCE            090211
01995011            00000400 834084       00193397NNMDGSYAYSACFOM (CENTRALE)        090212
01995011            00000060 836285       00191017NNMDGS02YCORPORATE EXPRESS FRA    090213
01995011            00000100 836584       00191017NYMDGS02YCORPORATE EXPRESS FRA    090217
01995031            00000100 836623       00102188NNMDGSYGYM.D.S                    090210
01995031            00000120 835132       00193397NNMDGSYAYSACFOM (CENTRALE)        090213
01995031            00000030 836584       00191017NYMDGS02YCORPORATE EXPRESS FRA    090217
01995071            00000040 836584       00191017NYMDGS02YCORPORATE EXPRESS FRA    090217
01995091            00000040 836584       00191017NYMDGS02YCORPORATE EXPRESS FRA    090217
01995961            00000005 836600       00173500NNMDGS03YLA PAPETERIE SA          090206
01995961            00000200 836623       00102188NNMDGSYGYM.D.S                    090210
01995961            00000055 836285       00191017NNMDGS02YCORPORATE EXPRESS FRA    090213
01996011            00000015 836324       00191040NNMDGS02NJM BRUNEAU               090206
01996011            00000300 835928       00153041NNMDGCOLYLYRECO FRANCE            090211
01996011            00000120 836584       00191017NYMDGS02YCORPORATE EXPRESS FRA    090217
01996011            00000010 836422       00191040NNMDGS02NJM BRUNEAU               090218
01996031            00000250 835928       00153041NNMDGCOLYLYRECO FRANCE            090211
01996031            00000075 836584       00191017NYMDGS02YCORPORATE EXPRESS FRA    090217
01996071            00000005 836541       00113193NNMDGSYAYPAP DU COMMERCE          090206
01996071            00000050 836584       00191017NYMDGS02YCORPORATE EXPRESS FRA    090217
01996091            00000065 836584       00191017NYMDGS02YCORPORATE EXPRESS FRA    090217
01996961            00000010 836279       00127016NNMDGSYGNRP DIFFUSION VR AUBEV    090206
01996961            00000060 836623       00102188NNMDGSYGYM.D.S                    090210
01997011            00000050 836541       00113193NNMDGSYAYPAP DU COMMERCE          090206
01997011            00000030 836609       00164006NNMDGSYAYGIE GROUPE AB            090209
01997011            00000050 836623       00102188NNMDGSYGYM.D.S                    090210
01997011            00000055 836285       00191017NNMDGS02YCORPORATE EXPRESS FRA    090213
01997011            00000065 836584       00191017NYMDGS02YCORPORATE EXPRESS FRA    090217
01997031            00000200 835928       00153041NNMDGCOLYLYRECO FRANCE            090211
01997031            00000015 836584       00191017NYMDGS02YCORPORATE EXPRESS FRA    090217
01997091            00000060 834084       00193397NNMDGSYAYSACFOM (CENTRALE)        090212
01997091            00000020 836584       00191017NYMDGS02YCORPORATE EXPRESS FRA    090217
01997961            00000075 836229       00195382NNMDGS01YMETRO CASH AND CARRY     090211
02034011            00000048 834973       00160065NNMDGCOLNOFFICE DEPOT BS SAS      090206
02034011            00000048 836303       00145165NNMDGCOLYVIKING DIRECT            090209
02034011            00000024 836306       00195015NNMDGS02YJ.P.G.                   090209
02049011            00000030 836313       00193003NNMDGSYGYSPICERS                  090212
02050081            00000020 835190       00127110NNMDGAGANS.D.E. CENTRE LECLERC    090206
02050081            00000020 836118       00151139NNMDGCPXNSCAPEST                  090206
02050081            00000040 836412       00133145NNMDGAGANCARREFOUR HYPERMARCHE    090206
02050081            00000000 836413       00102999NNMDGAGANCARREFOUR HYPERMARCHE    090206
02050081            00000060 835221       00496710NNMDGCATNACODIS                   090210
02050081            00000040 836361       00043750NNMDGCATNPAPERERIA SOL JUAN SA    090210
02050081            00000400 836475       00145610NNMDGAGANC S F FRANCE SAS         090210
02050081            00000400 835928       00153041NNMDGCOLYLYRECO FRANCE            090211
02050081            00000120 834084       00193397NNMDGSYAYSACFOM (CENTRALE)        090212
02050081            00000180 836067       00193003NNMDGSYGYSPICERS                  090212
02050081            00000600 836310       00138065NNMDGS02YFIDUCIAL BUREAUTIQUE     090212
02050081            00000160 836628       00134173NNMDGAGANSYSTEME "U" SUD          090212
02050081            00000020 835638       00106603NYMDGSYTYPRIVAT SORBONNE-CANNE    090506
02050081            00000020 835981       00144055NNMDGCPXNST HERBLAIN DIST.CTR     090608
02050081            00000080 836450       00144090NNMDGNGONPARIS DISTR. CTRE LEC    090612
02050081            00000020 832907       00156145NNMDGCPXNVADIS CENTRE LECLERC     090618
02050081            00000060 833507       00185149NNMDGCPXNSODIROCHE CENTRE LECL    090619
02050081            00000040 836192       00182000NNMDGCPXNSODIBAG CENTRE LECLER    090619
02050081            00000040 833556       00111000NNMDGCPXNT.P.L.M.CENTRE LECLER    090624
02050081            00000040 836098       00149500NNMDGCPXNSEGRE DISTR. CTRE LEC    090624
02050081            00000020 835633       00106601NYMDGSYTYPRIVAT SORBONNE-ANTIB    090625
02050081            00000040 833341       00150500NNMDGCPXYPEVILDIS CENTRE LECLE    090626
02050081            00000040 835847       00150017NNMDGNGONDIST L'AVRANCHIN C. L    090630
02050081            00000020 836375       00113601NNMDGCPXNSALONDIS CENTRE LECLE    090630
02050081            00000040 833533       00166044NNMDGCPXNVERNET DIS               090701
02050081            00000040 834369       00106210NNMDGCPXNNIKAIADIS II CENTRE L    090701
02050081            00000020 835171       00133315NNMDGCPXNHYPER COSMOS CENTRE L    090702
02050081            00000040 833159       00114058NNMDGCPXNSOBADIS CENTRE LECLER    090703
02050081            00000040 833497       00185900NNMDGCPXNSODILONNE CENTRE LECL    090708
02050081            00000020 836440       00113300NNMDGNGONTUILLIERES DIS.CTRE L    090710
02050081            00000040 832903       00128017NNMDGCPXNAVREDIS CENTRE LECLER    090715
02050081            00000020 836452       00106111NNMDGCPXYMELHODI CENTRE LECLER    090722
02050081            00000020 836377       00113601NNMDGCPXNSALONDIS CENTRE LECLE    090724
02050081            00000020 836435       00106111NNMDGCPXYMELHODI CENTRE LECLER    090804
02054081            00000040 835928       00153041NNMDGCOLYLYRECO FRANCE            090211
02060011            00000000 836601       00160065NNMDGCOLNOFFICE DEPOT BS SAS      090206
02060011            00000020 835669       00195015NNMDGS02YJ.P.G.                   090210
02060011            00000100 836574       00145165NYMDGCOLYVIKING DIRECT            090212
02060011            00000100 835692       00160065NNMDGCOLNOFFICE DEPOT BS SAS      090213
02060011            00000050 836656       00160065NNMDGCOLNOFFICE DEPOT BS SAS      090220
02061011            00000002 836078       00175598NYMDGJOSYCEBO                     090203
02061011            00000004 836517       00133161NYMDGS01YPAPETERIE GAMBETTA       090209
02061011            00000012 835132       00193397NNMDGSYAYSACFOM (CENTRALE)        090213
02062011            00000020 835936       00195015NNMDGS02YJ.P.G.                   090209
02062011            00000040 836303       00145165NNMDGCOLYVIKING DIRECT            090209
02062011            00000010 836517       00133161NYMDGS01YPAPETERIE GAMBETTA       090209
02063441            00000008 834587       00820051NYMDGCATNPAPETERIE AS DE TREFL    090210
02063441            00000012 836623       00102188NNMDGSYGYM.D.S                    090210
02063441            00000224 835931       00191040NNMDGS02NJM BRUNEAU               090211
02063441            00000004 836130       00264950NYMDGCATNLIBRAIRIE BUFALO         090423
02064011            00000028 835590       00193003NNMDGSYGYSPICERS                  090206
02064011            00000010 834084       00193397NNMDGSYAYSACFOM (CENTRALE)        090212
02064011            00000003 836658       00144032NYMDGSYANALTER BURO DISTRIBUTI    090212
02064011            00000001 835634       00106603NNMDGSYTYPRIVAT SORBONNE-CANNE    090218
02084031            00000490 830319       00604200NYMDGCATNMATTAR STATIONERY        090422
02084071            00000600 830319       00604200NYMDGCATNMATTAR STATIONERY        090422
02084091            00000480 830319       00604200NYMDGCATNMATTAR STATIONERY        090422
02084121            00000270 830319       00604200NYMDGCATNMATTAR STATIONERY        090422
02084141            00000080 830319       00604200NYMDGCATNMATTAR STATIONERY        090422
02085071            00000030 830319       00604200NYMDGCATNMATTAR STATIONERY        090422
02085091            00000260 830319       00604200NYMDGCATNMATTAR STATIONERY        090422
02085141            00000620 830319       00604200NYMDGCATNMATTAR STATIONERY        090422
02086031            00000235 830319       00604200NYMDGCATNMATTAR STATIONERY        090422
02086071            00000075 830319       00604200NYMDGCATNMATTAR STATIONERY        090422
02086091            00000190 830319       00604200NYMDGCATNMATTAR STATIONERY        090422
02086121            00000300 830319       00604200NYMDGCATNMATTAR STATIONERY        090422
02086141            00000265 830319       00604200NYMDGCATNMATTAR STATIONERY        090422
02092051            00000200 835795       00138065NNMDGS02YFIDUCIAL BUREAUTIQUE     090210
02094011            00001000 836310       00138065NNMDGS02YFIDUCIAL BUREAUTIQUE     090212
02095011            00000500 835795       00138065NNMDGS02YFIDUCIAL BUREAUTIQUE     090210
02095051            00000500 836310       00138065NNMDGS02YFIDUCIAL BUREAUTIQUE     090212
02096051            00000400 835795       00138065NNMDGS02YFIDUCIAL BUREAUTIQUE     090210
02112031            00000705 830319       00604200NYMDGCATNMATTAR STATIONERY        090422
02112071            00000125 830319       00604200NYMDGCATNMATTAR STATIONERY        090422
02112091            00000150 830319       00604200NYMDGCATNMATTAR STATIONERY        090422
02142011            00000120 835690       00160065NNMDGCOLNOFFICE DEPOT BS SAS      090206
02142011            00000006 836011       00159002NNMDGS03YLEHOUCK                  090206
02142011            00000012 834587       00820051NYMDGCATNPAPETERIE AS DE TREFL    090210
02142011            00000120 835051       00034600NNMDGSBONBANTEX A/S               090212
02142011            00000120 835692       00160065NNMDGCOLNOFFICE DEPOT BS SAS      090213
02142011            00000006 836567       00198635NNMDGSYTNBHV RIVOLI               090213
02142011            00000168 836653       00003990NNMDGISANELBA OFFICE PRODUCTS     090217
02142011            00000054 835694       00042800NNMDGSBONELBA SISTEMAS IBERICA    090226
02142011            00000006 836130       00264950NYMDGCATNLIBRAIRIE BUFALO         090423
02142011            00000084 835741       00272725NYMDGCATNLIBRAIRIE DE FRANCE G    090424
02142011            00000006 836634       00102201NYMDGS03YBUREAU 02                090429
02171031            00000600 836310       00138065NNMDGS02YFIDUCIAL BUREAUTIQUE     090212
02194401            00000080 836067       00193003NNMDGSYGYSPICERS                  090212
02194401            00000010 836567       00198635NNMDGSYTNBHV RIVOLI               090213
02194401            00000080 836602       00160065NNMDGCOLNOFFICE DEPOT BS SAS      090213
02194401            00000005 835634       00106603NNMDGSYTYPRIVAT SORBONNE-CANNE    090218
02194401            00000020 836589       00160065NNMDGCOLNOFFICE DEPOT BS SAS      090220
02194401            00000005 836130       00264950NYMDGCATNLIBRAIRIE BUFALO         090423
02194441            00000030 836623       00102188NNMDGSYGYM.D.S                    090210
02194441            00000025 836067       00193003NNMDGSYGYSPICERS                  090212
02194441            00000005 836130       00264950NYMDGCATNLIBRAIRIE BUFALO         090423
02217011            00001200 835928       00153041NNMDGCOLYLYRECO FRANCE            090211
02217091            00006070 830319       00604200NYMDGCATNMATTAR STATIONERY        090422
02218011            00000200 835891       00034600NNMDGSBONBANTEX A/S               090210
02218011            00001200 835928       00153041NNMDGCOLYLYRECO FRANCE            090211
02218011            00000400 836626       00003990NNMDGISANELBA OFFICE PRODUCTS     090213
02218011            00000480 835694       00042800NNMDGSBONELBA SISTEMAS IBERICA    090226
02218031            00001200 835928       00153041NNMDGCOLYLYRECO FRANCE            090211
02218091            00001200 835928       00153041NNMDGCOLYLYRECO FRANCE            090211
02218091            00001300 835444       00153041NNMDGCOLYLYRECO FRANCE            090217
02218121            00000200 835891       00034600NNMDGSBONBANTEX A/S               090210
02218121            00000420 836539       00042800NNMDGSBONELBA SISTEMAS IBERICA    090226
02219011            00000200 835891       00034600NNMDGSBONBANTEX A/S               090210
02219011            00001300 835466       00153041NNMDGCOLYLYRECO FRANCE            090219
02219071            00000400 836626       00003990NNMDGISANELBA OFFICE PRODUCTS     090213
02219121            00000200 835891       00034600NNMDGSBONBANTEX A/S               090210
02219121            00000500 835928       00153041NNMDGCOLYLYRECO FRANCE            090211
02219121            00000300 835694       00042800NNMDGSBONELBA SISTEMAS IBERICA    090226
02220011            00000200 835891       00034600NNMDGSBONBANTEX A/S               090210
02220091            00000400 835928       00153041NNMDGCOLYLYRECO FRANCE            090211
02220121            00000200 835891       00034600NNMDGSBONBANTEX A/S               090210
02220121            00001200 836565       00153041NYMDGCOLYLYRECO FRANCE            090210
02221011            00000800 835928       00153041NNMDGCOLYLYRECO FRANCE            090211
02221011            00000400 835935       00153041NNMDGCOLYLYRECO FRANCE            090211
02221011            00000200 836626       00003990NNMDGISANELBA OFFICE PRODUCTS     090213
02221011            00000200 836419       00034600NNMDGSBONBANTEX A/S               090217
02221011            00000200 834753       00042800NNMDGSBONELBA SISTEMAS IBERICA    090226
02221121            00000200 835891       00034600NNMDGSBONBANTEX A/S               090210
02221121            00000130 835694       00042800NNMDGSBONELBA SISTEMAS IBERICA    090226
02222011            00000300 835928       00153041NNMDGCOLYLYRECO FRANCE            090211
02222031            00000300 835928       00153041NNMDGCOLYLYRECO FRANCE            090211
02223011            00000400 835928       00153041NNMDGCOLYLYRECO FRANCE            090211
02224241            00000250 830319       00604200NYMDGCATNMATTAR STATIONERY        090422
02224311            00000110 830319       00604200NYMDGCATNMATTAR STATIONERY        090422
02225241            00000170 830319       00604200NYMDGCATNMATTAR STATIONERY        090422
02225311            00000050 830319       00604200NYMDGCATNMATTAR STATIONERY        090422
02226241            00000220 830319       00604200NYMDGCATNMATTAR STATIONERY        090422
02226311            00000280 830319       00604200NYMDGCATNMATTAR STATIONERY        090422
02228081            00000140 835446       00153041NNMDGCOLYLYRECO FRANCE            090210
02228081            00000070 836482       00153041YNTR COLYLYRECO FRANCE            090217
044029-20           00000012 836315       00114350NNMDGS01YBUREAU VALLEE BAYEUX     090206
044029-20           00000072 836451       00175306NNMDGJOSYGIBERT JOSEPH VITRY      090206
044029-20           00000012 836517       00133161NYMDGS01YPAPETERIE GAMBETTA       090209
044029-20           00000012 836567       00198635NNMDGSYTNBHV RIVOLI               090213
044029-20           00000012 836130       00264950NYMDGCATNLIBRAIRIE BUFALO         090423
044029-20           00000024 835967       00106602NNMDGSYTYPRIVAT SORBONNE-NICE     090427
044029-20           00000012 836650       00130098NYMDGS03YLIB-PAP. GOYARD          090430
044029-20           00000012 835638       00106603NYMDGSYTYPRIVAT SORBONNE-CANNE    090506
044129-09           00000036 836451       00175306NNMDGJOSYGIBERT JOSEPH VITRY      090206
044129-09           00000012 836567       00198635NNMDGSYTNBHV RIVOLI               090213
044129-09           00000012 836130       00264950NYMDGCATNLIBRAIRIE BUFALO         090423
044329-09           00000020 836451       00175306NNMDGJOSYGIBERT JOSEPH VITRY      090206
044329-09           00000080 834587       00820051NYMDGCATNPAPETERIE AS DE TREFL    090210
044329-09           00000100 836626       00003990NNMDGISANELBA OFFICE PRODUCTS     090213
044329-09           00000005 836130       00264950NYMDGCATNLIBRAIRIE BUFALO         090423
044329-09           00000010 835967       00106602NNMDGSYTYPRIVAT SORBONNE-NICE     090427
044329-09           00000005 834641       00125103NNMDGS03YLIB DE L UNIVERSITE D    090511
044329-09           00000005 835633       00106601NYMDGSYTYPRIVAT SORBONNE-ANTIB    090625
048029-09           00000003 836142       00124900NNMDGS01YBUREAU VALLEE PERIGUE    090204
048029-09           00000003 836484       00159652NNMDGS01NTOP OFFICE ST MALO       090206
048029-09           00000000 836543       00179350NNMDGS01YBUREAU VALLEE BRESSUI    090206
048029-09           00000006 836587       00159381NNMDGSYTNLE FURET DU NORD LILL    090206
048029-09           00000003 835921       00153041NNMDGCOLYLYRECO FRANCE            090211
048029-09           00000060 836322       00138065NNMDGS02YFIDUCIAL BUREAUTIQUE     090213
048029-09           00000012 836567       00198635NNMDGSYTNBHV RIVOLI               090213
048029-09           00000006 836130       00264950NYMDGCATNLIBRAIRIE BUFALO         090423
048029-09           00000009 835967       00106602NNMDGSYTYPRIVAT SORBONNE-NICE     090427
048029-09           00000003 836650       00130098NYMDGS03YLIB-PAP. GOYARD          090430
051034-03           00000100 835692       00160065NNMDGCOLNOFFICE DEPOT BS SAS      090213
051034-16           00000080 836615       00187040NYMDGS01YFABREGUE DUO             090206
051034-17           00000100 836656       00160065NNMDGCOLNOFFICE DEPOT BS SAS      090220
051034-17           00000020 835638       00106603NYMDGSYTYPRIVAT SORBONNE-CANNE    090506
051034-20           00000010 836083       00180500NYMDGS01YBUREAU VALLEE AMIENS     090204
051034-20           00000010 836252       00138230NNMDGS01YBUREAU VALLEE ECHIROL    090206
051034-20           00000010 836279       00127016NNMDGSYGNRP DIFFUSION VR AUBEV    090206
051034-20           00000100 836451       00175306NNMDGJOSYGIBERT JOSEPH VITRY      090206
051034-20           00000000 836538       00140006NNMDGNGONADOUR DISTR. CTRE LEC    090206
051034-20           00000000 836543       00179350NNMDGS01YBUREAU VALLEE BRESSUI    090206
051034-20           00000010 836587       00159381NNMDGSYTNLE FURET DU NORD LILL    090206
051034-20           00000080 834587       00820051NYMDGCATNPAPETERIE AS DE TREFL    090210
051034-20           00000150 836313       00193003NNMDGSYGYSPICERS                  090212
051034-20           00000200 836574       00145165NYMDGCOLYVIKING DIRECT            090212
051034-20           00000020 836567       00198635NNMDGSYTNBHV RIVOLI               090213
051034-20           00000020 835202       00114164NNMDGS03YPLEIN CIEL POINT VIRG    090430
051034-20           00000010 834717       00126337NNMDGSYTYLIVRES & CO BAUME        090504
051034-20           00000020 835966       00106602NNMDGSYTYPRIVAT SORBONNE-NICE     090504
051034-20           00000010 835638       00106603NYMDGSYTYPRIVAT SORBONNE-CANNE    090506
051034-20           00000010 833222       00171102NNMDGSYTNMAISON DE LA PRESSE      090511
051034-20           00000020 831870       00160141NNMDGPPANSAINT-JUDIST CENTRE L    090616
051034-20           00000050 836066       00135097NNMDGCPXNSODIRENNES CENTRE LEC    090616
051034-20           00000010 834739       00130133NNMDGCPXNANGLEDIS CENTRE LECLE    090618
051034-20           00000060 835987       00144144NNMDGCPXNSODIRETZ CENTRE LECLE    090619
051034-20           00000030 833101       00181070NNMDGCPXNGAILLAC DISTRIB.CTRE     090622
051034-20           00000090 834729       00130133NNMDGCPXNANGLEDIS CENTRE LECLE    090623
051034-20           00000090 834575       00184114NNMDGCPXNAUZON VENTOUX CENTRE     090625
051034-20           00000020 835633       00106601NYMDGSYTYPRIVAT SORBONNE-ANTIB    090625
051034-20           00000010 833628       00113256NNMDGCPXNSODISTRES CENTRE LECL    090630
051034-20           00000020 834369       00106210NNMDGCPXNNIKAIADIS II CENTRE L    090701
051034-20           00000130 835171       00133315NNMDGCPXNHYPER COSMOS CENTRE L    090702
051034-20           00000150 836198       00184500NNMDGCPXNBOLDIS CENTRE LECLERC    090702
051034-20           00000010 833581       00113256NNMDGCPXNSODISTRES CENTRE LECL    090706
051034-20           00000040 834456       00133317NNMDGCPXNLANGON DISTR. CTRE LE    090707
051034-20           00000050 834902       00184185NNMDGNGONSODIVAL CENTRE LECLER    090710
051034-20           00000030 836440       00113300NNMDGNGONTUILLIERES DIS.CTRE L    090710
051034-20           00000010 836452       00106111NNMDGCPXYMELHODI CENTRE LECLER    090722
051034-20           00000060 836435       00106111NNMDGCPXYMELHODI CENTRE LECLER    090804
05103401-22         00000300 835763       00263500NYMDGCATNDIACFA -                 090227
05121501            00004400 835852       00022800NNMDGISANLYRECO UK LTD            090210
05121501            00004400 836015       00022800NNMDGISANLYRECO UK LTD            090217
05122501            00004400 835848       00022800NNMDGISANLYRECO UK LTD            090210
05122501            00008800 835852       00022800NNMDGISANLYRECO UK LTD            090210
051226-20           00000000 836543       00179350NNMDGS01YBUREAU VALLEE BRESSUI    090206
051226-20           00000000 836585       00185950NNMDGS01YBUREAU VALLEE LES HER    090206
051226-20           00000010 836610       00175313NNMDGJOSYGN PARTENAIRES - ADOM    090206
051226-20           00000020 834587       00820051NYMDGCATNPAPETERIE AS DE TREFL    090210
051226-20           00000020 836567       00198635NNMDGSYTNBHV RIVOLI               090213
051226-20           00000060 836647       00184201NYMDGJOSYS.E.D.                   090403
051226-20           00000040 835967       00106602NNMDGSYTYPRIVAT SORBONNE-NICE     090427
051226-20           00000010 834721       00107845NNMDGSYTYLIVRES & CO AUBENAS      090504
051226-20           00000010 835019       00183107NNMDGJOSYPAPETERIE REMY           090504
051226-20           00000010 834848       00162312NNMDGSYAYHYPERBURO LONGUENESSE    090505
051226-20           00000010 836540       00156048NNMDGJOSYPAPETERIE LE BAYON       090505
051226-20           00000010 831036       00174016NNMDGSYAYABAC TECHNIC BUREAU      090506
051226-20           00000050 830703       00175003NNMDGJOSNLAMARTINE                090527
051226-20           00000010 835633       00106601NYMDGSYTYPRIVAT SORBONNE-ANTIB    090625
051226-20           00000020 835332       00173012NNMDGJOSYLIBRAIRIE DES BAUGES     090709
051226-20           00000050 830749       00175003NNMDGJOSNLAMARTINE                090722
051229-09           00000040 836279       00127016NNMDGSYGNRP DIFFUSION VR AUBEV    090206
051229-09           00000040 836283       00169250NNMDGSYGNRP DIFFUSION - LYON      090209
051229-20           00000010 836083       00180500NYMDGS01YBUREAU VALLEE AMIENS     090204
051229-20           00000010 836286       00138700NNMDGS01YBUREAU VALLEE BOURGOU    090206
051229-20           00000150 836451       00175306NNMDGJOSYGIBERT JOSEPH VITRY      090206
051229-20           00000010 836551       00177192NNMDGJOSYPAPETERIE DU MARCHE      090206
051229-20           00000030 836567       00198635NNMDGSYTNBHV RIVOLI               090213
051229-20           00001000 832097       00127016NNMDGSYGNRP DIFFUSION VR AUBEV    090226
051229-20           00000200 832445       00169250NNMDGSYGNRP DIFFUSION - LYON      090330
051229-20           00000010 836130       00264950NYMDGCATNLIBRAIRIE BUFALO         090423
051229-20           00000040 835967       00106602NNMDGSYTYPRIVAT SORBONNE-NICE     090427
051229-20           00000010 830182       00177008NNMDGJOSYAMYOT J.                 090429
051229-20           00000010 830452       00151143NNMDGJOSYAMORY                    090429
051229-20           00000200 832452       00169250NNMDGSYGNRP DIFFUSION - LYON      090429
051229-20           00000030 835202       00114164NNMDGS03YPLEIN CIEL POINT VIRG    090430
051229-20           00000010 834717       00126337NNMDGSYTYLIVRES & CO BAUME        090504
051229-20           00000010 834721       00107845NNMDGSYTYLIVRES & CO AUBENAS      090504
051229-20           00000010 835019       00183107NNMDGJOSYPAPETERIE REMY           090504
051229-20           00000020 835638       00106603NYMDGSYTYPRIVAT SORBONNE-CANNE    090506
051229-20           00000010 834197       00145007NNMDGSYTYPRIVAT LODDE - ORLEAN    090522
051229-20           00000200 832591       00169250NNMDGSYGNRP DIFFUSION - LYON      090601
051229-20           00000030 835633       00106601NYMDGSYTYPRIVAT SORBONNE-ANTIB    090625
051229-20           00000200 832598       00169250NNMDGSYGNRP DIFFUSION - LYON      090629
051229-20           00000010 835332       00173012NNMDGJOSYLIBRAIRIE DES BAUGES     090709
051626-20           00000010 833793       00162750NYMDGS01YBUREAU VALLEE BERCK      090115
051626-20           00000010 836083       00180500NYMDGS01YBUREAU VALLEE AMIENS     090204
051626-20           00000010 836142       00124900NNMDGS01YBUREAU VALLEE PERIGUE    090204
051626-20           00000060 836451       00175306NNMDGJOSYGIBERT JOSEPH VITRY      090206
051626-20           00000000 836543       00179350NNMDGS01YBUREAU VALLEE BRESSUI    090206
051626-20           00000010 836551       00177192NNMDGJOSYPAPETERIE DU MARCHE      090206
051626-20           00000000 836585       00185950NNMDGS01YBUREAU VALLEE LES HER    090206
051626-20           00000020 836567       00198635NNMDGSYTNBHV RIVOLI               090213
051626-20           00000040 835967       00106602NNMDGSYTYPRIVAT SORBONNE-NICE     090427
051626-20           00000010 836540       00156048NNMDGJOSYPAPETERIE LE BAYON       090505
051626-20           00000010 831036       00174016NNMDGSYAYABAC TECHNIC BUREAU      090506
051626-20           00000010 835638       00106603NYMDGSYTYPRIVAT SORBONNE-CANNE    090506
051626-20           00000050 830703       00175003NNMDGJOSNLAMARTINE                090527
051626-20           00000010 835633       00106601NYMDGSYTYPRIVAT SORBONNE-ANTIB    090625
051626-20           00000010 835332       00173012NNMDGJOSYLIBRAIRIE DES BAUGES     090709
051626-20           00000080 830749       00175003NNMDGJOSNLAMARTINE                090722
051629-09           00000030 836279       00127016NNMDGSYGNRP DIFFUSION VR AUBEV    090206
051629-20           00000010 833793       00162750NYMDGS01YBUREAU VALLEE BERCK      090115
051629-20           00000010 834922       00159850NYMDGS01YBUREAU VALLEE WATTIGN    090130
051629-20           00000010 836083       00180500NYMDGS01YBUREAU VALLEE AMIENS     090204
051629-20           00000010 836315       00114350NNMDGS01YBUREAU VALLEE BAYEUX     090206
051629-20           00000010 836610       00175313NNMDGJOSYGN PARTENAIRES - ADOM    090206
051629-20           00000030 836567       00198635NNMDGSYTNBHV RIVOLI               090213
051629-20           00000010 835634       00106603NNMDGSYTYPRIVAT SORBONNE-CANNE    090218
051629-20           00000640 832097       00127016NNMDGSYGNRP DIFFUSION VR AUBEV    090226
051629-20           00000080 832446       00169250NNMDGSYGNRP DIFFUSION - LYON      090226
051629-20           00000010 836640       00162777NYMDGSYTYFORUM BOULOGNE/MER       090310
051629-20           00000080 832445       00169250NNMDGSYGNRP DIFFUSION - LYON      090330
051629-20           00000010 836130       00264950NYMDGCATNLIBRAIRIE BUFALO         090423
051629-20           00000040 835967       00106602NNMDGSYTYPRIVAT SORBONNE-NICE     090427
051629-20           00000010 830182       00177008NNMDGJOSYAMYOT J.                 090429
051629-20           00000080 832452       00169250NNMDGSYGNRP DIFFUSION - LYON      090429
051629-20           00000050 835202       00114164NNMDGS03YPLEIN CIEL POINT VIRG    090430
051629-20           00000010 834721       00107845NNMDGSYTYLIVRES & CO AUBENAS      090504
051629-20           00000010 834864       00103800NNMDGJOSYCOTE PAPIER              090504
051629-20           00000010 835638       00106603NYMDGSYTYPRIVAT SORBONNE-CANNE    090506
051629-20           00000030 833222       00171102NNMDGSYTNMAISON DE LA PRESSE      090511
051629-20           00000080 832591       00169250NNMDGSYGNRP DIFFUSION - LYON      090601
051629-20           00000020 836638       00162777NYMDGSYTYFORUM BOULOGNE/MER       090601
051629-20           00000020 835633       00106601NYMDGSYTYPRIVAT SORBONNE-ANTIB    090625
051629-20           00000080 832598       00169250NNMDGSYGNRP DIFFUSION - LYON      090629
051629-20           00000010 835332       00173012NNMDGJOSYLIBRAIRIE DES BAUGES     090709
051631-06           00000304 835763       00263500NYMDGCATNDIACFA -                 090227
05170501            00000200 835163       00022250NNMDGISANELBA LTD                 090213
05170501            00000800 836343       00022250NNMDGISANELBA LTD                 090213
052029-03           00000300 835763       00263500NYMDGCATNDIACFA -                 090227
05335501            00000040 835190       00127110NNMDGAGANS.D.E. CENTRE LECLERC    090206
05335501            00000060 835690       00160065NNMDGCOLNOFFICE DEPOT BS SAS      090206
05335501            00000020 836632       00138078NNMDGNGONECHIROLLES DIST.CTRE     090210
05335501            00000060 835692       00160065NNMDGCOLNOFFICE DEPOT BS SAS      090213
05335501            00000120 836432       00191040NNMDGS02NJM BRUNEAU               090213
05335501            00000020 836567       00198635NNMDGSYTNBHV RIVOLI               090213
05335501            00000060 830703       00175003NNMDGJOSNLAMARTINE                090527
05335501            00000140 836115       00144023NNMDGCPXNANCENIS CENTRE LECLER    090610
05335501            00000540 836450       00144090NNMDGNGONPARIS DISTR. CTRE LEC    090612
05335501            00000260 832907       00156145NNMDGCPXNVADIS CENTRE LECLERC     090618
05335501            00000020 834739       00130133NNMDGCPXNANGLEDIS CENTRE LECLE    090618
05335501            00000060 836529       00158049NNMDGNGONDECIZE DISTR CTRE LEC    090618
05335501            00000480 832671       00124120NNMDGCPXNBERCADIS CENTRE LECLE    090619
05335501            00000280 833507       00185149NNMDGCPXNSODIROCHE CENTRE LECL    090619
05335501            00000120 836192       00182000NNMDGCPXNSODIBAG CENTRE LECLER    090619
05335501            00000200 834729       00130133NNMDGCPXNANGLEDIS CENTRE LECLE    090623
05335501            00000100 833077       00147122NNMDGCPXNST PIERRE DIST.CTR LE    090625
05335501            00000060 833341       00150500NNMDGCPXYPEVILDIS CENTRE LECLE    090626
05335501            00000140 833915       00104004NNMDGCPXNSODIALPES CENTRE LECL    090629
05335501            00000020 833629       00113274NNMDGCPXNCENTRE LECLERC MARSEI    090701
05335501            00000120 835365       00181069NNMDGNGONLAVIDA CENTRE LECLERC    090702
05335501            00000100 836198       00184500NNMDGCPXNBOLDIS CENTRE LECLERC    090702
05335501            00000080 834019       00126249NNMDGCPXNLOUIS ROUDAUT CENTRE     090706
05335501            00000160 835176       00185170NNMDGNGONOUDAIRIDIS CENTRE LEC    090706
05335501            00000140 833573       00113274NNMDGCPXNCENTRE LECLERC MARSEI    090707
05335501            00000200 834456       00133317NNMDGCPXNLANGON DISTR. CTRE LE    090707
05335501            00000280 836173       00144145NNMDGCPXNSODIJOUR CENTRE LECLE    090707
05335501            00000120 834902       00184185NNMDGNGONSODIVAL CENTRE LECLER    090710
05335501            00000040 832903       00128017NNMDGCPXNAVREDIS CENTRE LECLER    090715
05335501            00000060 833234       00135400NNMDGCPXNSAINT MALO DIST.CTRE     090715
05335501            00000060 833575       00142153NNMDGCPXNROADIS CENTRE LECLERC    090716
05335501            00000020 836452       00106111NNMDGCPXYMELHODI CENTRE LECLER    090722
05335501            00000120 836435       00106111NNMDGCPXYMELHODI CENTRE LECLER    090804
05335501            00000040 833576       00142153NNMDGCPXNROADIS CENTRE LECLERC    090806
05336501            00000100 835722       00191017NNMDGS02YCORPORATE EXPRESS FRA    090206
05336501            00000040 835764       00191017NNMDGS02YCORPORATE EXPRESS FRA    090210
05336501            00000040 836632       00138078NNMDGNGONECHIROLLES DIST.CTRE     090210
05336501            00000200 835692       00160065NNMDGCOLNOFFICE DEPOT BS SAS      090213
05336501            00000100 836432       00191040NNMDGS02NJM BRUNEAU               090213
05336501            00000020 836567       00198635NNMDGSYTNBHV RIVOLI               090213
05336501            00000100 832579       00176173NNMDGPPANCITADIS CENTRE LECLER    090611
05336501            00000020 834739       00130133NNMDGCPXNANGLEDIS CENTRE LECLE    090618
05336501            00000040 836529       00158049NNMDGNGONDECIZE DISTR CTRE LEC    090618
05336501            00000040 836192       00182000NNMDGCPXNSODIBAG CENTRE LECLER    090619
05336501            00000140 834729       00130133NNMDGCPXNANGLEDIS CENTRE LECLE    090623
05336501            00000080 833915       00104004NNMDGCPXNSODIALPES CENTRE LECL    090629
05336501            00000020 836380       00183044NNMDGCPXNSODILUC CENTRE LECLER    090701
05336501            00000080 835365       00181069NNMDGNGONLAVIDA CENTRE LECLERC    090702
05336501            00000060 834019       00126249NNMDGCPXNLOUIS ROUDAUT CENTRE     090706
05336501            00000120 834456       00133317NNMDGCPXNLANGON DISTR. CTRE LE    090707
05336501            00000140 834902       00184185NNMDGNGONSODIVAL CENTRE LECLER    090710
05336501            00000060 835354       00183044NNMDGCPXNSODILUC CENTRE LECLER    090715
05337501            00000000 836538       00140006NNMDGNGONADOUR DISTR. CTRE LEC    090206
05337501            00000100 830703       00175003NNMDGJOSNLAMARTINE                090527
05337501            00000060 836529       00158049NNMDGNGONDECIZE DISTR CTRE LEC    090618
05337501            00000120 836192       00182000NNMDGCPXNSODIBAG CENTRE LECLER    090619
05337501            00000040 835633       00106601NYMDGSYTYPRIVAT SORBONNE-ANTIB    090625
05337501            00000180 833538       00147250NNMDGCPXNCENTRE LECLERC MARMAN    090629
05337501            00000160 834203       00146034NNMDGCPXNSOCAPDIS CENTRE LECLE    090629
05337501            00000100 835365       00181069NNMDGNGONLAVIDA CENTRE LECLERC    090702
05337501            00000260 834019       00126249NNMDGCPXNLOUIS ROUDAUT CENTRE     090706
05337501            00000160 834456       00133317NNMDGCPXNLANGON DISTR. CTRE LE    090707
05337501            00000060 833575       00142153NNMDGCPXNROADIS CENTRE LECLERC    090716
05337501            00000260 830749       00175003NNMDGJOSNLAMARTINE                090722
05337501            00000020 836452       00106111NNMDGCPXYMELHODI CENTRE LECLER    090722
05337501            00000140 836435       00106111NNMDGCPXYMELHODI CENTRE LECLER    090804
05337501            00000040 833576       00142153NNMDGCPXNROADIS CENTRE LECLERC    090806
05338501            00000040 836529       00158049NNMDGNGONDECIZE DISTR CTRE LEC    090618
05338501            00000060 836192       00182000NNMDGCPXNSODIBAG CENTRE LECLER    090619
05338501            00000180 833538       00147250NNMDGCPXNCENTRE LECLERC MARMAN    090629
05338501            00000080 835365       00181069NNMDGNGONLAVIDA CENTRE LECLERC    090702
05338501            00000100 834019       00126249NNMDGCPXNLOUIS ROUDAUT CENTRE     090706
05338501            00000060 834456       00133317NNMDGCPXNLANGON DISTR. CTRE LE    090707
05382061            00000200 835928       00153041NNMDGCOLYLYRECO FRANCE            090211
05382061            00000100 835935       00153041NNMDGCOLYLYRECO FRANCE            090211
05392-20            00000080 836482       00153041NNMDGCOLYLYRECO FRANCE            090217
05397501            00000050 836274       00121601NNMDGCPXNPLATE FORME CORA LONG    090209
05398501            00000175 836274       00121601NNMDGCPXNPLATE FORME CORA LONG    090209
05399171            00001600 836312       00138065NNMDGS02YFIDUCIAL BUREAUTIQUE     090212
054026-20           00000020 836083       00180500NYMDGS01YBUREAU VALLEE AMIENS     090204
054026-20           00000060 836451       00175306NNMDGJOSYGIBERT JOSEPH VITRY      090206
054026-20           00000060 834587       00820051NYMDGCATNPAPETERIE AS DE TREFL    090210
054026-20           00000160 836067       00193003NNMDGSYGYSPICERS                  090212
054026-20           00000020 836567       00198635NNMDGSYTNBHV RIVOLI               090213
054026-20           00000260 835865       00462040NYMDGCATNLIBRAIRIE ANTILLAISE     090415
054026-20           00000040 835967       00106602NNMDGSYTYPRIVAT SORBONNE-NICE     090427
054026-20           00000020 834721       00107845NNMDGSYTYLIVRES & CO AUBENAS      090504
054026-20           00000020 835019       00183107NNMDGJOSYPAPETERIE REMY           090504
054026-20           00000020 831036       00174016NNMDGSYAYABAC TECHNIC BUREAU      090506
054026-20           00000020 835638       00106603NYMDGSYTYPRIVAT SORBONNE-CANNE    090506
054026-20           00000020 830703       00175003NNMDGJOSNLAMARTINE                090527
054026-20           00000040 835633       00106601NYMDGSYTYPRIVAT SORBONNE-ANTIB    090625
054026-20           00000020 835332       00173012NNMDGJOSYLIBRAIRIE DES BAUGES     090709
054026-20           00000040 830749       00175003NNMDGJOSNLAMARTINE                090722
054031-06           00000264 835763       00263500NYMDGCATNDIACFA -                 090227
054034-03           00000120 834972       00160065NNMDGCOLNOFFICE DEPOT BS SAS      090206
054034-16           00000036 834753       00042800NNMDGSBONELBA SISTEMAS IBERICA    090226
054034-17           00000024 834026       00182067NNMDGSYGYDIFPAP                   090206
054034-17           00000084 835714       00191017NNMDGS02YCORPORATE EXPRESS FRA    090206
054034-17           00000060 835588       00113810NNMDGCOLYVIKING DIRECT            090209
054034-17           00000024 836283       00169250NNMDGSYGNRP DIFFUSION - LYON      090209
054034-17           00000048 836623       00102188NNMDGSYGYM.D.S                    090210
054034-17           00000180 835692       00160065NNMDGCOLNOFFICE DEPOT BS SAS      090213
054034-17           00000012 834848       00162312NNMDGSYAYHYPERBURO LONGUENESSE    090505
054034-20           00000012 834922       00159850NYMDGS01YBUREAU VALLEE WATTIGN    090130
054034-20           00000012 836234       00176215NNMDGCPXNYVETODIS CENTRE LECLE    090206
054034-20           00000060 836451       00175306NNMDGJOSYGIBERT JOSEPH VITRY      090206
054034-20           00000012 836587       00159381NNMDGSYTNLE FURET DU NORD LILL    090206
054034-20           00000120 834587       00820051NYMDGCATNPAPETERIE AS DE TREFL    090210
054034-20           00000240 835132       00193397NNMDGSYAYSACFOM (CENTRALE)        090213
054034-20           00000108 835865       00462040NYMDGCATNLIBRAIRIE ANTILLAISE     090415
054034-20           00000012 836650       00130098NYMDGS03YLIB-PAP. GOYARD          090430
054034-20           00000012 831093       00174305NNMDGJOSYBUREAU SERVICE           090504
054034-20           00000012 834717       00126337NNMDGSYTYLIVRES & CO BAUME        090504
054034-20           00000012 835966       00106602NNMDGSYTYPRIVAT SORBONNE-NICE     090504
054034-20           00000012 835638       00106603NYMDGSYTYPRIVAT SORBONNE-CANNE    090506
054034-20           00000012 833222       00171102NNMDGSYTNMAISON DE LA PRESSE      090511
054034-20           00000036 832252       00163530NNMDGPPANENVAL DISTR. CTRE LEC    090610
054034-20           00000036 836066       00135097NNMDGCPXNSODIRENNES CENTRE LEC    090616
054034-20           00000060 835987       00144144NNMDGCPXNSODIRETZ CENTRE LECLE    090619
054034-20           00000120 836461       00192304NNMDGCPXYLEVALLOIS EXPLOITATIO    090623
054034-20           00000024 833077       00147122NNMDGCPXNST PIERRE DIST.CTR LE    090625
054034-20           00000120 834575       00184114NNMDGCPXNAUZON VENTOUX CENTRE     090625
054034-20           00000024 835633       00106601NYMDGSYTYPRIVAT SORBONNE-ANTIB    090625
054034-20           00000048 836499       00185057NNMDGNGONSODIVARDIERE CENTRE L    090626
054034-20           00000024 834369       00106210NNMDGCPXNNIKAIADIS II CENTRE L    090701
054034-20           00000120 836198       00184500NNMDGCPXNBOLDIS CENTRE LECLERC    090702
054034-20           00000024 834456       00133317NNMDGCPXNLANGON DISTR. CTRE LE    090707
054034-22           00000072 835763       00263500NYMDGCATNDIACFA -                 090227
05403401-22         00000312 835763       00263500NYMDGCATNDIACFA -                 090227
05403405-20         00000045 836604       00160065NNMDGCOLNOFFICE DEPOT BS SAS      090220
056040-07           00000150 836182       00199380NNMDGAGANMONOPRIX EXPLOITATION    090209
056040-07           00000015 836274       00121601NNMDGCPXNPLATE FORME CORA LONG    090209
056040-07           00000015 836093       00167610NNMDGJOSYSOFEDIS                  090211
056040-07           00002115 831500       00199380NNMDGAGANMONOPRIX EXPLOITATION    090310
056040-07           00000015 836130       00264950NYMDGCATNLIBRAIRIE BUFALO         090423
056040-07           00000015 836650       00130098NYMDGS03YLIB-PAP. GOYARD          090430
056040-07           00000015 835638       00106603NYMDGSYTYPRIVAT SORBONNE-CANNE    090506
056040-07           00000030 834641       00125103NNMDGS03YLIB DE L UNIVERSITE D    090511
056040-07           00000015 836066       00135097NNMDGCPXNSODIRENNES CENTRE LEC    090616
056040-07           00000030 833511       00114129NNMDGCPXNLISIEUX DISTR.CTRE LE    090617
056040-07           00000030 833507       00185149NNMDGCPXNSODIROCHE CENTRE LECL    090619
056040-07           00000045 835973       00150015NNMDGCPXNAGNEAUX DISTR CTRE LE    090619
056040-07           00000030 835987       00144144NNMDGCPXNSODIRETZ CENTRE LECLE    090619
056040-07           00000015 835633       00106601NYMDGSYTYPRIVAT SORBONNE-ANTIB    090625
056040-07           00000030 833499       00133319NNMDGCPXNPESSAC DISTR. CTRE LE    090629
056040-07           00000015 834203       00146034NNMDGCPXNSOCAPDIS CENTRE LECLE    090629
056040-07           00000015 833628       00113256NNMDGCPXNSODISTRES CENTRE LECL    090630
056040-07           00000030 835817       00126255NNMDGNGONROMANDIS CENTRE LECLE    090630
056040-07           00000030 835847       00150017NNMDGNGONDIST L'AVRANCHIN C. L    090630
056040-07           00000015 836375       00113601NNMDGCPXNSALONDIS CENTRE LECLE    090630
056040-07           00000030 833533       00166044NNMDGCPXNVERNET DIS               090701
056040-07           00000030 835977       00114117NNMDGCPXNHONFLEUR DISTR.CTRE L    090701
056040-07           00000015 836380       00183044NNMDGCPXNSODILUC CENTRE LECLER    090701
056040-07           00000030 833581       00113256NNMDGCPXNSODISTRES CENTRE LECL    090706
056040-07           00000030 835176       00185170NNMDGNGONOUDAIRIDIS CENTRE LEC    090706
056040-07           00000030 834456       00133317NNMDGCPXNLANGON DISTR. CTRE LE    090707
056040-07           00000015 835332       00173012NNMDGJOSYLIBRAIRIE DES BAUGES     090709
056040-07           00000030 835354       00183044NNMDGCPXNSODILUC CENTRE LECLER    090715
056040-07           00000015 836452       00106111NNMDGCPXYMELHODI CENTRE LECLER    090722
056040-07           00000030 836377       00113601NNMDGCPXNSALONDIS CENTRE LECLE    090724
056040-07           00000015 836435       00106111NNMDGCPXYMELHODI CENTRE LECLER    090804
056040-07           00000015 835861       00113601NNMDGCPXNSALONDIS CENTRE LECLE    090814
056042-20           00001944 835641       00114999NYMDGCLDYMODLING                  090216
056042-20           00001944 835643       00114999NYMDGCLDYMODLING                  090313
056042-20           00001944 835644       00114999NYMDGCLDYMODLING                  090414
056042-20           00000012 832252       00163530NNMDGPPANENVAL DISTR. CTRE LEC    090610
056042-20           00000024 834019       00126249NNMDGCPXNLOUIS ROUDAUT CENTRE     090706
058026-20           00000014 833793       00162750NYMDGS01YBUREAU VALLEE BERCK      090115
058026-20           00000014 834922       00159850NYMDGS01YBUREAU VALLEE WATTIGN    090130
058026-20           00000014 836286       00138700NNMDGS01YBUREAU VALLEE BOURGOU    090206
058026-20           00000056 836451       00175306NNMDGJOSYGIBERT JOSEPH VITRY      090206
058026-20           00000014 836551       00177192NNMDGJOSYPAPETERIE DU MARCHE      090206
058026-20           00000000 836585       00185950NNMDGS01YBUREAU VALLEE LES HER    090206
058026-20           00000014 836610       00175313NNMDGJOSYGN PARTENAIRES - ADOM    090206
058026-20           00000140 834587       00820051NYMDGCATNPAPETERIE AS DE TREFL    090210
058026-20           00000028 836567       00198635NNMDGSYTNBHV RIVOLI               090213
058026-20           00000042 833071       00138073NNMDGJOSYLIBRAIRIE-PAP. BLANCH    090403
058026-20           00000042 835967       00106602NNMDGSYTYPRIVAT SORBONNE-NICE     090427
058026-20           00000014 834721       00107845NNMDGSYTYLIVRES & CO AUBENAS      090504
058026-20           00000014 835019       00183107NNMDGJOSYPAPETERIE REMY           090504
058026-20           00000028 831036       00174016NNMDGSYAYABAC TECHNIC BUREAU      090506
058026-20           00000014 835638       00106603NYMDGSYTYPRIVAT SORBONNE-CANNE    090506
058026-20           00000042 830703       00175003NNMDGJOSNLAMARTINE                090527
058026-20           00000028 835633       00106601NYMDGSYTYPRIVAT SORBONNE-ANTIB    090625
058026-20           00000014 835332       00173012NNMDGJOSYLIBRAIRIE DES BAUGES     090709
058026-20           00000084 830749       00175003NNMDGJOSNLAMARTINE                090722
058034-03           00000120 834726       00160065NNMDGCOLNOFFICE DEPOT BS SAS      090206
058034-03           00000024 836285       00191017NNMDGS02YCORPORATE EXPRESS FRA    090213
058034-03           00000096 836626       00003990NNMDGISANELBA OFFICE PRODUCTS     090213
058034-03           00000012 833628       00113256NNMDGCPXNSODISTRES CENTRE LECL    090630
058034-17           00000240 835690       00160065NNMDGCOLNOFFICE DEPOT BS SAS      090206
058034-17           00000060 835588       00113810NNMDGCOLYVIKING DIRECT            090209
058034-17           00000240 835692       00160065NNMDGCOLNOFFICE DEPOT BS SAS      090213
058034-17           00000192 836343       00022250NNMDGISANELBA LTD                 090213
058034-17           00000132 836626       00003990NNMDGISANELBA OFFICE PRODUCTS     090213
058034-17           00000012 836584       00191017NYMDGS02YCORPORATE EXPRESS FRA    090217
058034-20           00000012 836078       00175598NYMDGJOSYCEBO                     090203
058034-20           00000012 836083       00180500NYMDGS01YBUREAU VALLEE AMIENS     090204
058034-20           00000012 836142       00124900NNMDGS01YBUREAU VALLEE PERIGUE    090204
058034-20           00000012 836234       00176215NNMDGCPXNYVETODIS CENTRE LECLE    090206
058034-20           00000012 836286       00138700NNMDGS01YBUREAU VALLEE BOURGOU    090206
058034-20           00000048 836451       00175306NNMDGJOSYGIBERT JOSEPH VITRY      090206
058034-20           00000012 836484       00159652NNMDGS01NTOP OFFICE ST MALO       090206
058034-20           00000000 836537       00140038NNMDGNGONSODILANDES CENTRE LEC    090206
058034-20           00000144 835559       00145165NNMDGCOLYVIKING DIRECT            090209
058034-20           00000084 834587       00820051NYMDGCATNPAPETERIE AS DE TREFL    090210
058034-20           00000180 836229       00195382NNMDGS01YMETRO CASH AND CARRY     090211
058034-20           00000132 836067       00193003NNMDGSYGYSPICERS                  090212
058034-20           00000024 836567       00198635NNMDGSYTNBHV RIVOLI               090213
058034-20           00001608 835645       00114999NYMDGCLDYMODLING                  090216
058034-20           00000240 835137       00193397NNMDGSYAYSACFOM (CENTRALE)        090226
058034-20           00001608 835646       00114999NYMDGCLDYMODLING                  090313
058034-20           00000012 833071       00138073NNMDGJOSYLIBRAIRIE-PAP. BLANCH    090403
058034-20           00001608 835647       00114999NYMDGCLDYMODLING                  090414
058034-20           00000516 835865       00462040NYMDGCATNLIBRAIRIE ANTILLAISE     090415
058034-20           00000024 830452       00151143NNMDGJOSYAMORY                    090429
058034-20           00000024 835202       00114164NNMDGS03YPLEIN CIEL POINT VIRG    090430
058034-20           00000012 836650       00130098NYMDGS03YLIB-PAP. GOYARD          090430
058034-20           00000012 831093       00174305NNMDGJOSYBUREAU SERVICE           090504
058034-20           00000012 834717       00126337NNMDGSYTYLIVRES & CO BAUME        090504
058034-20           00000012 834721       00107845NNMDGSYTYLIVRES & CO AUBENAS      090504
058034-20           00000024 835966       00106602NNMDGSYTYPRIVAT SORBONNE-NICE     090504
058034-20           00000012 835638       00106603NYMDGSYTYPRIVAT SORBONNE-CANNE    090506
058034-20           00000012 833222       00171102NNMDGSYTNMAISON DE LA PRESSE      090511
058034-20           00000036 835987       00144144NNMDGCPXNSODIRETZ CENTRE LECLE    090619
058034-20           00000120 836461       00192304NNMDGCPXYLEVALLOIS EXPLOITATIO    090623
058034-20           00000132 834575       00184114NNMDGCPXNAUZON VENTOUX CENTRE     090625
058034-20           00000024 835633       00106601NYMDGSYTYPRIVAT SORBONNE-ANTIB    090625
058034-20           00000060 833915       00104004NNMDGCPXNSODIALPES CENTRE LECL    090629
058034-20           00000048 835817       00126255NNMDGNGONROMANDIS CENTRE LECLE    090630
058034-20           00000012 836375       00113601NNMDGCPXNSALONDIS CENTRE LECLE    090630
058034-20           00000024 834369       00106210NNMDGCPXNNIKAIADIS II CENTRE L    090701
058034-20           00000036 834019       00126249NNMDGCPXNLOUIS ROUDAUT CENTRE     090706
058034-20           00000012 836452       00106111NNMDGCPXYMELHODI CENTRE LECLER    090722
058034-20           00000036 836377       00113601NNMDGCPXNSALONDIS CENTRE LECLE    090724
058034-20           00000048 836435       00106111NNMDGCPXYMELHODI CENTRE LECLER    090804
058034-20           00000036 835861       00113601NNMDGCPXNSALONDIS CENTRE LECLE    090814
05803401-22         00000300 835763       00263500NYMDGCATNDIACFA -                 090227
05803404-20         00000015 835559       00145165NNMDGCOLYVIKING DIRECT            090209
05803405-20         00000010 835559       00145165NNMDGCOLYVIKING DIRECT            090209
05934108-20         00000480 824126       00114999NYMDGCLDYMODLING                  090130
05934108-20         00000030 836533       00145140NNMDGNGONPITHIVIERS DIST.CTRE     090210
05934108-20         00000225 832614       00003990NNMDGISANELBA OFFICE PRODUCTS     090225
05934108-20         00000285 831657       00127016NNMDGSYGNRP DIFFUSION VR AUBEV    090402
05934108-20         00000015 831912       00135601NNMDGSYAYHYPERBURO REDON          090403
05934108-20         00000015 835632       00106601NNMDGSYTYPRIVAT SORBONNE-ANTIB    090408
05934108-20         00000015 833517       00135030NNMDGS03YBAHON_RAULT              090410
05934108-20         00000015 836130       00264950NYMDGCATNLIBRAIRIE BUFALO         090423
05934108-20         00000015 829993       00110075NNMDGJOSYETS LEBLANC              090429
05934108-20         00000015 830335       00131150NYMDGJOSYPAPETERIE OSCAR          090430
05934108-20         00000015 835334       00173112NNMDGS03YLIBRAIRIE DES BAUGES     090430
05934108-20         00000015 830339       00106300NNMDGJOSYSARL ARTS-LIVRES DIFF    090504
05934108-20         00000015 833220       00171102NNMDGSYTNMAISON DE LA PRESSE      090504
05934108-20         00000015 834021       00124400NNMDGSYTYFORUM BERGERAC           090504
05934108-20         00000045 834709       00133019NYMDGJOSYSDGB ALICE MEDIA STOR    090504
05934108-20         00000015 834711       00125500NNMDGSYTYFORUM BESANCON           090504
05934108-20         00000015 835338       00133388NNMDGS03YPAPETERIE CHAIGNE        090504
05934108-20         00000015 835994       00187050NYMDGS01YESPACE PAPETERIE         090504
05934108-20         00000015 834442       00167051NNMDGSYAY KISTER                  090505
05934108-20         00000015 834877       00127041NYMDGJOSYUNIVERS DU LIVRE EVRE    090505
05934108-20         00000015 835627       00168011NNMDGSYTYFORUM GUEBWILLER         090505
05934108-20         00000015 831697       00177192NNMDGJOSYPAPETERIE DU MARCHE      090506
05934108-20         00000090 833541       00165021NNMDGCPXNCDA SUD OUEST CENTRE     090618
05934108-20         00000030 835996       00152100NNMDGCPXNSO.DI.BRAG CENTRE LEC    090618
05934108-20         00000060 835985       00144144NNMDGCPXNSODIRETZ CENTRE LECLE    090619
05934108-20         00000075 833555       00111000NNMDGCPXNT.P.L.M.CENTRE LECLER    090623
05934108-20         00000075 836464       00193500NNMDGCPXYPANTIN DISTR CTRE LEC    090623
05934108-20         00000045 833537       00147250NNMDGCPXNCENTRE LECLERC MARMAN    090626
05934108-20         00000030 834202       00146034NNMDGCPXNSOCAPDIS CENTRE LECLE    090626
05934108-20         00000045 833915       00104004NNMDGCPXNSODIALPES CENTRE LECL    090629
05934108-20         00000015 836375       00113601NNMDGCPXNSALONDIS CENTRE LECLE    090630
05934108-20         00000060 833532       00166044NNMDGCPXNVERNET DIS               090701
05934108-20         00000015 833629       00113274NNMDGCPXNCENTRE LECLERC MARSEI    090701
05934108-20         00000015 834014       00191154NNMDGCPXNMASSY-DISTR. CTRE LEC    090701
05934108-20         00000030 836148       00135098NNMDGCPXNSA FOUGERES DISTRIBUT    090701
05934108-20         00000030 833529       00181069NNMDGCPXNLAVIDA CENTRE LECLERC    090702
05934108-20         00000060 835170       00133315NNMDGNGONHYPER COSMOS CENTRE L    090702
05934108-20         00000015 833573       00113274NNMDGCPXNCENTRE LECLERC MARSEI    090707
05934108-20         00000030 834377       00133317NNMDGCPXNLANGON DISTR. CTRE LE    090707
05934108-20         00000045 833185       00150018NNMDGCPXNCOUTANCES DISTR.CTRE     090715
05934108-20         00000015 836452       00106111NNMDGCPXYMELHODI CENTRE LECLER    090722
05934108-20         00000030 836377       00113601NNMDGCPXNSALONDIS CENTRE LECLE    090724
05934108-20         00000045 836435       00106111NNMDGCPXYMELHODI CENTRE LECLER    090804
05934108-20         00000030 835861       00113601NNMDGCPXNSALONDIS CENTRE LECLE    090814
05954108-20         00000290 824126       00114999NYMDGCLDYMODLING                  090130
05954108-20         00000010 836586       00180118NNMDGNGONSODIDIER (SCI DU BOUL    090206
05954108-20         00000030 831657       00127016NNMDGSYGNRP DIFFUSION VR AUBEV    090402
05954108-20         00000010 835632       00106601NNMDGSYTYPRIVAT SORBONNE-ANTIB    090408
05954108-20         00000010 835336       00146033NNMDGSYAYBUREAU SYSTEME           090429
05954108-20         00000010 830339       00106300NNMDGJOSYSARL ARTS-LIVRES DIFF    090504
05954108-20         00000010 834021       00124400NNMDGSYTYFORUM BERGERAC           090504
05954108-20         00000010 835338       00133388NNMDGS03YPAPETERIE CHAIGNE        090504
05954108-20         00000010 836191       00182000NNMDGCPXNSODIBAG CENTRE LECLER    090619
05954108-20         00000010 834202       00146034NNMDGCPXNSOCAPDIS CENTRE LECLE    090626
061815-20           00000180 836274       00121601NNMDGCPXNPLATE FORME CORA LONG    090209
061816-20           00000135 836274       00121601NNMDGCPXNPLATE FORME CORA LONG    090209
061817-20           00000072 836274       00121601NNMDGCPXNPLATE FORME CORA LONG    090209
061818-20           00000192 836274       00121601NNMDGCPXNPLATE FORME CORA LONG    090209
086058-20           00000210 835748       00263500NYMDGCATNDIACFA -                 090227
086059-20           00000015 835972       00150015NNMDGCPXNAGNEAUX DISTR CTRE LE    090619
086059-20           00000030 833100       00181070NNMDGCPXNGAILLAC DISTRIB.CTRE     090622
086059-20           00000030 832490       00114129NNMDGPPANLISIEUX DISTR.CTRE LE    090625
086059-20           00000015 833340       00150500NNMDGCPXYPEVILDIS CENTRE LECLE    090630
086060-20           00002010 835380       00114999NYMDGCLDYMODLING                  090216
086060-20           00002010 835382       00114999NYMDGCLDYMODLING                  090313
086060-20           00002085 835386       00114999NYMDGCLDYMODLING                  090414
086060-20           00000015 835357       00118024NNMDGNGONBOURGES DISTR CTRE LE    090618
086060-20           00000015 836375       00113601NNMDGCPXNSALONDIS CENTRE LECLE    090630
089046-20           00000180 836274       00121601NNMDGCPXNPLATE FORME CORA LONG    090209
09056081            00000040 836118       00151139NNMDGCPXNSCAPEST                  090206
09056081            00000000 836535       00140026NNMDGNGONPLAGECO CENTRE LECLER    090206
09056081            00000000 836570       00149033NNMDGNGONGOURONNIERES DIST.C.L    090206
09056081            00000060 836274       00121601NNMDGCPXNPLATE FORME CORA LONG    090209
09056081            00000020 836632       00138078NNMDGNGONECHIROLLES DIST.CTRE     090210
09056081            00000040 833257       00980000NNMDGCATYMERCURE INTERNATIONAL    090427
09056081            00000020 832101       00980000NNMDGCATNMERCURE INTERNATIONAL    090428
09056081            00000020 836439       00174506NYMDGSYTNLIVRES & CO ANNEMASSE    090429
09056081            00000100 834641       00125103NNMDGS03YLIB DE L UNIVERSITE D    090511
09056081            00000060 835981       00144055NNMDGCPXNST HERBLAIN DIST.CTR     090608
09056081            00000020 834172       00103004NNMDGCPXNMONTLUCON DISTR. C. L    090610
09056081            00000020 836115       00144023NNMDGCPXNANCENIS CENTRE LECLER    090610
09056081            00000060 836184       00135065NNMDGCPXNRENOUEST E.LECLERC CL    090612
09056081            00000060 836450       00144090NNMDGNGONPARIS DISTR. CTRE LEC    090612
09056081            00000040 836066       00135097NNMDGCPXNSODIRENNES CENTRE LEC    090616
09056081            00000040 832907       00156145NNMDGCPXNVADIS CENTRE LECLERC     090618
09056081            00000020 835987       00144144NNMDGCPXNSODIRETZ CENTRE LECLE    090619
09056081            00000040 836192       00182000NNMDGCPXNSODIBAG CENTRE LECLER    090619
09056081            00000040 836466       00193500NNMDGCPXYPANTIN DISTR CTRE LEC    090623
09056081            00000020 833556       00111000NNMDGCPXNT.P.L.M.CENTRE LECLER    090624
09056081            00000020 836098       00149500NNMDGCPXNSEGRE DISTR. CTRE LEC    090624
09056081            00000020 833077       00147122NNMDGCPXNST PIERRE DIST.CTR LE    090625
09056081            00000020 833538       00147250NNMDGCPXNCENTRE LECLERC MARMAN    090629
09056081            00000020 832908       00177100NNMDGCPXNSODIMEAUX CENTRE LECL    090630
09056081            00000040 834008       00183499NNMDGCPXNLA SEYDIS CENTRE LECL    090630
09056081            00000020 836189       00182002NNMDGCPXNAUDIS CENTRE LECLERC     090630
09056081            00000020 836375       00113601NNMDGCPXNSALONDIS CENTRE LECLE    090630
09056081            00000020 833629       00113274NNMDGCPXNCENTRE LECLERC MARSEI    090701
09056081            00000040 834369       00106210NNMDGCPXNNIKAIADIS II CENTRE L    090701
09056081            00000020 835080       00144031NNMDGNGONNANTES NORD DIST.CTR     090701
09056081            00000080 836127       00129024NNMDGCPXNDISTRILEG CENTRE LECL    090701
09056081            00000060 835030       00194310NNMDGNGONORLY DISTR CTRE LECLE    090702
09056081            00000020 835365       00181069NNMDGNGONLAVIDA CENTRE LECLERC    090702
09056081            00000020 836149       00135098NNMDGCPXNSA FOUGERES DISTRIBUT    090702
09056081            00000020 836151       00144160NNMDGCPXNBRIERE DISTR. CTRE LE    090702
09056081            00000020 836187       00153055NNMDGCPXNLAVAL DISTR. CTRE LEC    090703
09056081            00000020 835176       00185170NNMDGNGONOUDAIRIDIS CENTRE LEC    090706
09056081            00000020 834456       00133317NNMDGCPXNLANGON DISTR. CTRE LE    090707
09056081            00000020 832913       00194083NNMDGCPXNFOURNYDIS CENTRE LECL    090710
09056081            00000020 835984       00149033NNMDGCPXNGOURONNIERES DIST.C.L    090710
09056081            00000020 833234       00135400NNMDGCPXNSAINT MALO DIST.CTRE     090715
09057081            00000060 835981       00144055NNMDGCPXNST HERBLAIN DIST.CTR     090608
09057081            00000040 836184       00135065NNMDGCPXNRENOUEST E.LECLERC CL    090612
09057081            00000060 836450       00144090NNMDGNGONPARIS DISTR. CTRE LEC    090612
09057081            00000020 832907       00156145NNMDGCPXNVADIS CENTRE LECLERC     090618
09057081            00000020 836192       00182000NNMDGCPXNSODIBAG CENTRE LECLER    090619
09057081            00000020 833556       00111000NNMDGCPXNT.P.L.M.CENTRE LECLER    090624
09057081            00000020 833077       00147122NNMDGCPXNST PIERRE DIST.CTR LE    090625
09057081            00000020 833538       00147250NNMDGCPXNCENTRE LECLERC MARMAN    090629
09057081            00000020 835080       00144031NNMDGNGONNANTES NORD DIST.CTR     090701
09057081            00000040 835030       00194310NNMDGNGONORLY DISTR CTRE LECLE    090702
09057081            00000040 835365       00181069NNMDGNGONLAVIDA CENTRE LECLERC    090702
09057081            00000020 836187       00153055NNMDGCPXNLAVAL DISTR. CTRE LEC    090703
09057081            00000040 834019       00126249NNMDGCPXNLOUIS ROUDAUT CENTRE     090706
09057081            00000020 835176       00185170NNMDGNGONOUDAIRIDIS CENTRE LEC    090706
09057081            00000020 834456       00133317NNMDGCPXNLANGON DISTR. CTRE LE    090707
09059081            00000020 836632       00138078NNMDGNGONECHIROLLES DIST.CTRE     090210
09059081            00000020 836439       00174506NYMDGSYTNLIVRES & CO ANNEMASSE    090429
09059081            00000040 834641       00125103NNMDGS03YLIB DE L UNIVERSITE D    090511
09059081            00000020 834172       00103004NNMDGCPXNMONTLUCON DISTR. C. L    090610
09059081            00000020 836115       00144023NNMDGCPXNANCENIS CENTRE LECLER    090610
09059081            00000020 836184       00135065NNMDGCPXNRENOUEST E.LECLERC CL    090612
09059081            00000020 836066       00135097NNMDGCPXNSODIRENNES CENTRE LEC    090616
09059081            00000020 836192       00182000NNMDGCPXNSODIBAG CENTRE LECLER    090619
09059081            00000020 833556       00111000NNMDGCPXNT.P.L.M.CENTRE LECLER    090624
09059081            00000020 833077       00147122NNMDGCPXNST PIERRE DIST.CTR LE    090625
09059081            00000020 833538       00147250NNMDGCPXNCENTRE LECLERC MARMAN    090629
09059081            00000020 834008       00183499NNMDGCPXNLA SEYDIS CENTRE LECL    090630
09059081            00000020 836189       00182002NNMDGCPXNAUDIS CENTRE LECLERC     090630
09059081            00000020 836375       00113601NNMDGCPXNSALONDIS CENTRE LECLE    090630
09059081            00000020 833629       00113274NNMDGCPXNCENTRE LECLERC MARSEI    090701
09059081            00000020 834369       00106210NNMDGCPXNNIKAIADIS II CENTRE L    090701
09059081            00000020 835080       00144031NNMDGNGONNANTES NORD DIST.CTR     090701
09059081            00000020 836127       00129024NNMDGCPXNDISTRILEG CENTRE LECL    090701
09059081            00000040 835030       00194310NNMDGNGONORLY DISTR CTRE LECLE    090702
09059081            00000020 835365       00181069NNMDGNGONLAVIDA CENTRE LECLERC    090702
09059081            00000020 836187       00153055NNMDGCPXNLAVAL DISTR. CTRE LEC    090703
09059081            00000020 834456       00133317NNMDGCPXNLANGON DISTR. CTRE LE    090707
09059081            00000020 832913       00194083NNMDGCPXNFOURNYDIS CENTRE LECL    090710
09060081            00000080 836118       00151139NNMDGCPXNSCAPEST                  090206
09060081            00000020 836320       00135530NNMDGNGONCTRE LECLERC NOYAL /     090206
09060081            00000000 836535       00140026NNMDGNGONPLAGECO CENTRE LECLER    090206
09060081            00000000 836570       00149033NNMDGNGONGOURONNIERES DIST.C.L    090206
09060081            00000100 836274       00121601NNMDGCPXNPLATE FORME CORA LONG    090209
09060081            00000020 836533       00145140NNMDGNGONPITHIVIERS DIST.CTRE     090210
09060081            00000040 833257       00980000NNMDGCATYMERCURE INTERNATIONAL    090427
09060081            00000020 832101       00980000NNMDGCATNMERCURE INTERNATIONAL    090428
