G880026-20                                                                    00000030 834084       00193397NNMDGSYAYSACFOM (CENTRALE)        20090212
G880026-20                                                                    00000050 836602       00160065NNMDGCOLNOFFICE DEPOT BS SAS      20090213
G880026-22                                                                    00000130 835763       00263500NYMDGCATNDIACFA -                 20090227
G880026-22                                                                    00001265 836342       00272375NYMDGCATYAU PARCHEMIN             20090227
00240011                                                                      00000102 833401       00153043NNMDGCOLYLYRECO SA                20090206
00240011                                                                      00000000 834956       00131046NNMDGSYAYBURO+ DEVELOPPEMENT      20090206
00240011                                                                      00000000 835067       00159480NNMDGS01YPAPETERIE HASBROUCQ      20090206
00240011                                                                      00000080 835923       00153043NNMDGCOLYLYRECO SA                20090210
00240071                                                                      00000002 836655       00145030NNMDGSYAYCAILLETTE - BURO+ DIR    20090210
00269031                                                                      00000018 835882       00248135NYMDGCATNLA CENTRALE PAPETIERE    20090213
00453031                                                                      00000012 835590       00193003NNMDGSYGYSPICERS                  20090206
00453051                                                                      00000036 835590       00193003NNMDGSYGYSPICERS                  20090206
00923091                                                                      00000160 836310       00138065NNMDGS02YFIDUCIAL BUREAUTIQUE     20090212
01983801-40                                                                   00000020 835910       00157019NNMDGNGONSARREDIS CENTRE LECLE    20090206
01983801-40                                                                   00000040 836118       00151139NNMDGCPXNSCAPEST                  20090206
01983801-40                                                                   00000120 836412       00133145NNMDGAGANCARREFOUR HYPERMARCHE    20090206
01983801-40                                                                   00000040 836413       00102999NNMDGAGANCARREFOUR HYPERMARCHE    20090206
01983801-40                                                                   00000000 836428       00185900NNMDGCPXNSODILONNE CENTRE LECL    20090206
01983801-40                                                                   00000020 836441       00184000NNMDGCPXNAVIROC CENTRE LECLERC    20090206
01983801-40                                                                   00000020 836443       00184114NNMDGCPXNAUZON VENTOUX CENTRE     20090206
01983801-40                                                                   00000000 836559       00133283NNMDGAGANSODICAR CENTRE LECLER    20090206
01983801-40                                                                   00000000 836570       00149033NNMDGNGONGOURONNIERES DIST.C.L    20090206
01983801-40                                                                   00000020 836606       00192304NNMDGNGONLEVALLOIS EXPLOITATIO    20090206
01983801-40                                                                   00000020 836645       00106111NNMDGNGONMELHODI CENTRE LECLER    20090209
01983801-40                                                                   00000020 835942       00114132NNMDGCPXNTOUQUES DISTR CTRE LE    20090304
01983801-40                                                                   00003160 833720       00114999NYMDGCLDYMODLING                  20090313
01983801-40                                                                   00000100 836181       00144150NNMDGCPXNBRIANDIS CENTRE LECLE    20090612
01983801-40                                                                   00000140 836184       00135065NNMDGCPXNRENOUEST E.LECLERC CL    20090612
01983801-40                                                                   00000040 831870       00160141NNMDGPPANSAINT-JUDIST CENTRE L    20090616
01983801-40                                                                   00000020 834739       00130133NNMDGCPXNANGLEDIS CENTRE LECLE    20090618
01983801-40                                                                   00000060 836527       00189005NNMDGNGONAUXERDIS CENTRE LECLE    20090618
01983801-40                                                                   00000100 834729       00130133NNMDGCPXNANGLEDIS CENTRE LECLE    20090623
01983801-40                                                                   00000440 836461       00192304NNMDGCPXYLEVALLOIS EXPLOITATIO    20090623
01983801-40                                                                   00000060 836466       00193500NNMDGCPXYPANTIN DISTR CTRE LEC    20090623
01983801-40                                                                   00000100 834575       00184114NNMDGCPXNAUZON VENTOUX CENTRE     20090625
01983801-40                                                                   00000100 836499       00185057NNMDGNGONSODIVARDIERE CENTRE L    20090626
01983801-40                                                                   00000200 833915       00104004NNMDGCPXNSODIALPES CENTRE LECL    20090629
01983801-40                                                                   00000040 835785       00127150NNMDGNGONVERMADIS CENTRE LECLE    20090629
01983801-40                                                                   00000100 832688       00145140NNMDGCPXNPITHIVIERS DIST.CTRE     20090630
01983801-40                                                                   00000020 833628       00113256NNMDGCPXNSODISTRES CENTRE LECL    20090630
01983801-40                                                                   00000060 835817       00126255NNMDGNGONROMANDIS CENTRE LECLE    20090630
01983801-40                                                                   00000020 836375       00113601NNMDGCPXNSALONDIS CENTRE LECLE    20090630
01983801-40                                                                   00000020 833629       00113274NNMDGCPXNCENTRE LECLERC MARSEI    20090701
01983801-40                                                                   00000040 835977       00114117NNMDGCPXNHONFLEUR DISTR.CTRE L    20090701
01983801-40                                                                   00000020 836380       00183044NNMDGCPXNSODILUC CENTRE LECLER    20090701
01983801-40                                                                   00000080 835171       00133315NNMDGCPXNHYPER COSMOS CENTRE L    20090702
01983801-40                                                                   00000060 836187       00153055NNMDGCPXNLAVAL DISTR. CTRE LEC    20090703
01983801-40                                                                   00000140 833581       00113256NNMDGCPXNSODISTRES CENTRE LECL    20090706
01983801-40                                                                   00000080 835176       00185170NNMDGNGONOUDAIRIDIS CENTRE LEC    20090706
01983801-40                                                                   00000060 833573       00113274NNMDGCPXNCENTRE LECLERC MARSEI    20090707
01983801-40                                                                   00000100 834456       00133317NNMDGCPXNLANGON DISTR. CTRE LE    20090707
01983801-40                                                                   00000120 834902       00184185NNMDGNGONSODIVAL CENTRE LECLER    20090710
01983801-40                                                                   00000060 836440       00113300NNMDGNGONTUILLIERES DIS.CTRE L    20090710
01983801-40                                                                   00000080 832903       00128017NNMDGCPXNAVREDIS CENTRE LECLER    20090715
01983801-40                                                                   00000080 835354       00183044NNMDGCPXNSODILUC CENTRE LECLER    20090715
01983801-40                                                                   00000020 836452       00106111NNMDGCPXYMELHODI CENTRE LECLER    20090722
01983801-40                                                                   00000040 836377       00113601NNMDGCPXNSALONDIS CENTRE LECLE    20090724
01983801-40                                                                   00000080 836435       00106111NNMDGCPXYMELHODI CENTRE LECLER    20090804
01983801-40                                                                   00000040 835861       00113601NNMDGCPXNSALONDIS CENTRE LECLE    20090814
01986091                                                                      00000020 835558       00193003NNMDGSYGYSPICERS                  20090206
089759-20                                                                     00000040 833503       00179061NNMDGCPXNTHOUARS DISTR CTRE LE    20090617
089759-20                                                                     00000040 836065       00135097NNMDGCPXNSODIRENNES CENTRE LEC    20090617
089759-20                                                                     00000060 833541       00165021NNMDGCPXNCDA SUD OUEST CENTRE     20090618
089759-20                                                                     00000140 835351       00154056NNMDGELOYCORA HOUDEMONT           20090618
089759-20                                                                     00000020 835996       00152100NNMDGCPXNSO.DI.BRAG CENTRE LEC    20090618
089759-20                                                                     00000040 833506       00185149NNMDGCPXNSODIROCHE CENTRE LECL    20090619
089759-20                                                                     00000020 835972       00150015NNMDGCPXNAGNEAUX DISTR CTRE LE    20090619
089759-20                                                                     00000040 833100       00181070NNMDGCPXNGAILLAC DISTRIB.CTRE     20090622
089759-20                                                                     00000020 833068       00164500NNMDGCPXNSODIBAY CENTRE LECLER    20090624
089759-20                                                                     00000040 832490       00114129NNMDGPPANLISIEUX DISTR.CTRE LE    20090625
089759-20                                                                     00000040 834202       00146034NNMDGCPXNSOCAPDIS CENTRE LECLE    20090626
089759-20                                                                     00000020 833500       00133319NNMDGCPXNPESSAC DISTR. CTRE LE    20090629
089759-20                                                                     00000020 833915       00104004NNMDGCPXNSODIALPES CENTRE LECL    20090629
089759-20                                                                     00000040 832677       00179118NNMDGCPXNBOCAGE DISTR CTRE LEC    20090630
089759-20                                                                     00000060 833340       00150500NNMDGCPXYPEVILDIS CENTRE LECLE    20090630
089759-20                                                                     00000020 832694       00141029NNMDGCPXNSOBLEDIS CENTRE LECLE    20090701
089759-20                                                                     00000020 833629       00113274NNMDGCPXNCENTRE LECLERC MARSEI    20090701
089759-20                                                                     00000040 834369       00106210NNMDGCPXNNIKAIADIS II CENTRE L    20090701
089759-20                                                                     00000080 835078       00144031NNMDGNGONNANTES NORD DIST.CTR     20090701
089759-20                                                                     00000060 835170       00133315NNMDGNGONHYPER COSMOS CENTRE L    20090702
089759-20                                                                     00000020 833573       00113274NNMDGCPXNCENTRE LECLERC MARSEI    20090707
089759-20                                                                     00000100 834377       00133317NNMDGCPXNLANGON DISTR. CTRE LE    20090707
089759-20                                                                     00000040 833498       00185900NNMDGCPXNSODILONNE CENTRE LECL    20090708
108207-20                                                                     00000270 836274       00121601NNMDGCPXNPLATE FORME CORA LONG    20090209
108207-20                                                                     00005010 826083       00121601NNMDGCPXNPLATE FORME CORA LONG    20090227
108209-20                                                                     00000126 836274       00121601NNMDGCPXNPLATE FORME CORA LONG    20090209
112306-20                                                                     00000250 836181       00144150NNMDGCPXNBRIANDIS CENTRE LECLE    20090612
112306-20                                                                     00000300 836184       00135065NNMDGCPXNRENOUEST E.LECLERC CL    20090612
112306-20                                                                     00000050 834739       00130133NNMDGCPXNANGLEDIS CENTRE LECLE    20090618
112306-20                                                                     00000350 835987       00144144NNMDGCPXNSODIRETZ CENTRE LECLE    20090619
112306-20                                                                     00000200 834729       00130133NNMDGCPXNANGLEDIS CENTRE LECLE    20090623
112306-20                                                                     00000450 834575       00184114NNMDGCPXNAUZON VENTOUX CENTRE     20090625
112306-20                                                                     00000050 833628       00113256NNMDGCPXNSODISTRES CENTRE LECL    20090630
112306-20                                                                     00000050 836177       00135530NNMDGCPXNCTRE LECLERC NOYAL /     20090630
112306-20                                                                     00000100 835977       00114117NNMDGCPXNHONFLEUR DISTR.CTRE L    20090701
112306-20                                                                     00000200 836198       00184500NNMDGCPXNBOLDIS CENTRE LECLERC    20090702
112306-20                                                                     00000050 833575       00142153NNMDGCPXNROADIS CENTRE LECLERC    20090716
120306-20                                                                     00000050 836320       00135530NNMDGNGONCTRE LECLERC NOYAL /     20090206
120306-20                                                                     00000000 836512       00144055NNMDGNGONST HERBLAIN DIST.CTR     20090206
120306-20                                                                     00000050 836586       00180118NNMDGNGONSODIDIER (SCI DU BOUL    20090206
120306-20                                                                     00000050 836546       00150015NNMDGJMONAGNEAUX DISTR CTRE LE    20090209
120306-20                                                                     00000050 836651       00141009NNMDGNGONSORODIS CENTRE LECLER    20090213
120306-20                                                                     00001100 835981       00144055NNMDGCPXNST HERBLAIN DIST.CTR     20090608
120306-20                                                                     00000600 836115       00144023NNMDGCPXNANCENIS CENTRE LECLER    20090610
120306-20                                                                     00000200 836181       00144150NNMDGCPXNBRIANDIS CENTRE LECLE    20090612
120306-20                                                                     00000100 831870       00160141NNMDGPPANSAINT-JUDIST CENTRE L    20090616
120306-20                                                                     00000300 834194       00137149NNMDGCPXNLA MONTGOLFIERE CTRE     20090616
120306-20                                                                     00000650 833501       00179061NNMDGCPXNTHOUARS DISTR CTRE LE    20090617
120306-20                                                                     00000050 834739       00130133NNMDGCPXNANGLEDIS CENTRE LECLE    20090618
120306-20                                                                     00000250 835996       00152100NNMDGCPXNSO.DI.BRAG CENTRE LEC    20090618
120306-20                                                                     00000400 833495       00185503NNMDGCPXNHERBIDIS CENTRE LECLE    20090619
120306-20                                                                     00000850 835987       00144144NNMDGCPXNSODIRETZ CENTRE LECLE    20090619
120306-20                                                                     00000200 834729       00130133NNMDGCPXNANGLEDIS CENTRE LECLE    20090623
120306-20                                                                     00000350 836461       00192304NNMDGCPXYLEVALLOIS EXPLOITATIO    20090623
120306-20                                                                     00000350 836466       00193500NNMDGCPXYPANTIN DISTR CTRE LEC    20090623
120306-20                                                                     00000200 836098       00149500NNMDGCPXNSEGRE DISTR. CTRE LEC    20090624
120306-20                                                                     00000300 832486       00127092NNMDGPPANLOUVIERS DISTR.CTRE L    20090625
120306-20                                                                     00000650 834575       00184114NNMDGCPXNAUZON VENTOUX CENTRE     20090625
120306-20                                                                     00000800 832575       00176215NNMDGPPANYVETODIS CENTRE LECLE    20090629
120306-20                                                                     00001000 834200       00191057NNMDGELOYCORA VAL D'HYERES        20090629
120306-20                                                                     00000300 832676       00179118NNMDGCPXNBOCAGE DISTR CTRE LEC    20090630
120306-20                                                                     00000050 833628       00113256NNMDGCPXNSODISTRES CENTRE LECL    20090630
120306-20                                                                     00000450 834008       00183499NNMDGCPXNLA SEYDIS CENTRE LECL    20090630
120306-20                                                                     00000200 834811       00149009NNMDGNGONLECLERC BRISSAC          20090630
120306-20                                                                     00000300 835847       00150017NNMDGNGONDIST L'AVRANCHIN C. L    20090630
120306-20                                                                     00000400 832691       00141029NNMDGCPXNSOBLEDIS CENTRE LECLE    20090701
120306-20                                                                     00000300 834369       00106210NNMDGCPXNNIKAIADIS II CENTRE L    20090701
120306-20                                                                     00000200 833923       00192217NNMDGCPXNGENEDIS EXPLOIT. CTR     20090702
120306-20                                                                     00000200 836149       00135098NNMDGCPXNSA FOUGERES DISTRIBUT    20090702
120306-20                                                                     00000300 836151       00144160NNMDGCPXNBRIERE DISTR. CTRE LE    20090702
120306-20                                                                     00000400 836198       00184500NNMDGCPXNBOLDIS CENTRE LECLERC    20090702
120306-20                                                                     00000750 832678       00185148NNMDGCPXNSODINOVE CENTRE LECLE    20090703
120306-20                                                                     00000200 832697       00177084NNMDGCPXNMAVIDIS CENTRE LECLER    20090703
120306-20                                                                     00000450 833159       00114058NNMDGCPXNSOBADIS CENTRE LECLER    20090703
120306-20                                                                     00000200 833329       00149180NNMDGCPXNCHEMILLE DIST CTRE LE    20090703
120306-20                                                                     00000500 834531       00153008NNMDGCPXNAZEDIS CENTRE LECLERC    20090703
120306-20                                                                     00000500 833581       00113256NNMDGCPXNSODISTRES CENTRE LECL    20090706
120306-20                                                                     00000400 836167       00122190NNMDGCPXNPLEDIS CENTRE LECLERC    20090706
120306-20                                                                     00000400 833497       00185900NNMDGCPXNSODILONNE CENTRE LECL    20090708
120306-20                                                                     00000400 834902       00184185NNMDGNGONSODIVAL CENTRE LECLER    20090710
120306-20                                                                     00000100 835984       00149033NNMDGCPXNGOURONNIERES DIST.C.L    20090710
120306-20                                                                     00000100 833234       00135400NNMDGCPXNSAINT MALO DIST.CTRE     20090715
120306-20                                                                     00000050 833575       00142153NNMDGCPXNROADIS CENTRE LECLERC    20090716
120306-20                                                                     00000050 833576       00142153NNMDGCPXNROADIS CENTRE LECLERC    20090806
120418-20                                                                     00000020 836651       00141009NNMDGNGONSORODIS CENTRE LECLER    20090213
120418-20                                                                     00000005 834739       00130133NNMDGCPXNANGLEDIS CENTRE LECLE    20090618
120418-20                                                                     00000030 836529       00158049NNMDGNGONDECIZE DISTR CTRE LEC    20090618
120418-20                                                                     00000050 835969       00161054NNMDGCPXNARGENTAN DISTR.CTRE L    20090622
120418-20                                                                     00000010 834729       00130133NNMDGCPXNANGLEDIS CENTRE LECLE    20090623
120418-20                                                                     00000045 833499       00133319NNMDGCPXNPESSAC DISTR. CTRE LE    20090629
120418-20                                                                     00000030 834008       00183499NNMDGCPXNLA SEYDIS CENTRE LECL    20090630
120418-20                                                                     00000010 836177       00135530NNMDGCPXNCTRE LECLERC NOYAL /     20090630
120418-20                                                                     00000005 833629       00113274NNMDGCPXNCENTRE LECLERC MARSEI    20090701
120418-20                                                                     00000025 833573       00113274NNMDGCPXNCENTRE LECLERC MARSEI    20090707
120418-20                                                                     00000020 836440       00113300NNMDGNGONTUILLIERES DIS.CTRE L    20090710
120418-20                                                                     00000060 833234       00135400NNMDGCPXNSAINT MALO DIST.CTRE     20090715
120418-20                                                                     00000005 836452       00106111NNMDGCPXYMELHODI CENTRE LECLER    20090722
120418-20                                                                     00000035 836435       00106111NNMDGCPXYMELHODI CENTRE LECLER    20090804
12041850-20                                                                   00000340 830537       00106063NYMDGELOYCARREFOUR HYPERMARCHE    20081230
12041850-20                                                                   00000085 836066       00135097NNMDGCPXNSODIRENNES CENTRE LEC    20090616
12041850-20                                                                   00000085 832907       00156145NNMDGCPXNVADIS CENTRE LECLERC     20090618
12041850-20                                                                   00000085 834739       00130133NNMDGCPXNANGLEDIS CENTRE LECLE    20090618
12041850-20                                                                   00000085 835996       00152100NNMDGCPXNSO.DI.BRAG CENTRE LEC    20090618
12041850-20                                                                   00000085 836527       00189005NNMDGNGONAUXERDIS CENTRE LECLE    20090618
12041850-20                                                                   00000170 835987       00144144NNMDGCPXNSODIRETZ CENTRE LECLE    20090619
12041850-20                                                                   00000085 835969       00161054NNMDGCPXNARGENTAN DISTR.CTRE L    20090622
12041850-20                                                                   00000170 836466       00193500NNMDGCPXYPANTIN DISTR CTRE LEC    20090623
12041850-20                                                                   00000255 834575       00184114NNMDGCPXNAUZON VENTOUX CENTRE     20090625
12041850-20                                                                   00000170 833915       00104004NNMDGCPXNSODIALPES CENTRE LECL    20090629
12041850-20                                                                   00000170 835847       00150017NNMDGNGONDIST L'AVRANCHIN C. L    20090630
12041850-20                                                                   00000085 833760       00162308NNMDGCPXNCARVIDIS CENTRE LECLE    20090706
12041850-20                                                                   00000085 836452       00106111NNMDGCPXYMELHODI CENTRE LECLER    20090722
12041850-20                                                                   00000085 835625       00122060NNMDGNGONPAIMPOLDIS CENTRE LEC    20090723
120440-07                                                                     00000020 769618       00114998NYMDGLINYMODLING                  20070531
120440-07                                                                     00002000 824131       00114999NYMDGCLDYMODLING                  20090130
120440-07                                                                     00000020 834026       00182067NNMDGSYGYDIFPAP                   20090206
120440-07                                                                     00000020 835190       00127110NNMDGAGANS.D.E. CENTRE LECLERC    20090206
120440-07                                                                     00000060 836118       00151139NNMDGCPXNSCAPEST                  20090206
120440-07                                                                     00000020 836234       00176215NNMDGCPXNYVETODIS CENTRE LECLE    20090206
120440-07                                                                     00000020 836412       00133145NNMDGAGANCARREFOUR HYPERMARCHE    20090206
120440-07                                                                     00000040 836413       00102999NNMDGAGANCARREFOUR HYPERMARCHE    20090206
120440-07                                                                     00000020 836441       00184000NNMDGCPXNAVIROC CENTRE LECLERC    20090206
120440-07                                                                     00000020 836443       00184114NNMDGCPXNAUZON VENTOUX CENTRE     20090206
120440-07                                                                     00000100 836451       00175306NNMDGJOSYGIBERT JOSEPH VITRY      20090206
120440-07                                                                     00000000 836537       00140038NNMDGNGONSODILANDES CENTRE LEC    20090206
120440-07                                                                     00000020 836551       00177192NNMDGJOSYPAPETERIE DU MARCHE      20090206
120440-07                                                                     00000020 836274       00121601NNMDGCPXNPLATE FORME CORA LONG    20090209
120440-07                                                                     00000020 836608       00163562NNMDGSYTYLES VOLCANS              20090209
120440-07                                                                     00000640 836415       00195015NNMDGS02YJ.P.G.                   20090210
120440-07                                                                     00000600 836623       00102188NNMDGSYGYM.D.S                    20090210
120440-07                                                                     00000320 836067       00193003NNMDGSYGYSPICERS                  20090212
120440-07                                                                     00000260 836312       00138065NNMDGS02YFIDUCIAL BUREAUTIQUE     20090212
120440-07                                                                     00000320 836628       00134173NNMDGAGANSYSTEME "U" SUD          20090212
120440-07                                                                     00000500 836453       00004006NNMDGISANELBA GMBH                20090218
120440-07                                                                     00000020 836130       00264950NYMDGCATNLIBRAIRIE BUFALO         20090423
120440-07                                                                     00000020 835202       00114164NNMDGS03YPLEIN CIEL POINT VIRG    20090430
120440-07                                                                     00000020 836650       00130098NYMDGS03YLIB-PAP. GOYARD          20090430
120440-07                                                                     00000020 834739       00130133NNMDGCPXNANGLEDIS CENTRE LECLE    20090618
120440-07                                                                     00000040 836527       00189005NNMDGNGONAUXERDIS CENTRE LECLE    20090618
120440-07                                                                     00000060 833507       00185149NNMDGCPXNSODIROCHE CENTRE LECL    20090619
120440-07                                                                     00000040 834729       00130133NNMDGCPXNANGLEDIS CENTRE LECLE    20090623
120440-07                                                                     00000020 835633       00106601NYMDGSYTYPRIVAT SORBONNE-ANTIB    20090625
120440-07                                                                     00000040 833915       00104004NNMDGCPXNSODIALPES CENTRE LECL    20090629
120440-07                                                                     00000020 833628       00113256NNMDGCPXNSODISTRES CENTRE LECL    20090630
120440-07                                                                     00000020 836375       00113601NNMDGCPXNSALONDIS CENTRE LECLE    20090630
120440-07                                                                     00000020 833629       00113274NNMDGCPXNCENTRE LECLERC MARSEI    20090701
120440-07                                                                     00000020 836380       00183044NNMDGCPXNSODILUC CENTRE LECLER    20090701
120440-07                                                                     00000020 833581       00113256NNMDGCPXNSODISTRES CENTRE LECL    20090706
120440-07                                                                     00000040 833573       00113274NNMDGCPXNCENTRE LECLERC MARSEI    20090707
120440-07                                                                     00000020 835332       00173012NNMDGJOSYLIBRAIRIE DES BAUGES     20090709
120440-07                                                                     00000020 835354       00183044NNMDGCPXNSODILUC CENTRE LECLER    20090715
120440-07                                                                     00000040 836377       00113601NNMDGCPXNSALONDIS CENTRE LECLE    20090724
120440-07                                                                     00000020 835861       00113601NNMDGCPXNSALONDIS CENTRE LECLE    20090814
120460-20                                                                     00000140 836450       00144090NNMDGNGONPARIS DISTR. CTRE LEC    20090612
120460-20                                                                     00000010 834739       00130133NNMDGCPXNANGLEDIS CENTRE LECLE    20090618
120460-20                                                                     00000150 833101       00181070NNMDGCPXNGAILLAC DISTRIB.CTRE     20090622
120460-20                                                                     00000040 834729       00130133NNMDGCPXNANGLEDIS CENTRE LECLE    20090623
120460-20                                                                     00000030 833077       00147122NNMDGCPXNST PIERRE DIST.CTR LE    20090625
120460-20                                                                     00000050 832575       00176215NNMDGPPANYVETODIS CENTRE LECLE    20090629
120460-20                                                                     00000080 833915       00104004NNMDGCPXNSODIALPES CENTRE LECL    20090629
120460-20                                                                     00000040 834203       00146034NNMDGCPXNSOCAPDIS CENTRE LECLE    20090629
120460-20                                                                     00000100 836002       00111107NNMDGCPXNLIMOUX DISTR. CTRE LE    20090630
120460-20                                                                     00000070 836189       00182002NNMDGCPXNAUDIS CENTRE LECLERC     20090630
120460-20                                                                     00000010 836375       00113601NNMDGCPXNSALONDIS CENTRE LECLE    20090630
120460-20                                                                     00000030 834369       00106210NNMDGCPXNNIKAIADIS II CENTRE L    20090701
120460-20                                                                     00000100 835171       00133315NNMDGCPXNHYPER COSMOS CENTRE L    20090702
120460-20                                                                     00000030 835365       00181069NNMDGNGONLAVIDA CENTRE LECLERC    20090702
120460-20                                                                     00000050 836151       00144160NNMDGCPXNBRIERE DISTR. CTRE LE    20090702
120460-20                                                                     00000200 836198       00184500NNMDGCPXNBOLDIS CENTRE LECLERC    20090702
120460-20                                                                     00000070 834456       00133317NNMDGCPXNLANGON DISTR. CTRE LE    20090707
120460-20                                                                     00000060 832913       00194083NNMDGCPXNFOURNYDIS CENTRE LECL    20090710
120460-20                                                                     00000050 832903       00128017NNMDGCPXNAVREDIS CENTRE LECLER    20090715
120460-20                                                                     00000010 836452       00106111NNMDGCPXYMELHODI CENTRE LECLER    20090722
120460-20                                                                     00000020 836377       00113601NNMDGCPXNSALONDIS CENTRE LECLE    20090724
120460-20                                                                     00000120 836435       00106111NNMDGCPXYMELHODI CENTRE LECLER    20090804
120460-20                                                                     00000020 835861       00113601NNMDGCPXNSALONDIS CENTRE LECLE    20090814
120515-03                                                                     00005000 836566       00153041NNMDGCOLYLYRECO FRANCE            20090206
120515-03                                                                     00002500 836572       00153041NNMDGCOLYLYRECO FRANCE            20090206
120515-03                                                                     00002500 835935       00153041NNMDGCOLYLYRECO FRANCE            20090211
120515-07                                                                     00000100 836283       00169250NNMDGSYGNRP DIFFUSION - LYON      20090209
120515-07                                                                     00000300 834962       00374688NYMDGCATNRANY SARL                20090211
120515-07                                                                     00001000 835935       00153041NNMDGCOLYLYRECO FRANCE            20090211
120515-08                                                                     00001000 836623       00102188NNMDGSYGYM.D.S                    20090210
120515-08                                                                     00002500 836081       00153041NNMDGCOLYLYRECO FRANCE            20090212
120515-09                                                                     00000100 836279       00127016NNMDGSYGNRP DIFFUSION VR AUBEV    20090206
120515-13                                                                     00000100 836283       00169250NNMDGSYGNRP DIFFUSION - LYON      20090209
120515-13                                                                     00002500 836623       00102188NNMDGSYGYM.D.S                    20090210
120515-13                                                                     00002500 835928       00153041NNMDGCOLYLYRECO FRANCE            20090211
120515-13                                                                     00002500 835935       00153041NNMDGCOLYLYRECO FRANCE            20090211
120515-14                                                                     00000100 836623       00102188NNMDGSYGYM.D.S                    20090210
120515-14                                                                     00000300 834962       00374688NYMDGCATNRANY SARL                20090211
120515-14                                                                     00002500 836563       00153041NYMDGCOLYLYRECO FRANCE            20090212
120515-20                                                                     00003000 834411       00264000NYMDGCATNLIBRAIRIE NOTRE DAME     20090210
120515-20                                                                     00002500 836623       00102188NNMDGSYGYM.D.S                    20090210
120515-20                                                                     00010000 835928       00153041NNMDGCOLYLYRECO FRANCE            20090211
120515-20                                                                     00000250 834758       00462956NNMDGCATNLE CRAYON                20090402
120515-20                                                                     00001000 836646       00184201NYMDGJOSYS.E.D.                   20090403
120515-20                                                                     00000150 831093       00174305NNMDGJOSYBUREAU SERVICE           20090504
120515-20                                                                     00000050 835633       00106601NYMDGSYTYPRIVAT SORBONNE-ANTIB    20090625
120515-21                                                                     00002500 832097       00127016NNMDGSYGNRP DIFFUSION VR AUBEV    20090226
120515-21                                                                     00002500 832270       00127016NNMDGSYGNRP DIFFUSION VR AUBEV    20090402
120515-21                                                                     00000250 834758       00462956NNMDGCATNLE CRAYON                20090402
120515-21                                                                     00001200 836646       00184201NYMDGJOSYS.E.D.                   20090403
120515-21                                                                     00002500 832133       00127016NNMDGSYGNRP DIFFUSION VR AUBEV    20090429
120515-21                                                                     00000150 831093       00174305NNMDGJOSYBUREAU SERVICE           20090504
120515-21                                                                     00000050 836638       00162777NYMDGSYTYFORUM BOULOGNE/MER       20090601
120515-21                                                                     00000050 835633       00106601NYMDGSYTYPRIVAT SORBONNE-ANTIB    20090625
1205190563-20                                                                 00000100 836593       00152104NNMDGSYAYHYPERBURO ST DIZIER      20090210
1205190563-20                                                                 00000100 836485       00131046NNMDGSYAYBURO+ DEVELOPPEMENT      20090513
120615-03                                                                     00000500 836402       00144032NNMDGSYANALTER BURO DISTRIBUTI    20090212
120615-09                                                                     00000250 836402       00144032NNMDGSYANALTER BURO DISTRIBUTI    20090212
120615-13                                                                     00000075 836623       00102188NNMDGSYGYM.D.S                    20090210
120615-14                                                                     00000500 836405       00138065NNMDGS02YFIDUCIAL BUREAUTIQUE     20090216
120615-20                                                                     00000025 833793       00162750NYMDGS01YBUREAU VALLEE BERCK      20090115
120615-20                                                                     00000325 824129       00114999NYMDGCLDYMODLING                  20090130
120615-20                                                                     00000025 834922       00159850NYMDGS01YBUREAU VALLEE WATTIGN    20090130
120615-20                                                                     00000025 836378       00154138NYMDGSYAYETS SCHALLER TT POUR     20090206
120615-20                                                                     00000025 836608       00163562NNMDGSYTYLES VOLCANS              20090209
120615-20                                                                     00000175 834587       00820051NYMDGCATNPAPETERIE AS DE TREFL    20090210
120615-20                                                                     00000400 836313       00193003NNMDGSYGYSPICERS                  20090212
120615-20                                                                     00000025 836130       00264950NYMDGCATNLIBRAIRIE BUFALO         20090423
120615-20                                                                     00000050 835633       00106601NYMDGSYTYPRIVAT SORBONNE-ANTIB    20090625
140519-20                                                                     00000500 835588       00113810NNMDGCOLYVIKING DIRECT            20090209
141152-20                                                                     00000225 836274       00121601NNMDGCPXNPLATE FORME CORA LONG    20090209
180897-03                                                                     00001600 835588       00113810NNMDGCOLYVIKING DIRECT            20090209
180897-03                                                                     00009600 835692       00160065NNMDGCOLNOFFICE DEPOT BS SAS      20090213
180903-07                                                                     00000400 835588       00113810NNMDGCOLYVIKING DIRECT            20090209
180904-08                                                                     00000800 835588       00113810NNMDGCOLYVIKING DIRECT            20090209
180904-08                                                                     00008000 835692       00160065NNMDGCOLNOFFICE DEPOT BS SAS      20090213
180905-13                                                                     00000800 835588       00113810NNMDGCOLYVIKING DIRECT            20090209
180906-14                                                                     00000800 835588       00113810NNMDGCOLYVIKING DIRECT            20090209
180906-14                                                                     00010000 836588       00160065NNMDGCOLNOFFICE DEPOT BS SAS      20090220
180907-20                                                                     00000500 835588       00113810NNMDGCOLYVIKING DIRECT            20090209
191211-15                                                                     00003600 835911       00138065YNLM S02YFIDUCIAL BUREAUTIQUE     20090211
191211-18                                                                     00003600 835911       00138065YNLM S02YFIDUCIAL BUREAUTIQUE     20090211
20093901-20                                                                   00000020 835190       00127110NNMDGAGANS.D.E. CENTRE LECLERC    20090206
20093901-20                                                                   00000020 836234       00176215NNMDGCPXNYVETODIS CENTRE LECLE    20090206
20093901-20                                                                   00000040 836443       00184114NNMDGCPXNAUZON VENTOUX CENTRE     20090206
20093901-20                                                                   00000000 836537       00140038NNMDGNGONSODILANDES CENTRE LEC    20090206
20093901-20                                                                   00000000 836559       00133283NNMDGAGANSODICAR CENTRE LECLER    20090206
20093901-20                                                                   00000020 836274       00121601NNMDGCPXNPLATE FORME CORA LONG    20090209
20093901-20                                                                   00000020 836651       00141009NNMDGNGONSORODIS CENTRE LECLER    20090213
20093901-20                                                                   00000020 835194       00144190NNMDGELONCLISSON DISTR CTRE LE    20090217
20093909-20                                                                   00000080 836118       00151139NNMDGCPXNSCAPEST                  20090206
20093909-20                                                                   00000080 836413       00102999NNMDGAGANCARREFOUR HYPERMARCHE    20090206
20093909-20                                                                   00000000 836570       00149033NNMDGNGONGOURONNIERES DIST.C.L    20090206
20093909-20                                                                   00000420 835694       00042800NNMDGSBONELBA SISTEMAS IBERICA    20090226
20093909-20                                                                   00002400 835663       00114999NYMDGCLDYMODLING                  20090323
20093909-20                                                                   00000200 836181       00144150NNMDGCPXNBRIANDIS CENTRE LECLE    20090612
20093909-20                                                                   00000200 836184       00135065NNMDGCPXNRENOUEST E.LECLERC CL    20090612
20093909-20                                                                   00000200 836450       00144090NNMDGNGONPARIS DISTR. CTRE LEC    20090612
20093909-20                                                                   00000040 831870       00160141NNMDGPPANSAINT-JUDIST CENTRE L    20090616
20093909-20                                                                   00000080 834194       00137149NNMDGCPXNLA MONTGOLFIERE CTRE     20090616
20093909-20                                                                   00000020 834739       00130133NNMDGCPXNANGLEDIS CENTRE LECLE    20090618
20093909-20                                                                   00000040 836527       00189005NNMDGNGONAUXERDIS CENTRE LECLE    20090618
20093909-20                                                                   00000060 836529       00158049NNMDGNGONDECIZE DISTR CTRE LEC    20090618
20093909-20                                                                   00000200 833507       00185149NNMDGCPXNSODIROCHE CENTRE LECL    20090619
20093909-20                                                                   00000260 835987       00144144NNMDGCPXNSODIRETZ CENTRE LECLE    20090619
20093909-20                                                                   00000200 836192       00182000NNMDGCPXNSODIBAG CENTRE LECLER    20090619
20093909-20                                                                   00000180 834729       00130133NNMDGCPXNANGLEDIS CENTRE LECLE    20090623
20093909-20                                                                   00000140 836461       00192304NNMDGCPXYLEVALLOIS EXPLOITATIO    20090623
20093909-20                                                                   00000360 836466       00193500NNMDGCPXYPANTIN DISTR CTRE LEC    20090623
20093909-20                                                                   00000180 834575       00184114NNMDGCPXNAUZON VENTOUX CENTRE     20090625
20093909-20                                                                   00000140 833341       00150500NNMDGCPXYPEVILDIS CENTRE LECLE    20090626
20093909-20                                                                   00000140 836499       00185057NNMDGNGONSODIVARDIERE CENTRE L    20090626
20093909-20                                                                   00000160 833538       00147250NNMDGCPXNCENTRE LECLERC MARMAN    20090629
20093909-20                                                                   00000160 833915       00104004NNMDGCPXNSODIALPES CENTRE LECL    20090629
20093909-20                                                                   00000100 834203       00146034NNMDGCPXNSOCAPDIS CENTRE LECLE    20090629
20093909-20                                                                   00000060 835785       00127150NNMDGNGONVERMADIS CENTRE LECLE    20090629
20093909-20                                                                   00000280 832688       00145140NNMDGCPXNPITHIVIERS DIST.CTRE     20090630
20093909-20                                                                   00000020 833628       00113256NNMDGCPXNSODISTRES CENTRE LECL    20090630
20093909-20                                                                   00000160 834013       00128016NNMDGCPXNSODICHAR CENTRE LECLE    20090630
20093909-20                                                                   00000060 835817       00126255NNMDGNGONROMANDIS CENTRE LECLE    20090630
20093909-20                                                                   00000060 836177       00135530NNMDGCPXNCTRE LECLERC NOYAL /     20090630
20093909-20                                                                   00000020 836375       00113601NNMDGCPXNSALONDIS CENTRE LECLE    20090630
20093909-20                                                                   00000020 833629       00113274NNMDGCPXNCENTRE LECLERC MARSEI    20090701
20093909-20                                                                   00000440 834369       00106210NNMDGCPXNNIKAIADIS II CENTRE L    20090701
20093909-20                                                                   00000100 835977       00114117NNMDGCPXNHONFLEUR DISTR.CTRE L    20090701
20093909-20                                                                   00000020 836380       00183044NNMDGCPXNSODILUC CENTRE LECLER    20090701
20093909-20                                                                   00000100 833923       00192217NNMDGCPXNGENEDIS EXPLOIT. CTR     20090702
20093909-20                                                                   00000320 835171       00133315NNMDGCPXNHYPER COSMOS CENTRE L    20090702
20093909-20                                                                   00000060 835365       00181069NNMDGNGONLAVIDA CENTRE LECLERC    20090702
20093909-20                                                                   00000440 836198       00184500NNMDGCPXNBOLDIS CENTRE LECLERC    20090702
20093909-20                                                                   00000100 832697       00177084NNMDGCPXNMAVIDIS CENTRE LECLER    20090703
20093909-20                                                                   00000120 836187       00153055NNMDGCPXNLAVAL DISTR. CTRE LEC    20090703
20093909-20                                                                   00000200 833581       00113256NNMDGCPXNSODISTRES CENTRE LECL    20090706
20093909-20                                                                   00000040 833760       00162308NNMDGCPXNCARVIDIS CENTRE LECLE    20090706
20093909-20                                                                   00000080 835176       00185170NNMDGNGONOUDAIRIDIS CENTRE LEC    20090706
20093909-20                                                                   00000280 833573       00113274NNMDGCPXNCENTRE LECLERC MARSEI    20090707
20093909-20                                                                   00000200 834456       00133317NNMDGCPXNLANGON DISTR. CTRE LE    20090707
20093909-20                                                                   00000140 834902       00184185NNMDGNGONSODIVAL CENTRE LECLER    20090710
20093909-20                                                                   00000040 836440       00113300NNMDGNGONTUILLIERES DIS.CTRE L    20090710
20093909-20                                                                   00000120 832903       00128017NNMDGCPXNAVREDIS CENTRE LECLER    20090715
20093909-20                                                                   00000100 835354       00183044NNMDGCPXNSODILUC CENTRE LECLER    20090715
20093909-20                                                                   00000020 836452       00106111NNMDGCPXYMELHODI CENTRE LECLER    20090722
20093909-20                                                                   00000100 836377       00113601NNMDGCPXNSALONDIS CENTRE LECLE    20090724
20093909-20                                                                   00000120 836435       00106111NNMDGCPXYMELHODI CENTRE LECLER    20090804
20093909-20                                                                   00000080 835861       00113601NNMDGCPXNSALONDIS CENTRE LECLE    20090814
208700-20                                                                     00000144 831782       00314268NNMDGCATNGABON MECA               20090224
208700-20                                                                     00000264 830707       00302795NNMDGCATND. TSEKENIS              20090225
208700-20                                                                     00000264 830706       00302795NNMDGCATND. TSEKENIS              20090226
208800-20                                                                     00000024 836118       00151139NNMDGCPXNSCAPEST                  20090206
208800-20                                                                     00000000 836428       00185900NNMDGCPXNSODILONNE CENTRE LECL    20090206
208800-20                                                                     00000000 836538       00140006NNMDGNGONADOUR DISTR. CTRE LEC    20090206
208800-20                                                                     00000024 836586       00180118NNMDGNGONSODIDIER (SCI DU BOUL    20090206
208800-20                                                                     00000024 834170       00103005NNMDGCPXNMARAIS DIS SA CENTRE     20090610
208800-20                                                                     00000048 832579       00176173NNMDGPPANCITADIS CENTRE LECLER    20090611
208800-20                                                                     00000120 835192       00176055NNMDGNGONSODISRO CENTRE LECLER    20090612
208800-20                                                                     00000024 836181       00144150NNMDGCPXNBRIANDIS CENTRE LECLE    20090612
208800-20                                                                     00000168 836450       00144090NNMDGNGONPARIS DISTR. CTRE LEC    20090612
208800-20                                                                     00000096 833501       00179061NNMDGCPXNTHOUARS DISTR CTRE LE    20090617
208800-20                                                                     00000120 833511       00114129NNMDGCPXNLISIEUX DISTR.CTRE LE    20090617
208800-20                                                                     00000072 832907       00156145NNMDGCPXNVADIS CENTRE LECLERC     20090618
208800-20                                                                     00000096 833189       00114200NNMDGCPXNVAUDRY DISTR. CTRE LE    20090618
208800-20                                                                     00000024 834739       00130133NNMDGCPXNANGLEDIS CENTRE LECLE    20090618
208800-20                                                                     00000024 835357       00118024NNMDGNGONBOURGES DISTR CTRE LE    20090618
208800-20                                                                     00000024 835996       00152100NNMDGCPXNSO.DI.BRAG CENTRE LEC    20090618
208800-20                                                                     00000144 836527       00189005NNMDGNGONAUXERDIS CENTRE LECLE    20090618
208800-20                                                                     00000024 836529       00158049NNMDGNGONDECIZE DISTR CTRE LEC    20090618
208800-20                                                                     00000048 832671       00124120NNMDGCPXNBERCADIS CENTRE LECLE    20090619
208800-20                                                                     00000072 833507       00185149NNMDGCPXNSODIROCHE CENTRE LECL    20090619
208800-20                                                                     00000120 835973       00150015NNMDGCPXNAGNEAUX DISTR CTRE LE    20090619
208800-20                                                                     00000048 836192       00182000NNMDGCPXNSODIBAG CENTRE LECLER    20090619
208800-20                                                                     00000072 835969       00161054NNMDGCPXNARGENTAN DISTR.CTRE L    20090622
208800-20                                                                     00000168 834729       00130133NNMDGCPXNANGLEDIS CENTRE LECLE    20090623
208800-20                                                                     00000072 833556       00111000NNMDGCPXNT.P.L.M.CENTRE LECLER    20090624
208800-20                                                                     00000048 832575       00176215NNMDGPPANYVETODIS CENTRE LECLE    20090629
208800-20                                                                     00000048 833041       00142063NNMDGCPXNANDREZIEUX DIST.CTRE     20090629
208800-20                                                                     00000024 833499       00133319NNMDGCPXNPESSAC DISTR. CTRE LE    20090629
208800-20                                                                     00000096 833915       00104004NNMDGCPXNSODIALPES CENTRE LECL    20090629
208800-20                                                                     00000072 834203       00146034NNMDGCPXNSOCAPDIS CENTRE LECLE    20090629
208800-20                                                                     00000072 832676       00179118NNMDGCPXNBOCAGE DISTR CTRE LEC    20090630
208800-20                                                                     00000072 833092       00161022NNMDGCPXNSODIFLERS CENTRE LECL    20090630
208800-20                                                                     00000024 833628       00113256NNMDGCPXNSODISTRES CENTRE LECL    20090630
208800-20                                                                     00000024 834008       00183499NNMDGCPXNLA SEYDIS CENTRE LECL    20090630
208800-20                                                                     00000048 835847       00150017NNMDGNGONDIST L'AVRANCHIN C. L    20090630
208800-20                                                                     00000024 836002       00111107NNMDGCPXNLIMOUX DISTR. CTRE LE    20090630
208800-20                                                                     00000048 836189       00182002NNMDGCPXNAUDIS CENTRE LECLERC     20090630
208800-20                                                                     00000024 836375       00113601NNMDGCPXNSALONDIS CENTRE LECLE    20090630
208800-20                                                                     00000072 833095       00161023NNMDGCPXNFERMADIS CENTRE LECLE    20090701
208800-20                                                                     00000048 833533       00166044NNMDGCPXNVERNET DIS               20090701
208800-20                                                                     00000024 833629       00113274NNMDGCPXNCENTRE LECLERC MARSEI    20090701
208800-20                                                                     00000072 834369       00106210NNMDGCPXNNIKAIADIS II CENTRE L    20090701
208800-20                                                                     00000048 835977       00114117NNMDGCPXNHONFLEUR DISTR.CTRE L    20090701
208800-20                                                                     00000024 836380       00183044NNMDGCPXNSODILUC CENTRE LECLER    20090701
208800-20                                                                     00000096 836547       00168000NYMDGELOYCORA COLMAR - HOUSSEN    20090701
208800-20                                                                     00000096 835171       00133315NNMDGCPXNHYPER COSMOS CENTRE L    20090702
208800-20                                                                     00000024 835365       00181069NNMDGNGONLAVIDA CENTRE LECLERC    20090702
208800-20                                                                     00000096 836198       00184500NNMDGCPXNBOLDIS CENTRE LECLERC    20090702
208800-20                                                                     00000096 836553       00168023NYMDGELOYCORA WITTENHEIM          20090702
208800-20                                                                     00000048 832678       00185148NNMDGCPXNSODINOVE CENTRE LECLE    20090703
208800-20                                                                     00000072 833159       00114058NNMDGCPXNSOBADIS CENTRE LECLER    20090703
208800-20                                                                     00000096 835909       00167025NNMDGELOYCORA STRASBOURG          20090703
208800-20                                                                     00000048 832684       00114132NNMDGCPXNTOUQUES DISTR CTRE LE    20090706
208800-20                                                                     00000048 833581       00113256NNMDGCPXNSODISTRES CENTRE LECL    20090706
208800-20                                                                     00000072 835176       00185170NNMDGNGONOUDAIRIDIS CENTRE LEC    20090706
208800-20                                                                     00000120 833573       00113274NNMDGCPXNCENTRE LECLERC MARSEI    20090707
208800-20                                                                     00000096 834456       00133317NNMDGCPXNLANGON DISTR. CTRE LE    20090707
208800-20                                                                     00000048 833497       00185900NNMDGCPXNSODILONNE CENTRE LECL    20090708
208800-20                                                                     00000096 836440       00113300NNMDGNGONTUILLIERES DIS.CTRE L    20090710
208800-20                                                                     00000048 832903       00128017NNMDGCPXNAVREDIS CENTRE LECLER    20090715
208800-20                                                                     00000048 835354       00183044NNMDGCPXNSODILUC CENTRE LECLER    20090715
208800-20                                                                     00000024 836452       00106111NNMDGCPXYMELHODI CENTRE LECLER    20090722
208800-20                                                                     00000144 836377       00113601NNMDGCPXNSALONDIS CENTRE LECLE    20090724
208800-20                                                                     00000072 836435       00106111NNMDGCPXYMELHODI CENTRE LECLER    20090804
208800-20                                                                     00000120 835861       00113601NNMDGCPXNSALONDIS CENTRE LECLE    20090814
294903-20                                                                     00000000 836426       00116133NNMDGCPXYSODIROCHE CENTRE LECL    20090206
294903-20                                                                     00000000 836537       00140038NNMDGNGONSODILANDES CENTRE LEC    20090206
294903-20                                                                     00000000 836538       00140006NNMDGNGONADOUR DISTR. CTRE LEC    20090206
294903-20                                                                     00000020 836181       00144150NNMDGCPXNBRIANDIS CENTRE LECLE    20090612
294903-20                                                                     00000040 832907       00156145NNMDGCPXNVADIS CENTRE LECLERC     20090618
294903-20                                                                     00000010 834739       00130133NNMDGCPXNANGLEDIS CENTRE LECLE    20090618
294903-20                                                                     00000020 836527       00189005NNMDGNGONAUXERDIS CENTRE LECLE    20090618
294903-20                                                                     00000010 836529       00158049NNMDGNGONDECIZE DISTR CTRE LEC    20090618
294903-20                                                                     00000030 833507       00185149NNMDGCPXNSODIROCHE CENTRE LECL    20090619
294903-20                                                                     00000050 834729       00130133NNMDGCPXNANGLEDIS CENTRE LECLE    20090623
294903-20                                                                     00000050 832670       00186173NNMDGCPXNROCADIS CENTRE LECLER    20090625
294903-20                                                                     00000010 833538       00147250NNMDGCPXNCENTRE LECLERC MARMAN    20090629
294903-20                                                                     00000040 834203       00146034NNMDGCPXNSOCAPDIS CENTRE LECLE    20090629
294903-20                                                                     00000010 833628       00113256NNMDGCPXNSODISTRES CENTRE LECL    20090630
294903-20                                                                     00000010 836177       00135530NNMDGCPXNCTRE LECLERC NOYAL /     20090630
294903-20                                                                     00000010 836375       00113601NNMDGCPXNSALONDIS CENTRE LECLE    20090630
294903-20                                                                     00000010 833629       00113274NNMDGCPXNCENTRE LECLERC MARSEI    20090701
294903-20                                                                     00000030 834369       00106210NNMDGCPXNNIKAIADIS II CENTRE L    20090701
294903-20                                                                     00000020 835977       00114117NNMDGCPXNHONFLEUR DISTR.CTRE L    20090701
294903-20                                                                     00000010 836380       00183044NNMDGCPXNSODILUC CENTRE LECLER    20090701
294903-20                                                                     00000060 835171       00133315NNMDGCPXNHYPER COSMOS CENTRE L    20090702
294903-20                                                                     00000030 835365       00181069NNMDGNGONLAVIDA CENTRE LECLERC    20090702
294903-20                                                                     00000050 836198       00184500NNMDGCPXNBOLDIS CENTRE LECLERC    20090702
294903-20                                                                     00000040 833581       00113256NNMDGCPXNSODISTRES CENTRE LECL    20090706
294903-20                                                                     00000040 835176       00185170NNMDGNGONOUDAIRIDIS CENTRE LEC    20090706
294903-20                                                                     00000020 833573       00113274NNMDGCPXNCENTRE LECLERC MARSEI    20090707
294903-20                                                                     00000030 834456       00133317NNMDGCPXNLANGON DISTR. CTRE LE    20090707
294903-20                                                                     00000020 835354       00183044NNMDGCPXNSODILUC CENTRE LECLER    20090715
294903-20                                                                     00000010 836452       00106111NNMDGCPXYMELHODI CENTRE LECLER    20090722
294903-20                                                                     00000020 836377       00113601NNMDGCPXNSALONDIS CENTRE LECLE    20090724
294903-20                                                                     00000030 836435       00106111NNMDGCPXYMELHODI CENTRE LECLER    20090804
294903-20                                                                     00000020 835861       00113601NNMDGCPXNSALONDIS CENTRE LECLE    20090814
294904-20                                                                     00000000 836537       00140038NNMDGNGONSODILANDES CENTRE LEC    20090206
294904-20                                                                     00000010 836546       00150015NNMDGJMONAGNEAUX DISTR CTRE LE    20090209
294904-20                                                                     00000010 836181       00144150NNMDGCPXNBRIANDIS CENTRE LECLE    20090612
294904-20                                                                     00000030 832907       00156145NNMDGCPXNVADIS CENTRE LECLERC     20090618
294904-20                                                                     00000010 834739       00130133NNMDGCPXNANGLEDIS CENTRE LECLE    20090618
294904-20                                                                     00000030 836527       00189005NNMDGNGONAUXERDIS CENTRE LECLE    20090618
294904-20                                                                     00000010 836529       00158049NNMDGNGONDECIZE DISTR CTRE LEC    20090618
294904-20                                                                     00000030 833507       00185149NNMDGCPXNSODIROCHE CENTRE LECL    20090619
294904-20                                                                     00000030 835987       00144144NNMDGCPXNSODIRETZ CENTRE LECLE    20090619
294904-20                                                                     00000020 834729       00130133NNMDGCPXNANGLEDIS CENTRE LECLE    20090623
294904-20                                                                     00000050 832670       00186173NNMDGCPXNROCADIS CENTRE LECLER    20090625
294904-20                                                                     00000020 833538       00147250NNMDGCPXNCENTRE LECLERC MARMAN    20090629
294904-20                                                                     00000010 834203       00146034NNMDGCPXNSOCAPDIS CENTRE LECLE    20090629
294904-20                                                                     00000010 833628       00113256NNMDGCPXNSODISTRES CENTRE LECL    20090630
294904-20                                                                     00000010 836375       00113601NNMDGCPXNSALONDIS CENTRE LECLE    20090630
294904-20                                                                     00000010 833629       00113274NNMDGCPXNCENTRE LECLERC MARSEI    20090701
294904-20                                                                     00000030 834369       00106210NNMDGCPXNNIKAIADIS II CENTRE L    20090701
294904-20                                                                     00000010 836380       00183044NNMDGCPXNSODILUC CENTRE LECLER    20090701
294904-20                                                                     00000030 835171       00133315NNMDGCPXNHYPER COSMOS CENTRE L    20090702
294904-20                                                                     00000030 835365       00181069NNMDGNGONLAVIDA CENTRE LECLERC    20090702
294904-20                                                                     00000010 833573       00113274NNMDGCPXNCENTRE LECLERC MARSEI    20090707
294904-20                                                                     00000010 834456       00133317NNMDGCPXNLANGON DISTR. CTRE LE    20090707
294904-20                                                                     00000020 835354       00183044NNMDGCPXNSODILUC CENTRE LECLER    20090715
294904-20                                                                     00000010 836452       00106111NNMDGCPXYMELHODI CENTRE LECLER    20090722
294904-20                                                                     00000010 836377       00113601NNMDGCPXNSALONDIS CENTRE LECLE    20090724
294904-20                                                                     00000020 836435       00106111NNMDGCPXYMELHODI CENTRE LECLER    20090804
294904-20                                                                     00000010 835861       00113601NNMDGCPXNSALONDIS CENTRE LECLE    20090814
42003032                                                                      00004000 834971       00160065NNMDGCOLNOFFICE DEPOT BS SAS      20090206
42003032                                                                      00000000 836549       00115006NNMDGS03YINTERACTIVE HPC          20090206
42003032                                                                      00000500 836303       00145165NNMDGCOLYVIKING DIRECT            20090209
42003032                                                                      00004000 835137       00193397NNMDGSYAYSACFOM (CENTRALE)        20090226
42003032                                                                      00000050 833071       00138073NNMDGJOSYLIBRAIRIE-PAP. BLANCH    20090403
42003072                                                                      00000050 834026       00182067NNMDGSYGYDIFPAP                   20090206
42003072                                                                      00000650 835722       00191017NNMDGS02YCORPORATE EXPRESS FRA    20090206
42003072                                                                      00000000 836549       00115006NNMDGS03YINTERACTIVE HPC          20090206
42003072                                                                      00000150 835764       00191017NNMDGS02YCORPORATE EXPRESS FRA    20090210
42003072                                                                      00000450 836067       00193003NNMDGSYGYSPICERS                  20090212
42003072                                                                      00004000 835692       00160065NNMDGCOLNOFFICE DEPOT BS SAS      20090213
42003072                                                                      00000200 836292       00191017NNMDGS02YCORPORATE EXPRESS FRA    20090213
42003092                                                                      00000000 836549       00115006NNMDGS03YINTERACTIVE HPC          20090206
42003092                                                                      00000050 836658       00144032NYMDGSYANALTER BURO DISTRIBUTI    20090212
42003092                                                                      00008000 835692       00160065NNMDGCOLNOFFICE DEPOT BS SAS      20090213
42003132                                                                      00000200 835722       00191017NNMDGS02YCORPORATE EXPRESS FRA    20090206
42003132                                                                      00000000 836549       00115006NNMDGS03YINTERACTIVE HPC          20090206
42003132                                                                      00000250 835764       00191017NNMDGS02YCORPORATE EXPRESS FRA    20090210
42003132                                                                      00000050 836623       00102188NNMDGSYGYM.D.S                    20090210
42003132                                                                      00000500 836574       00145165NYMDGCOLYVIKING DIRECT            20090212
42003132                                                                      00000300 836292       00191017NNMDGS02YCORPORATE EXPRESS FRA    20090213
42003132                                                                      00005000 836588       00160065NNMDGCOLNOFFICE DEPOT BS SAS      20090220
42003212                                                                      00000500 835722       00191017NNMDGS02YCORPORATE EXPRESS FRA    20090206
42003212                                                                      00000000 836549       00115006NNMDGS03YINTERACTIVE HPC          20090206
42003212                                                                      00002000 835692       00160065NNMDGCOLNOFFICE DEPOT BS SAS      20090213
42003212                                                                      00000150 836292       00191017NNMDGS02YCORPORATE EXPRESS FRA    20090213
42003902                                                                      00003600 835590       00193003NNMDGSYGYSPICERS                  20090206
42003902                                                                      00003000 836303       00145165NNMDGCOLYVIKING DIRECT            20090209
42003902                                                                      00020000 836588       00160065NNMDGCOLNOFFICE DEPOT BS SAS      20090220
42003902                                                                      00000800 832110       00127016NNMDGSYGNRP DIFFUSION VR AUBEV    20090226
42003902                                                                      00000400 832445       00169250NNMDGSYGNRP DIFFUSION - LYON      20090330
42003902                                                                      00000800 832278       00127016NNMDGSYGNRP DIFFUSION VR AUBEV    20090402
42003902                                                                      00000250 836646       00184201NYMDGJOSYS.E.D.                   20090403
42003902                                                                      00000400 832291       00127016NNMDGSYGNRP DIFFUSION VR AUBEV    20090429
42003902                                                                      00000050 836650       00130098NYMDGS03YLIB-PAP. GOYARD          20090430
42003902                                                                      00000050 831093       00174305NNMDGJOSYBUREAU SERVICE           20090504
42003902                                                                      00000100 836059       00162219NYMDGJOSYGERAULT JP               20090504
42003902                                                                      00000800 832598       00169250NNMDGSYGNRP DIFFUSION - LYON      20090629
42003932                                                                      00000400 832446       00169250NNMDGSYGNRP DIFFUSION - LYON      20090226
42003932                                                                      00000800 832452       00169250NNMDGSYGNRP DIFFUSION - LYON      20090429
42056031                                                                      00000100 836626       00003990NNMDGISANELBA OFFICE PRODUCTS     20090213
42056071                                                                      00000400 835928       00153041NNMDGCOLYLYRECO FRANCE            20090211
42056131                                                                      00000150 836453       00004006NNMDGISANELBA GMBH                20090218
42056901                                                                      00000420 835468       00153041NNMDGCOLYLYRECO FRANCE            20090210
42056901                                                                      00000320 835928       00153041NNMDGCOLYLYRECO FRANCE            20090211
42056901                                                                      00000160 835935       00153041NNMDGCOLYLYRECO FRANCE            20090211
42056901                                                                      00000150 836453       00004006NNMDGISANELBA GMBH                20090218
42091031                                                                      00000100 836615       00187040NYMDGS01YFABREGUE DUO             20090206
42091031                                                                      00001000 836067       00193003NNMDGSYGYSPICERS                  20090212
42091091                                                                      00000500 835590       00193003NNMDGSYGYSPICERS                  20090206
42091131                                                                      00000500 835590       00193003NNMDGSYGYSPICERS                  20090206
42091901                                                                      00000050 835910       00157019NNMDGNGONSARREDIS CENTRE LECLE    20090206
42091901                                                                      00000100 836118       00151139NNMDGCPXNSCAPEST                  20090206
42091901                                                                      00000100 836412       00133145NNMDGAGANCARREFOUR HYPERMARCHE    20090206
42091901                                                                      00000150 836413       00102999NNMDGAGANCARREFOUR HYPERMARCHE    20090206
42091901                                                                      00000000 836426       00116133NNMDGCPXYSODIROCHE CENTRE LECL    20090206
42091901                                                                      00000000 836428       00185900NNMDGCPXNSODILONNE CENTRE LECL    20090206
42091901                                                                      00000050 836535       00140026NNMDGNGONPLAGECO CENTRE LECLER    20090206
42091901                                                                      00000000 836537       00140038NNMDGNGONSODILANDES CENTRE LEC    20090206
42091901                                                                      00000000 836538       00140006NNMDGNGONADOUR DISTR. CTRE LEC    20090206
42091901                                                                      00000000 836559       00133283NNMDGAGANSODICAR CENTRE LECLER    20090206
42091901                                                                      00000000 836570       00149033NNMDGNGONGOURONNIERES DIST.C.L    20090206
42091901                                                                      00000050 836606       00192304NNMDGNGONLEVALLOIS EXPLOITATIO    20090206
42091901                                                                      00001000 836475       00145610NNMDGAGANC S F FRANCE SAS         20090210
42091901                                                                      00000050 836533       00145140NNMDGNGONPITHIVIERS DIST.CTRE     20090210
42091901                                                                      00000050 835194       00144190NNMDGELONCLISSON DISTR CTRE LE    20090217
42091901                                                                      00000700 835981       00144055NNMDGCPXNST HERBLAIN DIST.CTR     20090608
42091901                                                                      00000100 834170       00103005NNMDGCPXNMARAIS DIS SA CENTRE     20090610
42091901                                                                      00000200 836115       00144023NNMDGCPXNANCENIS CENTRE LECLER    20090610
42091901                                                                      00000150 834194       00137149NNMDGCPXNLA MONTGOLFIERE CTRE     20090616
42091901                                                                      00000200 833511       00114129NNMDGCPXNLISIEUX DISTR.CTRE LE    20090617
42091901                                                                      00000150 832907       00156145NNMDGCPXNVADIS CENTRE LECLERC     20090618
42091901                                                                      00000050 834739       00130133NNMDGCPXNANGLEDIS CENTRE LECLE    20090618
42091901                                                                      00000050 835357       00118024NNMDGNGONBOURGES DISTR CTRE LE    20090618
42091901                                                                      00000050 835996       00152100NNMDGCPXNSO.DI.BRAG CENTRE LEC    20090618
42091901                                                                      00000100 836527       00189005NNMDGNGONAUXERDIS CENTRE LECLE    20090618
42091901                                                                      00000050 836529       00158049NNMDGNGONDECIZE DISTR CTRE LEC    20090618
42091901                                                                      00000300 832671       00124120NNMDGCPXNBERCADIS CENTRE LECLE    20090619
42091901                                                                      00000100 833495       00185503NNMDGCPXNHERBIDIS CENTRE LECLE    20090619
42091901                                                                      00000300 835987       00144144NNMDGCPXNSODIRETZ CENTRE LECLE    20090619
42091901                                                                      00000150 836192       00182000NNMDGCPXNSODIBAG CENTRE LECLER    20090619
42091901                                                                      00000350 833101       00181070NNMDGCPXNGAILLAC DISTRIB.CTRE     20090622
42091901                                                                      00000050 834729       00130133NNMDGCPXNANGLEDIS CENTRE LECLE    20090623
42091901                                                                      00000500 836466       00193500NNMDGCPXYPANTIN DISTR CTRE LEC    20090623
42091901                                                                      00000150 833556       00111000NNMDGCPXNT.P.L.M.CENTRE LECLER    20090624
42091901                                                                      00000050 836098       00149500NNMDGCPXNSEGRE DISTR. CTRE LEC    20090624
42091901                                                                      00000200 833077       00147122NNMDGCPXNST PIERRE DIST.CTR LE    20090625
42091901                                                                      00000050 835633       00106601NYMDGSYTYPRIVAT SORBONNE-ANTIB    20090625
42091901                                                                      00000050 833341       00150500NNMDGCPXYPEVILDIS CENTRE LECLE    20090626
42091901                                                                      00000200 833538       00147250NNMDGCPXNCENTRE LECLERC MARMAN    20090629
42091901                                                                      00000300 834203       00146034NNMDGCPXNSOCAPDIS CENTRE LECLE    20090629
42091901                                                                      00000150 832676       00179118NNMDGCPXNBOCAGE DISTR CTRE LEC    20090630
42091901                                                                      00000100 832908       00177100NNMDGCPXNSODIMEAUX CENTRE LECL    20090630
42091901                                                                      00000050 835817       00126255NNMDGNGONROMANDIS CENTRE LECLE    20090630
42091901                                                                      00000100 835847       00150017NNMDGNGONDIST L'AVRANCHIN C. L    20090630
42091901                                                                      00000250 836002       00111107NNMDGCPXNLIMOUX DISTR. CTRE LE    20090630
42091901                                                                      00000250 836189       00182002NNMDGCPXNAUDIS CENTRE LECLERC     20090630
42091901                                                                      00000150 836554       00157007NYMDGJMOYCORA ST AVOLD            20090630
42091901                                                                      00000200 832691       00141029NNMDGCPXNSOBLEDIS CENTRE LECLE    20090701
42091901                                                                      00000100 833069       00164500NNMDGCPXNSODIBAY CENTRE LECLER    20090701
42091901                                                                      00000100 833095       00161023NNMDGCPXNFERMADIS CENTRE LECLE    20090701
42091901                                                                      00000150 833533       00166044NNMDGCPXNVERNET DIS               20090701
42091901                                                                      00000150 835080       00144031NNMDGNGONNANTES NORD DIST.CTR     20090701
42091901                                                                      00000100 833923       00192217NNMDGCPXNGENEDIS EXPLOIT. CTR     20090702
42091901                                                                      00000250 835171       00133315NNMDGCPXNHYPER COSMOS CENTRE L    20090702
42091901                                                                      00000100 835365       00181069NNMDGNGONLAVIDA CENTRE LECLERC    20090702
42091901                                                                      00000050 836149       00135098NNMDGCPXNSA FOUGERES DISTRIBUT    20090702
42091901                                                                      00000100 836151       00144160NNMDGCPXNBRIERE DISTR. CTRE LE    20090702
42091901                                                                      00000100 832697       00177084NNMDGCPXNMAVIDIS CENTRE LECLER    20090703
42091901                                                                      00000050 834531       00153008NNMDGCPXNAZEDIS CENTRE LECLERC    20090703
42091901                                                                      00000400 834456       00133317NNMDGCPXNLANGON DISTR. CTRE LE    20090707
42091901                                                                      00000250 836173       00144145NNMDGCPXNSODIJOUR CENTRE LECLE    20090707
42091901                                                                      00000150 833497       00185900NNMDGCPXNSODILONNE CENTRE LECL    20090708
42091901                                                                      00000150 834902       00184185NNMDGNGONSODIVAL CENTRE LECLER    20090710
42091901                                                                      00000050 835984       00149033NNMDGCPXNGOURONNIERES DIST.C.L    20090710
42092131                                                                      00004000 836311       00193003NNMDGSYGYSPICERS                  20090212
42092211                                                                      00000500 836082       00193003NNMDGSYGYSPICERS                  20090212
42092211                                                                      00001500 836311       00193003NNMDGSYGYSPICERS                  20090212
42701-21                                                                      00000040 836402       00144032NNMDGSYANALTER BURO DISTRIBUTI    20090212
42701011                                                                      00000040 836402       00144032NNMDGSYANALTER BURO DISTRIBUTI    20090212
42701031                                                                      00000800 835935       00153041NNMDGCOLYLYRECO FRANCE            20090211
42701031                                                                      00000200 836402       00144032NNMDGSYANALTER BURO DISTRIBUTI    20090212
42701071                                                                      00000800 836572       00153041NNMDGCOLYLYRECO FRANCE            20090206
42701091                                                                      00000900 835928       00153041NNMDGCOLYLYRECO FRANCE            20090211
42701091                                                                      00001000 835692       00160065NNMDGCOLNOFFICE DEPOT BS SAS      20090213
42701131                                                                      00000010 835796       00138065NNMDGS02YFIDUCIAL BUREAUTIQUE     20090206
42701131                                                                      00000600 835935       00153041NNMDGCOLYLYRECO FRANCE            20090211
42701131                                                                      00001000 836589       00160065NNMDGCOLNOFFICE DEPOT BS SAS      20090220
42701491                                                                      00000500 835763       00263500NYMDGCATNDIACFA -                 20090227
42701901                                                                      00005600 834934       00153041YNLM COLYLYRECO FRANCE            20090209
42701901                                                                      00001200 835935       00153041NNMDGCOLYLYRECO FRANCE            20090211
42701901                                                                      00000020 836130       00264950NYMDGCATNLIBRAIRIE BUFALO         20090423
43000901                                                                      00001000 836182       00199380NNMDGAGANMONOPRIX EXPLOITATION    20090209
43000901                                                                      00000100 829387       00374100NYMDGCATNSELECT REUNION BURO S    20090212
43000901                                                                      00000100 835882       00248135NYMDGCATNLA CENTRALE PAPETIERE    20090213
43000901                                                                      00014600 835648       00114999NYMDGCLDYMODLING                  20090216
43000901                                                                      00014600 835649       00114999NYMDGCLDYMODLING                  20090313
43000901                                                                      00014600 835650       00114999NYMDGCLDYMODLING                  20090414
43000901                                                                      00000100 834717       00126337NNMDGSYTYLIVRES & CO BAUME        20090504
43000901                                                                      00015200 835662       00114999NYMDGCLDYMODLING                  20090514
43000901                                                                      00000100 836450       00144090NNMDGNGONPARIS DISTR. CTRE LEC    20090612
43000901                                                                      00000100 834739       00130133NNMDGCPXNANGLEDIS CENTRE LECLE    20090618
43000901                                                                      00000100 836466       00193500NNMDGCPXYPANTIN DISTR CTRE LEC    20090623
43000901                                                                      00000100 833915       00104004NNMDGCPXNSODIALPES CENTRE LECL    20090629
43000901                                                                      00000100 834200       00191057NNMDGELOYCORA VAL D'HYERES        20090629
43000901                                                                      00000100 836375       00113601NNMDGCPXNSALONDIS CENTRE LECLE    20090630
43000901                                                                      00000100 834369       00106210NNMDGCPXNNIKAIADIS II CENTRE L    20090701
43000901                                                                      00000100 836198       00184500NNMDGCPXNBOLDIS CENTRE LECLERC    20090702
43000901                                                                      00000100 836553       00168023NYMDGELOYCORA WITTENHEIM          20090702
43000901                                                                      00000100 835909       00167025NNMDGELOYCORA STRASBOURG          20090703
43000901                                                                      00000100 834019       00126249NNMDGCPXNLOUIS ROUDAUT CENTRE     20090706
43000901                                                                      00000100 834902       00184185NNMDGNGONSODIVAL CENTRE LECLER    20090710
43005901                                                                      00000080 836118       00151139NNMDGCPXNSCAPEST                  20090206
43005901                                                                      00000160 834587       00820051NYMDGCATNPAPETERIE AS DE TREFL    20090210
43005901                                                                      00000080 835882       00248135NYMDGCATNLA CENTRALE PAPETIERE    20090213
43005901                                                                      00000080 836567       00198635NNMDGSYTNBHV RIVOLI               20090213
43005901                                                                      00002880 835641       00114999NYMDGCLDYMODLING                  20090216
43005901                                                                      00002880 835643       00114999NYMDGCLDYMODLING                  20090313
43005901                                                                      00002880 835644       00114999NYMDGCLDYMODLING                  20090414
43005901                                                                      00001440 835865       00462040NYMDGCATNLIBRAIRIE ANTILLAISE     20090415
43005901                                                                      00000080 836184       00135065NNMDGCPXNRENOUEST E.LECLERC CL    20090612
43005901                                                                      00000080 836450       00144090NNMDGNGONPARIS DISTR. CTRE LEC    20090612
43005901                                                                      00000080 834739       00130133NNMDGCPXNANGLEDIS CENTRE LECLE    20090618
43005901                                                                      00000080 835987       00144144NNMDGCPXNSODIRETZ CENTRE LECLE    20090619
43005901                                                                      00000080 836466       00193500NNMDGCPXYPANTIN DISTR CTRE LEC    20090623
43005901                                                                      00000080 835633       00106601NYMDGSYTYPRIVAT SORBONNE-ANTIB    20090625
43005901                                                                      00000080 833915       00104004NNMDGCPXNSODIALPES CENTRE LECL    20090629
43005901                                                                      00000080 834200       00191057NNMDGELOYCORA VAL D'HYERES        20090629
43005901                                                                      00000080 832908       00177100NNMDGCPXNSODIMEAUX CENTRE LECL    20090630
43005901                                                                      00000080 836375       00113601NNMDGCPXNSALONDIS CENTRE LECLE    20090630
43005901                                                                      00000080 832691       00141029NNMDGCPXNSOBLEDIS CENTRE LECLE    20090701
43005901                                                                      00000080 836547       00168000NYMDGELOYCORA COLMAR - HOUSSEN    20090701
