00097500            00000400 835895       00250000NYMDGCATNFUCSIA                   090213
00099500            00001400 835318       00272726NYMDGCATNPAPIGRAPH                090211
00099500            00000600 835664       00138065NNMDGS02YFIDUCIAL BUREAUTIQUE     090211
00099500            00000600 829387       00374100NYMDGCATNSELECT REUNION BURO S    090212
00099500            00001600 834084       00193397NNMDGSYAYSACFOM (CENTRALE)        090212
00099500            00002600 836067       00193003NNMDGSYGYSPICERS                  090212
00099500            00002400 836404       00138065NNMDGS02YFIDUCIAL BUREAUTIQUE     090218
002001-17           00000040 828445       00169100NNMDGSYAYLYON BUREAU              090226
002001-17           00000480 832110       00127016NNMDGSYGNRP DIFFUSION VR AUBEV    090226
002001-17           00000040 829248       00159044NNMDGJOSYBASQUIN CANONNE          090319
002001-17           00000240 832445       00169250NNMDGSYGNRP DIFFUSION - LYON      090330
002001-17           00000480 832278       00127016NNMDGSYGNRP DIFFUSION VR AUBEV    090402
002001-17           00000040 835967       00106602NNMDGSYTYPRIVAT SORBONNE-NICE     090427
002001-17           00000040 830182       00177008NNMDGJOSYAMYOT J.                 090429
002001-17           00000240 832291       00127016NNMDGSYGNRP DIFFUSION VR AUBEV    090429
002001-17           00000240 832452       00169250NNMDGSYGNRP DIFFUSION - LYON      090429
002001-17           00000040 836439       00174506NYMDGSYTNLIVRES & CO ANNEMASSE    090429
002001-17           00000040 836634       00102201NYMDGS03YBUREAU 02                090429
002001-17           00000040 835948       00135300NNMDGSYAYBURO POLE                090430
002001-17           00000040 835638       00106603NYMDGSYTYPRIVAT SORBONNE-CANNE    090506
002001-17           00000280 830703       00175003NNMDGJOSNLAMARTINE                090527
002001-17           00045400 834671       00197011NNMDGCPXYGALEC                    090528
002001-17           00000240 832591       00169250NNMDGSYGNRP DIFFUSION - LYON      090601
002001-17           00000240 832598       00169250NNMDGSYGNRP DIFFUSION - LYON      090629
002001-17           00000120 834203       00146034NNMDGCPXNSOCAPDIS CENTRE LECLE    090629
002001-17           00000280 830749       00175003NNMDGJOSNLAMARTINE                090722
00275010            00000100 835690       00160065NNMDGCOLNOFFICE DEPOT BS SAS      090206
00275010            00000030 835710       00191017NNMDGS02YCORPORATE EXPRESS FRA    090206
00275010            00000020 835738       00191017NNMDGS02YCORPORATE EXPRESS FRA    090209
00275010            00000200 835692       00160065NNMDGCOLNOFFICE DEPOT BS SAS      090213
00275400            00000005 834026       00182067NNMDGSYGYDIFPAP                   090206
00275400            00000075 834084       00193397NNMDGSYAYSACFOM (CENTRALE)        090212
00275400            00000100 836602       00160065NNMDGCOLNOFFICE DEPOT BS SAS      090213
00275400            00000150 836482       00153041NNMDGCOLYLYRECO FRANCE            090217
00275400            00000050 836589       00160065NNMDGCOLNOFFICE DEPOT BS SAS      090220
00275400            00000100 835741       00272725NYMDGCATNLIBRAIRIE DE FRANCE G    090424
00275440            00000005 836303       00145165NNMDGCOLYVIKING DIRECT            090209
00275440            00000015 836313       00193003NNMDGSYGYSPICERS                  090212
00275440            00000100 835741       00272725NYMDGCATNLIBRAIRIE DE FRANCE G    090424
00293502            00000060 834587       00820051NYMDGCATNPAPETERIE AS DE TREFL    090210
00322901            00000048 834587       00820051NYMDGCATNPAPETERIE AS DE TREFL    090210
00322901            00000024 835019       00183107NNMDGJOSYPAPETERIE REMY           090504
005282-17           00000012 836441       00184000NNMDGCPXNAVIROC CENTRE LECLERC    090206
005282-17           00000012 836443       00184114NNMDGCPXNAUZON VENTOUX CENTRE     090206
005282-17           00000012 836512       00144055NNMDGNGONST HERBLAIN DIST.CTR     090206
005282-17           00000024 836587       00159381NNMDGSYTNLE FURET DU NORD LILL    090206
005282-17           00000036 836274       00121601NNMDGCPXNPLATE FORME CORA LONG    090209
005282-17           00000012 836645       00106111NNMDGNGONMELHODI CENTRE LECLER    090209
005282-17           00000180 834587       00820051NYMDGCATNPAPETERIE AS DE TREFL    090210
005282-17           00000576 832097       00127016NNMDGSYGNRP DIFFUSION VR AUBEV    090226
005282-17           00000144 832446       00169250NNMDGSYGNRP DIFFUSION - LYON      090226
005282-17           00000264 836230       00496710NNMDGCATNACODIS                   090327
005282-17           00000144 832445       00169250NNMDGSYGNRP DIFFUSION - LYON      090330
005282-17           00000576 832270       00127016NNMDGSYGNRP DIFFUSION VR AUBEV    090402
005282-17           00000012 833071       00138073NNMDGJOSYLIBRAIRIE-PAP. BLANCH    090403
005282-17           00000012 836130       00264950NYMDGCATNLIBRAIRIE BUFALO         090423
005282-17           00000720 835531       00272725NYMDGCATNLIBRAIRIE DE FRANCE G    090424
005282-17           00000036 830182       00177008NNMDGJOSYAMYOT J.                 090429
005282-17           00000144 832452       00169250NNMDGSYGNRP DIFFUSION - LYON      090429
005282-17           00000036 835202       00114164NNMDGS03YPLEIN CIEL POINT VIRG    090430
005282-17           00000012 836650       00130098NYMDGS03YLIB-PAP. GOYARD          090430
005282-17           00000024 834717       00126337NNMDGSYTYLIVRES & CO BAUME        090504
005282-17           00000024 836059       00162219NYMDGJOSYGERAULT JP               090504
005282-17           00000048 830703       00175003NNMDGJOSNLAMARTINE                090527
005282-17           00000576 832591       00169250NNMDGSYGNRP DIFFUSION - LYON      090601
005282-17           00000036 835633       00106601NYMDGSYTYPRIVAT SORBONNE-ANTIB    090625
005282-17           00000432 832598       00169250NNMDGSYGNRP DIFFUSION - LYON      090629
005282-17           00000048 835332       00173012NNMDGJOSYLIBRAIRIE DES BAUGES     090709
005282-17           00000072 830749       00175003NNMDGJOSNLAMARTINE                090722
005284-17           00000027 835895       00250000NYMDGCATNFUCSIA                   090213
005284-17           00000225 835531       00272725NYMDGCATNLIBRAIRIE DE FRANCE G    090424
005284-17           00000036 830182       00177008NNMDGJOSYAMYOT J.                 090429
005284-17           00000018 835202       00114164NNMDGS03YPLEIN CIEL POINT VIRG    090430
005284-17           00000009 836059       00162219NYMDGJOSYGERAULT JP               090504
005284-17           00000018 834848       00162312NNMDGSYAYHYPERBURO LONGUENESSE    090505
005284-17           00000018 834707       00189124NNMDGS03YVOILLOT                  090518
00528409-17         00000250 836115       00144023NNMDGCPXNANCENIS CENTRE LECLER    090610
00528409-17         00000150 832579       00176173NNMDGPPANCITADIS CENTRE LECLER    090611
00528409-17         00000050 836181       00144150NNMDGCPXNBRIANDIS CENTRE LECLE    090612
00528409-17         00000400 836450       00144090NNMDGNGONPARIS DISTR. CTRE LEC    090612
00528409-17         00000050 834194       00137149NNMDGCPXNLA MONTGOLFIERE CTRE     090616
00528409-17         00000200 836066       00135097NNMDGCPXNSODIRENNES CENTRE LEC    090616
00528409-17         00000100 833511       00114129NNMDGCPXNLISIEUX DISTR.CTRE LE    090617
00528409-17         00000100 832907       00156145NNMDGCPXNVADIS CENTRE LECLERC     090618
00528409-17         00000100 833189       00114200NNMDGCPXNVAUDRY DISTR. CTRE LE    090618
00528409-17         00000050 834739       00130133NNMDGCPXNANGLEDIS CENTRE LECLE    090618
00528409-17         00000300 833507       00185149NNMDGCPXNSODIROCHE CENTRE LECL    090619
00528409-17         00000200 835973       00150015NNMDGCPXNAGNEAUX DISTR CTRE LE    090619
00528409-17         00000100 834729       00130133NNMDGCPXNANGLEDIS CENTRE LECLE    090623
00528409-17         00000100 836461       00192304NNMDGCPXYLEVALLOIS EXPLOITATIO    090623
00528409-17         00000100 836466       00193500NNMDGCPXYPANTIN DISTR CTRE LEC    090623
00528409-17         00000050 833556       00111000NNMDGCPXNT.P.L.M.CENTRE LECLER    090624
00528409-17         00000150 836499       00185057NNMDGNGONSODIVARDIERE CENTRE L    090626
00528409-17         00000100 832575       00176215NNMDGPPANYVETODIS CENTRE LECLE    090629
00528409-17         00000050 833499       00133319NNMDGCPXNPESSAC DISTR. CTRE LE    090629
00528409-17         00000150 833915       00104004NNMDGCPXNSODIALPES CENTRE LECL    090629
00528409-17         00000050 834203       00146034NNMDGCPXNSOCAPDIS CENTRE LECLE    090629
00528409-17         00000200 832676       00179118NNMDGCPXNBOCAGE DISTR CTRE LEC    090630
00528409-17         00000050 833628       00113256NNMDGCPXNSODISTRES CENTRE LECL    090630
00528409-17         00000050 834008       00183499NNMDGCPXNLA SEYDIS CENTRE LECL    090630
00528409-17         00000100 836189       00182002NNMDGCPXNAUDIS CENTRE LECLERC     090630
00528409-17         00000050 836375       00113601NNMDGCPXNSALONDIS CENTRE LECLE    090630
00528409-17         00000100 832691       00141029NNMDGCPXNSOBLEDIS CENTRE LECLE    090701
00528409-17         00000050 833533       00166044NNMDGCPXNVERNET DIS               090701
00528409-17         00000050 833629       00113274NNMDGCPXNCENTRE LECLERC MARSEI    090701
00528409-17         00000100 834369       00106210NNMDGCPXNNIKAIADIS II CENTRE L    090701
00528409-17         00000100 835080       00144031NNMDGNGONNANTES NORD DIST.CTR     090701
00528409-17         00000050 836380       00183044NNMDGCPXNSODILUC CENTRE LECLER    090701
00528409-17         00000300 835171       00133315NNMDGCPXNHYPER COSMOS CENTRE L    090702
00528409-17         00000050 836149       00135098NNMDGCPXNSA FOUGERES DISTRIBUT    090702
00528409-17         00000100 836151       00144160NNMDGCPXNBRIERE DISTR. CTRE LE    090702
00528409-17         00000200 836198       00184500NNMDGCPXNBOLDIS CENTRE LECLERC    090702
00528409-17         00000100 832678       00185148NNMDGCPXNSODINOVE CENTRE LECLE    090703
00528409-17         00000050 832697       00177084NNMDGCPXNMAVIDIS CENTRE LECLER    090703
00528409-17         00000100 834531       00153008NNMDGCPXNAZEDIS CENTRE LECLERC    090703
00528409-17         00000050 832684       00114132NNMDGCPXNTOUQUES DISTR CTRE LE    090706
00528409-17         00000050 833581       00113256NNMDGCPXNSODISTRES CENTRE LECL    090706
00528409-17         00000300 835176       00185170NNMDGNGONOUDAIRIDIS CENTRE LEC    090706
00528409-17         00000050 833573       00113274NNMDGCPXNCENTRE LECLERC MARSEI    090707
00528409-17         00000100 834456       00133317NNMDGCPXNLANGON DISTR. CTRE LE    090707
00528409-17         00000050 836173       00144145NNMDGCPXNSODIJOUR CENTRE LECLE    090707
00528409-17         00000200 833497       00185900NNMDGCPXNSODILONNE CENTRE LECL    090708
00528409-17         00000050 835984       00149033NNMDGCPXNGOURONNIERES DIST.C.L    090710
00528409-17         00000050 836440       00113300NNMDGNGONTUILLIERES DIS.CTRE L    090710
00528409-17         00000050 836452       00106111NNMDGCPXYMELHODI CENTRE LECLER    090722
00528409-17         00000050 836377       00113601NNMDGCPXNSALONDIS CENTRE LECLE    090724
00528409-17         00000050 836435       00106111NNMDGCPXYMELHODI CENTRE LECLER    090804
00531401            00000005 834906       00182067NNMDGSYGYDIFPAP                   090206
00531401            00000020 836279       00127016NNMDGSYGNRP DIFFUSION VR AUBEV    090206
00531401            00000010 836541       00113193NNMDGSYAYPAP DU COMMERCE          090206
00531401            00000015 836600       00173500NNMDGS03YLA PAPETERIE SA          090206
00531401            00000080 836303       00145165NNMDGCOLYVIKING DIRECT            090209
00531401            00000080 835928       00153041NNMDGCOLYLYRECO FRANCE            090211
00531401            00000160 835935       00153041NNMDGCOLYLYRECO FRANCE            090211
00531401            00000250 834084       00193397NNMDGSYAYSACFOM (CENTRALE)        090212
00531401            00000160 836313       00193003NNMDGSYGYSPICERS                  090212
00531401            00000005 836130       00264950NYMDGCATNLIBRAIRIE BUFALO         090423
00531441            00000080 836067       00193003NNMDGSYGYSPICERS                  090212
00531441            00000005 836130       00264950NYMDGCATNLIBRAIRIE BUFALO         090423
00654502            00004000 836067       00193003NNMDGSYGYSPICERS                  090212
00669503            00002000 836654       00160065NNMDGCOLYOFFICE DEPOT BS SAS      090211
00675-17            00000050 835713       00191017NNMDGS02YCORPORATE EXPRESS FRA    090206
00964082            00000125 835051       00034600NNMDGSBONBANTEX A/S               090212
01893080            00000240 836626       00003990NNMDGISANELBA OFFICE PRODUCTS     090213
01897080            00000510 836311       00193003NNMDGSYGYSPICERS                  090212
01901501            00000030 835590       00193003NNMDGSYGYSPICERS                  090206
0191500-07          00000060 830537       00106063NYMDGELOYCARREFOUR HYPERMARCHE    081230
0191500-07          00000024 835988       00145058NYMDGCPXNOLIVET DISTR CTRE LEC    090203
0191500-07          00000012 836412       00133145NNMDGAGANCARREFOUR HYPERMARCHE    090206
0191500-07          00000006 836441       00184000NNMDGCPXNAVIROC CENTRE LECLERC    090206
0191500-07          00000012 834314       00162001NNMDGAGANAUCHAN BOULOGNE          090217
0191500-07          00000006 833101       00181070NNMDGCPXNGAILLAC DISTRIB.CTRE     090622
0191500-07          00000006 833556       00111000NNMDGCPXNT.P.L.M.CENTRE LECLER    090624
0191500-07          00000012 833538       00147250NNMDGCPXNCENTRE LECLERC MARMAN    090629
0191500-07          00000012 833915       00104004NNMDGCPXNSODIALPES CENTRE LECL    090629
0191500-07          00000012 834203       00146034NNMDGCPXNSOCAPDIS CENTRE LECLE    090629
0191500-07          00000006 836002       00111107NNMDGCPXNLIMOUX DISTR. CTRE LE    090630
0191500-07          00000012 836189       00182002NNMDGCPXNAUDIS CENTRE LECLERC     090630
0191500-07          00000006 836375       00113601NNMDGCPXNSALONDIS CENTRE LECLE    090630
0191500-07          00000012 833533       00166044NNMDGCPXNVERNET DIS               090701
0191500-07          00000006 833629       00113274NNMDGCPXNCENTRE LECLERC MARSEI    090701
0191500-07          00000012 834369       00106210NNMDGCPXNNIKAIADIS II CENTRE L    090701
0191500-07          00000006 836380       00183044NNMDGCPXNSODILUC CENTRE LECLER    090701
0191500-07          00000012 835171       00133315NNMDGCPXNHYPER COSMOS CENTRE L    090702
0191500-07          00000006 833573       00113274NNMDGCPXNCENTRE LECLERC MARSEI    090707
0191500-07          00000018 834456       00133317NNMDGCPXNLANGON DISTR. CTRE LE    090707
0191500-07          00000006 836440       00113300NNMDGNGONTUILLIERES DIS.CTRE L    090710
0191500-07          00000006 835354       00183044NNMDGCPXNSODILUC CENTRE LECLER    090715
0191500-07          00000006 836452       00106111NNMDGCPXYMELHODI CENTRE LECLER    090722
0191500-07          00000006 836377       00113601NNMDGCPXNSALONDIS CENTRE LECLE    090724
0191500-07          00000006 836435       00106111NNMDGCPXYMELHODI CENTRE LECLER    090804
01918011            00000030 834830       00193003NNMDGSYGYSPICERS                  090202
01918011            00000020 835570       00113810NNMDGCOLYVIKING DIRECT            090202
01918011            00000100 836071       00145165NNMDGCOLYVIKING DIRECT            090205
01918011            00000005 836433       00100064NNMDGJOSYGDE PAP.DE MONTE CARL    090205
01918011            00000005 836451       00175306NNMDGJOSYGIBERT JOSEPH VITRY      090206
01918011            00000005 836600       00173500NNMDGS03YLA PAPETERIE SA          090206
01918011            00000300 833804       00160065NNMDGCOLNOFFICE DEPOT BS SAS      090223
01943501            00002000 836541       00113193NNMDGSYAYPAP DU COMMERCE          090206
01961031            00000005 836541       00113193NNMDGSYAYPAP DU COMMERCE          090206
01961031            00000040 834084       00193397NNMDGSYAYSACFOM (CENTRALE)        090212
01961031            00000005 836130       00264950NYMDGCATNLIBRAIRIE BUFALO         090423
02057081            00000120 835590       00193003NNMDGSYGYSPICERS                  090206
02057081            00000040 836378       00154138NYMDGSYAYETS SCHALLER TT POUR     090206
02057081            00001000 836626       00003990NNMDGISANELBA OFFICE PRODUCTS     090213
02121011            00000010 834906       00182067NNMDGSYGYDIFPAP                   090206
02145011            00000012 836303       00145165NNMDGCOLYVIKING DIRECT            090209
02145011            00000003 834587       00820051NYMDGCATNPAPETERIE AS DE TREFL    090210
02145011            00000012 836623       00102188NNMDGSYGYM.D.S                    090210
02145011            00000001 835633       00106601NYMDGSYTYPRIVAT SORBONNE-ANTIB    090625
02147011            00000005 836286       00138700NNMDGS01YBUREAU VALLEE BOURGOU    090206
02148011            00000010 835132       00193397NNMDGSYAYSACFOM (CENTRALE)        090213
02148011            00000001 835634       00106603NNMDGSYTYPRIVAT SORBONNE-CANNE    090218
02148011            00000010 835137       00193397NNMDGSYAYSACFOM (CENTRALE)        090226
02177011            00000480 835690       00160065NNMDGCOLNOFFICE DEPOT BS SAS      090206
02177011            00000510 835692       00160065NNMDGCOLNOFFICE DEPOT BS SAS      090213
02177011            00000010 836567       00198635NNMDGSYTNBHV RIVOLI               090213
02177011            00000030 835926       00263130NYMDGCATNLIBRAIRIE JEUNESSE D'    090324
02177011            00000010 833071       00138073NNMDGJOSYLIBRAIRIE-PAP. BLANCH    090403
02177011            00000020 835865       00462040NYMDGCATNLIBRAIRIE ANTILLAISE     090415
02177011            00000100 835741       00272725NYMDGCATNLIBRAIRIE DE FRANCE G    090424
02177011            00000010 836634       00102201NYMDGS03YBUREAU 02                090429
02177011            00000010 835966       00106602NNMDGSYTYPRIVAT SORBONNE-NICE     090504
02178081            00000300 836311       00193003NNMDGSYGYSPICERS                  090212
02200011            00000004 836304       00113810NNMDGCOLYVIKING DIRECT            090205
02200011            00000005 836402       00144032NNMDGSYANALTER BURO DISTRIBUTI    090212
02200011            00000006 835132       00193397NNMDGSYAYSACFOM (CENTRALE)        090213
02200011            00000008 836480       00153041NNMDGCOLYLYRECO FRANCE            090213
02250961            00000010 835190       00127110NNMDGAGANS.D.E. CENTRE LECLERC    090206
02250961            00000015 836412       00133145NNMDGAGANCARREFOUR HYPERMARCHE    090206
02250961            00000025 836413       00102999NNMDGAGANCARREFOUR HYPERMARCHE    090206
02250961            00000005 836443       00184114NNMDGCPXNAUZON VENTOUX CENTRE     090206
02250961            00000010 836608       00163562NNMDGSYTYLES VOLCANS              090209
02250961            00000050 835865       00462040NYMDGCATNLIBRAIRIE ANTILLAISE     090415
02250961            00000005 835633       00106601NYMDGSYTYPRIVAT SORBONNE-ANTIB    090625
02250961            00000020 833915       00104004NNMDGCPXNSODIALPES CENTRE LECL    090629
02250961            00000005 836375       00113601NNMDGCPXNSALONDIS CENTRE LECLE    090630
02250961            00000005 833629       00113274NNMDGCPXNCENTRE LECLERC MARSEI    090701
02250961            00000015 834369       00106210NNMDGCPXNNIKAIADIS II CENTRE L    090701
02250961            00000005 836380       00183044NNMDGCPXNSODILUC CENTRE LECLER    090701
02250961            00000030 835171       00133315NNMDGCPXNHYPER COSMOS CENTRE L    090702
02250961            00000035 835909       00167025NNMDGELOYCORA STRASBOURG          090703
02250961            00000015 833573       00113274NNMDGCPXNCENTRE LECLERC MARSEI    090707
02250961            00000020 836440       00113300NNMDGNGONTUILLIERES DIS.CTRE L    090710
02250961            00000015 832903       00128017NNMDGCPXNAVREDIS CENTRE LECLER    090715
02250961            00000015 835354       00183044NNMDGCPXNSODILUC CENTRE LECLER    090715
02250961            00000005 836452       00106111NNMDGCPXYMELHODI CENTRE LECLER    090722
02250961            00000015 836377       00113601NNMDGCPXNSALONDIS CENTRE LECLE    090724
02250961            00000025 836435       00106111NNMDGCPXYMELHODI CENTRE LECLER    090804
02250961            00000010 835861       00113601NNMDGCPXNSALONDIS CENTRE LECLE    090814
02251081            00000020 836279       00127016NNMDGSYGNRP DIFFUSION VR AUBEV    090206
02251081            00000050 834084       00193397NNMDGSYAYSACFOM (CENTRALE)        090212
02251081            00000050 835137       00193397NNMDGSYAYSACFOM (CENTRALE)        090226
02251961            00000005 834026       00182067NNMDGSYGYDIFPAP                   090206
02251961            00000150 835935       00153041NNMDGCOLYLYRECO FRANCE            090211
02251961            00000060 834084       00193397NNMDGSYAYSACFOM (CENTRALE)        090212
02251961            00000150 835920       00153041NNMDGCOLYLYRECO FRANCE            090212
02251961            00000070 836067       00193003NNMDGSYGYSPICERS                  090212
04024-06            00000020 836512       00144055NNMDGNGONST HERBLAIN DIST.CTR     090206
04024-06            00000020 836537       00140038NNMDGNGONSODILANDES CENTRE LEC    090206
04024-06            00000020 836559       00133283NNMDGAGANSODICAR CENTRE LECLER    090206
04024-06            00000020 836570       00149033NNMDGNGONGOURONNIERES DIST.C.L    090206
04024-06            00000020 836606       00192304NNMDGNGONLEVALLOIS EXPLOITATIO    090206
04024-06            00000020 836645       00106111NNMDGNGONMELHODI CENTRE LECLER    090209
04024-06            00000480 836067       00193003NNMDGSYGYSPICERS                  090212
04024-06            00000020 836130       00264950NYMDGCATNLIBRAIRIE BUFALO         090423
04024-06            00000020 834170       00103005NNMDGCPXNMARAIS DIS SA CENTRE     090610
04024-06            00000020 834172       00103004NNMDGCPXNMONTLUCON DISTR. C. L    090610
04024-06            00000020 835357       00118024NNMDGNGONBOURGES DISTR CTRE LE    090618
04024-06            00000020 836527       00189005NNMDGNGONAUXERDIS CENTRE LECLE    090618
04024-06            00000020 836529       00158049NNMDGNGONDECIZE DISTR CTRE LEC    090618
04024-06            00000060 833507       00185149NNMDGCPXNSODIROCHE CENTRE LECL    090619
04024-06            00000040 836461       00192304NNMDGCPXYLEVALLOIS EXPLOITATIO    090623
04024-06            00000080 836466       00193500NNMDGCPXYPANTIN DISTR CTRE LEC    090623
04024-06            00000040 833538       00147250NNMDGCPXNCENTRE LECLERC MARMAN    090629
04024-06            00000040 834203       00146034NNMDGCPXNSOCAPDIS CENTRE LECLE    090629
04024-06            00000040 832688       00145140NNMDGCPXNPITHIVIERS DIST.CTRE     090630
04024-06            00000080 832908       00177100NNMDGCPXNSODIMEAUX CENTRE LECL    090630
04024-06            00000020 833628       00113256NNMDGCPXNSODISTRES CENTRE LECL    090630
04024-06            00000020 834013       00128016NNMDGCPXNSODICHAR CENTRE LECLE    090630
04024-06            00000040 832691       00141029NNMDGCPXNSOBLEDIS CENTRE LECLE    090701
04024-06            00000040 834369       00106210NNMDGCPXNNIKAIADIS II CENTRE L    090701
04024-06            00000040 833923       00192217NNMDGCPXNGENEDIS EXPLOIT. CTR     090702
04024-06            00000080 835171       00133315NNMDGCPXNHYPER COSMOS CENTRE L    090702
04024-06            00000040 835365       00181069NNMDGNGONLAVIDA CENTRE LECLERC    090702
04024-06            00000080 836198       00184500NNMDGCPXNBOLDIS CENTRE LECLERC    090702
04024-06            00000040 833581       00113256NNMDGCPXNSODISTRES CENTRE LECL    090706
04024-06            00000060 834019       00126249NNMDGCPXNLOUIS ROUDAUT CENTRE     090706
04024-06            00000060 834456       00133317NNMDGCPXNLANGON DISTR. CTRE LE    090707
04024-06            00000060 834902       00184185NNMDGNGONSODIVAL CENTRE LECLER    090710
04024-06            00000020 836440       00113300NNMDGNGONTUILLIERES DIS.CTRE L    090710
04024-06            00000020 836452       00106111NNMDGCPXYMELHODI CENTRE LECLER    090722
04024-06            00000020 835625       00122060NNMDGNGONPAIMPOLDIS CENTRE LEC    090723
04024-06            00000020 836435       00106111NNMDGCPXYMELHODI CENTRE LECLER    090804
050390-20           00001032 832737       00184995NNPTTAGANAUCHAN ENTREPOT SUD      090514
050390-20           00001656 832740       00159995NNPTTAGANAUCHAN ENTREPOT NORD     090514
050390-20           00001104 832743       00195990NNPTTAGANAUCHAN ENTREPOT PARIS    090514
052848-20           00000270 832737       00184995NNPTTAGANAUCHAN ENTREPOT SUD      090514
052848-20           00000198 832740       00159995NNPTTAGANAUCHAN ENTREPOT NORD     090514
052848-20           00000168 832743       00195990NNPTTAGANAUCHAN ENTREPOT PARIS    090514
052848-20           00000270 832738       00184995NNMDGELONAUCHAN ENTREPOT SUD      090611
052848-20           00000192 832741       00159995NNMDGELONAUCHAN ENTREPOT NORD     090611
052848-20           00000162 832744       00195990NNMDGELONAUCHAN ENTREPOT PARIS    090611
05361501            00000200 835935       00153041NNMDGCOLYLYRECO FRANCE            090211
05373031            00000030 834972       00160065NNMDGCOLNOFFICE DEPOT BS SAS      090206
05373031            00000020 836584       00191017NYMDGS02YCORPORATE EXPRESS FRA    090217
05373031            00000030 836656       00160065NNMDGCOLNOFFICE DEPOT BS SAS      090220
05374031            00000050 835692       00160065NNMDGCOLNOFFICE DEPOT BS SAS      090213
05374051            00000010 835590       00193003NNMDGSYGYSPICERS                  090206
05374051            00000020 836067       00193003NNMDGSYGYSPICERS                  090212
05379031            00000030 835764       00191017NNMDGS02YCORPORATE EXPRESS FRA    090210
05379031            00000160 836067       00193003NNMDGSYGYSPICERS                  090212
05379031            00000020 836292       00191017NNMDGS02YCORPORATE EXPRESS FRA    090213
05380031            00000010 835638       00106603NYMDGSYTYPRIVAT SORBONNE-CANNE    090506
05380051            00000100 834587       00820051NYMDGCATNPAPETERIE AS DE TREFL    090210
05380051            00000050 836313       00193003NNMDGSYGYSPICERS                  090212
055543-20           00000456 832737       00184995NNPTTAGANAUCHAN ENTREPOT SUD      090514
055543-20           00000588 832740       00159995NNPTTAGANAUCHAN ENTREPOT NORD     090514
055543-20           00000456 832743       00195990NNPTTAGANAUCHAN ENTREPOT PARIS    090514
055543-20           00000336 832738       00184995NNMDGELONAUCHAN ENTREPOT SUD      090611
055543-20           00000444 832741       00159995NNMDGELONAUCHAN ENTREPOT NORD     090611
055543-20           00000348 832744       00195990NNMDGELONAUCHAN ENTREPOT PARIS    090611
055543-20           00000324 832739       00184995NNMDGELONAUCHAN ENTREPOT SUD      090702
055543-20           00000432 832742       00159995NNMDGELONAUCHAN ENTREPOT NORD     090702
055543-20           00000324 832745       00195990NNMDGELONAUCHAN ENTREPOT PARIS    090702
061821-20           00000012 836274       00121601NNMDGCPXNPLATE FORME CORA LONG    090209
061822-06           00000096 836274       00121601NNMDGCPXNPLATE FORME CORA LONG    090209
061822-06           00002520 826083       00121601NNMDGCPXNPLATE FORME CORA LONG    090227
069856-20           00000020 836274       00121601NNMDGCPXNPLATE FORME CORA LONG    090209
07025-06            00000020 835190       00127110NNMDGAGANS.D.E. CENTRE LECLERC    090206
07025-06            00000020 835910       00157019NNMDGNGONSARREDIS CENTRE LECLE    090206
07025-06            00000020 836118       00151139NNMDGCPXNSCAPEST                  090206
07025-06            00000020 836349       00135137NNMDGCPXYKERMELEUC CENTRE LECL    090206
07025-06            00000020 836441       00184000NNMDGCPXNAVIROC CENTRE LECLERC    090206
07025-06            00000020 836512       00144055NNMDGNGONST HERBLAIN DIST.CTR     090206
07025-06            00000020 836535       00140026NNMDGNGONPLAGECO CENTRE LECLER    090206
07025-06            00000020 836537       00140038NNMDGNGONSODILANDES CENTRE LEC    090206
07025-06            00000020 836538       00140006NNMDGNGONADOUR DISTR. CTRE LEC    090206
07025-06            00000020 836559       00133283NNMDGAGANSODICAR CENTRE LECLER    090206
07025-06            00000020 836570       00149033NNMDGNGONGOURONNIERES DIST.C.L    090206
07025-06            00000020 836606       00192304NNMDGNGONLEVALLOIS EXPLOITATIO    090206
07025-06            00000020 836645       00106111NNMDGNGONMELHODI CENTRE LECLER    090209
07025-06            00000020 836533       00145140NNMDGNGONPITHIVIERS DIST.CTRE     090210
07025-06            00000480 836313       00193003NNMDGSYGYSPICERS                  090212
07025-06            00000020 835895       00250000NYMDGCATNFUCSIA                   090213
07025-06            00000020 836651       00141009NNMDGNGONSORODIS CENTRE LECLER    090213
07025-06            00000020 835194       00144190NNMDGELONCLISSON DISTR CTRE LE    090217
07025-06            00000020 833744       00179180NNMDGJOSYWESCO                    090218
07025-06            00000020 835942       00114132NNMDGCPXNTOUQUES DISTR CTRE LE    090304
07025-06            00000400 835926       00263130NYMDGCATNLIBRAIRIE JEUNESSE D'    090324
07025-06            00000020 832252       00163530NNMDGPPANENVAL DISTR. CTRE LEC    090610
07025-06            00000020 834170       00103005NNMDGCPXNMARAIS DIS SA CENTRE     090610
07025-06            00000020 834172       00103004NNMDGCPXNMONTLUCON DISTR. C. L    090610
07025-06            00000100 832579       00176173NNMDGPPANCITADIS CENTRE LECLER    090611
07025-06            00000060 835192       00176055NNMDGNGONSODISRO CENTRE LECLER    090612
07025-06            00000080 834194       00137149NNMDGCPXNLA MONTGOLFIERE CTRE     090616
07025-06            00000080 833501       00179061NNMDGCPXNTHOUARS DISTR CTRE LE    090617
07025-06            00000160 833511       00114129NNMDGCPXNLISIEUX DISTR.CTRE LE    090617
07025-06            00000060 835998       00152037NNMDGCPXNSO.LA.DI CENTRE LECLE    090617
07025-06            00000220 832907       00156145NNMDGCPXNVADIS CENTRE LECLERC     090618
07025-06            00000060 833189       00114200NNMDGCPXNVAUDRY DISTR. CTRE LE    090618
07025-06            00000020 834739       00130133NNMDGCPXNANGLEDIS CENTRE LECLE    090618
07025-06            00000020 835357       00118024NNMDGNGONBOURGES DISTR CTRE LE    090618
07025-06            00000060 835996       00152100NNMDGCPXNSO.DI.BRAG CENTRE LEC    090618
07025-06            00000020 836527       00189005NNMDGNGONAUXERDIS CENTRE LECLE    090618
07025-06            00000020 836529       00158049NNMDGNGONDECIZE DISTR CTRE LEC    090618
07025-06            00000100 833507       00185149NNMDGCPXNSODIROCHE CENTRE LECL    090619
07025-06            00000220 835973       00150015NNMDGCPXNAGNEAUX DISTR CTRE LE    090619
07025-06            00000080 835987       00144144NNMDGCPXNSODIRETZ CENTRE LECLE    090619
07025-06            00000120 833101       00181070NNMDGCPXNGAILLAC DISTRIB.CTRE     090622
07025-06            00000140 835969       00161054NNMDGCPXNARGENTAN DISTR.CTRE L    090622
07025-06            00000060 834729       00130133NNMDGCPXNANGLEDIS CENTRE LECLE    090623
07025-06            00000080 836461       00192304NNMDGCPXYLEVALLOIS EXPLOITATIO    090623
07025-06            00000080 836466       00193500NNMDGCPXYPANTIN DISTR CTRE LEC    090623
07025-06            00000020 833556       00111000NNMDGCPXNT.P.L.M.CENTRE LECLER    090624
07025-06            00000080 836098       00149500NNMDGCPXNSEGRE DISTR. CTRE LEC    090624
07025-06            00000020 833077       00147122NNMDGCPXNST PIERRE DIST.CTR LE    090625
07025-06            00000120 834575       00184114NNMDGCPXNAUZON VENTOUX CENTRE     090625
07025-06            00000020 833341       00150500NNMDGCPXYPEVILDIS CENTRE LECLE    090626
07025-06            00000100 836499       00185057NNMDGNGONSODIVARDIERE CENTRE L    090626
07025-06            00000120 832575       00176215NNMDGPPANYVETODIS CENTRE LECLE    090629
07025-06            00000020 833041       00142063NNMDGCPXNANDREZIEUX DIST.CTRE     090629
07025-06            00000040 833499       00133319NNMDGCPXNPESSAC DISTR. CTRE LE    090629
07025-06            00000020 833538       00147250NNMDGCPXNCENTRE LECLERC MARMAN    090629
07025-06            00000120 833915       00104004NNMDGCPXNSODIALPES CENTRE LECL    090629
07025-06            00000040 834203       00146034NNMDGCPXNSOCAPDIS CENTRE LECLE    090629
07025-06            00000080 832676       00179118NNMDGCPXNBOCAGE DISTR CTRE LEC    090630
07025-06            00000060 832688       00145140NNMDGCPXNPITHIVIERS DIST.CTRE     090630
07025-06            00000080 832908       00177100NNMDGCPXNSODIMEAUX CENTRE LECL    090630
07025-06            00000060 834008       00183499NNMDGCPXNLA SEYDIS CENTRE LECL    090630
07025-06            00000040 834013       00128016NNMDGCPXNSODICHAR CENTRE LECLE    090630
07025-06            00000020 834811       00149009NNMDGNGONLECLERC BRISSAC          090630
07025-06            00000040 835847       00150017NNMDGNGONDIST L'AVRANCHIN C. L    090630
07025-06            00000040 836002       00111107NNMDGCPXNLIMOUX DISTR. CTRE LE    090630
07025-06            00000020 836177       00135530NNMDGCPXNCTRE LECLERC NOYAL /     090630
07025-06            00000020 836375       00113601NNMDGCPXNSALONDIS CENTRE LECLE    090630
07025-06            00000060 832691       00141029NNMDGCPXNSOBLEDIS CENTRE LECLE    090701
07025-06            00000100 833069       00164500NNMDGCPXNSODIBAY CENTRE LECLER    090701
07025-06            00000080 833095       00161023NNMDGCPXNFERMADIS CENTRE LECLE    090701
07025-06            00000080 833533       00166044NNMDGCPXNVERNET DIS               090701
07025-06            00000020 833629       00113274NNMDGCPXNCENTRE LECLERC MARSEI    090701
07025-06            00000080 834369       00106210NNMDGCPXNNIKAIADIS II CENTRE L    090701
07025-06            00000040 835080       00144031NNMDGNGONNANTES NORD DIST.CTR     090701
07025-06            00000060 835977       00114117NNMDGCPXNHONFLEUR DISTR.CTRE L    090701
07025-06            00000020 836380       00183044NNMDGCPXNSODILUC CENTRE LECLER    090701
07025-06            00000060 833923       00192217NNMDGCPXNGENEDIS EXPLOIT. CTR     090702
07025-06            00000060 835171       00133315NNMDGCPXNHYPER COSMOS CENTRE L    090702
07025-06            00000020 835365       00181069NNMDGNGONLAVIDA CENTRE LECLERC    090702
07025-06            00000020 836151       00144160NNMDGCPXNBRIERE DISTR. CTRE LE    090702
07025-06            00000100 836198       00184500NNMDGCPXNBOLDIS CENTRE LECLERC    090702
07025-06            00000040 832678       00185148NNMDGCPXNSODINOVE CENTRE LECLE    090703
07025-06            00000020 833329       00149180NNMDGCPXNCHEMILLE DIST CTRE LE    090703
07025-06            00000060 834531       00153008NNMDGCPXNAZEDIS CENTRE LECLERC    090703
07025-06            00000060 832684       00114132NNMDGCPXNTOUQUES DISTR CTRE LE    090706
07025-06            00000080 834019       00126249NNMDGCPXNLOUIS ROUDAUT CENTRE     090706
07025-06            00000060 835176       00185170NNMDGNGONOUDAIRIDIS CENTRE LEC    090706
07025-06            00000060 836167       00122190NNMDGCPXNPLEDIS CENTRE LECLERC    090706
07025-06            00000060 833573       00113274NNMDGCPXNCENTRE LECLERC MARSEI    090707
07025-06            00000100 834456       00133317NNMDGCPXNLANGON DISTR. CTRE LE    090707
07025-06            00000100 833497       00185900NNMDGCPXNSODILONNE CENTRE LECL    090708
07025-06            00000060 834902       00184185NNMDGNGONSODIVAL CENTRE LECLER    090710
07025-06            00000100 835984       00149033NNMDGCPXNGOURONNIERES DIST.C.L    090710
07025-06            00000040 836440       00113300NNMDGNGONTUILLIERES DIS.CTRE L    090710
07025-06            00000040 832903       00128017NNMDGCPXNAVREDIS CENTRE LECLER    090715
07025-06            00000040 835354       00183044NNMDGCPXNSODILUC CENTRE LECLER    090715
07025-06            00000040 833575       00142153NNMDGCPXNROADIS CENTRE LECLERC    090716
07025-06            00000040 835172       00133283NNMDGNGONSODICAR CENTRE LECLER    090716
07025-06            00000020 836452       00106111NNMDGCPXYMELHODI CENTRE LECLER    090722
07025-06            00000040 835625       00122060NNMDGNGONPAIMPOLDIS CENTRE LEC    090723
07025-06            00000060 836377       00113601NNMDGCPXNSALONDIS CENTRE LECLE    090724
07025-06            00000020 836435       00106111NNMDGCPXYMELHODI CENTRE LECLER    090804
07025-06            00000040 833576       00142153NNMDGCPXNROADIS CENTRE LECLERC    090806
07025-06            00000060 835861       00113601NNMDGCPXNSALONDIS CENTRE LECLE    090814
076938-20           00000252 832737       00184995NNPTTAGANAUCHAN ENTREPOT SUD      090514
076938-20           00000096 832740       00159995NNPTTAGANAUCHAN ENTREPOT NORD     090514
076938-20           00000144 832743       00195990NNPTTAGANAUCHAN ENTREPOT PARIS    090514
080873-20           00000780 832737       00184995NNPTTAGANAUCHAN ENTREPOT SUD      090514
080873-20           00001152 832740       00159995NNPTTAGANAUCHAN ENTREPOT NORD     090514
080873-20           00000756 832743       00195990NNPTTAGANAUCHAN ENTREPOT PARIS    090514
080873-20           00000588 832738       00184995NNMDGELONAUCHAN ENTREPOT SUD      090611
080873-20           00000864 832741       00159995NNMDGELONAUCHAN ENTREPOT NORD     090611
080873-20           00000576 832744       00195990NNMDGELONAUCHAN ENTREPOT PARIS    090611
080873-20           00000564 832739       00184995NNMDGELONAUCHAN ENTREPOT SUD      090702
080873-20           00000852 832742       00159995NNMDGELONAUCHAN ENTREPOT NORD     090702
080873-20           00000552 832745       00195990NNMDGELONAUCHAN ENTREPOT PARIS    090702
081484-20           00000540 832737       00184995NNPTTAGANAUCHAN ENTREPOT SUD      090514
081484-20           00000468 832740       00159995NNPTTAGANAUCHAN ENTREPOT NORD     090514
081484-20           00000420 832743       00195990NNPTTAGANAUCHAN ENTREPOT PARIS    090514
090559-20           00000012 832614       00003990NNMDGISANELBA OFFICE PRODUCTS     090225
090559-20           00000012 827340       00113467NNMDGJOSNANCIENS ETS MICHEL       090327
090559-20           00000012 826478       00113193NNMDGSYAYPAP DU COMMERCE          090330
090559-20           00000012 835965       00106602NNMDGSYTYPRIVAT SORBONNE-NICE     090401
090559-20           00000192 831657       00127016NNMDGSYGNRP DIFFUSION VR AUBEV    090402
090559-20           00000012 836522       00184146NYMDGJOSYOFFICELAND               090402
090559-20           00000012 830590       00126032NNMDGSYAYDESPESSE                 090409
090559-20           00000012 834635       00460735NNMDGCATNLIBRAIRIE BARNES         090416
090559-20           00000012 831926       00150002NNMDGJOSYBRIOSON - PLANET R       090422
090559-20           00000012 836384       00374688NNMDGCATNRANY SARL                090422
090559-20           00000012 828444       00169100NNMDGSYAYLYON BUREAU              090428
090559-20           00000012 834570       00181010NNMDGS03YNOUVELLE PAPETERIE CA    090429
090559-20           00000012 835011       00149120NNMDGSYAYHYPERBURO ANGERS         090429
090559-20           00000012 836514       00156049NNMDGS03YLE BAYON                 090429
090559-20           00000012 835947       00135300NNMDGSYAYBURO POLE                090430
090559-20           00000012 835992       00185413NNMDGS03YBUREAU CENTER (LS HER    090504
090559-20           00000012 836318       00173211NNMDGSYAYHYPERBURO CHAMBERY       090504
090559-20           00000012 828097       00118032NNMDGSYAYDACTYL BURO DU CENTRE    090505
090559-20           00000012 829228       00119096NNMDGJOSYAU PAPYRUS               090505
090559-20           00000012 829103       00118032NNMDGSYAYDACTYL BURO DU CENTRE    090515
090560-20           00000012 832614       00003990NNMDGISANELBA OFFICE PRODUCTS     090225
090560-20           00000012 827340       00113467NNMDGJOSNANCIENS ETS MICHEL       090327
090560-20           00000012 830940       00496048NYMDGCATNESPACE CULTURE ET LOI    090401
090560-20           00000240 831657       00127016NNMDGSYGNRP DIFFUSION VR AUBEV    090402
090560-20           00000012 830590       00126032NNMDGSYAYDESPESSE                 090409
090560-20           00000012 834635       00460735NNMDGCATNLIBRAIRIE BARNES         090416
090560-20           00000036 831926       00150002NNMDGJOSYBRIOSON - PLANET R       090422
090560-20           00000012 836384       00374688NNMDGCATNRANY SARL                090422
090560-20           00000012 834570       00181010NNMDGS03YNOUVELLE PAPETERIE CA    090429
090560-20           00000012 830235       00156902NNMDGSYTYFORUM PRIVAT LORIENT     090504
090560-20           00000012 834863       00166510NNMDGSYTYPRIVAT-PERPIGNAN         090504
090560-20           00000012 829228       00119096NNMDGJOSYAU PAPYRUS               090505
090560-20           00000012 834069       00169040NNMDGJOSYAGENDA ET ECRITURE PA    090507
090560-20           00000012 827606       00169108NNMDGSYAYLIOGIER ARTS GRAPHIQU    090511
090560-20           00000012 835699       00178224NNMDGJOSYUNIVERS DU LIVRE ST G    090512
10058-06            00000480 836082       00193003NNMDGSYGYSPICERS                  090212
10454-20            00000020 836130       00264950NYMDGCATNLIBRAIRIE BUFALO         090423
10454-20            00000020 836463       00980000NYMDGCATNMERCURE INTERNATIONAL    090429
10454-20            00000200 835351       00154056NNMDGELOYCORA HOUDEMONT           090618
10454-20            00000020 836527       00189005NNMDGNGONAUXERDIS CENTRE LECLE    090618
10454-20            00000060 835973       00150015NNMDGCPXNAGNEAUX DISTR CTRE LE    090619
10454-20            00000120 836192       00182000NNMDGCPXNSODIBAG CENTRE LECLER    090619
10454-20            00000040 836466       00193500NNMDGCPXYPANTIN DISTR CTRE LEC    090623
10454-20            00000280 834575       00184114NNMDGCPXNAUZON VENTOUX CENTRE     090625
10454-20            00000040 833341       00150500NNMDGCPXYPEVILDIS CENTRE LECLE    090626
10454-20            00000060 833538       00147250NNMDGCPXNCENTRE LECLERC MARMAN    090629
10454-20            00000040 834203       00146034NNMDGCPXNSOCAPDIS CENTRE LECLE    090629
10454-20            00000060 835350       00190400NNMDGELOYCORA BELFORT             090630
10454-20            00000020 836177       00135530NNMDGCPXNCTRE LECLERC NOYAL /     090630
10454-20            00000020 836375       00113601NNMDGCPXNSALONDIS CENTRE LECLE    090630
10454-20            00000040 834369       00106210NNMDGCPXNNIKAIADIS II CENTRE L    090701
10454-20            00000040 835977       00114117NNMDGCPXNHONFLEUR DISTR.CTRE L    090701
10454-20            00000200 836547       00168000NYMDGELOYCORA COLMAR - HOUSSEN    090701
10454-20            00000060 835171       00133315NNMDGCPXNHYPER COSMOS CENTRE L    090702
10454-20            00000020 835365       00181069NNMDGNGONLAVIDA CENTRE LECLERC    090702
10454-20            00000200 836553       00168023NYMDGELOYCORA WITTENHEIM          090702
10454-20            00000180 835909       00167025NNMDGELOYCORA STRASBOURG          090703
10454-20            00000060 836377       00113601NNMDGCPXNSALONDIS CENTRE LECLE    090724
10454-20            00000060 835861       00113601NNMDGCPXNSALONDIS CENTRE LECLE    090814
10457-20            00000020 835895       00250000NYMDGCATNFUCSIA                   090213
10458-20            00000020 835895       00250000NYMDGCATNFUCSIA                   090213
10458-20            00000020 836130       00264950NYMDGCATNLIBRAIRIE BUFALO         090423
10458-20            00000400 836547       00168000NYMDGELOYCORA COLMAR - HOUSSEN    090701
10458-20            00000400 836553       00168023NYMDGELOYCORA WITTENHEIM          090702
10464-01            00000080 835763       00263500NYMDGCATNDIACFA -                 090227
10464-02            00000220 835806       00263500NYMDGCATNDIACFA -                 090227
10464-08            00000260 835806       00263500NYMDGCATNDIACFA -                 090227
10464-09            00000160 835806       00263500NYMDGCATNDIACFA -                 090227
10464-13            00000160 835806       00263500NYMDGCATNDIACFA -                 090227
10464-14            00000260 835806       00263500NYMDGCATNDIACFA -                 090227
10464-20            00000020 836320       00135530NNMDGNGONCTRE LECLERC NOYAL /     090206
10464-20            00000200 835926       00263130NYMDGCATNLIBRAIRIE JEUNESSE D'    090324
10464-20            00000020 836130       00264950NYMDGCATNLIBRAIRIE BUFALO         090423
10464-20            00000020 831870       00160141NNMDGPPANSAINT-JUDIST CENTRE L    090616
10464-20            00000020 834739       00130133NNMDGCPXNANGLEDIS CENTRE LECLE    090618
10464-20            00000020 836527       00189005NNMDGNGONAUXERDIS CENTRE LECLE    090618
10464-20            00000020 836529       00158049NNMDGNGONDECIZE DISTR CTRE LEC    090618
10464-20            00000040 833507       00185149NNMDGCPXNSODIROCHE CENTRE LECL    090619
10464-20            00000100 835987       00144144NNMDGCPXNSODIRETZ CENTRE LECLE    090619
10464-20            00000040 834729       00130133NNMDGCPXNANGLEDIS CENTRE LECLE    090623
10464-20            00000060 836461       00192304NNMDGCPXYLEVALLOIS EXPLOITATIO    090623
10464-20            00000020 833041       00142063NNMDGCPXNANDREZIEUX DIST.CTRE     090629
10464-20            00000020 833538       00147250NNMDGCPXNCENTRE LECLERC MARMAN    090629
10464-20            00000080 833915       00104004NNMDGCPXNSODIALPES CENTRE LECL    090629
10464-20            00000040 834203       00146034NNMDGCPXNSOCAPDIS CENTRE LECLE    090629
10464-20            00000020 833628       00113256NNMDGCPXNSODISTRES CENTRE LECL    090630
10464-20            00000240 836198       00184500NNMDGCPXNBOLDIS CENTRE LECLERC    090702
10464-20            00000060 833581       00113256NNMDGCPXNSODISTRES CENTRE LECL    090706
10464-20            00000060 834019       00126249NNMDGCPXNLOUIS ROUDAUT CENTRE     090706
10464-20            00000060 834456       00133317NNMDGCPXNLANGON DISTR. CTRE LE    090707
10464-20            00000100 834902       00184185NNMDGNGONSODIVAL CENTRE LECLER    090710
10464-20            00000020 836440       00113300NNMDGNGONTUILLIERES DIS.CTRE L    090710
10464-20            00000020 833575       00142153NNMDGCPXNROADIS CENTRE LECLERC    090716
1046401S-09         00000060 836067       00193003NNMDGSYGYSPICERS                  090212
10468-08            00000260 835763       00263500NYMDGCATNDIACFA -                 090227
10468-08            00000280 836342       00272375NYMDGCATYAU PARCHEMIN             090227
10468-09            00000120 836342       00272375NYMDGCATYAU PARCHEMIN             090227
10468-20            00000020 836320       00135530NNMDGNGONCTRE LECLERC NOYAL /     090206
10468-20            00000020 836512       00144055NNMDGNGONST HERBLAIN DIST.CTR     090206
10468-20            00000020 836538       00140006NNMDGNGONADOUR DISTR. CTRE LEC    090206
10468-20            00000020 835895       00250000NYMDGCATNFUCSIA                   090213
10468-20            00000020 835194       00144190NNMDGELONCLISSON DISTR CTRE LE    090217
10468-20            00000100 835926       00263130NYMDGCATNLIBRAIRIE JEUNESSE D'    090324
10468-20            00000020 836463       00980000NYMDGCATNMERCURE INTERNATIONAL    090429
10468-20            00000040 836181       00144150NNMDGCPXNBRIANDIS CENTRE LECLE    090612
10468-20            00000020 831870       00160141NNMDGPPANSAINT-JUDIST CENTRE L    090616
10468-20            00000020 834739       00130133NNMDGCPXNANGLEDIS CENTRE LECLE    090618
10468-20            00000500 835351       00154056NNMDGELOYCORA HOUDEMONT           090618
10468-20            00000040 836527       00189005NNMDGNGONAUXERDIS CENTRE LECLE    090618
10468-20            00000080 836529       00158049NNMDGNGONDECIZE DISTR CTRE LEC    090618
10468-20            00000100 833507       00185149NNMDGCPXNSODIROCHE CENTRE LECL    090619
10468-20            00000080 835987       00144144NNMDGCPXNSODIRETZ CENTRE LECLE    090619
10468-20            00000140 835969       00161054NNMDGCPXNARGENTAN DISTR.CTRE L    090622
10468-20            00000060 834729       00130133NNMDGCPXNANGLEDIS CENTRE LECLE    090623
10468-20            00000060 836461       00192304NNMDGCPXYLEVALLOIS EXPLOITATIO    090623
10468-20            00000200 834575       00184114NNMDGCPXNAUZON VENTOUX CENTRE     090625
10468-20            00000020 833538       00147250NNMDGCPXNCENTRE LECLERC MARMAN    090629
10468-20            00000100 833915       00104004NNMDGCPXNSODIALPES CENTRE LECL    090629
10468-20            00000020 834203       00146034NNMDGCPXNSOCAPDIS CENTRE LECLE    090629
10468-20            00000040 836177       00135530NNMDGCPXNCTRE LECLERC NOYAL /     090630
10468-20            00000020 836375       00113601NNMDGCPXNSALONDIS CENTRE LECLE    090630
10468-20            00000040 832691       00141029NNMDGCPXNSOBLEDIS CENTRE LECLE    090701
10468-20            00000080 834369       00106210NNMDGCPXNNIKAIADIS II CENTRE L    090701
10468-20            00000080 835977       00114117NNMDGCPXNHONFLEUR DISTR.CTRE L    090701
10468-20            00000060 835171       00133315NNMDGCPXNHYPER COSMOS CENTRE L    090702
10468-20            00000140 836198       00184500NNMDGCPXNBOLDIS CENTRE LECLERC    090702
10468-20            00000300 835909       00167025NNMDGELOYCORA STRASBOURG          090703
10468-20            00000100 834019       00126249NNMDGCPXNLOUIS ROUDAUT CENTRE     090706
10468-20            00000060 834456       00133317NNMDGCPXNLANGON DISTR. CTRE LE    090707
10468-20            00000060 834902       00184185NNMDGNGONSODIVAL CENTRE LECLER    090710
10468-20            00000040 836440       00113300NNMDGNGONTUILLIERES DIS.CTRE L    090710
10468-20            00000140 836377       00113601NNMDGCPXNSALONDIS CENTRE LECLE    090724
10468-20            00000140 835861       00113601NNMDGCPXNSALONDIS CENTRE LECLE    090814
10468S-20           00000020 835590       00193003NNMDGSYGYSPICERS                  090206
1046801S-08         00000020 835590       00193003NNMDGSYGYSPICERS                  090206
10476C-13           00000010 835738       00191017NNMDGS02YCORPORATE EXPRESS FRA    090209
10476C-14           00000010 835738       00191017NNMDGS02YCORPORATE EXPRESS FRA    090209
10476C-20           00000010 836441       00184000NNMDGCPXNAVIROC CENTRE LECLERC    090206
10476C-20           00000010 836535       00140026NNMDGNGONPLAGECO CENTRE LECLER    090206
10476C-20           00000010 836559       00133283NNMDGAGANSODICAR CENTRE LECLER    090206
10476C-20           00000010 836606       00192304NNMDGNGONLEVALLOIS EXPLOITATIO    090206
10476C-20           00000010 836608       00163562NNMDGSYTYLES VOLCANS              090209
10476C-20           00000010 836632       00138078NNMDGNGONECHIROLLES DIST.CTRE     090210
10476C-20           00000030 836567       00198635NNMDGSYTNBHV RIVOLI               090213
10476C-20           00000010 836130       00264950NYMDGCATNLIBRAIRIE BUFALO         090423
10476C-20           00000010 834170       00103005NNMDGCPXNMARAIS DIS SA CENTRE     090610
10476C-20           00000020 832907       00156145NNMDGCPXNVADIS CENTRE LECLERC     090618
10476C-20           00000010 834739       00130133NNMDGCPXNANGLEDIS CENTRE LECLE    090618
10476C-20           00000010 835357       00118024NNMDGNGONBOURGES DISTR CTRE LE    090618
10476C-20           00000030 836527       00189005NNMDGNGONAUXERDIS CENTRE LECLE    090618
10476C-20           00000030 836529       00158049NNMDGNGONDECIZE DISTR CTRE LEC    090618
10476C-20           00000050 833507       00185149NNMDGCPXNSODIROCHE CENTRE LECL    090619
10476C-20           00000060 836192       00182000NNMDGCPXNSODIBAG CENTRE LECLER    090619
10476C-20           00000050 834729       00130133NNMDGCPXNANGLEDIS CENTRE LECLE    090623
10476C-20           00000020 833341       00150500NNMDGCPXYPEVILDIS CENTRE LECLE    090626
10476C-20           00000030 836499       00185057NNMDGNGONSODIVARDIERE CENTRE L    090626
10476C-20           00000020 833538       00147250NNMDGCPXNCENTRE LECLERC MARMAN    090629
10476C-20           00000050 833915       00104004NNMDGCPXNSODIALPES CENTRE LECL    090629
10476C-20           00000050 834203       00146034NNMDGCPXNSOCAPDIS CENTRE LECLE    090629
10476C-20           00000010 833628       00113256NNMDGCPXNSODISTRES CENTRE LECL    090630
10476C-20           00000010 836375       00113601NNMDGCPXNSALONDIS CENTRE LECLE    090630
10476C-20           00000010 833629       00113274NNMDGCPXNCENTRE LECLERC MARSEI    090701
10476C-20           00000050 834369       00106210NNMDGCPXNNIKAIADIS II CENTRE L    090701
10476C-20           00000010 836380       00183044NNMDGCPXNSODILUC CENTRE LECLER    090701
10476C-20           00000060 835171       00133315NNMDGCPXNHYPER COSMOS CENTRE L    090702
10476C-20           00000060 835365       00181069NNMDGNGONLAVIDA CENTRE LECLERC    090702
10476C-20           00000070 833581       00113256NNMDGCPXNSODISTRES CENTRE LECL    090706
10476C-20           00000030 835176       00185170NNMDGNGONOUDAIRIDIS CENTRE LEC    090706
10476C-20           00000030 833573       00113274NNMDGCPXNCENTRE LECLERC MARSEI    090707
10476C-20           00000120 834456       00133317NNMDGCPXNLANGON DISTR. CTRE LE    090707
10476C-20           00000020 836440       00113300NNMDGNGONTUILLIERES DIS.CTRE L    090710
10476C-20           00000030 835354       00183044NNMDGCPXNSODILUC CENTRE LECLER    090715
10476C-20           00000010 836452       00106111NNMDGCPXYMELHODI CENTRE LECLER    090722
10476C-20           00000030 836377       00113601NNMDGCPXNSALONDIS CENTRE LECLE    090724
10476C-20           00000030 836435       00106111NNMDGCPXYMELHODI CENTRE LECLER    090804
10476C-20           00000020 835861       00113601NNMDGCPXNSALONDIS CENTRE LECLE    090814
10479C-03           00000040 836292       00191017NNMDGS02YCORPORATE EXPRESS FRA    090213
10479C-08           00000010 835738       00191017NNMDGS02YCORPORATE EXPRESS FRA    090209
10479C-09           00000030 835738       00191017NNMDGS02YCORPORATE EXPRESS FRA    090209
10479C-13           00000010 835738       00191017NNMDGS02YCORPORATE EXPRESS FRA    090209
10479C-14           00000010 834026       00182067NNMDGSYGYDIFPAP                   090206
10479C-20           00000010 835190       00127110NNMDGAGANS.D.E. CENTRE LECLERC    090206
10479C-20           00000060 836412       00133145NNMDGAGANCARREFOUR HYPERMARCHE    090206
10479C-20           00000130 836413       00102999NNMDGAGANCARREFOUR HYPERMARCHE    090206
10479C-20           00000010 836441       00184000NNMDGCPXNAVIROC CENTRE LECLERC    090206
10479C-20           00000010 836512       00144055NNMDGNGONST HERBLAIN DIST.CTR     090206
10479C-20           00000010 836535       00140026NNMDGNGONPLAGECO CENTRE LECLER    090206
10479C-20           00000010 836559       00133283NNMDGAGANSODICAR CENTRE LECLER    090206
10479C-20           00000010 836586       00180118NNMDGNGONSODIDIER (SCI DU BOUL    090206
10479C-20           00000020 836606       00192304NNMDGNGONLEVALLOIS EXPLOITATIO    090206
10479C-20           00000010 836546       00150015NNMDGJMONAGNEAUX DISTR CTRE LE    090209
10479C-20           00000010 836632       00138078NNMDGNGONECHIROLLES DIST.CTRE     090210
10479C-20           00000020 836567       00198635NNMDGSYTNBHV RIVOLI               090213
10479C-20           00000010 836650       00130098NYMDGS03YLIB-PAP. GOYARD          090430
10479C-20           00000010 834170       00103005NNMDGCPXNMARAIS DIS SA CENTRE     090610
10479C-20           00000040 832579       00176173NNMDGPPANCITADIS CENTRE LECLER    090611
10479C-20           00000130 835192       00176055NNMDGNGONSODISRO CENTRE LECLER    090612
10479C-20           00000020 836066       00135097NNMDGCPXNSODIRENNES CENTRE LEC    090616
10479C-20           00000030 833501       00179061NNMDGCPXNTHOUARS DISTR CTRE LE    090617
10479C-20           00000060 833511       00114129NNMDGCPXNLISIEUX DISTR.CTRE LE    090617
10479C-20           00000020 832907       00156145NNMDGCPXNVADIS CENTRE LECLERC     090618
10479C-20           00000100 833189       00114200NNMDGCPXNVAUDRY DISTR. CTRE LE    090618
10479C-20           00000010 834739       00130133NNMDGCPXNANGLEDIS CENTRE LECLE    090618
10479C-20           00000010 835357       00118024NNMDGNGONBOURGES DISTR CTRE LE    090618
10479C-20           00000050 835996       00152100NNMDGCPXNSO.DI.BRAG CENTRE LEC    090618
10479C-20           00000030 836527       00189005NNMDGNGONAUXERDIS CENTRE LECLE    090618
10479C-20           00000020 836529       00158049NNMDGNGONDECIZE DISTR CTRE LEC    090618
10479C-20           00000050 833495       00185503NNMDGCPXNHERBIDIS CENTRE LECLE    090619
10479C-20           00000040 833507       00185149NNMDGCPXNSODIROCHE CENTRE LECL    090619
10479C-20           00000020 834892       00195250NNMDGNGONGONESDIS                 090619
10479C-20           00000060 835973       00150015NNMDGCPXNAGNEAUX DISTR CTRE LE    090619
10479C-20           00000010 835987       00144144NNMDGCPXNSODIRETZ CENTRE LECLE    090619
10479C-20           00000070 836192       00182000NNMDGCPXNSODIBAG CENTRE LECLER    090619
10479C-20           00000060 833101       00181070NNMDGCPXNGAILLAC DISTRIB.CTRE     090622
10479C-20           00000060 835969       00161054NNMDGCPXNARGENTAN DISTR.CTRE L    090622
10479C-20           00000080 834729       00130133NNMDGCPXNANGLEDIS CENTRE LECLE    090623
10479C-20           00000100 833556       00111000NNMDGCPXNT.P.L.M.CENTRE LECLER    090624
10479C-20           00000010 833077       00147122NNMDGCPXNST PIERRE DIST.CTR LE    090625
10479C-20           00000010 835633       00106601NYMDGSYTYPRIVAT SORBONNE-ANTIB    090625
10479C-20           00000020 833341       00150500NNMDGCPXYPEVILDIS CENTRE LECLE    090626
10479C-20           00000030 836499       00185057NNMDGNGONSODIVARDIERE CENTRE L    090626
10479C-20           00000030 832575       00176215NNMDGPPANYVETODIS CENTRE LECLE    090629
10479C-20           00000010 833499       00133319NNMDGCPXNPESSAC DISTR. CTRE LE    090629
10479C-20           00000010 833538       00147250NNMDGCPXNCENTRE LECLERC MARMAN    090629
10479C-20           00000060 833915       00104004NNMDGCPXNSODIALPES CENTRE LECL    090629
10479C-20           00000040 834203       00146034NNMDGCPXNSOCAPDIS CENTRE LECLE    090629
10479C-20           00000100 832676       00179118NNMDGCPXNBOCAGE DISTR CTRE LEC    090630
10479C-20           00000010 833628       00113256NNMDGCPXNSODISTRES CENTRE LECL    090630
10479C-20           00000030 834008       00183499NNMDGCPXNLA SEYDIS CENTRE LECL    090630
10479C-20           00000020 834013       00128016NNMDGCPXNSODICHAR CENTRE LECLE    090630
10479C-20           00000020 834811       00149009NNMDGNGONLECLERC BRISSAC          090630
10479C-20           00000020 835817       00126255NNMDGNGONROMANDIS CENTRE LECLE    090630
10479C-20           00000020 835847       00150017NNMDGNGONDIST L'AVRANCHIN C. L    090630
10479C-20           00000030 836002       00111107NNMDGCPXNLIMOUX DISTR. CTRE LE    090630
10479C-20           00000010 836375       00113601NNMDGCPXNSALONDIS CENTRE LECLE    090630
10479C-20           00000080 833095       00161023NNMDGCPXNFERMADIS CENTRE LECLE    090701
10479C-20           00000030 833533       00166044NNMDGCPXNVERNET DIS               090701
10479C-20           00000010 833629       00113274NNMDGCPXNCENTRE LECLERC MARSEI    090701
10479C-20           00000040 834369       00106210NNMDGCPXNNIKAIADIS II CENTRE L    090701
10479C-20           00000010 836380       00183044NNMDGCPXNSODILUC CENTRE LECLER    090701
10479C-20           00000070 835171       00133315NNMDGCPXNHYPER COSMOS CENTRE L    090702
10479C-20           00000030 835365       00181069NNMDGNGONLAVIDA CENTRE LECLERC    090702
10479C-20           00000020 832678       00185148NNMDGCPXNSODINOVE CENTRE LECLE    090703
10479C-20           00000060 833159       00114058NNMDGCPXNSOBADIS CENTRE LECLER    090703
10479C-20           00000020 833329       00149180NNMDGCPXNCHEMILLE DIST CTRE LE    090703
10479C-20           00000020 834531       00153008NNMDGCPXNAZEDIS CENTRE LECLERC    090703
10479C-20           00000040 832684       00114132NNMDGCPXNTOUQUES DISTR CTRE LE    090706
10479C-20           00000090 833581       00113256NNMDGCPXNSODISTRES CENTRE LECL    090706
10479C-20           00000030 835176       00185170NNMDGNGONOUDAIRIDIS CENTRE LEC    090706
10479C-20           00000070 833573       00113274NNMDGCPXNCENTRE LECLERC MARSEI    090707
10479C-20           00000100 834456       00133317NNMDGCPXNLANGON DISTR. CTRE LE    090707
10479C-20           00000080 833497       00185900NNMDGCPXNSODILONNE CENTRE LECL    090708
10479C-20           00000040 836440       00113300NNMDGNGONTUILLIERES DIS.CTRE L    090710
10479C-20           00000020 832903       00128017NNMDGCPXNAVREDIS CENTRE LECLER    090715
10479C-20           00000030 833186       00150018NNMDGCPXNCOUTANCES DISTR.CTRE     090715
10479C-20           00000020 833234       00135400NNMDGCPXNSAINT MALO DIST.CTRE     090715
10479C-20           00000050 835354       00183044NNMDGCPXNSODILUC CENTRE LECLER    090715
10479C-20           00000040 835172       00133283NNMDGNGONSODICAR CENTRE LECLER    090716
10479C-20           00000010 836452       00106111NNMDGCPXYMELHODI CENTRE LECLER    090722
10479C-20           00000010 835625       00122060NNMDGNGONPAIMPOLDIS CENTRE LEC    090723
10479C-20           00000070 836377       00113601NNMDGCPXNSALONDIS CENTRE LECLE    090724
10479C-20           00000070 836435       00106111NNMDGCPXYMELHODI CENTRE LECLER    090804
10479C-20           00000060 835861       00113601NNMDGCPXNSALONDIS CENTRE LECLE    090814
14100501            00000300 836626       00003990NNMDGISANELBA OFFICE PRODUCTS     090213
14300501            00000500 829387       00374100NYMDGCATNSELECT REUNION BURO S    090212
14300501            00000200 836626       00003990NNMDGISANELBA OFFICE PRODUCTS     090213
171804-20           00000050 836279       00127016NNMDGSYGNRP DIFFUSION VR AUBEV    090206
171804-20           00000050 836587       00159381NNMDGSYTNLE FURET DU NORD LILL    090206
171804-20           00000050 836608       00163562NNMDGSYTYLES VOLCANS              090209
171804-20           00000050 836626       00003990NNMDGISANELBA OFFICE PRODUCTS     090213
171804-20           00000250 835865       00462040NYMDGCATNLIBRAIRIE ANTILLAISE     090415
171804-20           00000050 835966       00106602NNMDGSYTYPRIVAT SORBONNE-NICE     090504
171804-20           00000050 835638       00106603NYMDGSYTYPRIVAT SORBONNE-CANNE    090506
171804-20           00000050 830749       00175003NNMDGJOSNLAMARTINE                090722
172008-20           00000020 836451       00175306NNMDGJOSYGIBERT JOSEPH VITRY      090206
172008-20           00000020 836567       00198635NNMDGSYTNBHV RIVOLI               090213
172008-20           00000120 835865       00462040NYMDGCATNLIBRAIRIE ANTILLAISE     090415
181020-20           00000005 835190       00127110NNMDGAGANS.D.E. CENTRE LECLERC    090206
181020-20           00000005 836118       00151139NNMDGCPXNSCAPEST                  090206
181020-20           00000005 835194       00144190NNMDGELONCLISSON DISTR CTRE LE    090217
181020-20           00000010 831870       00160141NNMDGPPANSAINT-JUDIST CENTRE L    090616
181020-20           00000010 833511       00114129NNMDGCPXNLISIEUX DISTR.CTRE LE    090617
181020-20           00000005 836529       00158049NNMDGNGONDECIZE DISTR CTRE LEC    090618
181020-20           00000005 833101       00181070NNMDGCPXNGAILLAC DISTRIB.CTRE     090622
181020-20           00000005 833556       00111000NNMDGCPXNT.P.L.M.CENTRE LECLER    090624
181020-20           00000005 833077       00147122NNMDGCPXNST PIERRE DIST.CTR LE    090625
181020-20           00000010 833499       00133319NNMDGCPXNPESSAC DISTR. CTRE LE    090629
181020-20           00000010 833538       00147250NNMDGCPXNCENTRE LECLERC MARMAN    090629
181020-20           00000010 833915       00104004NNMDGCPXNSODIALPES CENTRE LECL    090629
181020-20           00000005 834203       00146034NNMDGCPXNSOCAPDIS CENTRE LECLE    090629
181020-20           00000005 836375       00113601NNMDGCPXNSALONDIS CENTRE LECLE    090630
181020-20           00000005 833629       00113274NNMDGCPXNCENTRE LECLERC MARSEI    090701
181020-20           00000005 835365       00181069NNMDGNGONLAVIDA CENTRE LECLERC    090702
181020-20           00000010 832684       00114132NNMDGCPXNTOUQUES DISTR CTRE LE    090706
181020-20           00000005 833573       00113274NNMDGCPXNCENTRE LECLERC MARSEI    090707
181020-20           00000005 834456       00133317NNMDGCPXNLANGON DISTR. CTRE LE    090707
181020-20           00000010 836440       00113300NNMDGNGONTUILLIERES DIS.CTRE L    090710
181020-20           00000010 832903       00128017NNMDGCPXNAVREDIS CENTRE LECLER    090715
181020-20           00000005 836377       00113601NNMDGCPXNSALONDIS CENTRE LECLE    090724
181300-17           00000002 836279       00127016NNMDGSYGNRP DIFFUSION VR AUBEV    090206
181300-17           00000001 836586       00180118NNMDGNGONSODIDIER (SCI DU BOUL    090206
181300-17           00000001 836555       00116086NNMDGNGONSODIBA CENTRE LECLERC    090209
181300-17           00000001 827982       00106601NNMDGSYTYPRIVAT SORBONNE-ANTIB    090225
181300-17           00000001 836463       00980000NYMDGCATNMERCURE INTERNATIONAL    090429
181300-17           00000001 834864       00103800NNMDGJOSYCOTE PAPIER              090504
181300-17           00000001 835966       00106602NNMDGSYTYPRIVAT SORBONNE-NICE     090504
181300-17           00000001 831036       00174016NNMDGSYAYABAC TECHNIC BUREAU      090506
181300-17           00000001 835633       00106601NYMDGSYTYPRIVAT SORBONNE-ANTIB    090625
181300-17           00000001 835332       00173012NNMDGJOSYLIBRAIRIE DES BAUGES     090709
181310-17           00000010 836118       00151139NNMDGCPXNSCAPEST                  090206
181310-17           00000050 836279       00127016NNMDGSYGNRP DIFFUSION VR AUBEV    090206
181310-17           00000010 836428       00185900NNMDGCPXNSODILONNE CENTRE LECL    090206
181310-17           00000010 836441       00184000NNMDGCPXNAVIROC CENTRE LECLERC    090206
181310-17           00000010 836443       00184114NNMDGCPXNAUZON VENTOUX CENTRE     090206
181310-17           00000150 836451       00175306NNMDGJOSYGIBERT JOSEPH VITRY      090206
181310-17           00000010 836559       00133283NNMDGAGANSODICAR CENTRE LECLER    090206
181310-17           00000800 834587       00820051NYMDGCATNPAPETERIE AS DE TREFL    090210
181310-17           00000100 836567       00198635NNMDGSYTNBHV RIVOLI               090213
181310-17           00000450 835865       00462040NYMDGCATNLIBRAIRIE ANTILLAISE     090415
181310-17           00000010 830182       00177008NNMDGJOSYAMYOT J.                 090429
181310-17           00000020 836540       00156048NNMDGJOSYPAPETERIE LE BAYON       090505
181310-17           00000010 834197       00145007NNMDGSYTYPRIVAT LODDE - ORLEAN    090522
181325-17           00000010 836078       00175598NYMDGJOSYCEBO                     090203
181325-17           00000010 836412       00133145NNMDGAGANCARREFOUR HYPERMARCHE    090206
181325-17           00000040 836413       00102999NNMDGAGANCARREFOUR HYPERMARCHE    090206
181325-17           00000010 836428       00185900NNMDGCPXNSODILONNE CENTRE LECL    090206
181325-17           00000010 836441       00184000NNMDGCPXNAVIROC CENTRE LECLERC    090206
181325-17           00000010 836443       00184114NNMDGCPXNAUZON VENTOUX CENTRE     090206
181325-17           00000010 836559       00133283NNMDGAGANSODICAR CENTRE LECLER    090206
181325-17           00000040 836587       00159381NNMDGSYTNLE FURET DU NORD LILL    090206
181325-17           00000010 836517       00133161NYMDGS01YPAPETERIE GAMBETTA       090209
181325-17           00000180 836313       00193003NNMDGSYGYSPICERS                  090212
181325-17           00000010 830182       00177008NNMDGJOSYAMYOT J.                 090429
181325-17           00000050 835202       00114164NNMDGS03YPLEIN CIEL POINT VIRG    090430
181325-17           00000010 831036       00174016NNMDGSYAYABAC TECHNIC BUREAU      090506
181325-17           00000020 834197       00145007NNMDGSYTYPRIVAT LODDE - ORLEAN    090522
181330-17           00000600 835590       00193003NNMDGSYGYSPICERS                  090206
181330-17           00000040 836412       00133145NNMDGAGANCARREFOUR HYPERMARCHE    090206
181330-17           00000060 836413       00102999NNMDGAGANCARREFOUR HYPERMARCHE    090206
181330-17           00000010 836428       00185900NNMDGCPXNSODILONNE CENTRE LECL    090206
181330-17           00000010 836441       00184000NNMDGCPXNAVIROC CENTRE LECLERC    090206
181330-17           00000020 836443       00184114NNMDGCPXNAUZON VENTOUX CENTRE     090206
181330-17           00000010 836559       00133283NNMDGAGANSODICAR CENTRE LECLER    090206
181330-17           00000050 836587       00159381NNMDGSYTNLE FURET DU NORD LILL    090206
181330-17           00000100 836283       00169250NNMDGSYGNRP DIFFUSION - LYON      090209
181330-17           00000020 836517       00133161NYMDGS01YPAPETERIE GAMBETTA       090209
181330-17           00000010 836608       00163562NNMDGSYTYLES VOLCANS              090209
181330-17           00000010 836645       00106111NNMDGNGONMELHODI CENTRE LECLER    090209
181330-17           00000400 834587       00820051NYMDGCATNPAPETERIE AS DE TREFL    090210
181330-17           00000100 836567       00198635NNMDGSYTNBHV RIVOLI               090213
181330-17           00000010 836641       00162777NYMDGSYTYFORUM BOULOGNE/MER       090226
181330-17           00000020 829248       00159044NNMDGJOSYBASQUIN CANONNE          090319
181330-17           00000010 833071       00138073NNMDGJOSYLIBRAIRIE-PAP. BLANCH    090403
181330-17           00000500 835865       00462040NYMDGCATNLIBRAIRIE ANTILLAISE     090415
181330-17           00000010 830182       00177008NNMDGJOSYAMYOT J.                 090429
181330-17           00000100 835202       00114164NNMDGS03YPLEIN CIEL POINT VIRG    090430
181330-17           00000060 834197       00145007NNMDGSYTYPRIVAT LODDE - ORLEAN    090522
181331-17           00000250 834431       00127016NNMDGSYGNRP DIFFUSION VR AUBEV    090206
181331-17           00000850 836331       00191040NNMDGS02NJM BRUNEAU               090206
181331-17           00000050 836412       00133145NNMDGAGANCARREFOUR HYPERMARCHE    090206
181331-17           00000090 836413       00102999NNMDGAGANCARREFOUR HYPERMARCHE    090206
181331-17           00000010 836428       00185900NNMDGCPXNSODILONNE CENTRE LECL    090206
181331-17           00000010 836441       00184000NNMDGCPXNAVIROC CENTRE LECLERC    090206
181331-17           00000020 836443       00184114NNMDGCPXNAUZON VENTOUX CENTRE     090206
181331-17           00000010 836537       00140038NNMDGNGONSODILANDES CENTRE LEC    090206
181331-17           00000010 836559       00133283NNMDGAGANSODICAR CENTRE LECLER    090206
181331-17           00000060 836587       00159381NNMDGSYTNLE FURET DU NORD LILL    090206
181331-17           00000020 836608       00163562NNMDGSYTYLES VOLCANS              090209
181331-17           00000200 835221       00496710NNMDGCATNACODIS                   090210
181331-17           00000100 836567       00198635NNMDGSYTNBHV RIVOLI               090213
181331-17           00000240 836431       00191040NNMDGS02NJM BRUNEAU               090220
181331-17           00000010 829248       00159044NNMDGJOSYBASQUIN CANONNE          090319
181331-17           00000010 833071       00138073NNMDGJOSYLIBRAIRIE-PAP. BLANCH    090403
181331-17           00001500 835865       00462040NYMDGCATNLIBRAIRIE ANTILLAISE     090415
181331-17           00000010 830182       00177008NNMDGJOSYAMYOT J.                 090429
181331-17           00000080 835202       00114164NNMDGS03YPLEIN CIEL POINT VIRG    090430
181331-17           00000020 836540       00156048NNMDGJOSYPAPETERIE LE BAYON       090505
181340-17           00000005 836118       00151139NNMDGCPXNSCAPEST                  090206
181340-17           00000005 836331       00191040NNMDGS02NJM BRUNEAU               090206
181340-17           00000045 836412       00133145NNMDGAGANCARREFOUR HYPERMARCHE    090206
181340-17           00000040 836413       00102999NNMDGAGANCARREFOUR HYPERMARCHE    090206
181340-17           00000010 836428       00185900NNMDGCPXNSODILONNE CENTRE LECL    090206
181340-17           00000005 836441       00184000NNMDGCPXNAVIROC CENTRE LECLERC    090206
181340-17           00000010 836443       00184114NNMDGCPXNAUZON VENTOUX CENTRE     090206
181340-17           00000150 836451       00175306NNMDGJOSYGIBERT JOSEPH VITRY      090206
181340-17           00000010 836537       00140038NNMDGNGONSODILANDES CENTRE LEC    090206
181340-17           00000005 836559       00133283NNMDGAGANSODICAR CENTRE LECLER    090206
181340-17           00000030 836283       00169250NNMDGSYGNRP DIFFUSION - LYON      090209
181340-17           00000020 836517       00133161NYMDGS01YPAPETERIE GAMBETTA       090209
181340-17           00000005 836645       00106111NNMDGNGONMELHODI CENTRE LECLER    090209
181340-17           00000100 836567       00198635NNMDGSYTNBHV RIVOLI               090213
181340-17           00000010 836431       00191040NNMDGS02NJM BRUNEAU               090220
181340-17           00000015 829248       00159044NNMDGJOSYBASQUIN CANONNE          090319
181340-17           00000010 833071       00138073NNMDGJOSYLIBRAIRIE-PAP. BLANCH    090403
181340-17           00000200 835865       00462040NYMDGCATNLIBRAIRIE ANTILLAISE     090415
181340-17           00000020 830182       00177008NNMDGJOSYAMYOT J.                 090429
181340-17           00000050 835202       00114164NNMDGS03YPLEIN CIEL POINT VIRG    090430
181340-17           00000060 834641       00125103NNMDGS03YLIB DE L UNIVERSITE D    090511
181340-17           00000030 834197       00145007NNMDGSYTYPRIVAT LODDE - ORLEAN    090522
181341-17           00000020 836412       00133145NNMDGAGANCARREFOUR HYPERMARCHE    090206
181341-17           00000030 836413       00102999NNMDGAGANCARREFOUR HYPERMARCHE    090206
181341-17           00000010 836428       00185900NNMDGCPXNSODILONNE CENTRE LECL    090206
181341-17           00000010 836441       00184000NNMDGCPXNAVIROC CENTRE LECLERC    090206
181341-17           00000010 836443       00184114NNMDGCPXNAUZON VENTOUX CENTRE     090206
181341-17           00000010 836537       00140038NNMDGNGONSODILANDES CENTRE LEC    090206
181341-17           00000010 836559       00133283NNMDGAGANSODICAR CENTRE LECLER    090206
181341-17           00000100 836587       00159381NNMDGSYTNLE FURET DU NORD LILL    090206
181341-17           00000100 836283       00169250NNMDGSYGNRP DIFFUSION - LYON      090209
181341-17           00000010 836645       00106111NNMDGNGONMELHODI CENTRE LECLER    090209
181341-17           00000100 835221       00496710NNMDGCATNACODIS                   090210
181341-17           00000100 836567       00198635NNMDGSYTNBHV RIVOLI               090213
181341-17           00000020 836641       00162777NYMDGSYTYFORUM BOULOGNE/MER       090226
181341-17           00000010 829248       00159044NNMDGJOSYBASQUIN CANONNE          090319
181341-17           00000900 835865       00462040NYMDGCATNLIBRAIRIE ANTILLAISE     090415
181341-17           00000010 830182       00177008NNMDGJOSYAMYOT J.                 090429
181341-17           00000070 835202       00114164NNMDGS03YPLEIN CIEL POINT VIRG    090430
181341-17           00000030 834197       00145007NNMDGSYTYPRIVAT LODDE - ORLEAN    090522
181342-17           00000015 836412       00133145NNMDGAGANCARREFOUR HYPERMARCHE    090206
181342-17           00000030 836413       00102999NNMDGAGANCARREFOUR HYPERMARCHE    090206
181342-17           00000015 836428       00185900NNMDGCPXNSODILONNE CENTRE LECL    090206
181342-17           00000015 836441       00184000NNMDGCPXNAVIROC CENTRE LECLERC    090206
181342-17           00000015 836443       00184114NNMDGCPXNAUZON VENTOUX CENTRE     090206
181342-17           00000015 836537       00140038NNMDGNGONSODILANDES CENTRE LEC    090206
181342-17           00000015 836559       00133283NNMDGAGANSODICAR CENTRE LECLER    090206
181342-17           00000060 836587       00159381NNMDGSYTNLE FURET DU NORD LILL    090206
181342-17           00000105 836567       00198635NNMDGSYTNBHV RIVOLI               090213
181342-17           00000600 835865       00462040NYMDGCATNLIBRAIRIE ANTILLAISE     090415
181342-17           00000015 830182       00177008NNMDGJOSYAMYOT J.                 090429
181342-17           00000075 835202       00114164NNMDGS03YPLEIN CIEL POINT VIRG    090430
181342-17           00000045 834197       00145007NNMDGSYTYPRIVAT LODDE - ORLEAN    090522
183002-20           00000030 836274       00121601NNMDGCPXNPLATE FORME CORA LONG    090209
183002-20           00000010 836517       00133161NYMDGS01YPAPETERIE GAMBETTA       090209
183002-20           00000030 835221       00496710NNMDGCATNACODIS                   090210
183002-20           00000100 835895       00250000NYMDGCATNFUCSIA                   090213
183002-20           00000020 836567       00198635NNMDGSYTNBHV RIVOLI               090213
183002-20           00000010 833744       00179180NNMDGJOSYWESCO                    090218
183002-20           00000010 836641       00162777NYMDGSYTYFORUM BOULOGNE/MER       090226
183002-20           00000010 833071       00138073NNMDGJOSYLIBRAIRIE-PAP. BLANCH    090403
183002-20           00000250 835741       00272725NYMDGCATNLIBRAIRIE DE FRANCE G    090424
183002-20           00000010 836439       00174506NYMDGSYTNLIVRES & CO ANNEMASSE    090429
183002-20           00000020 836463       00980000NYMDGCATNMERCURE INTERNATIONAL    090429
183002-20           00000010 836650       00130098NYMDGS03YLIB-PAP. GOYARD          090430
183002-20           00000010 831093       00174305NNMDGJOSYBUREAU SERVICE           090504
183002-20           00000010 834717       00126337NNMDGSYTYLIVRES & CO BAUME        090504
183002-20           00000020 833222       00171102NNMDGSYTNMAISON DE LA PRESSE      090511
183002-20           00000030 834641       00125103NNMDGS03YLIB DE L UNIVERSITE D    090511
184002-20           00000010 833793       00162750NYMDGS01YBUREAU VALLEE BERCK      090115
184002-20           00000010 836142       00124900NNMDGS01YBUREAU VALLEE PERIGUE    090204
184002-20           00000010 835190       00127110NNMDGAGANS.D.E. CENTRE LECLERC    090206
184002-20           00000010 836118       00151139NNMDGCPXNSCAPEST                  090206
184002-20           00000020 836543       00179350NNMDGS01YBUREAU VALLEE BRESSUI    090206
184002-20           00000010 836559       00133283NNMDGAGANSODICAR CENTRE LECLER    090206
184002-20           00000020 836283       00169250NNMDGSYGNRP DIFFUSION - LYON      090209
184002-20           00000010 836517       00133161NYMDGS01YPAPETERIE GAMBETTA       090209
184002-20           00000010 836608       00163562NNMDGSYTYLES VOLCANS              090209
184002-20           00000150 834587       00820051NYMDGCATNPAPETERIE AS DE TREFL    090210
184002-20           00000100 835895       00250000NYMDGCATNFUCSIA                   090213
184002-20           00000020 836567       00198635NNMDGSYTNBHV RIVOLI               090213
184002-20           00000010 836651       00141009NNMDGNGONSORODIS CENTRE LECLER    090213
184002-20           00000010 829248       00159044NNMDGJOSYBASQUIN CANONNE          090319
184002-20           00000010 833071       00138073NNMDGJOSYLIBRAIRIE-PAP. BLANCH    090403
184002-20           00000010 836130       00264950NYMDGCATNLIBRAIRIE BUFALO         090423
184002-20           00000150 835741       00272725NYMDGCATNLIBRAIRIE DE FRANCE G    090424
184002-20           00000010 836650       00130098NYMDGS03YLIB-PAP. GOYARD          090430
184002-20           00000010 831093       00174305NNMDGJOSYBUREAU SERVICE           090504
184002-20           00000010 834864       00103800NNMDGJOSYCOTE PAPIER              090504
184002-20           00000010 831036       00174016NNMDGSYAYABAC TECHNIC BUREAU      090506
184002-20           00000020 833222       00171102NNMDGSYTNMAISON DE LA PRESSE      090511
184002-20           00000020 832907       00156145NNMDGCPXNVADIS CENTRE LECLERC     090618
184002-20           00000010 836529       00158049NNMDGNGONDECIZE DISTR CTRE LEC    090618
184002-20           00000050 833507       00185149NNMDGCPXNSODIROCHE CENTRE LECL    090619
184002-20           00000020 836461       00192304NNMDGCPXYLEVALLOIS EXPLOITATIO    090623
184002-20           00000060 836466       00193500NNMDGCPXYPANTIN DISTR CTRE LEC    090623
184002-20           00000010 833341       00150500NNMDGCPXYPEVILDIS CENTRE LECLE    090626
184002-20           00000010 833538       00147250NNMDGCPXNCENTRE LECLERC MARMAN    090629
184002-20           00000020 834203       00146034NNMDGCPXNSOCAPDIS CENTRE LECLE    090629
184002-20           00000020 832691       00141029NNMDGCPXNSOBLEDIS CENTRE LECLE    090701
184002-20           00000010 835977       00114117NNMDGCPXNHONFLEUR DISTR.CTRE L    090701
184002-20           00000010 833923       00192217NNMDGCPXNGENEDIS EXPLOIT. CTR     090702
184002-20           00000040 835171       00133315NNMDGCPXNHYPER COSMOS CENTRE L    090702
184002-20           00000010 835365       00181069NNMDGNGONLAVIDA CENTRE LECLERC    090702
184002-20           00000020 835176       00185170NNMDGNGONOUDAIRIDIS CENTRE LEC    090706
184002-20           00000030 834456       00133317NNMDGCPXNLANGON DISTR. CTRE LE    090707
184002-20           00000010 832903       00128017NNMDGCPXNAVREDIS CENTRE LECLER    090715
184002-20           00000010 835625       00122060NNMDGNGONPAIMPOLDIS CENTRE LEC    090723
190569-20           00000020 835190       00127110NNMDGAGANS.D.E. CENTRE LECLERC    090206
190569-20           00000020 836570       00149033NNMDGNGONGOURONNIERES DIST.C.L    090206
190569-20           00000200 835895       00250000NYMDGCATNFUCSIA                   090213
190569-20           00000040 836567       00198635NNMDGSYTNBHV RIVOLI               090213
190569-20           00000020 835942       00114132NNMDGCPXNTOUQUES DISTR CTRE LE    090304
190569-20           00000040 836463       00980000NYMDGCATNMERCURE INTERNATIONAL    090429
190569-20           00000100 836450       00144090NNMDGNGONPARIS DISTR. CTRE LEC    090612
190569-20           00000040 832907       00156145NNMDGCPXNVADIS CENTRE LECLERC     090618
190569-20           00000080 836466       00193500NNMDGCPXYPANTIN DISTR CTRE LEC    090623
190569-20           00000020 835633       00106601NYMDGSYTYPRIVAT SORBONNE-ANTIB    090625
190569-20           00000040 833095       00161023NNMDGCPXNFERMADIS CENTRE LECLE    090701
190569-20           00000060 836187       00153055NNMDGCPXNLAVAL DISTR. CTRE LEC    090703
190569-20           00000020 832903       00128017NNMDGCPXNAVREDIS CENTRE LECLER    090715
190569-20           00000020 835625       00122060NNMDGNGONPAIMPOLDIS CENTRE LEC    090723
202619-17           00000020 836587       00159381NNMDGSYTNLE FURET DU NORD LILL    090206
202619-17           00000600 834962       00374688NYMDGCATNRANY SARL                090211
202619-17           00000100 836567       00198635NNMDGSYTNBHV RIVOLI               090213
202619-17           00000020 829248       00159044NNMDGJOSYBASQUIN CANONNE          090319
202619-17           00000020 833071       00138073NNMDGJOSYLIBRAIRIE-PAP. BLANCH    090403
202619-17           00000240 835531       00272725NYMDGCATNLIBRAIRIE DE FRANCE G    090424
202619-17           00000060 835202       00114164NNMDGS03YPLEIN CIEL POINT VIRG    090430
202619-17           00000020 836540       00156048NNMDGJOSYPAPETERIE LE BAYON       090505
202619-17           00000040 831036       00174016NNMDGSYAYABAC TECHNIC BUREAU      090506
202619-17           00000040 835638       00106603NYMDGSYTYPRIVAT SORBONNE-CANNE    090506
202619-17           00000020 834707       00189124NNMDGS03YVOILLOT                  090518
202619-17           00000060 834197       00145007NNMDGSYTYPRIVAT LODDE - ORLEAN    090522
202619-17           00000040 835633       00106601NYMDGSYTYPRIVAT SORBONNE-ANTIB    090625
202619-17           00000020 830749       00175003NNMDGJOSNLAMARTINE                090722
207112-20           00000050 836412       00133145NNMDGAGANCARREFOUR HYPERMARCHE    090206
207112-20           00000050 836413       00102999NNMDGAGANCARREFOUR HYPERMARCHE    090206
207212-20           00000100 836412       00133145NNMDGAGANCARREFOUR HYPERMARCHE    090206
207212-20           00000500 836475       00145610NNMDGAGANC S F FRANCE SAS         090210
207212-20           00000100 836184       00135065NNMDGCPXNRENOUEST E.LECLERC CL    090612
207212-20           00000050 834013       00128016NNMDGCPXNSODICHAR CENTRE LECLE    090630
207212-20           00000050 832691       00141029NNMDGCPXNSOBLEDIS CENTRE LECLE    090701
207212-20           00000050 835176       00185170NNMDGNGONOUDAIRIDIS CENTRE LEC    090706
207530-17           00000010 836067       00193003NNMDGSYGYSPICERS                  090212
208040-17           00000080 834194       00137149NNMDGCPXNLA MONTGOLFIERE CTRE     090616
208040-17           00000080 836466       00193500NNMDGCPXYPANTIN DISTR CTRE LEC    090623
208040-17           00000400 832688       00145140NNMDGCPXNPITHIVIERS DIST.CTRE     090630
208040-17           00000160 832691       00141029NNMDGCPXNSOBLEDIS CENTRE LECLE    090701
208040-17           00000040 833923       00192217NNMDGCPXNGENEDIS EXPLOIT. CTR     090702
208041-17           00000040 836286       00138700NNMDGS01YBUREAU VALLEE BOURGOU    090206
208041-17           00000010 836543       00179350NNMDGS01YBUREAU VALLEE BRESSUI    090206
208041-17           00000010 836551       00177192NNMDGJOSYPAPETERIE DU MARCHE      090206
208041-17           00000010 836585       00185950NNMDGS01YBUREAU VALLEE LES HER    090206
208041-17           00000100 836283       00169250NNMDGSYGNRP DIFFUSION - LYON      090209
208041-17           00000010 836597       00154919NYMDGS03YBUROTIQUE 54             090209
208041-17           00000750 836067       00193003NNMDGSYGYSPICERS                  090212
208041-17           00000040 836230       00496710NNMDGCATNACODIS                   090327
208041-17           00000500 835865       00462040NYMDGCATNLIBRAIRIE ANTILLAISE     090415
208041-17           00000020 830182       00177008NNMDGJOSYAMYOT J.                 090429
208041-17           00000060 835202       00114164NNMDGS03YPLEIN CIEL POINT VIRG    090430
208041-17           00000040 836650       00130098NYMDGS03YLIB-PAP. GOYARD          090430
208041-17           00000010 831093       00174305NNMDGJOSYBUREAU SERVICE           090504
208041-17           00000020 834721       00107845NNMDGSYTYLIVRES & CO AUBENAS      090504
208041-17           00000010 834864       00103800NNMDGJOSYCOTE PAPIER              090504
208041-17           00000020 835019       00183107NNMDGJOSYPAPETERIE REMY           090504
208041-17           00000030 835835       00165410NNMDGSYTYPRIVAT LHERIS - TARBE    090504
208041-17           00000050 835966       00106602NNMDGSYTYPRIVAT SORBONNE-NICE     090504
208041-17           00000040 834848       00162312NNMDGSYAYHYPERBURO LONGUENESSE    090505
208041-17           00000010 833222       00171102NNMDGSYTNMAISON DE LA PRESSE      090511
208041-17           00000080 834641       00125103NNMDGS03YLIB DE L UNIVERSITE D    090511
208041-17           00000040 830703       00175003NNMDGJOSNLAMARTINE                090527
208041-17           00000030 836638       00162777NYMDGSYTYFORUM BOULOGNE/MER       090601
208041-17           00000040 830749       00175003NNMDGJOSNLAMARTINE                090722
208050-17           00000080 836412       00133145NNMDGAGANCARREFOUR HYPERMARCHE    090206
208050-17           00000080 836413       00102999NNMDGAGANCARREFOUR HYPERMARCHE    090206
208050-17           00000040 836537       00140038NNMDGNGONSODILANDES CENTRE LEC    090206
208050-17           00000040 836612       00149011NNMDGAGAYSA FINAMO HYPER U        090209
208050-17           00000080 836533       00145140NNMDGNGONPITHIVIERS DIST.CTRE     090210
208050-17           00000040 836181       00144150NNMDGCPXNBRIANDIS CENTRE LECLE    090612
208050-17           00000160 836450       00144090NNMDGNGONPARIS DISTR. CTRE LEC    090612
208050-17           00000040 834739       00130133NNMDGCPXNANGLEDIS CENTRE LECLE    090618
208050-17           00000040 835996       00152100NNMDGCPXNSO.DI.BRAG CENTRE LEC    090618
208050-17           00000040 833507       00185149NNMDGCPXNSODIROCHE CENTRE LECL    090619
208050-17           00000120 835987       00144144NNMDGCPXNSODIRETZ CENTRE LECLE    090619
208050-17           00000080 836192       00182000NNMDGCPXNSODIBAG CENTRE LECLER    090619
208050-17           00000040 834729       00130133NNMDGCPXNANGLEDIS CENTRE LECLE    090623
208050-17           00000080 834575       00184114NNMDGCPXNAUZON VENTOUX CENTRE     090625
208050-17           00000080 833538       00147250NNMDGCPXNCENTRE LECLERC MARMAN    090629
208050-17           00000080 833915       00104004NNMDGCPXNSODIALPES CENTRE LECL    090629
208050-17           00000080 834203       00146034NNMDGCPXNSOCAPDIS CENTRE LECLE    090629
208050-17           00000040 836375       00113601NNMDGCPXNSALONDIS CENTRE LECLE    090630
208050-17           00000080 834369       00106210NNMDGCPXNNIKAIADIS II CENTRE L    090701
208050-17           00000120 835977       00114117NNMDGCPXNHONFLEUR DISTR.CTRE L    090701
208050-17           00000040 836380       00183044NNMDGCPXNSODILUC CENTRE LECLER    090701
208050-17           00000080 835171       00133315NNMDGCPXNHYPER COSMOS CENTRE L    090702
208050-17           00000040 835365       00181069NNMDGNGONLAVIDA CENTRE LECLERC    090702
208050-17           00000040 832697       00177084NNMDGCPXNMAVIDIS CENTRE LECLER    090703
208050-17           00000080 833329       00149180NNMDGCPXNCHEMILLE DIST CTRE LE    090703
208050-17           00000040 835909       00167025NNMDGELOYCORA STRASBOURG          090703
208050-17           00000080 835176       00185170NNMDGNGONOUDAIRIDIS CENTRE LEC    090706
208050-17           00000200 834456       00133317NNMDGCPXNLANGON DISTR. CTRE LE    090707
208050-17           00000040 836440       00113300NNMDGNGONTUILLIERES DIS.CTRE L    090710
208050-17           00000040 836452       00106111NNMDGCPXYMELHODI CENTRE LECLER    090722
208050-17           00000040 836377       00113601NNMDGCPXNSALONDIS CENTRE LECLE    090724
208050-17           00000040 836435       00106111NNMDGCPXYMELHODI CENTRE LECLER    090804
208050-17           00000040 835861       00113601NNMDGCPXNSALONDIS CENTRE LECLE    090814
208673-17           00007680 831822       00302795NYMDGCATND. TSEKENIS              090224
21040201-20         00000012 831804       00302795NNSOTCATND. TSEKENIS              090225
210916-20           00000168 832737       00184995NNPTTAGANAUCHAN ENTREPOT SUD      090514
210916-20           00000132 832740       00159995NNPTTAGANAUCHAN ENTREPOT NORD     090514
210916-20           00000084 832743       00195990NNPTTAGANAUCHAN ENTREPOT PARIS    090514
22111610-20         00000048 831804       00302795NNSOTCATND. TSEKENIS              090225
22114710-20         00000024 828776       00314900NNSOTCATNIPC LA MAISON DE LA P    090225
227510-17           00000030 833793       00162750NYMDGS01YBUREAU VALLEE BERCK      090115
227510-17           00000030 834906       00182067NNMDGSYGYDIFPAP                   090206
227510-17           00000030 835190       00127110NNMDGAGANS.D.E. CENTRE LECLERC    090206
227510-17           00000360 835590       00193003NNMDGSYGYSPICERS                  090206
227510-17           00000090 836118       00151139NNMDGCPXNSCAPEST                  090206
227510-17           00000030 836443       00184114NNMDGCPXNAUZON VENTOUX CENTRE     090206
227510-17           00000030 836570       00149033NNMDGNGONGOURONNIERES DIST.C.L    090206
227510-17           00000060 834587       00820051NYMDGCATNPAPETERIE AS DE TREFL    090210
227510-17           00000060 836567       00198635NNMDGSYTNBHV RIVOLI               090213
227510-17           00000030 835942       00114132NNMDGCPXNTOUQUES DISTR CTRE LE    090304
227510-17           00000060 835966       00106602NNMDGSYTYPRIVAT SORBONNE-NICE     090504
227510-17           00000030 835638       00106603NYMDGSYTYPRIVAT SORBONNE-CANNE    090506
227510-17           00000030 836638       00162777NYMDGSYTYFORUM BOULOGNE/MER       090601
227510-17           00000060 832907       00156145NNMDGCPXNVADIS CENTRE LECLERC     090618
227510-17           00000090 835987       00144144NNMDGCPXNSODIRETZ CENTRE LECLE    090619
227510-17           00000150 836466       00193500NNMDGCPXYPANTIN DISTR CTRE LEC    090623
227510-17           00000060 835633       00106601NYMDGSYTYPRIVAT SORBONNE-ANTIB    090625
227510-17           00000030 833915       00104004NNMDGCPXNSODIALPES CENTRE LECL    090629
227510-17           00000060 832908       00177100NNMDGCPXNSODIMEAUX CENTRE LECL    090630
227510-17           00000030 833628       00113256NNMDGCPXNSODISTRES CENTRE LECL    090630
227510-17           00000060 835817       00126255NNMDGNGONROMANDIS CENTRE LECLE    090630
227510-17           00000060 835171       00133315NNMDGCPXNHYPER COSMOS CENTRE L    090702
227510-17           00000030 836440       00113300NNMDGNGONTUILLIERES DIS.CTRE L    090710
227530-17           00000010 836587       00159381NNMDGSYTNLE FURET DU NORD LILL    090206
227530-17           00000120 836343       00022250NNMDGISANELBA LTD                 090213
227530-17           00000030 836567       00198635NNMDGSYTNBHV RIVOLI               090213
227530-17           00000100 836453       00004006NNMDGISANELBA GMBH                090218
230005-20           00000072 831804       00302795NNSOTCATND. TSEKENIS              090225
231028-20           00000024 828776       00314900NNSOTCATNIPC LA MAISON DE LA P    090225
231028-20           00000072 831804       00302795NNSOTCATND. TSEKENIS              090225
231122-20           00000072 831804       00302795NNSOTCATND. TSEKENIS              090225
231123-20           00000024 832280       00318600NNSOTCATNLIBRAIRIE PAILLET        090218
231123-20           00000264 831803       00314268NNSOTCATNGABON MECA               090224
231123-20           00000024 833326       00980000NNSOTCATYMERCURE INTERNATIONAL    090427
231123-20           00000048 832105       00980000NNSOTCATNMERCURE INTERNATIONAL    090428
231123-20           00000072 835560       00980000NYSOTCATNMERCURE INTERNATIONAL    090430
231143-20           00000048 831804       00302795NNSOTCATND. TSEKENIS              090225
231169-20           00000024 828776       00314900NNSOTCATNIPC LA MAISON DE LA P    090225
231169-20           00000048 831804       00302795NNSOTCATND. TSEKENIS              090225
232491-20           00000216 832737       00184995NNPTTAGANAUCHAN ENTREPOT SUD      090514
232491-20           00000120 832740       00159995NNPTTAGANAUCHAN ENTREPOT NORD     090514
232491-20           00000102 832743       00195990NNPTTAGANAUCHAN ENTREPOT PARIS    090514
242199-20           00000100 836118       00151139NNMDGCPXNSCAPEST                  090206
242199-20           00000025 836428       00185900NNMDGCPXNSODILONNE CENTRE LECL    090206
242199-20           00000025 836559       00133283NNMDGAGANSODICAR CENTRE LECLER    090206
242199-20           00000025 836274       00121601NNMDGCPXNPLATE FORME CORA LONG    090209
242199-20           00000125 836472       00128701NNMDGAGAYSCA LOISIRS ET ARTS M    090209
242199-20           00000025 836534       00140026NNEURNGONPLAGECO CENTRE LECLER    090209
242199-20           00000025 835193       00144190NNEURELONCLISSON DISTR CTRE LE    090217
243554-20           00000360 832737       00184995NNPTTAGANAUCHAN ENTREPOT SUD      090514
243554-20           00000672 832740       00159995NNPTTAGANAUCHAN ENTREPOT NORD     090514
243554-20           00000360 832743       00195990NNPTTAGANAUCHAN ENTREPOT PARIS    090514
253285-20           00000000 835189       00127110NNEURAGANS.D.E. CENTRE LECLERC    090206
253285-20           00000000 836536       00140038NNEURNGONSODILANDES CENTRE LEC    090206
253285-20           00000000 836569       00149033NNEURNGONGOURONNIERES DIST.C.L    090206
253285-20           00000200 832602       00003990NNEURISANELBA OFFICE PRODUCTS     090311
253285-20           00000050 831642       00127016NNEU2SYGNRP DIFFUSION VR AUBEV    090402
253285-20           00000025 835599       00142104NNEURSYTYFORUM ROANNE             090402
253285-20           00000025 831340       00129091NNEU2SYAYHYPERBURO BREST          090403
253285-20           00000050 834542       00496710NNEURCATNACODIS                   090416
253285-20           00000025 828468       00149004NNEU2S03YA.B.G.                   090429
253285-20           00000025 836513       00156049NNEURS03YLE BAYON                 090429
253285-20           00000025 829107       00171301NNEU2JOSYWALPI                    090504
253285-20           00000025 830234       00156902NNEU2SYTYFORUM PRIVAT LORIENT     090504
253285-20           00000025 836317       00173211NNEURSYAYHYPERBURO CHAMBERY       090504
253285-20           00000025 829227       00119096NNEU2JOSYAU PAPYRUS               090505
253285-20           00000025 835758       00138067NNEURS03YMAJOLIRE                 090505
